{
  "contractName": "Controllable",
  "abi": [
    {
      "inputs": [
        {
          "internalType": "address",
          "name": "p",
          "type": "address"
        }
      ],
      "stateMutability": "nonpayable",
      "type": "constructor"
    },
    {
      "anonymous": false,
      "inputs": [
        {
          "indexed": false,
          "internalType": "address",
          "name": "p",
          "type": "address"
        },
        {
          "indexed": false,
          "internalType": "uint256",
          "name": "amount",
          "type": "uint256"
        }
      ],
      "name": "Burn",
      "type": "event"
    },
    {
      "anonymous": false,
      "inputs": [
        {
          "indexed": false,
          "internalType": "address",
          "name": "p",
          "type": "address"
        },
        {
          "indexed": false,
          "internalType": "uint256",
          "name": "amount",
          "type": "uint256"
        }
      ],
      "name": "ControllerRedeem",
      "type": "event"
    },
    {
      "anonymous": false,
      "inputs": [
        {
          "indexed": false,
          "internalType": "address",
          "name": "from",
          "type": "address"
        },
        {
          "indexed": false,
          "internalType": "address",
          "name": "to",
          "type": "address"
        },
        {
          "indexed": false,
          "internalType": "uint256",
          "name": "amount",
          "type": "uint256"
        }
      ],
      "name": "ControllerTransfer",
      "type": "event"
    },
    {
      "anonymous": false,
      "inputs": [
        {
          "indexed": false,
          "internalType": "address",
          "name": "p",
          "type": "address"
        },
        {
          "indexed": false,
          "internalType": "address",
          "name": "s",
          "type": "address"
        },
        {
          "indexed": false,
          "internalType": "uint256",
          "name": "n",
          "type": "uint256"
        }
      ],
      "name": "IncreaseAllowance",
      "type": "event"
    },
    {
      "anonymous": false,
      "inputs": [
        {
          "indexed": false,
          "internalType": "address",
          "name": "p",
          "type": "address"
        },
        {
          "indexed": false,
          "internalType": "uint256",
          "name": "amount",
          "type": "uint256"
        }
      ],
      "name": "Mint",
      "type": "event"
    },
    {
      "anonymous": false,
      "inputs": [
        {
          "indexed": false,
          "internalType": "address",
          "name": "from",
          "type": "address"
        },
        {
          "indexed": false,
          "internalType": "address",
          "name": "to",
          "type": "address"
        },
        {
          "indexed": false,
          "internalType": "uint256",
          "name": "amount",
          "type": "uint256"
        }
      ],
      "name": "Transfer",
      "type": "event"
    },
    {
      "anonymous": false,
      "inputs": [
        {
          "indexed": false,
          "internalType": "address",
          "name": "from",
          "type": "address"
        },
        {
          "indexed": false,
          "internalType": "address",
          "name": "to",
          "type": "address"
        },
        {
          "indexed": false,
          "internalType": "address",
          "name": "spender",
          "type": "address"
        },
        {
          "indexed": false,
          "internalType": "uint256",
          "name": "amount",
          "type": "uint256"
        }
      ],
      "name": "TransferFrom",
      "type": "event"
    },
    {
      "inputs": [
        {
          "internalType": "address",
          "name": "s",
          "type": "address"
        },
        {
          "internalType": "uint256",
          "name": "n",
          "type": "uint256"
        }
      ],
      "name": "approve",
      "outputs": [],
      "stateMutability": "nonpayable",
      "type": "function"
    },
    {
      "inputs": [
        {
          "internalType": "address",
          "name": "from",
          "type": "address"
        },
        {
          "internalType": "address",
          "name": "to",
          "type": "address"
        },
        {
          "internalType": "uint256",
          "name": "amount",
          "type": "uint256"
        }
      ],
      "name": "transferFrom",
      "outputs": [],
      "stateMutability": "nonpayable",
      "type": "function"
    },
    {
      "inputs": [],
      "name": "getTotalSupply",
      "outputs": [
        {
          "internalType": "uint256",
          "name": "",
          "type": "uint256"
        }
      ],
      "stateMutability": "view",
      "type": "function"
    },
    {
      "inputs": [
        {
          "internalType": "address",
          "name": "p",
          "type": "address"
        },
        {
          "internalType": "address",
          "name": "s",
          "type": "address"
        }
      ],
      "name": "getAllowance",
      "outputs": [
        {
          "internalType": "uint256",
          "name": "",
          "type": "uint256"
        }
      ],
      "stateMutability": "view",
      "type": "function"
    },
    {
      "inputs": [
        {
          "internalType": "address",
          "name": "p",
          "type": "address"
        },
        {
          "internalType": "uint256",
          "name": "amount",
          "type": "uint256"
        }
      ],
      "name": "burn",
      "outputs": [],
      "stateMutability": "nonpayable",
      "type": "function"
    },
    {
      "inputs": [
        {
          "internalType": "address",
          "name": "p",
          "type": "address"
        },
        {
          "internalType": "uint256",
          "name": "amount",
          "type": "uint256"
        }
      ],
      "name": "mint",
      "outputs": [],
      "stateMutability": "nonpayable",
      "type": "function"
    },
    {
      "inputs": [
        {
          "internalType": "address",
          "name": "p",
          "type": "address"
        },
        {
          "internalType": "uint256",
          "name": "amount",
          "type": "uint256"
        }
      ],
      "name": "controllerRedeem",
      "outputs": [],
      "stateMutability": "nonpayable",
      "type": "function"
    },
    {
      "inputs": [
        {
          "internalType": "address",
          "name": "to",
          "type": "address"
        },
        {
          "internalType": "uint256",
          "name": "amount",
          "type": "uint256"
        }
      ],
      "name": "transfer",
      "outputs": [],
      "stateMutability": "nonpayable",
      "type": "function"
    },
    {
      "inputs": [
        {
          "internalType": "address",
          "name": "p",
          "type": "address"
        }
      ],
      "name": "getBalanceOf",
      "outputs": [
        {
          "internalType": "uint256",
          "name": "",
          "type": "uint256"
        }
      ],
      "stateMutability": "view",
      "type": "function"
    }
  ],
  "bytecode": "0x60806040523480156200001157600080fd5b5060405162001c3d38038062001c3d833981810160405281019062000037919062000274565b620000476200007f60201b60201c565b620000576200012160201b60201c565b620000676200016b60201b60201c565b62000078816200016d60201b60201c565b50620002a6565b600033905060405180604001604052808273ffffffffffffffffffffffffffffffffffffffff16815260200160011515815250600360008201518160000160006101000a81548173ffffffffffffffffffffffffffffffffffffffff021916908373ffffffffffffffffffffffffffffffffffffffff16021790555060208201518160000160146101000a81548160ff02191690831515021790555090505050565b6040518060400160405280600081526020016001151581525060066000820151816000015560208201518160010160006101000a81548160ff021916908315150217905550905050565b565b60405180604001604052808273ffffffffffffffffffffffffffffffffffffffff16815260200160011515815250600460008201518160000160006101000a81548173ffffffffffffffffffffffffffffffffffffffff021916908373ffffffffffffffffffffffffffffffffffffffff16021790555060208201518160000160146101000a81548160ff02191690831515021790555090505050565b600080fd5b600073ffffffffffffffffffffffffffffffffffffffff82169050919050565b60006200023c826200020f565b9050919050565b6200024e816200022f565b81146200025a57600080fd5b50565b6000815190506200026e8162000243565b92915050565b6000602082840312156200028d576200028c6200020a565b5b60006200029d848285016200025d565b91505092915050565b61198780620002b66000396000f3fe608060405234801561001057600080fd5b50600436106100935760003560e01c80639b96eece116100665780639b96eece1461011c5780639dc29fac1461014c578063a9059cbb14610168578063c4e41b2214610184578063f76fac0e146101a257610093565b8063095ea7b3146100985780630af4187d146100b457806323b872dd146100e457806340c10f1914610100575b600080fd5b6100b260048036038101906100ad9190611556565b6101be565b005b6100ce60048036038101906100c99190611596565b610219565b6040516100db91906115e5565b60405180910390f35b6100fe60048036038101906100f99190611600565b6102a8565b005b61011a60048036038101906101159190611556565b610305565b005b61013660048036038101906101319190611653565b610360565b60405161014391906115e5565b60405180910390f35b61016660048036038101906101619190611556565b6103b1565b005b610182600480360381019061017d9190611556565b61040c565b005b61018c610467565b60405161019991906115e5565b60405180910390f35b6101bc60048036038101906101b79190611556565b610479565b005b60006101ca83836104d4565b9050600015158115151415610214576040517f08c379a000000000000000000000000000000000000000000000000000000000815260040161020b906116dd565b60405180910390fd5b505050565b600080600c60008573ffffffffffffffffffffffffffffffffffffffff1673ffffffffffffffffffffffffffffffffffffffff16815260200190815260200160002060008473ffffffffffffffffffffffffffffffffffffffff1673ffffffffffffffffffffffffffffffffffffffff1681526020019081526020016000206000015490508091505092915050565b60006102b58484846105c1565b90506000151581151514156102ff576040517f08c379a00000000000000000000000000000000000000000000000000000000081526004016102f6906116dd565b60405180910390fd5b50505050565b60006103118383610715565b905060001515811515141561035b576040517f08c379a0000000000000000000000000000000000000000000000000000000008152600401610352906116dd565b60405180910390fd5b505050565b600080600d60008473ffffffffffffffffffffffffffffffffffffffff1673ffffffffffffffffffffffffffffffffffffffff16815260200190815260200160002060000154905080915050919050565b60006103bd838361080b565b9050600015158115151415610407576040517f08c379a00000000000000000000000000000000000000000000000000000000081526004016103fe906116dd565b60405180910390fd5b505050565b60006104188383610958565b9050600015158115151415610462576040517f08c379a0000000000000000000000000000000000000000000000000000000008152600401610459906116dd565b60405180910390fd5b505050565b60008060066000015490508091505090565b60006104858383610a13565b90506000151581151514156104cf576040517f08c379a00000000000000000000000000000000000000000000000000000000081526004016104c6906116dd565b60405180910390fd5b505050565b6000803390506000600c60008373ffffffffffffffffffffffffffffffffffffffff1673ffffffffffffffffffffffffffffffffffffffff16815260200190815260200160002060008673ffffffffffffffffffffffffffffffffffffffff1673ffffffffffffffffffffffffffffffffffffffff1681526020019081526020016000206000015490506000818561056c919061172c565b9050610579838783610b57565b7f01722f0e92ffd761d4a842cffdd36fe3adb6091e41732a4e714250176b7d8d228387836040516105ac9392919061176f565b60405180910390a16001935050505092915050565b6000803390506000600c60008773ffffffffffffffffffffffffffffffffffffffff1673ffffffffffffffffffffffffffffffffffffffff16815260200190815260200160002060008373ffffffffffffffffffffffffffffffffffffffff1673ffffffffffffffffffffffffffffffffffffffff1681526020019081526020016000206000015490506000600d60008873ffffffffffffffffffffffffffffffffffffffff1673ffffffffffffffffffffffffffffffffffffffff1681526020019081526020016000206000015490508481101580156106a25750848210155b15610706576106b2878487610c03565b6106bd878787610caf565b7f5f7542858008eeb041631f30e6109ae94b83a58e9a58261dd2c42c508850f939878785886040516106f294939291906117a6565b60405180910390a16001935050505061070e565b600093505050505b9392505050565b600080600360000160009054906101000a900473ffffffffffffffffffffffffffffffffffffffff1690503373ffffffffffffffffffffffffffffffffffffffff168173ffffffffffffffffffffffffffffffffffffffff1614156107ff57600073ffffffffffffffffffffffffffffffffffffffff168473ffffffffffffffffffffffffffffffffffffffff16146107fe576107b28484610d03565b6107bb83610d70565b7f0f6798a560793a54c3bcfe86a93cde1e73087d944c0ea20544137d412139688584846040516107ec9291906117eb565b60405180910390a16001915050610805565b5b60009150505b92915050565b600080600360000160009054906101000a900473ffffffffffffffffffffffffffffffffffffffff1690503373ffffffffffffffffffffffffffffffffffffffff168173ffffffffffffffffffffffffffffffffffffffff16141561094c576000600d60008673ffffffffffffffffffffffffffffffffffffffff1673ffffffffffffffffffffffffffffffffffffffff168152602001908152602001600020600001549050600073ffffffffffffffffffffffffffffffffffffffff168573ffffffffffffffffffffffffffffffffffffffff16141580156108ee5750808411155b1561094a576108fd8585610d9e565b61090684610e0b565b7fcc16f5dbb4873280815c1ee09dbd06736cffcc184412cf7a71a0fdb75d397ca585856040516109379291906117eb565b60405180910390a1600192505050610952565b505b60009150505b92915050565b6000803390506000600d60008373ffffffffffffffffffffffffffffffffffffffff1673ffffffffffffffffffffffffffffffffffffffff168152602001908152602001600020600001549050808411610a06576109b68285610e39565b6109c08585610ea6565b7fddf252ad1be2c89b69c2b068fc378daa952ba7f163c4a11628f55a4df523b3ef8286866040516109f39392919061176f565b60405180910390a1600192505050610a0d565b6000925050505b92915050565b600080600460000160009054906101000a900473ffffffffffffffffffffffffffffffffffffffff1690503373ffffffffffffffffffffffffffffffffffffffff168173ffffffffffffffffffffffffffffffffffffffff161415610b4b576000600d60008673ffffffffffffffffffffffffffffffffffffffff1673ffffffffffffffffffffffffffffffffffffffff168152602001908152602001600020600001549050600073ffffffffffffffffffffffffffffffffffffffff168573ffffffffffffffffffffffffffffffffffffffff1614158015610af65750808411155b15610b4957610b058585610f12565b7fed4b457a520c16e75679d7d00205ed390288be3b5a5b0368662516bbbc54eb078585604051610b369291906117eb565b60405180910390a1600192505050610b51565b505b60009150505b92915050565b6000819050610b67848483610f62565b81600a60008673ffffffffffffffffffffffffffffffffffffffff1673ffffffffffffffffffffffffffffffffffffffff16815260200190815260200160002060008573ffffffffffffffffffffffffffffffffffffffff1673ffffffffffffffffffffffffffffffffffffffff1681526020019081526020016000206000016000828254610bf69190611814565b9250508190555050505050565b6000819050610c1384848361107f565b81600b60008673ffffffffffffffffffffffffffffffffffffffff1673ffffffffffffffffffffffffffffffffffffffff16815260200190815260200160002060008573ffffffffffffffffffffffffffffffffffffffff1673ffffffffffffffffffffffffffffffffffffffff1681526020019081526020016000206000016000828254610ca29190611814565b9250508190555050505050565b610cb98382610e39565b610cc38282610ea6565b7fddf252ad1be2c89b69c2b068fc378daa952ba7f163c4a11628f55a4df523b3ef838383604051610cf69392919061176f565b60405180910390a1505050565b6000819050610d1283826111a5565b81600560008573ffffffffffffffffffffffffffffffffffffffff1673ffffffffffffffffffffffffffffffffffffffff1681526020019081526020016000206000016000828254610d649190611814565b92505081905550505050565b6000819050610d7e81611247565b8160086000016000828254610d939190611814565b925050819055505050565b6000819050610dad838261126e565b81600260008573ffffffffffffffffffffffffffffffffffffffff1673ffffffffffffffffffffffffffffffffffffffff1681526020019081526020016000206000016000828254610dff9190611814565b92505081905550505050565b6000819050610e1981611319565b81600e6000016000828254610e2e9190611814565b925050819055505050565b6000819050610e488382611349565b81600160008573ffffffffffffffffffffffffffffffffffffffff1673ffffffffffffffffffffffffffffffffffffffff1681526020019081526020016000206000016000828254610e9a9190611814565b92505081905550505050565b6000819050610eb583826113f4565b816000808573ffffffffffffffffffffffffffffffffffffffff1673ffffffffffffffffffffffffffffffffffffffff1681526020019081526020016000206000016000828254610f069190611814565b92505081905550505050565b610f1c8282610d9e565b610f2581610e0b565b7fcc16f5dbb4873280815c1ee09dbd06736cffcc184412cf7a71a0fdb75d397ca58282604051610f569291906117eb565b60405180910390a15050565b60008190506000610ff2600c60008773ffffffffffffffffffffffffffffffffffffffff1673ffffffffffffffffffffffffffffffffffffffff16815260200190815260200160002060008673ffffffffffffffffffffffffffffffffffffffff1673ffffffffffffffffffffffffffffffffffffffff1681526020019081526020016000206000015483611496565b905080600c60008773ffffffffffffffffffffffffffffffffffffffff1673ffffffffffffffffffffffffffffffffffffffff16815260200190815260200160002060008673ffffffffffffffffffffffffffffffffffffffff1673ffffffffffffffffffffffffffffffffffffffff168152602001908152602001600020600001819055505050505050565b60008161108b90611874565b90506000611118600c60008773ffffffffffffffffffffffffffffffffffffffff1673ffffffffffffffffffffffffffffffffffffffff16815260200190815260200160002060008673ffffffffffffffffffffffffffffffffffffffff1673ffffffffffffffffffffffffffffffffffffffff1681526020019081526020016000206000015483611496565b905080600c60008773ffffffffffffffffffffffffffffffffffffffff1673ffffffffffffffffffffffffffffffffffffffff16815260200190815260200160002060008673ffffffffffffffffffffffffffffffffffffffff1673ffffffffffffffffffffffffffffffffffffffff168152602001908152602001600020600001819055505050505050565b600081905060006111f8600d60008673ffffffffffffffffffffffffffffffffffffffff1673ffffffffffffffffffffffffffffffffffffffff1681526020019081526020016000206000015483611496565b905080600d60008673ffffffffffffffffffffffffffffffffffffffff1673ffffffffffffffffffffffffffffffffffffffff1681526020019081526020016000206000018190555050505050565b6000819050600061125d60066000015483611496565b905080600660000181905550505050565b60008161127a90611874565b905060006112ca600d60008673ffffffffffffffffffffffffffffffffffffffff1673ffffffffffffffffffffffffffffffffffffffff1681526020019081526020016000206000015483611496565b905080600d60008673ffffffffffffffffffffffffffffffffffffffff1673ffffffffffffffffffffffffffffffffffffffff1681526020019081526020016000206000018190555050505050565b60008161132590611874565b9050600061133860066000015483611496565b905080600660000181905550505050565b60008161135590611874565b905060006113a5600d60008673ffffffffffffffffffffffffffffffffffffffff1673ffffffffffffffffffffffffffffffffffffffff1681526020019081526020016000206000015483611496565b905080600d60008673ffffffffffffffffffffffffffffffffffffffff1673ffffffffffffffffffffffffffffffffffffffff1681526020019081526020016000206000018190555050505050565b60008190506000611447600d60008673ffffffffffffffffffffffffffffffffffffffff1673ffffffffffffffffffffffffffffffffffffffff1681526020019081526020016000206000015483611496565b905080600d60008673ffffffffffffffffffffffffffffffffffffffff1673ffffffffffffffffffffffffffffffffffffffff1681526020019081526020016000206000018190555050505050565b600080839050600083826114aa91906118bd565b9050600081905080935050505092915050565b600080fd5b600073ffffffffffffffffffffffffffffffffffffffff82169050919050565b60006114ed826114c2565b9050919050565b6114fd816114e2565b811461150857600080fd5b50565b60008135905061151a816114f4565b92915050565b6000819050919050565b61153381611520565b811461153e57600080fd5b50565b6000813590506115508161152a565b92915050565b6000806040838503121561156d5761156c6114bd565b5b600061157b8582860161150b565b925050602061158c85828601611541565b9150509250929050565b600080604083850312156115ad576115ac6114bd565b5b60006115bb8582860161150b565b92505060206115cc8582860161150b565b9150509250929050565b6115df81611520565b82525050565b60006020820190506115fa60008301846115d6565b92915050565b600080600060608486031215611619576116186114bd565b5b60006116278682870161150b565b93505060206116388682870161150b565b925050604061164986828701611541565b9150509250925092565b600060208284031215611669576116686114bd565b5b60006116778482850161150b565b91505092915050565b600082825260208201905092915050565b7f52756c6520636f6e646974696f6e206661696c65640000000000000000000000600082015250565b60006116c7601583611680565b91506116d282611691565b602082019050919050565b600060208201905081810360008301526116f6816116ba565b9050919050565b7f4e487b7100000000000000000000000000000000000000000000000000000000600052601160045260246000fd5b600061173782611520565b915061174283611520565b925082821015611755576117546116fd565b5b828203905092915050565b611769816114e2565b82525050565b60006060820190506117846000830186611760565b6117916020830185611760565b61179e60408301846115d6565b949350505050565b60006080820190506117bb6000830187611760565b6117c86020830186611760565b6117d56040830185611760565b6117e260608301846115d6565b95945050505050565b60006040820190506118006000830185611760565b61180d60208301846115d6565b9392505050565b600061181f82611520565b915061182a83611520565b9250827fffffffffffffffffffffffffffffffffffffffffffffffffffffffffffffffff0382111561185f5761185e6116fd565b5b828201905092915050565b6000819050919050565b600061187f8261186a565b91507f80000000000000000000000000000000000000000000000000000000000000008214156118b2576118b16116fd565b5b816000039050919050565b60006118c88261186a565b91506118d38361186a565b9250817f7fffffffffffffffffffffffffffffffffffffffffffffffffffffffffffffff0383136000831215161561190e5761190d6116fd565b5b817f8000000000000000000000000000000000000000000000000000000000000000038312600083121615611946576119456116fd565b5b82820190509291505056fea26469706673582212204456b78ad10cbf379896767522549b232d2ff8f7a66eb699225e83e0bc1250d464736f6c634300080c0033",
  "immutableReferences": {},
  "source": "contract Controllable {\n  struct TotalInTuple {\n    uint n;\n    bool _valid;\n  }\n  struct TotalOutTuple {\n    uint n;\n    bool _valid;\n  }\n  struct OwnerTuple {\n    address p;\n    bool _valid;\n  }\n  struct ControllerTuple {\n    address p;\n    bool _valid;\n  }\n  struct TotalSupplyTuple {\n    uint n;\n    bool _valid;\n  }\n  struct AllMintTuple {\n    uint n;\n    bool _valid;\n  }\n  struct AllowanceTotalTuple {\n    uint m;\n    bool _valid;\n  }\n  struct SpentTotalTuple {\n    uint m;\n    bool _valid;\n  }\n  struct AllowanceTuple {\n    uint n;\n    bool _valid;\n  }\n  struct TotalBurnTuple {\n    uint n;\n    bool _valid;\n  }\n  struct TotalMintTuple {\n    uint n;\n    bool _valid;\n  }\n  struct BalanceOfTuple {\n    uint n;\n    bool _valid;\n  }\n  struct AllBurnTuple {\n    uint n;\n    bool _valid;\n  }\n  mapping(address=>TotalInTuple) totalIn;\n  mapping(address=>TotalOutTuple) totalOut;\n  mapping(address=>TotalBurnTuple) totalBurn;\n  OwnerTuple owner;\n  ControllerTuple controller;\n  mapping(address=>TotalMintTuple) totalMint;\n  TotalSupplyTuple totalSupply;\n  AllMintTuple allMint;\n  mapping(address=>mapping(address=>AllowanceTotalTuple)) allowanceTotal;\n  mapping(address=>mapping(address=>SpentTotalTuple)) spentTotal;\n  mapping(address=>mapping(address=>AllowanceTuple)) allowance;\n  mapping(address=>BalanceOfTuple) balanceOf;\n  AllBurnTuple allBurn;\n  event TransferFrom(address from,address to,address spender,uint amount);\n  event Burn(address p,uint amount);\n  event Mint(address p,uint amount);\n  event ControllerRedeem(address p,uint amount);\n  event IncreaseAllowance(address p,address s,uint n);\n  event ControllerTransfer(address from,address to,uint amount);\n  event Transfer(address from,address to,uint amount);\n  constructor(address p) public {\n    updateOwnerOnInsertConstructor_r8();\n    updateTotalSupplyOnInsertConstructor_r1();\n    updateTotalBalancesOnInsertConstructor_r7();\n    updateControllerOnInsertConstructor_r3(p);\n  }\n  function approve(address s,uint n) public    {\n      bool r24 = updateIncreaseAllowanceOnInsertRecv_approve_r24(s,n);\n      if(r24==false) {\n        revert(\"Rule condition failed\");\n      }\n  }\n  function transferFrom(address from,address to,uint amount) public    {\n      bool r25 = updateTransferFromOnInsertRecv_transferFrom_r25(from,to,amount);\n      if(r25==false) {\n        revert(\"Rule condition failed\");\n      }\n  }\n  function getTotalSupply() public view  returns (uint) {\n      uint n = totalSupply.n;\n      return n;\n  }\n  function getAllowance(address p,address s) public view  returns (uint) {\n      uint n = allowance[p][s].n;\n      return n;\n  }\n  function burn(address p,uint amount) public    {\n      bool r6 = updateBurnOnInsertRecv_burn_r6(p,amount);\n      if(r6==false) {\n        revert(\"Rule condition failed\");\n      }\n  }\n  function mint(address p,uint amount) public    {\n      bool r23 = updateMintOnInsertRecv_mint_r23(p,amount);\n      if(r23==false) {\n        revert(\"Rule condition failed\");\n      }\n  }\n  function controllerRedeem(address p,uint amount) public    {\n      bool r5 = updateControllerRedeemOnInsertRecv_controllerRedeem_r5(p,amount);\n      if(r5==false) {\n        revert(\"Rule condition failed\");\n      }\n  }\n  function transfer(address to,uint amount) public    {\n      bool r17 = updateTransferOnInsertRecv_transfer_r17(to,amount);\n      if(r17==false) {\n        revert(\"Rule condition failed\");\n      }\n  }\n  function getBalanceOf(address p) public view  returns (uint) {\n      uint n = balanceOf[p].n;\n      return n;\n  }\n  function updateAllowanceTotalOnInsertIncreaseAllowance_r11(address o,address s,uint n) private    {\n      int delta0 = int(n);\n      updateAllowanceOnIncrementAllowanceTotal_r22(o,s,delta0);\n      allowanceTotal[o][s].m += n;\n  }\n  function updateTotalSupplyOnIncrementAllBurn_r16(int b) private    {\n      int _delta = int(-b);\n      uint newValue = updateuintByint(totalSupply.n,_delta);\n      totalSupply.n = newValue;\n  }\n  function updateTransferFromOnInsertRecv_transferFrom_r25(address o,address r,uint n) private   returns (bool) {\n      address s = msg.sender;\n      uint k = allowance[o][s].n;\n      uint m = balanceOf[o].n;\n      if(m>=n && k>=n) {\n        updateSpentTotalOnInsertTransferFrom_r9(o,s,n);\n        updateTransferOnInsertTransferFrom_r0(o,r,n);\n        emit TransferFrom(o,r,s,n);\n        return true;\n      }\n      return false;\n  }\n  function updateAllowanceOnIncrementAllowanceTotal_r22(address o,address s,int m) private    {\n      int _delta = int(m);\n      uint newValue = updateuintByint(allowance[o][s].n,_delta);\n      allowance[o][s].n = newValue;\n  }\n  function updateSpentTotalOnInsertTransferFrom_r9(address o,address s,uint n) private    {\n      int delta0 = int(n);\n      updateAllowanceOnIncrementSpentTotal_r22(o,s,delta0);\n      spentTotal[o][s].m += n;\n  }\n  function updateTotalOutOnInsertTransfer_r18(address p,uint n) private    {\n      int delta0 = int(n);\n      updateBalanceOfOnIncrementTotalOut_r21(p,delta0);\n      totalOut[p].n += n;\n  }\n  function updateControllerOnInsertConstructor_r3(address p) private    {\n      controller = ControllerTuple(p,true);\n  }\n  function updateAllBurnOnInsertBurn_r26(uint n) private    {\n      int delta0 = int(n);\n      updateTotalSupplyOnIncrementAllBurn_r16(delta0);\n      allBurn.n += n;\n  }\n  function updateTransferOnInsertTransferFrom_r0(address o,address r,uint n) private    {\n      updateTotalOutOnInsertTransfer_r18(o,n);\n      updateTotalInOnInsertTransfer_r10(r,n);\n      emit Transfer(o,r,n);\n  }\n  function updateOwnerOnInsertConstructor_r8() private    {\n      address s = msg.sender;\n      owner = OwnerTuple(s,true);\n  }\n  function updateControllerRedeemOnInsertRecv_controllerRedeem_r5(address p,uint n) private   returns (bool) {\n      address c = controller.p;\n      if(c==msg.sender) {\n        uint m = balanceOf[p].n;\n        if(p!=address(0) && n<=m) {\n          updateBurnOnInsertControllerRedeem_r20(p,n);\n          emit ControllerRedeem(p,n);\n          return true;\n        }\n      }\n      return false;\n  }\n  function updateBalanceOfOnIncrementTotalMint_r21(address p,int n) private    {\n      int _delta = int(n);\n      uint newValue = updateuintByint(balanceOf[p].n,_delta);\n      balanceOf[p].n = newValue;\n  }\n  function updateBurnOnInsertControllerRedeem_r20(address p,uint n) private    {\n      updateTotalBurnOnInsertBurn_r14(p,n);\n      updateAllBurnOnInsertBurn_r26(n);\n      emit Burn(p,n);\n  }\n  function updateTotalMintOnInsertMint_r15(address p,uint n) private    {\n      int delta0 = int(n);\n      updateBalanceOfOnIncrementTotalMint_r21(p,delta0);\n      totalMint[p].n += n;\n  }\n  function updateTotalInOnInsertTransfer_r10(address p,uint n) private    {\n      int delta0 = int(n);\n      updateBalanceOfOnIncrementTotalIn_r21(p,delta0);\n      totalIn[p].n += n;\n  }\n  function updateBurnOnInsertRecv_burn_r6(address p,uint n) private   returns (bool) {\n      address s = owner.p;\n      if(s==msg.sender) {\n        uint m = balanceOf[p].n;\n        if(p!=address(0) && n<=m) {\n          updateTotalBurnOnInsertBurn_r14(p,n);\n          updateAllBurnOnInsertBurn_r26(n);\n          emit Burn(p,n);\n          return true;\n        }\n      }\n      return false;\n  }\n  function updateuintByint(uint x,int delta) private   returns (uint) {\n      int convertedX = int(x);\n      int value = convertedX+delta;\n      uint convertedValue = uint(value);\n      return convertedValue;\n  }\n  function updateAllMintOnInsertMint_r13(uint n) private    {\n      int delta0 = int(n);\n      updateTotalSupplyOnIncrementAllMint_r16(delta0);\n      allMint.n += n;\n  }\n  function updateTotalBalancesOnInsertConstructor_r7() private    {\n      // Empty()\n  }\n  function updateTotalSupplyOnIncrementAllMint_r16(int m) private    {\n      int _delta = int(m);\n      uint newValue = updateuintByint(totalSupply.n,_delta);\n      totalSupply.n = newValue;\n  }\n  function updateBalanceOfOnIncrementTotalOut_r21(address p,int o) private    {\n      int _delta = int(-o);\n      uint newValue = updateuintByint(balanceOf[p].n,_delta);\n      balanceOf[p].n = newValue;\n  }\n  function updateTotalBurnOnInsertBurn_r14(address p,uint n) private    {\n      int delta0 = int(n);\n      updateBalanceOfOnIncrementTotalBurn_r21(p,delta0);\n      totalBurn[p].n += n;\n  }\n  function updateIncreaseAllowanceOnInsertRecv_approve_r24(address s,uint n) private   returns (bool) {\n      address o = msg.sender;\n      uint m = allowance[o][s].n;\n      uint d = n-m;\n      updateAllowanceTotalOnInsertIncreaseAllowance_r11(o,s,d);\n      emit IncreaseAllowance(o,s,d);\n      return true;\n      return false;\n  }\n  function updateMintOnInsertRecv_mint_r23(address p,uint n) private   returns (bool) {\n      address s = owner.p;\n      if(s==msg.sender) {\n        if(p!=address(0)) {\n          updateTotalMintOnInsertMint_r15(p,n);\n          updateAllMintOnInsertMint_r13(n);\n          emit Mint(p,n);\n          return true;\n        }\n      }\n      return false;\n  }\n  function updateBalanceOfOnIncrementTotalIn_r21(address p,int i) private    {\n      int _delta = int(i);\n      uint newValue = updateuintByint(balanceOf[p].n,_delta);\n      balanceOf[p].n = newValue;\n  }\n  function updateTransferOnInsertRecv_transfer_r17(address r,uint n) private   returns (bool) {\n      address s = msg.sender;\n      uint m = balanceOf[s].n;\n      if(n<=m) {\n        updateTotalOutOnInsertTransfer_r18(s,n);\n        updateTotalInOnInsertTransfer_r10(r,n);\n        emit Transfer(s,r,n);\n        return true;\n      }\n      return false;\n  }\n  function updateTotalSupplyOnInsertConstructor_r1() private    {\n      totalSupply = TotalSupplyTuple(0,true);\n  }\n  function updateAllowanceOnIncrementSpentTotal_r22(address o,address s,int l) private    {\n      int _delta = int(-l);\n      uint newValue = updateuintByint(allowance[o][s].n,_delta);\n      allowance[o][s].n = newValue;\n  }\n  function updateBalanceOfOnIncrementTotalBurn_r21(address p,int m) private    {\n      int _delta = int(-m);\n      uint newValue = updateuintByint(balanceOf[p].n,_delta);\n      balanceOf[p].n = newValue;\n  }\n}",
  "sourcePath": "/home/lan/gasOpt/declarative-smart-contracts/solidity/full/controllable.sol",
  "compiler": {
    "name": "solc",
    "version": "0.8.12+commit.f00d7308.Emscripten.clang"
  },
  "schemaVersion": "3.4.14",
  "updatedAt": "2023-11-30T04:34:50.070Z",
  "devdoc": {
    "kind": "dev",
    "methods": {},
    "version": 1
  },
  "userdoc": {
    "kind": "user",
    "methods": {},
    "version": 1
  }
}