{
  "contractName": "Erc1155",
  "abi": [
    {
      "inputs": [],
      "stateMutability": "nonpayable",
      "type": "constructor"
    },
    {
      "anonymous": false,
      "inputs": [
        {
          "indexed": false,
          "internalType": "uint256",
          "name": "tokenId",
          "type": "uint256"
        },
        {
          "indexed": false,
          "internalType": "address",
          "name": "p",
          "type": "address"
        },
        {
          "indexed": false,
          "internalType": "uint256",
          "name": "amount",
          "type": "uint256"
        }
      ],
      "name": "Burn",
      "type": "event"
    },
    {
      "anonymous": false,
      "inputs": [
        {
          "indexed": false,
          "internalType": "uint256",
          "name": "tokenId",
          "type": "uint256"
        },
        {
          "indexed": false,
          "internalType": "address",
          "name": "p",
          "type": "address"
        },
        {
          "indexed": false,
          "internalType": "address",
          "name": "s",
          "type": "address"
        },
        {
          "indexed": false,
          "internalType": "uint256",
          "name": "n",
          "type": "uint256"
        }
      ],
      "name": "IncreaseAllowance",
      "type": "event"
    },
    {
      "anonymous": false,
      "inputs": [
        {
          "indexed": false,
          "internalType": "uint256",
          "name": "tokenId",
          "type": "uint256"
        },
        {
          "indexed": false,
          "internalType": "address",
          "name": "p",
          "type": "address"
        },
        {
          "indexed": false,
          "internalType": "uint256",
          "name": "amount",
          "type": "uint256"
        }
      ],
      "name": "Mint",
      "type": "event"
    },
    {
      "anonymous": false,
      "inputs": [
        {
          "indexed": false,
          "internalType": "uint256",
          "name": "tokenId",
          "type": "uint256"
        },
        {
          "indexed": false,
          "internalType": "address",
          "name": "from",
          "type": "address"
        },
        {
          "indexed": false,
          "internalType": "address",
          "name": "to",
          "type": "address"
        },
        {
          "indexed": false,
          "internalType": "uint256",
          "name": "amount",
          "type": "uint256"
        }
      ],
      "name": "Transfer",
      "type": "event"
    },
    {
      "anonymous": false,
      "inputs": [
        {
          "indexed": false,
          "internalType": "uint256",
          "name": "tokenId",
          "type": "uint256"
        },
        {
          "indexed": false,
          "internalType": "address",
          "name": "from",
          "type": "address"
        },
        {
          "indexed": false,
          "internalType": "address",
          "name": "to",
          "type": "address"
        },
        {
          "indexed": false,
          "internalType": "address",
          "name": "spender",
          "type": "address"
        },
        {
          "indexed": false,
          "internalType": "uint256",
          "name": "amount",
          "type": "uint256"
        }
      ],
      "name": "TransferFrom",
      "type": "event"
    },
    {
      "inputs": [
        {
          "internalType": "uint256",
          "name": "tokenId",
          "type": "uint256"
        },
        {
          "internalType": "address",
          "name": "s",
          "type": "address"
        },
        {
          "internalType": "uint256",
          "name": "n",
          "type": "uint256"
        }
      ],
      "name": "approve",
      "outputs": [],
      "stateMutability": "nonpayable",
      "type": "function"
    },
    {
      "inputs": [
        {
          "internalType": "uint256",
          "name": "tokenId",
          "type": "uint256"
        },
        {
          "internalType": "address",
          "name": "p",
          "type": "address"
        },
        {
          "internalType": "uint256",
          "name": "amount",
          "type": "uint256"
        }
      ],
      "name": "mint",
      "outputs": [],
      "stateMutability": "nonpayable",
      "type": "function"
    },
    {
      "inputs": [
        {
          "internalType": "uint256",
          "name": "tokenId",
          "type": "uint256"
        },
        {
          "internalType": "address",
          "name": "to",
          "type": "address"
        },
        {
          "internalType": "uint256",
          "name": "amount",
          "type": "uint256"
        }
      ],
      "name": "transfer",
      "outputs": [],
      "stateMutability": "nonpayable",
      "type": "function"
    },
    {
      "inputs": [
        {
          "internalType": "uint256",
          "name": "tokenId",
          "type": "uint256"
        },
        {
          "internalType": "address",
          "name": "from",
          "type": "address"
        },
        {
          "internalType": "address",
          "name": "to",
          "type": "address"
        },
        {
          "internalType": "uint256",
          "name": "amount",
          "type": "uint256"
        }
      ],
      "name": "transferFrom",
      "outputs": [],
      "stateMutability": "nonpayable",
      "type": "function"
    },
    {
      "inputs": [
        {
          "internalType": "uint256",
          "name": "tokenId",
          "type": "uint256"
        },
        {
          "internalType": "address",
          "name": "p",
          "type": "address"
        },
        {
          "internalType": "uint256",
          "name": "amount",
          "type": "uint256"
        }
      ],
      "name": "burn",
      "outputs": [],
      "stateMutability": "nonpayable",
      "type": "function"
    },
    {
      "inputs": [
        {
          "internalType": "uint256",
          "name": "tokenId",
          "type": "uint256"
        },
        {
          "internalType": "address",
          "name": "p",
          "type": "address"
        },
        {
          "internalType": "address",
          "name": "s",
          "type": "address"
        }
      ],
      "name": "getAllowance",
      "outputs": [
        {
          "internalType": "uint256",
          "name": "",
          "type": "uint256"
        }
      ],
      "stateMutability": "view",
      "type": "function"
    },
    {
      "inputs": [
        {
          "internalType": "uint256",
          "name": "tokenId",
          "type": "uint256"
        }
      ],
      "name": "getTotalSupply",
      "outputs": [
        {
          "internalType": "uint256",
          "name": "",
          "type": "uint256"
        }
      ],
      "stateMutability": "view",
      "type": "function"
    },
    {
      "inputs": [
        {
          "internalType": "uint256",
          "name": "tokenId",
          "type": "uint256"
        },
        {
          "internalType": "address",
          "name": "p",
          "type": "address"
        }
      ],
      "name": "getBalanceOf",
      "outputs": [
        {
          "internalType": "uint256",
          "name": "",
          "type": "uint256"
        }
      ],
      "stateMutability": "view",
      "type": "function"
    }
  ],
  "bytecode": "0x608060405234801561001057600080fd5b5061001f61002460201b60201c565b6100c6565b600033905060405180604001604052808273ffffffffffffffffffffffffffffffffffffffff16815260200160011515815250600860008201518160000160006101000a81548173ffffffffffffffffffffffffffffffffffffffff021916908373ffffffffffffffffffffffffffffffffffffffff16021790555060208201518160000160146101000a81548160ff02191690831515021790555090505050565b611a8a806100d56000396000f3fe608060405234801561001057600080fd5b50600436106100885760003560e01c806392ab723e1161005b57806392ab723e146101115780639eea5f6614610141578063bfa0af6d1461015d578063f8548e361461018d57610088565b80631c0f12b61461008d57806339ac0f39146100a9578063836a1040146100d95780638cb0a511146100f5575b600080fd5b6100a760048036038101906100a291906115b5565b6101a9565b005b6100c360048036038101906100be919061161c565b610208565b6040516100d0919061167e565b60405180910390f35b6100f360048036038101906100ee9190611699565b6102a9565b005b61010f600480360381019061010a9190611699565b610306565b005b61012b600480360381019061012691906116ec565b610363565b604051610138919061167e565b60405180910390f35b61015b60048036038101906101569190611699565b610388565b005b61017760048036038101906101729190611719565b6103e5565b604051610184919061167e565b60405180910390f35b6101a760048036038101906101a29190611699565b610448565b005b60006101b7858585856104a5565b9050600015158115151415610201576040517f08c379a00000000000000000000000000000000000000000000000000000000081526004016101f8906117b6565b60405180910390fd5b5050505050565b600080600a600086815260200190815260200160002060008573ffffffffffffffffffffffffffffffffffffffff1673ffffffffffffffffffffffffffffffffffffffff16815260200190815260200160002060008473ffffffffffffffffffffffffffffffffffffffff1673ffffffffffffffffffffffffffffffffffffffff168152602001908152602001600020600001549050809150509392505050565b60006102b6848484610620565b9050600015158115151415610300576040517f08c379a00000000000000000000000000000000000000000000000000000000081526004016102f7906117b6565b60405180910390fd5b50505050565b600061031384848461071b565b905060001515811515141561035d576040517f08c379a0000000000000000000000000000000000000000000000000000000008152600401610354906117b6565b60405180910390fd5b50505050565b6000806006600084815260200190815260200160002060000154905080915050919050565b600061039584848461081d565b90506000151581151514156103df576040517f08c379a00000000000000000000000000000000000000000000000000000000081526004016103d6906117b6565b60405180910390fd5b50505050565b6000806005600085815260200190815260200160002060008473ffffffffffffffffffffffffffffffffffffffff1673ffffffffffffffffffffffffffffffffffffffff1681526020019081526020016000206000015490508091505092915050565b6000610455848484610980565b905060001515811515141561049f576040517f08c379a0000000000000000000000000000000000000000000000000000000008152600401610496906117b6565b60405180910390fd5b50505050565b6000803390506000600a600088815260200190815260200160002060008773ffffffffffffffffffffffffffffffffffffffff1673ffffffffffffffffffffffffffffffffffffffff16815260200190815260200160002060008373ffffffffffffffffffffffffffffffffffffffff1673ffffffffffffffffffffffffffffffffffffffff16815260200190815260200160002060000154905060006005600089815260200190815260200160002060008873ffffffffffffffffffffffffffffffffffffffff1673ffffffffffffffffffffffffffffffffffffffff1681526020019081526020016000206000015490508481101580156105a85750848210155b15610610576105b988888888610a51565b6105c588888588610aaa565b7f763de518ecef274fe627cbe64f185fa22661b0241e86a85d217674609bc3272388888886896040516105fc9594939291906117e5565b60405180910390a160019350505050610618565b600093505050505b949350505050565b600080600860000160009054906101000a900473ffffffffffffffffffffffffffffffffffffffff1690503373ffffffffffffffffffffffffffffffffffffffff168173ffffffffffffffffffffffffffffffffffffffff16141561070e57600073ffffffffffffffffffffffffffffffffffffffff168473ffffffffffffffffffffffffffffffffffffffff161461070d576106be858585610b69565b6106c88584610be9565b7f4e3883c75cc9c752bb1db2e406a822e4a75067ae77ad9a0a4d179f2709b9e1f68585856040516106fb93929190611838565b60405180910390a16001915050610714565b5b60009150505b9392505050565b6000803390506000600a600087815260200190815260200160002060008373ffffffffffffffffffffffffffffffffffffffff1673ffffffffffffffffffffffffffffffffffffffff16815260200190815260200160002060008673ffffffffffffffffffffffffffffffffffffffff1673ffffffffffffffffffffffffffffffffffffffff168152602001908152602001600020600001549050600081856107c4919061189e565b90506107d287848884610c2a565b7f97bd9d30be87c022a2c1978ca76dc2d9e339668effc4cbf1ca325496ac86f1a08784888460405161080794939291906118d2565b60405180910390a1600193505050509392505050565b600080600860000160009054906101000a900473ffffffffffffffffffffffffffffffffffffffff1690503373ffffffffffffffffffffffffffffffffffffffff168173ffffffffffffffffffffffffffffffffffffffff1614156109735760006005600087815260200190815260200160002060008673ffffffffffffffffffffffffffffffffffffffff1673ffffffffffffffffffffffffffffffffffffffff168152602001908152602001600020600001549050600073ffffffffffffffffffffffffffffffffffffffff168573ffffffffffffffffffffffffffffffffffffffff16141580156109115750808411155b15610971576109208685610ce9565b61092b868686610d2a565b7fe1b6e34006e9871307436c226f232f9c5e7690c1d2c4f4adda4f607a75a9beca86868660405161095e93929190611838565b60405180910390a1600192505050610979565b505b60009150505b9392505050565b60008033905060006005600087815260200190815260200160002060008373ffffffffffffffffffffffffffffffffffffffff1673ffffffffffffffffffffffffffffffffffffffff168152602001908152602001600020600001549050808411610a43576109f0868686610daa565b6109fb868386610e2a565b7ff2dbd98d79f00f7aff338b824931d607bfcc63d47307162470f25a055102d3b086838787604051610a3094939291906118d2565b60405180910390a1600192505050610a4a565b6000925050505b9392505050565b610a5c848383610daa565b610a67848483610e2a565b7ff2dbd98d79f00f7aff338b824931d607bfcc63d47307162470f25a055102d3b084848484604051610a9c94939291906118d2565b60405180910390a150505050565b6000819050610abb85858584610ea9565b816001600087815260200190815260200160002060008673ffffffffffffffffffffffffffffffffffffffff1673ffffffffffffffffffffffffffffffffffffffff16815260200190815260200160002060008573ffffffffffffffffffffffffffffffffffffffff1673ffffffffffffffffffffffffffffffffffffffff1681526020019081526020016000206000016000828254610b5b9190611917565b925050819055505050505050565b6000819050610b79848483610ff2565b81600b600086815260200190815260200160002060008573ffffffffffffffffffffffffffffffffffffffff1673ffffffffffffffffffffffffffffffffffffffff1681526020019081526020016000206000016000828254610bdc9190611917565b9250508190555050505050565b6000819050610bf883826110b7565b81600760008581526020019081526020016000206000016000828254610c1e9190611917565b92505081905550505050565b6000819050610c3b85858584611101565b816003600087815260200190815260200160002060008673ffffffffffffffffffffffffffffffffffffffff1673ffffffffffffffffffffffffffffffffffffffff16815260200190815260200160002060008573ffffffffffffffffffffffffffffffffffffffff1673ffffffffffffffffffffffffffffffffffffffff1681526020019081526020016000206000016000828254610cdb9190611917565b925050819055505050505050565b6000819050610cf88382611241565b81600960008581526020019081526020016000206000016000828254610d1e9190611917565b92505081905550505050565b6000819050610d3a848483611294565b816004600086815260200190815260200160002060008573ffffffffffffffffffffffffffffffffffffffff1673ffffffffffffffffffffffffffffffffffffffff1681526020019081526020016000206000016000828254610d9d9190611917565b9250508190555050505050565b6000819050610dba848483611362565b816002600086815260200190815260200160002060008573ffffffffffffffffffffffffffffffffffffffff1673ffffffffffffffffffffffffffffffffffffffff1681526020019081526020016000206000016000828254610e1d9190611917565b9250508190555050505050565b6000819050610e3a848483611427565b8160008086815260200190815260200160002060008573ffffffffffffffffffffffffffffffffffffffff1673ffffffffffffffffffffffffffffffffffffffff1681526020019081526020016000206000016000828254610e9c9190611917565b9250508190555050505050565b600081610eb590611977565b90506000610f53600a600088815260200190815260200160002060008773ffffffffffffffffffffffffffffffffffffffff1673ffffffffffffffffffffffffffffffffffffffff16815260200190815260200160002060008673ffffffffffffffffffffffffffffffffffffffff1673ffffffffffffffffffffffffffffffffffffffff16815260200190815260200160002060000154836114f5565b905080600a600088815260200190815260200160002060008773ffffffffffffffffffffffffffffffffffffffff1673ffffffffffffffffffffffffffffffffffffffff16815260200190815260200160002060008673ffffffffffffffffffffffffffffffffffffffff1673ffffffffffffffffffffffffffffffffffffffff16815260200190815260200160002060000181905550505050505050565b600081905060006110566005600087815260200190815260200160002060008673ffffffffffffffffffffffffffffffffffffffff1673ffffffffffffffffffffffffffffffffffffffff16815260200190815260200160002060000154836114f5565b9050806005600087815260200190815260200160002060008673ffffffffffffffffffffffffffffffffffffffff1673ffffffffffffffffffffffffffffffffffffffff168152602001908152602001600020600001819055505050505050565b600081905060006110de6006600086815260200190815260200160002060000154836114f5565b905080600660008681526020019081526020016000206000018190555050505050565b600081905060006111a2600a600088815260200190815260200160002060008773ffffffffffffffffffffffffffffffffffffffff1673ffffffffffffffffffffffffffffffffffffffff16815260200190815260200160002060008673ffffffffffffffffffffffffffffffffffffffff1673ffffffffffffffffffffffffffffffffffffffff16815260200190815260200160002060000154836114f5565b905080600a600088815260200190815260200160002060008773ffffffffffffffffffffffffffffffffffffffff1673ffffffffffffffffffffffffffffffffffffffff16815260200190815260200160002060008673ffffffffffffffffffffffffffffffffffffffff1673ffffffffffffffffffffffffffffffffffffffff16815260200190815260200160002060000181905550505050505050565b60008161124d90611977565b905060006112716006600086815260200190815260200160002060000154836114f5565b905080600660008681526020019081526020016000206000018190555050505050565b6000816112a090611977565b905060006113016005600087815260200190815260200160002060008673ffffffffffffffffffffffffffffffffffffffff1673ffffffffffffffffffffffffffffffffffffffff16815260200190815260200160002060000154836114f5565b9050806005600087815260200190815260200160002060008673ffffffffffffffffffffffffffffffffffffffff1673ffffffffffffffffffffffffffffffffffffffff168152602001908152602001600020600001819055505050505050565b600081905060006113c66005600087815260200190815260200160002060008673ffffffffffffffffffffffffffffffffffffffff1673ffffffffffffffffffffffffffffffffffffffff16815260200190815260200160002060000154836114f5565b9050806005600087815260200190815260200160002060008673ffffffffffffffffffffffffffffffffffffffff1673ffffffffffffffffffffffffffffffffffffffff168152602001908152602001600020600001819055505050505050565b60008161143390611977565b905060006114946005600087815260200190815260200160002060008673ffffffffffffffffffffffffffffffffffffffff1673ffffffffffffffffffffffffffffffffffffffff16815260200190815260200160002060000154836114f5565b9050806005600087815260200190815260200160002060008673ffffffffffffffffffffffffffffffffffffffff1673ffffffffffffffffffffffffffffffffffffffff168152602001908152602001600020600001819055505050505050565b6000808390506000838261150991906119c0565b9050600081905080935050505092915050565b600080fd5b6000819050919050565b61153481611521565b811461153f57600080fd5b50565b6000813590506115518161152b565b92915050565b600073ffffffffffffffffffffffffffffffffffffffff82169050919050565b600061158282611557565b9050919050565b61159281611577565b811461159d57600080fd5b50565b6000813590506115af81611589565b92915050565b600080600080608085870312156115cf576115ce61151c565b5b60006115dd87828801611542565b94505060206115ee878288016115a0565b93505060406115ff878288016115a0565b925050606061161087828801611542565b91505092959194509250565b6000806000606084860312156116355761163461151c565b5b600061164386828701611542565b9350506020611654868287016115a0565b9250506040611665868287016115a0565b9150509250925092565b61167881611521565b82525050565b6000602082019050611693600083018461166f565b92915050565b6000806000606084860312156116b2576116b161151c565b5b60006116c086828701611542565b93505060206116d1868287016115a0565b92505060406116e286828701611542565b9150509250925092565b6000602082840312156117025761170161151c565b5b600061171084828501611542565b91505092915050565b600080604083850312156117305761172f61151c565b5b600061173e85828601611542565b925050602061174f858286016115a0565b9150509250929050565b600082825260208201905092915050565b7f52756c6520636f6e646974696f6e206661696c65640000000000000000000000600082015250565b60006117a0601583611759565b91506117ab8261176a565b602082019050919050565b600060208201905081810360008301526117cf81611793565b9050919050565b6117df81611577565b82525050565b600060a0820190506117fa600083018861166f565b61180760208301876117d6565b61181460408301866117d6565b61182160608301856117d6565b61182e608083018461166f565b9695505050505050565b600060608201905061184d600083018661166f565b61185a60208301856117d6565b611867604083018461166f565b949350505050565b7f4e487b7100000000000000000000000000000000000000000000000000000000600052601160045260246000fd5b60006118a982611521565b91506118b483611521565b9250828210156118c7576118c661186f565b5b828203905092915050565b60006080820190506118e7600083018761166f565b6118f460208301866117d6565b61190160408301856117d6565b61190e606083018461166f565b95945050505050565b600061192282611521565b915061192d83611521565b9250827fffffffffffffffffffffffffffffffffffffffffffffffffffffffffffffffff038211156119625761196161186f565b5b828201905092915050565b6000819050919050565b60006119828261196d565b91507f80000000000000000000000000000000000000000000000000000000000000008214156119b5576119b461186f565b5b816000039050919050565b60006119cb8261196d565b91506119d68361196d565b9250817f7fffffffffffffffffffffffffffffffffffffffffffffffffffffffffffffff03831360008312151615611a1157611a1061186f565b5b817f8000000000000000000000000000000000000000000000000000000000000000038312600083121615611a4957611a4861186f565b5b82820190509291505056fea26469706673582212201e4f0df9b0af129eacf08440fe03dc5106930f1379787753ce37b4ee5e714e3b64736f6c634300080c0033",
  "immutableReferences": {},
  "source": "contract Erc1155 {\n  struct SpentTotalTuple {\n    uint m;\n    bool _valid;\n  }\n  struct TotalBurnTuple {\n    uint n;\n    bool _valid;\n  }\n  struct BalanceOfTuple {\n    uint n;\n    bool _valid;\n  }\n  struct TotalSupplyTuple {\n    uint n;\n    bool _valid;\n  }\n  struct AllMintTuple {\n    uint n;\n    bool _valid;\n  }\n  struct TotalOutTuple {\n    uint n;\n    bool _valid;\n  }\n  struct OwnerTuple {\n    address p;\n    bool _valid;\n  }\n  struct AllBurnTuple {\n    uint n;\n    bool _valid;\n  }\n  struct TotalInTuple {\n    uint n;\n    bool _valid;\n  }\n  struct AllowanceTotalTuple {\n    uint m;\n    bool _valid;\n  }\n  struct AllowanceTuple {\n    uint n;\n    bool _valid;\n  }\n  struct TotalMintTuple {\n    uint n;\n    bool _valid;\n  }\n  mapping(uint=>mapping(address=>TotalOutTuple)) totalOut;\n  mapping(uint=>mapping(address=>mapping(address=>SpentTotalTuple))) spentTotal;\n  mapping(uint=>mapping(address=>TotalInTuple)) totalIn;\n  mapping(uint=>mapping(address=>mapping(address=>AllowanceTotalTuple))) allowanceTotal;\n  mapping(uint=>mapping(address=>TotalBurnTuple)) totalBurn;\n  mapping(uint=>mapping(address=>BalanceOfTuple)) balanceOf;\n  mapping(uint=>TotalSupplyTuple) totalSupply;\n  mapping(uint=>AllMintTuple) allMint;\n  OwnerTuple owner;\n  mapping(uint=>AllBurnTuple) allBurn;\n  mapping(uint=>mapping(address=>mapping(address=>AllowanceTuple))) allowance;\n  mapping(uint=>mapping(address=>TotalMintTuple)) totalMint;\n  event Burn(uint tokenId,address p,uint amount);\n  event Transfer(uint tokenId,address from,address to,uint amount);\n  event TransferFrom(uint tokenId,address from,address to,address spender,uint amount);\n  event Mint(uint tokenId,address p,uint amount);\n  event IncreaseAllowance(uint tokenId,address p,address s,uint n);\n  constructor() public {\n    updateOwnerOnInsertConstructor_r6();\n  }\n  function approve(uint tokenId,address s,uint n) public    {\n      bool r1 = updateIncreaseAllowanceOnInsertRecv_approve_r1(tokenId,s,n);\n      if(r1==false) {\n        revert(\"Rule condition failed\");\n      }\n  }\n  function mint(uint tokenId,address p,uint amount) public    {\n      bool r7 = updateMintOnInsertRecv_mint_r7(tokenId,p,amount);\n      if(r7==false) {\n        revert(\"Rule condition failed\");\n      }\n  }\n  function transfer(uint tokenId,address to,uint amount) public    {\n      bool r9 = updateTransferOnInsertRecv_transfer_r9(tokenId,to,amount);\n      if(r9==false) {\n        revert(\"Rule condition failed\");\n      }\n  }\n  function transferFrom(uint tokenId,address from,address to,uint amount) public    {\n      bool r18 = updateTransferFromOnInsertRecv_transferFrom_r18(tokenId,from,to,amount);\n      if(r18==false) {\n        revert(\"Rule condition failed\");\n      }\n  }\n  function burn(uint tokenId,address p,uint amount) public    {\n      bool r4 = updateBurnOnInsertRecv_burn_r4(tokenId,p,amount);\n      if(r4==false) {\n        revert(\"Rule condition failed\");\n      }\n  }\n  function getAllowance(uint tokenId,address p,address s) public view  returns (uint) {\n      uint n = allowance[tokenId][p][s].n;\n      return n;\n  }\n  function getTotalSupply(uint tokenId) public view  returns (uint) {\n      uint n = totalSupply[tokenId].n;\n      return n;\n  }\n  function getBalanceOf(uint tokenId,address p) public view  returns (uint) {\n      uint n = balanceOf[tokenId][p].n;\n      return n;\n  }\n  function updateAllowanceTotalOnInsertIncreaseAllowance_r16(uint t,address o,address s,uint n) private    {\n      int delta0 = int(n);\n      updateAllowanceOnIncrementAllowanceTotal_r0(t,o,s,delta0);\n      allowanceTotal[t][o][s].m += n;\n  }\n  function updateAllBurnOnInsertBurn_r3(uint t,uint n) private    {\n      int delta0 = int(n);\n      updateTotalSupplyOnIncrementAllBurn_r10(t,delta0);\n      allBurn[t].n += n;\n  }\n  function updateBurnOnInsertRecv_burn_r4(uint t,address p,uint n) private   returns (bool) {\n      address s = owner.p;\n      if(s==msg.sender) {\n        uint m = balanceOf[t][p].n;\n        if(p!=address(0) && n<=m) {\n          updateAllBurnOnInsertBurn_r3(t,n);\n          updateTotalBurnOnInsertBurn_r5(t,p,n);\n          emit Burn(t,p,n);\n          return true;\n        }\n      }\n      return false;\n  }\n  function updateAllowanceOnIncrementAllowanceTotal_r0(uint t,address o,address s,int m) private    {\n      int _delta = int(m);\n      uint newValue = updateuintByint(allowance[t][o][s].n,_delta);\n      allowance[t][o][s].n = newValue;\n  }\n  function updateAllowanceOnIncrementSpentTotal_r0(uint t,address o,address s,int l) private    {\n      int _delta = int(-l);\n      uint newValue = updateuintByint(allowance[t][o][s].n,_delta);\n      allowance[t][o][s].n = newValue;\n  }\n  function updateOwnerOnInsertConstructor_r6() private    {\n      address s = msg.sender;\n      owner = OwnerTuple(s,true);\n  }\n  function updateSpentTotalOnInsertTransferFrom_r17(uint t,address o,address s,uint n) private    {\n      int delta0 = int(n);\n      updateAllowanceOnIncrementSpentTotal_r0(t,o,s,delta0);\n      spentTotal[t][o][s].m += n;\n  }\n  function updateTotalMintOnInsertMint_r13(uint t,address p,uint n) private    {\n      int delta0 = int(n);\n      updateBalanceOfOnIncrementTotalMint_r2(t,p,delta0);\n      totalMint[t][p].n += n;\n  }\n  function updateuintByint(uint x,int delta) private   returns (uint) {\n      int convertedX = int(x);\n      int value = convertedX+delta;\n      uint convertedValue = uint(value);\n      return convertedValue;\n  }\n  function updateAllMintOnInsertMint_r14(uint t,uint n) private    {\n      int delta0 = int(n);\n      updateTotalSupplyOnIncrementAllMint_r10(t,delta0);\n      allMint[t].n += n;\n  }\n  function updateBalanceOfOnIncrementTotalOut_r2(uint t,address p,int o) private    {\n      int _delta = int(-o);\n      uint newValue = updateuintByint(balanceOf[t][p].n,_delta);\n      balanceOf[t][p].n = newValue;\n  }\n  function updateTransferOnInsertRecv_transfer_r9(uint t,address r,uint n) private   returns (bool) {\n      address s = msg.sender;\n      uint m = balanceOf[t][s].n;\n      if(n<=m) {\n        updateTotalInOnInsertTransfer_r15(t,r,n);\n        updateTotalOutOnInsertTransfer_r12(t,s,n);\n        emit Transfer(t,s,r,n);\n        return true;\n      }\n      return false;\n  }\n  function updateMintOnInsertRecv_mint_r7(uint t,address p,uint n) private   returns (bool) {\n      address s = owner.p;\n      if(s==msg.sender) {\n        if(p!=address(0)) {\n          updateTotalMintOnInsertMint_r13(t,p,n);\n          updateAllMintOnInsertMint_r14(t,n);\n          emit Mint(t,p,n);\n          return true;\n        }\n      }\n      return false;\n  }\n  function updateBalanceOfOnIncrementTotalMint_r2(uint t,address p,int n) private    {\n      int _delta = int(n);\n      uint newValue = updateuintByint(balanceOf[t][p].n,_delta);\n      balanceOf[t][p].n = newValue;\n  }\n  function updateIncreaseAllowanceOnInsertRecv_approve_r1(uint t,address s,uint n) private   returns (bool) {\n      address o = msg.sender;\n      uint m = allowance[t][o][s].n;\n      uint d = n-m;\n      updateAllowanceTotalOnInsertIncreaseAllowance_r16(t,o,s,d);\n      emit IncreaseAllowance(t,o,s,d);\n      return true;\n      return false;\n  }\n  function updateTransferFromOnInsertRecv_transferFrom_r18(uint t,address o,address r,uint n) private   returns (bool) {\n      address s = msg.sender;\n      uint k = allowance[t][o][s].n;\n      uint m = balanceOf[t][o].n;\n      if(m>=n && k>=n) {\n        updateTransferOnInsertTransferFrom_r8(t,o,r,n);\n        updateSpentTotalOnInsertTransferFrom_r17(t,o,s,n);\n        emit TransferFrom(t,o,r,s,n);\n        return true;\n      }\n      return false;\n  }\n  function updateTotalInOnInsertTransfer_r15(uint t,address p,uint n) private    {\n      int delta0 = int(n);\n      updateBalanceOfOnIncrementTotalIn_r2(t,p,delta0);\n      totalIn[t][p].n += n;\n  }\n  function updateTotalOutOnInsertTransfer_r12(uint t,address p,uint n) private    {\n      int delta0 = int(n);\n      updateBalanceOfOnIncrementTotalOut_r2(t,p,delta0);\n      totalOut[t][p].n += n;\n  }\n  function updateTotalBurnOnInsertBurn_r5(uint t,address p,uint n) private    {\n      int delta0 = int(n);\n      updateBalanceOfOnIncrementTotalBurn_r2(t,p,delta0);\n      totalBurn[t][p].n += n;\n  }\n  function updateTotalSupplyOnIncrementAllMint_r10(uint t,int m) private    {\n      int _delta = int(m);\n      uint newValue = updateuintByint(totalSupply[t].n,_delta);\n      totalSupply[t].n = newValue;\n  }\n  function updateTotalSupplyOnIncrementAllBurn_r10(uint t,int b) private    {\n      int _delta = int(-b);\n      uint newValue = updateuintByint(totalSupply[t].n,_delta);\n      totalSupply[t].n = newValue;\n  }\n  function updateTransferOnInsertTransferFrom_r8(uint t,address o,address r,uint n) private    {\n      updateTotalInOnInsertTransfer_r15(t,r,n);\n      updateTotalOutOnInsertTransfer_r12(t,o,n);\n      emit Transfer(t,o,r,n);\n  }\n  function updateBalanceOfOnIncrementTotalBurn_r2(uint t,address p,int m) private    {\n      int _delta = int(-m);\n      uint newValue = updateuintByint(balanceOf[t][p].n,_delta);\n      balanceOf[t][p].n = newValue;\n  }\n  function updateBalanceOfOnIncrementTotalIn_r2(uint t,address p,int i) private    {\n      int _delta = int(i);\n      uint newValue = updateuintByint(balanceOf[t][p].n,_delta);\n      balanceOf[t][p].n = newValue;\n  }\n}",
  "sourcePath": "/home/lan/gasOpt/declarative-smart-contracts/solidity/full/erc1155.sol",
  "compiler": {
    "name": "solc",
    "version": "0.8.12+commit.f00d7308.Emscripten.clang"
  },
  "schemaVersion": "3.4.14",
  "updatedAt": "2023-09-19T03:58:48.707Z",
  "devdoc": {
    "kind": "dev",
    "methods": {},
    "version": 1
  },
  "userdoc": {
    "kind": "user",
    "methods": {},
    "version": 1
  }
}