{
  "contractName": "Erc20",
  "abi": [
    {
      "inputs": [],
      "stateMutability": "nonpayable",
      "type": "constructor"
    },
    {
      "anonymous": false,
      "inputs": [
        {
          "indexed": false,
          "internalType": "address",
          "name": "p",
          "type": "address"
        },
        {
          "indexed": false,
          "internalType": "uint256",
          "name": "amount",
          "type": "uint256"
        }
      ],
      "name": "Burn",
      "type": "event"
    },
    {
      "anonymous": false,
      "inputs": [
        {
          "indexed": false,
          "internalType": "address",
          "name": "p",
          "type": "address"
        },
        {
          "indexed": false,
          "internalType": "address",
          "name": "s",
          "type": "address"
        },
        {
          "indexed": false,
          "internalType": "uint256",
          "name": "n",
          "type": "uint256"
        }
      ],
      "name": "IncreaseAllowance",
      "type": "event"
    },
    {
      "anonymous": false,
      "inputs": [
        {
          "indexed": false,
          "internalType": "address",
          "name": "p",
          "type": "address"
        },
        {
          "indexed": false,
          "internalType": "uint256",
          "name": "amount",
          "type": "uint256"
        }
      ],
      "name": "Mint",
      "type": "event"
    },
    {
      "anonymous": false,
      "inputs": [
        {
          "indexed": false,
          "internalType": "address",
          "name": "from",
          "type": "address"
        },
        {
          "indexed": false,
          "internalType": "address",
          "name": "to",
          "type": "address"
        },
        {
          "indexed": false,
          "internalType": "uint256",
          "name": "amount",
          "type": "uint256"
        }
      ],
      "name": "Transfer",
      "type": "event"
    },
    {
      "anonymous": false,
      "inputs": [
        {
          "indexed": false,
          "internalType": "address",
          "name": "from",
          "type": "address"
        },
        {
          "indexed": false,
          "internalType": "address",
          "name": "to",
          "type": "address"
        },
        {
          "indexed": false,
          "internalType": "address",
          "name": "spender",
          "type": "address"
        },
        {
          "indexed": false,
          "internalType": "uint256",
          "name": "amount",
          "type": "uint256"
        }
      ],
      "name": "TransferFrom",
      "type": "event"
    },
    {
      "inputs": [
        {
          "internalType": "address",
          "name": "from",
          "type": "address"
        },
        {
          "internalType": "address",
          "name": "to",
          "type": "address"
        },
        {
          "internalType": "uint256",
          "name": "amount",
          "type": "uint256"
        }
      ],
      "name": "transferFrom",
      "outputs": [],
      "stateMutability": "nonpayable",
      "type": "function"
    },
    {
      "inputs": [
        {
          "internalType": "address",
          "name": "s",
          "type": "address"
        },
        {
          "internalType": "uint256",
          "name": "n",
          "type": "uint256"
        }
      ],
      "name": "approve",
      "outputs": [],
      "stateMutability": "nonpayable",
      "type": "function"
    },
    {
      "inputs": [
        {
          "internalType": "address",
          "name": "p",
          "type": "address"
        },
        {
          "internalType": "uint256",
          "name": "amount",
          "type": "uint256"
        }
      ],
      "name": "mint",
      "outputs": [],
      "stateMutability": "nonpayable",
      "type": "function"
    },
    {
      "inputs": [],
      "name": "getTotalSupply",
      "outputs": [
        {
          "internalType": "uint256",
          "name": "",
          "type": "uint256"
        }
      ],
      "stateMutability": "view",
      "type": "function"
    },
    {
      "inputs": [
        {
          "internalType": "address",
          "name": "p",
          "type": "address"
        },
        {
          "internalType": "address",
          "name": "s",
          "type": "address"
        }
      ],
      "name": "getAllowance",
      "outputs": [
        {
          "internalType": "uint256",
          "name": "",
          "type": "uint256"
        }
      ],
      "stateMutability": "view",
      "type": "function"
    },
    {
      "inputs": [
        {
          "internalType": "address",
          "name": "p",
          "type": "address"
        }
      ],
      "name": "getBalanceOf",
      "outputs": [
        {
          "internalType": "uint256",
          "name": "",
          "type": "uint256"
        }
      ],
      "stateMutability": "view",
      "type": "function"
    },
    {
      "inputs": [
        {
          "internalType": "address",
          "name": "to",
          "type": "address"
        },
        {
          "internalType": "uint256",
          "name": "amount",
          "type": "uint256"
        }
      ],
      "name": "transfer",
      "outputs": [],
      "stateMutability": "nonpayable",
      "type": "function"
    },
    {
      "inputs": [
        {
          "internalType": "address",
          "name": "p",
          "type": "address"
        },
        {
          "internalType": "uint256",
          "name": "amount",
          "type": "uint256"
        }
      ],
      "name": "burn",
      "outputs": [],
      "stateMutability": "nonpayable",
      "type": "function"
    }
  ],
  "bytecode": "0x608060405234801561001057600080fd5b5061001f61004060201b60201c565b61002d61004260201b60201c565b61003b61008c60201b60201c565b61012e565b565b6040518060400160405280600081526020016001151581525060056000820151816000015560208201518160010160006101000a81548160ff021916908315150217905550905050565b600033905060405180604001604052808273ffffffffffffffffffffffffffffffffffffffff16815260200160011515815250600360008201518160000160006101000a81548173ffffffffffffffffffffffffffffffffffffffff021916908373ffffffffffffffffffffffffffffffffffffffff16021790555060208201518160000160146101000a81548160ff02191690831515021790555090505050565b6117718061013d6000396000f3fe608060405234801561001057600080fd5b50600436106100885760003560e01c80639b96eece1161005b5780639b96eece146101115780639dc29fac14610141578063a9059cbb1461015d578063c4e41b221461017957610088565b8063095ea7b31461008d5780630af4187d146100a957806323b872dd146100d957806340c10f19146100f5575b600080fd5b6100a760048036038101906100a29190611340565b610197565b005b6100c360048036038101906100be9190611380565b6101f2565b6040516100d091906113cf565b60405180910390f35b6100f360048036038101906100ee91906113ea565b610281565b005b61010f600480360381019061010a9190611340565b6102de565b005b61012b6004803603810190610126919061143d565b610339565b60405161013891906113cf565b60405180910390f35b61015b60048036038101906101569190611340565b61038a565b005b61017760048036038101906101729190611340565b6103e5565b005b610181610440565b60405161018e91906113cf565b60405180910390f35b60006101a38383610452565b90506000151581151514156101ed576040517f08c379a00000000000000000000000000000000000000000000000000000000081526004016101e4906114c7565b60405180910390fd5b505050565b600080600b60008573ffffffffffffffffffffffffffffffffffffffff1673ffffffffffffffffffffffffffffffffffffffff16815260200190815260200160002060008473ffffffffffffffffffffffffffffffffffffffff1673ffffffffffffffffffffffffffffffffffffffff1681526020019081526020016000206000015490508091505092915050565b600061028e84848461053f565b90506000151581151514156102d8576040517f08c379a00000000000000000000000000000000000000000000000000000000081526004016102cf906114c7565b60405180910390fd5b50505050565b60006102ea8383610693565b9050600015158115151415610334576040517f08c379a000000000000000000000000000000000000000000000000000000000815260040161032b906114c7565b60405180910390fd5b505050565b600080600c60008473ffffffffffffffffffffffffffffffffffffffff1673ffffffffffffffffffffffffffffffffffffffff16815260200190815260200160002060000154905080915050919050565b60006103968383610789565b90506000151581151514156103e0576040517f08c379a00000000000000000000000000000000000000000000000000000000081526004016103d7906114c7565b60405180910390fd5b505050565b60006103f183836108d6565b905060001515811515141561043b576040517f08c379a0000000000000000000000000000000000000000000000000000000008152600401610432906114c7565b60405180910390fd5b505050565b60008060056000015490508091505090565b6000803390506000600b60008373ffffffffffffffffffffffffffffffffffffffff1673ffffffffffffffffffffffffffffffffffffffff16815260200190815260200160002060008673ffffffffffffffffffffffffffffffffffffffff1673ffffffffffffffffffffffffffffffffffffffff168152602001908152602001600020600001549050600081856104ea9190611516565b90506104f7838783610991565b7f01722f0e92ffd761d4a842cffdd36fe3adb6091e41732a4e714250176b7d8d2283878360405161052a93929190611559565b60405180910390a16001935050505092915050565b6000803390506000600b60008773ffffffffffffffffffffffffffffffffffffffff1673ffffffffffffffffffffffffffffffffffffffff16815260200190815260200160002060008373ffffffffffffffffffffffffffffffffffffffff1673ffffffffffffffffffffffffffffffffffffffff1681526020019081526020016000206000015490506000600c60008873ffffffffffffffffffffffffffffffffffffffff1673ffffffffffffffffffffffffffffffffffffffff1681526020019081526020016000206000015490508481101580156106205750848210155b1561068457610630878787610a3d565b61063b878487610a91565b7f5f7542858008eeb041631f30e6109ae94b83a58e9a58261dd2c42c508850f939878785886040516106709493929190611590565b60405180910390a16001935050505061068c565b600093505050505b9392505050565b600080600360000160009054906101000a900473ffffffffffffffffffffffffffffffffffffffff1690503373ffffffffffffffffffffffffffffffffffffffff168173ffffffffffffffffffffffffffffffffffffffff16141561077d57600073ffffffffffffffffffffffffffffffffffffffff168473ffffffffffffffffffffffffffffffffffffffff161461077c576107308484610b3d565b61073983610baa565b7f0f6798a560793a54c3bcfe86a93cde1e73087d944c0ea20544137d4121396885848460405161076a9291906115d5565b60405180910390a16001915050610783565b5b60009150505b92915050565b600080600360000160009054906101000a900473ffffffffffffffffffffffffffffffffffffffff1690503373ffffffffffffffffffffffffffffffffffffffff168173ffffffffffffffffffffffffffffffffffffffff1614156108ca576000600c60008673ffffffffffffffffffffffffffffffffffffffff1673ffffffffffffffffffffffffffffffffffffffff168152602001908152602001600020600001549050600073ffffffffffffffffffffffffffffffffffffffff168573ffffffffffffffffffffffffffffffffffffffff161415801561086c5750808411155b156108c85761087b8585610bd8565b61088484610c45565b7fcc16f5dbb4873280815c1ee09dbd06736cffcc184412cf7a71a0fdb75d397ca585856040516108b59291906115d5565b60405180910390a16001925050506108d0565b505b60009150505b92915050565b6000803390506000600c60008373ffffffffffffffffffffffffffffffffffffffff1673ffffffffffffffffffffffffffffffffffffffff168152602001908152602001600020600001549050808411610984576109348285610c73565b61093e8585610ce0565b7fddf252ad1be2c89b69c2b068fc378daa952ba7f163c4a11628f55a4df523b3ef82868660405161097193929190611559565b60405180910390a160019250505061098b565b6000925050505b92915050565b60008190506109a1848483610d4c565b81600960008673ffffffffffffffffffffffffffffffffffffffff1673ffffffffffffffffffffffffffffffffffffffff16815260200190815260200160002060008573ffffffffffffffffffffffffffffffffffffffff1673ffffffffffffffffffffffffffffffffffffffff1681526020019081526020016000206000016000828254610a3091906115fe565b9250508190555050505050565b610a478382610c73565b610a518282610ce0565b7fddf252ad1be2c89b69c2b068fc378daa952ba7f163c4a11628f55a4df523b3ef838383604051610a8493929190611559565b60405180910390a1505050565b6000819050610aa1848483610e69565b81600a60008673ffffffffffffffffffffffffffffffffffffffff1673ffffffffffffffffffffffffffffffffffffffff16815260200190815260200160002060008573ffffffffffffffffffffffffffffffffffffffff1673ffffffffffffffffffffffffffffffffffffffff1681526020019081526020016000206000016000828254610b3091906115fe565b9250508190555050505050565b6000819050610b4c8382610f8f565b81600460008573ffffffffffffffffffffffffffffffffffffffff1673ffffffffffffffffffffffffffffffffffffffff1681526020019081526020016000206000016000828254610b9e91906115fe565b92505081905550505050565b6000819050610bb881611031565b8160076000016000828254610bcd91906115fe565b925050819055505050565b6000819050610be78382611058565b81600260008573ffffffffffffffffffffffffffffffffffffffff1673ffffffffffffffffffffffffffffffffffffffff1681526020019081526020016000206000016000828254610c3991906115fe565b92505081905550505050565b6000819050610c5381611103565b81600d6000016000828254610c6891906115fe565b925050819055505050565b6000819050610c828382611133565b81600160008573ffffffffffffffffffffffffffffffffffffffff1673ffffffffffffffffffffffffffffffffffffffff1681526020019081526020016000206000016000828254610cd491906115fe565b92505081905550505050565b6000819050610cef83826111de565b816000808573ffffffffffffffffffffffffffffffffffffffff1673ffffffffffffffffffffffffffffffffffffffff1681526020019081526020016000206000016000828254610d4091906115fe565b92505081905550505050565b60008190506000610ddc600b60008773ffffffffffffffffffffffffffffffffffffffff1673ffffffffffffffffffffffffffffffffffffffff16815260200190815260200160002060008673ffffffffffffffffffffffffffffffffffffffff1673ffffffffffffffffffffffffffffffffffffffff1681526020019081526020016000206000015483611280565b905080600b60008773ffffffffffffffffffffffffffffffffffffffff1673ffffffffffffffffffffffffffffffffffffffff16815260200190815260200160002060008673ffffffffffffffffffffffffffffffffffffffff1673ffffffffffffffffffffffffffffffffffffffff168152602001908152602001600020600001819055505050505050565b600081610e759061165e565b90506000610f02600b60008773ffffffffffffffffffffffffffffffffffffffff1673ffffffffffffffffffffffffffffffffffffffff16815260200190815260200160002060008673ffffffffffffffffffffffffffffffffffffffff1673ffffffffffffffffffffffffffffffffffffffff1681526020019081526020016000206000015483611280565b905080600b60008773ffffffffffffffffffffffffffffffffffffffff1673ffffffffffffffffffffffffffffffffffffffff16815260200190815260200160002060008673ffffffffffffffffffffffffffffffffffffffff1673ffffffffffffffffffffffffffffffffffffffff168152602001908152602001600020600001819055505050505050565b60008190506000610fe2600c60008673ffffffffffffffffffffffffffffffffffffffff1673ffffffffffffffffffffffffffffffffffffffff1681526020019081526020016000206000015483611280565b905080600c60008673ffffffffffffffffffffffffffffffffffffffff1673ffffffffffffffffffffffffffffffffffffffff1681526020019081526020016000206000018190555050505050565b6000819050600061104760056000015483611280565b905080600560000181905550505050565b6000816110649061165e565b905060006110b4600c60008673ffffffffffffffffffffffffffffffffffffffff1673ffffffffffffffffffffffffffffffffffffffff1681526020019081526020016000206000015483611280565b905080600c60008673ffffffffffffffffffffffffffffffffffffffff1673ffffffffffffffffffffffffffffffffffffffff1681526020019081526020016000206000018190555050505050565b60008161110f9061165e565b9050600061112260056000015483611280565b905080600560000181905550505050565b60008161113f9061165e565b9050600061118f600c60008673ffffffffffffffffffffffffffffffffffffffff1673ffffffffffffffffffffffffffffffffffffffff1681526020019081526020016000206000015483611280565b905080600c60008673ffffffffffffffffffffffffffffffffffffffff1673ffffffffffffffffffffffffffffffffffffffff1681526020019081526020016000206000018190555050505050565b60008190506000611231600c60008673ffffffffffffffffffffffffffffffffffffffff1673ffffffffffffffffffffffffffffffffffffffff1681526020019081526020016000206000015483611280565b905080600c60008673ffffffffffffffffffffffffffffffffffffffff1673ffffffffffffffffffffffffffffffffffffffff1681526020019081526020016000206000018190555050505050565b6000808390506000838261129491906116a7565b9050600081905080935050505092915050565b600080fd5b600073ffffffffffffffffffffffffffffffffffffffff82169050919050565b60006112d7826112ac565b9050919050565b6112e7816112cc565b81146112f257600080fd5b50565b600081359050611304816112de565b92915050565b6000819050919050565b61131d8161130a565b811461132857600080fd5b50565b60008135905061133a81611314565b92915050565b60008060408385031215611357576113566112a7565b5b6000611365858286016112f5565b92505060206113768582860161132b565b9150509250929050565b60008060408385031215611397576113966112a7565b5b60006113a5858286016112f5565b92505060206113b6858286016112f5565b9150509250929050565b6113c98161130a565b82525050565b60006020820190506113e460008301846113c0565b92915050565b600080600060608486031215611403576114026112a7565b5b6000611411868287016112f5565b9350506020611422868287016112f5565b92505060406114338682870161132b565b9150509250925092565b600060208284031215611453576114526112a7565b5b6000611461848285016112f5565b91505092915050565b600082825260208201905092915050565b7f52756c6520636f6e646974696f6e206661696c65640000000000000000000000600082015250565b60006114b160158361146a565b91506114bc8261147b565b602082019050919050565b600060208201905081810360008301526114e0816114a4565b9050919050565b7f4e487b7100000000000000000000000000000000000000000000000000000000600052601160045260246000fd5b60006115218261130a565b915061152c8361130a565b92508282101561153f5761153e6114e7565b5b828203905092915050565b611553816112cc565b82525050565b600060608201905061156e600083018661154a565b61157b602083018561154a565b61158860408301846113c0565b949350505050565b60006080820190506115a5600083018761154a565b6115b2602083018661154a565b6115bf604083018561154a565b6115cc60608301846113c0565b95945050505050565b60006040820190506115ea600083018561154a565b6115f760208301846113c0565b9392505050565b60006116098261130a565b91506116148361130a565b9250827fffffffffffffffffffffffffffffffffffffffffffffffffffffffffffffffff03821115611649576116486114e7565b5b828201905092915050565b6000819050919050565b600061166982611654565b91507f800000000000000000000000000000000000000000000000000000000000000082141561169c5761169b6114e7565b5b816000039050919050565b60006116b282611654565b91506116bd83611654565b9250817f7fffffffffffffffffffffffffffffffffffffffffffffffffffffffffffffff038313600083121516156116f8576116f76114e7565b5b817f80000000000000000000000000000000000000000000000000000000000000000383126000831216156117305761172f6114e7565b5b82820190509291505056fea26469706673582212200a9ded8c13c91fae11232b19529ab474c1b5dcecbe8fc0b82f8f1a5fac7e49bf64736f6c634300080c0033",
  "immutableReferences": {},
  "source": "contract Erc20 {\n  struct TotalInTuple {\n    uint n;\n    bool _valid;\n  }\n  struct TotalOutTuple {\n    uint n;\n    bool _valid;\n  }\n  struct OwnerTuple {\n    address p;\n    bool _valid;\n  }\n  struct TotalMintTuple {\n    uint n;\n    bool _valid;\n  }\n  struct TotalSupplyTuple {\n    uint n;\n    bool _valid;\n  }\n  struct AllMintTuple {\n    uint n;\n    bool _valid;\n  }\n  struct AllowanceTotalTuple {\n    uint m;\n    bool _valid;\n  }\n  struct SpentTotalTuple {\n    uint m;\n    bool _valid;\n  }\n  struct AllowanceTuple {\n    uint n;\n    bool _valid;\n  }\n  struct TotalBurnTuple {\n    uint n;\n    bool _valid;\n  }\n  struct BalanceOfTuple {\n    uint n;\n    bool _valid;\n  }\n  struct AllBurnTuple {\n    uint n;\n    bool _valid;\n  }\n  mapping(address=>TotalInTuple) totalIn;\n  mapping(address=>TotalOutTuple) totalOut;\n  mapping(address=>TotalBurnTuple) totalBurn;\n  OwnerTuple owner;\n  mapping(address=>TotalMintTuple) totalMint;\n  TotalSupplyTuple totalSupply;\n  AllMintTuple allMint;\n  mapping(address=>mapping(address=>AllowanceTotalTuple)) allowanceTotal;\n  mapping(address=>mapping(address=>SpentTotalTuple)) spentTotal;\n  mapping(address=>mapping(address=>AllowanceTuple)) allowance;\n  mapping(address=>BalanceOfTuple) balanceOf;\n  AllBurnTuple allBurn;\n  event TransferFrom(address from,address to,address spender,uint amount);\n  event Burn(address p,uint amount);\n  event Mint(address p,uint amount);\n  event IncreaseAllowance(address p,address s,uint n);\n  event Transfer(address from,address to,uint amount);\n  constructor() public {\n    updateTotalBalancesOnInsertConstructor_r21();\n    updateTotalSupplyOnInsertConstructor_r1();\n    updateOwnerOnInsertConstructor_r7();\n  }\n  function transferFrom(address from,address to,uint amount) public    {\n      bool r18 = updateTransferFromOnInsertRecv_transferFrom_r18(from,to,amount);\n      if(r18==false) {\n        revert(\"Rule condition failed\");\n      }\n  }\n  function approve(address s,uint n) public    {\n      bool r17 = updateIncreaseAllowanceOnInsertRecv_approve_r17(s,n);\n      if(r17==false) {\n        revert(\"Rule condition failed\");\n      }\n  }\n  function mint(address p,uint amount) public    {\n      bool r16 = updateMintOnInsertRecv_mint_r16(p,amount);\n      if(r16==false) {\n        revert(\"Rule condition failed\");\n      }\n  }\n  function getTotalSupply() public view  returns (uint) {\n      uint n = totalSupply.n;\n      return n;\n  }\n  function getAllowance(address p,address s) public view  returns (uint) {\n      uint n = allowance[p][s].n;\n      return n;\n  }\n  function getBalanceOf(address p) public view  returns (uint) {\n      uint n = balanceOf[p].n;\n      return n;\n  }\n  function transfer(address to,uint amount) public    {\n      bool r12 = updateTransferOnInsertRecv_transfer_r12(to,amount);\n      if(r12==false) {\n        revert(\"Rule condition failed\");\n      }\n  }\n  function burn(address p,uint amount) public    {\n      bool r4 = updateBurnOnInsertRecv_burn_r4(p,amount);\n      if(r4==false) {\n        revert(\"Rule condition failed\");\n      }\n  }\n  function updateTransferOnInsertTransferFrom_r0(address o,address r,uint n) private    {\n      updateTotalOutOnInsertTransfer_r13(o,n);\n      updateTotalInOnInsertTransfer_r8(r,n);\n      emit Transfer(o,r,n);\n  }\n  function updateBalanceOfOnIncrementTotalBurn_r5(address p,int m) private    {\n      int _delta = int(-m);\n      uint newValue = updateuintByint(balanceOf[p].n,_delta);\n      balanceOf[p].n = newValue;\n  }\n  function updateAllMintOnInsertMint_r2(uint n) private    {\n      int delta0 = int(n);\n      updateTotalSupplyOnIncrementAllMint_r11(delta0);\n      allMint.n += n;\n  }\n  function updateTotalBurnOnInsertBurn_r9(address p,uint n) private    {\n      int delta0 = int(n);\n      updateBalanceOfOnIncrementTotalBurn_r5(p,delta0);\n      totalBurn[p].n += n;\n  }\n  function updateuintByint(uint x,int delta) private   returns (uint) {\n      int convertedX = int(x);\n      int value = convertedX+delta;\n      uint convertedValue = uint(value);\n      return convertedValue;\n  }\n  function updateIncreaseAllowanceOnInsertRecv_approve_r17(address s,uint n) private   returns (bool) {\n      address o = msg.sender;\n      uint m = allowance[o][s].n;\n      uint d = n-m;\n      updateAllowanceTotalOnInsertIncreaseAllowance_r20(o,s,d);\n      emit IncreaseAllowance(o,s,d);\n      return true;\n      return false;\n  }\n  function updateBalanceOfOnIncrementTotalMint_r5(address p,int n) private    {\n      int _delta = int(n);\n      uint newValue = updateuintByint(balanceOf[p].n,_delta);\n      balanceOf[p].n = newValue;\n  }\n  function updateTotalOutOnInsertTransfer_r13(address p,uint n) private    {\n      int delta0 = int(n);\n      updateBalanceOfOnIncrementTotalOut_r5(p,delta0);\n      totalOut[p].n += n;\n  }\n  function updateBalanceOfOnIncrementTotalIn_r5(address p,int i) private    {\n      int _delta = int(i);\n      uint newValue = updateuintByint(balanceOf[p].n,_delta);\n      balanceOf[p].n = newValue;\n  }\n  function updateTotalSupplyOnInsertConstructor_r1() private    {\n      totalSupply = TotalSupplyTuple(0,true);\n  }\n  function updateAllBurnOnInsertBurn_r19(uint n) private    {\n      int delta0 = int(n);\n      updateTotalSupplyOnIncrementAllBurn_r11(delta0);\n      allBurn.n += n;\n  }\n  function updateMintOnInsertRecv_mint_r16(address p,uint n) private   returns (bool) {\n      address s = owner.p;\n      if(s==msg.sender) {\n        if(p!=address(0)) {\n          updateTotalMintOnInsertMint_r10(p,n);\n          updateAllMintOnInsertMint_r2(n);\n          emit Mint(p,n);\n          return true;\n        }\n      }\n      return false;\n  }\n  function updateSpentTotalOnInsertTransferFrom_r6(address o,address s,uint n) private    {\n      int delta0 = int(n);\n      updateAllowanceOnIncrementSpentTotal_r15(o,s,delta0);\n      spentTotal[o][s].m += n;\n  }\n  function updateTransferFromOnInsertRecv_transferFrom_r18(address o,address r,uint n) private   returns (bool) {\n      address s = msg.sender;\n      uint k = allowance[o][s].n;\n      uint m = balanceOf[o].n;\n      if(m>=n && k>=n) {\n        updateTransferOnInsertTransferFrom_r0(o,r,n);\n        updateSpentTotalOnInsertTransferFrom_r6(o,s,n);\n        emit TransferFrom(o,r,s,n);\n        return true;\n      }\n      return false;\n  }\n  function updateTotalInOnInsertTransfer_r8(address p,uint n) private    {\n      int delta0 = int(n);\n      updateBalanceOfOnIncrementTotalIn_r5(p,delta0);\n      totalIn[p].n += n;\n  }\n  function updateTotalBalancesOnInsertConstructor_r21() private    {\n      // Empty()\n  }\n  function updateTotalSupplyOnIncrementAllBurn_r11(int b) private    {\n      int _delta = int(-b);\n      uint newValue = updateuintByint(totalSupply.n,_delta);\n      totalSupply.n = newValue;\n  }\n  function updateBurnOnInsertRecv_burn_r4(address p,uint n) private   returns (bool) {\n      address s = owner.p;\n      if(s==msg.sender) {\n        uint m = balanceOf[p].n;\n        if(p!=address(0) && n<=m) {\n          updateTotalBurnOnInsertBurn_r9(p,n);\n          updateAllBurnOnInsertBurn_r19(n);\n          emit Burn(p,n);\n          return true;\n        }\n      }\n      return false;\n  }\n  function updateAllowanceOnIncrementSpentTotal_r15(address o,address s,int l) private    {\n      int _delta = int(-l);\n      uint newValue = updateuintByint(allowance[o][s].n,_delta);\n      allowance[o][s].n = newValue;\n  }\n  function updateOwnerOnInsertConstructor_r7() private    {\n      address s = msg.sender;\n      owner = OwnerTuple(s,true);\n  }\n  function updateAllowanceTotalOnInsertIncreaseAllowance_r20(address o,address s,uint n) private    {\n      int delta0 = int(n);\n      updateAllowanceOnIncrementAllowanceTotal_r15(o,s,delta0);\n      allowanceTotal[o][s].m += n;\n  }\n  function updateTransferOnInsertRecv_transfer_r12(address r,uint n) private   returns (bool) {\n      address s = msg.sender;\n      uint m = balanceOf[s].n;\n      if(n<=m) {\n        updateTotalOutOnInsertTransfer_r13(s,n);\n        updateTotalInOnInsertTransfer_r8(r,n);\n        emit Transfer(s,r,n);\n        return true;\n      }\n      return false;\n  }\n  function updateAllowanceOnIncrementAllowanceTotal_r15(address o,address s,int m) private    {\n      int _delta = int(m);\n      uint newValue = updateuintByint(allowance[o][s].n,_delta);\n      allowance[o][s].n = newValue;\n  }\n  function updateTotalSupplyOnIncrementAllMint_r11(int m) private    {\n      int _delta = int(m);\n      uint newValue = updateuintByint(totalSupply.n,_delta);\n      totalSupply.n = newValue;\n  }\n  function updateTotalMintOnInsertMint_r10(address p,uint n) private    {\n      int delta0 = int(n);\n      updateBalanceOfOnIncrementTotalMint_r5(p,delta0);\n      totalMint[p].n += n;\n  }\n  function updateBalanceOfOnIncrementTotalOut_r5(address p,int o) private    {\n      int _delta = int(-o);\n      uint newValue = updateuintByint(balanceOf[p].n,_delta);\n      balanceOf[p].n = newValue;\n  }\n}",
  "sourcePath": "/home/lan/gasOpt/declarative-smart-contracts/solidity/full/erc20.sol",
  "compiler": {
    "name": "solc",
    "version": "0.8.12+commit.f00d7308.Emscripten.clang"
  },
  "schemaVersion": "3.4.14",
  "updatedAt": "2023-09-19T03:58:42.149Z",
  "devdoc": {
    "kind": "dev",
    "methods": {},
    "version": 1
  },
  "userdoc": {
    "kind": "user",
    "methods": {},
    "version": 1
  }
}