{
  "contractName": "Erc777",
  "abi": [
    {
      "inputs": [],
      "stateMutability": "nonpayable",
      "type": "constructor"
    },
    {
      "anonymous": false,
      "inputs": [
        {
          "indexed": false,
          "internalType": "address",
          "name": "p",
          "type": "address"
        },
        {
          "indexed": false,
          "internalType": "uint256",
          "name": "amount",
          "type": "uint256"
        }
      ],
      "name": "Burn",
      "type": "event"
    },
    {
      "anonymous": false,
      "inputs": [
        {
          "indexed": false,
          "internalType": "address",
          "name": "p",
          "type": "address"
        },
        {
          "indexed": false,
          "internalType": "address",
          "name": "s",
          "type": "address"
        },
        {
          "indexed": false,
          "internalType": "uint256",
          "name": "n",
          "type": "uint256"
        }
      ],
      "name": "IncreaseAllowance",
      "type": "event"
    },
    {
      "anonymous": false,
      "inputs": [
        {
          "indexed": false,
          "internalType": "address",
          "name": "p",
          "type": "address"
        },
        {
          "indexed": false,
          "internalType": "uint256",
          "name": "amount",
          "type": "uint256"
        }
      ],
      "name": "Mint",
      "type": "event"
    },
    {
      "anonymous": false,
      "inputs": [
        {
          "indexed": false,
          "internalType": "address",
          "name": "p",
          "type": "address"
        },
        {
          "indexed": false,
          "internalType": "address",
          "name": "s",
          "type": "address"
        },
        {
          "indexed": false,
          "internalType": "uint256",
          "name": "n",
          "type": "uint256"
        },
        {
          "indexed": false,
          "internalType": "uint256",
          "name": "data",
          "type": "uint256"
        },
        {
          "indexed": false,
          "internalType": "uint256",
          "name": "operatorData",
          "type": "uint256"
        }
      ],
      "name": "OperatorBurn",
      "type": "event"
    },
    {
      "anonymous": false,
      "inputs": [
        {
          "indexed": false,
          "internalType": "address",
          "name": "o",
          "type": "address"
        },
        {
          "indexed": false,
          "internalType": "address",
          "name": "r",
          "type": "address"
        },
        {
          "indexed": false,
          "internalType": "address",
          "name": "s",
          "type": "address"
        },
        {
          "indexed": false,
          "internalType": "uint256",
          "name": "n",
          "type": "uint256"
        },
        {
          "indexed": false,
          "internalType": "uint256",
          "name": "data",
          "type": "uint256"
        },
        {
          "indexed": false,
          "internalType": "uint256",
          "name": "operatorData",
          "type": "uint256"
        }
      ],
      "name": "OperatorSend",
      "type": "event"
    },
    {
      "anonymous": false,
      "inputs": [
        {
          "indexed": false,
          "internalType": "address",
          "name": "p",
          "type": "address"
        },
        {
          "indexed": false,
          "internalType": "address",
          "name": "o",
          "type": "address"
        },
        {
          "indexed": false,
          "internalType": "bool",
          "name": "b",
          "type": "bool"
        }
      ],
      "name": "Operators",
      "type": "event"
    },
    {
      "anonymous": false,
      "inputs": [
        {
          "indexed": false,
          "internalType": "address",
          "name": "p",
          "type": "address"
        },
        {
          "indexed": false,
          "internalType": "address",
          "name": "o",
          "type": "address"
        },
        {
          "indexed": false,
          "internalType": "bool",
          "name": "b",
          "type": "bool"
        }
      ],
      "name": "RevokedDefaultOperator",
      "type": "event"
    },
    {
      "anonymous": false,
      "inputs": [
        {
          "indexed": false,
          "internalType": "address",
          "name": "from",
          "type": "address"
        },
        {
          "indexed": false,
          "internalType": "address",
          "name": "to",
          "type": "address"
        },
        {
          "indexed": false,
          "internalType": "uint256",
          "name": "amount",
          "type": "uint256"
        }
      ],
      "name": "Transfer",
      "type": "event"
    },
    {
      "anonymous": false,
      "inputs": [
        {
          "indexed": false,
          "internalType": "address",
          "name": "from",
          "type": "address"
        },
        {
          "indexed": false,
          "internalType": "address",
          "name": "to",
          "type": "address"
        },
        {
          "indexed": false,
          "internalType": "address",
          "name": "spender",
          "type": "address"
        },
        {
          "indexed": false,
          "internalType": "uint256",
          "name": "amount",
          "type": "uint256"
        }
      ],
      "name": "TransferFrom",
      "type": "event"
    },
    {
      "inputs": [
        {
          "internalType": "address",
          "name": "p",
          "type": "address"
        },
        {
          "internalType": "address",
          "name": "o",
          "type": "address"
        }
      ],
      "name": "getOperators",
      "outputs": [
        {
          "internalType": "bool",
          "name": "",
          "type": "bool"
        }
      ],
      "stateMutability": "view",
      "type": "function"
    },
    {
      "inputs": [
        {
          "internalType": "address",
          "name": "o",
          "type": "address"
        }
      ],
      "name": "approveOperator",
      "outputs": [],
      "stateMutability": "nonpayable",
      "type": "function"
    },
    {
      "inputs": [
        {
          "internalType": "address",
          "name": "s",
          "type": "address"
        },
        {
          "internalType": "uint256",
          "name": "n",
          "type": "uint256"
        }
      ],
      "name": "approve",
      "outputs": [],
      "stateMutability": "nonpayable",
      "type": "function"
    },
    {
      "inputs": [
        {
          "internalType": "address",
          "name": "p",
          "type": "address"
        },
        {
          "internalType": "uint256",
          "name": "amount",
          "type": "uint256"
        }
      ],
      "name": "mint",
      "outputs": [],
      "stateMutability": "nonpayable",
      "type": "function"
    },
    {
      "inputs": [
        {
          "internalType": "address",
          "name": "p",
          "type": "address"
        },
        {
          "internalType": "address",
          "name": "o",
          "type": "address"
        }
      ],
      "name": "getRevokedDefaultOperator",
      "outputs": [
        {
          "internalType": "bool",
          "name": "",
          "type": "bool"
        }
      ],
      "stateMutability": "view",
      "type": "function"
    },
    {
      "inputs": [],
      "name": "getTotalSupply",
      "outputs": [
        {
          "internalType": "uint256",
          "name": "",
          "type": "uint256"
        }
      ],
      "stateMutability": "view",
      "type": "function"
    },
    {
      "inputs": [
        {
          "internalType": "address",
          "name": "p",
          "type": "address"
        },
        {
          "internalType": "address",
          "name": "s",
          "type": "address"
        }
      ],
      "name": "getAllowance",
      "outputs": [
        {
          "internalType": "uint256",
          "name": "",
          "type": "uint256"
        }
      ],
      "stateMutability": "view",
      "type": "function"
    },
    {
      "inputs": [
        {
          "internalType": "address",
          "name": "p",
          "type": "address"
        }
      ],
      "name": "getBalanceOf",
      "outputs": [
        {
          "internalType": "uint256",
          "name": "",
          "type": "uint256"
        }
      ],
      "stateMutability": "view",
      "type": "function"
    },
    {
      "inputs": [
        {
          "internalType": "address",
          "name": "o",
          "type": "address"
        }
      ],
      "name": "revokeDefaultOperator",
      "outputs": [],
      "stateMutability": "nonpayable",
      "type": "function"
    },
    {
      "inputs": [
        {
          "internalType": "address",
          "name": "to",
          "type": "address"
        },
        {
          "internalType": "uint256",
          "name": "amount",
          "type": "uint256"
        }
      ],
      "name": "transfer",
      "outputs": [],
      "stateMutability": "nonpayable",
      "type": "function"
    },
    {
      "inputs": [
        {
          "internalType": "address",
          "name": "from",
          "type": "address"
        },
        {
          "internalType": "address",
          "name": "to",
          "type": "address"
        },
        {
          "internalType": "uint256",
          "name": "amount",
          "type": "uint256"
        }
      ],
      "name": "transferFrom",
      "outputs": [],
      "stateMutability": "nonpayable",
      "type": "function"
    },
    {
      "inputs": [
        {
          "internalType": "address",
          "name": "p",
          "type": "address"
        },
        {
          "internalType": "uint256",
          "name": "amount",
          "type": "uint256"
        }
      ],
      "name": "burn",
      "outputs": [],
      "stateMutability": "nonpayable",
      "type": "function"
    },
    {
      "inputs": [
        {
          "internalType": "address",
          "name": "p",
          "type": "address"
        }
      ],
      "name": "getDefaultOperator",
      "outputs": [
        {
          "internalType": "bool",
          "name": "",
          "type": "bool"
        }
      ],
      "stateMutability": "view",
      "type": "function"
    }
  ],
  "bytecode": "0x608060405234801561001057600080fd5b5061001f61003260201b60201c565b61002d61007c60201b60201c565b61011e565b6040518060400160405280600081526020016001151581525060146000820151816000015560208201518160010160006101000a81548160ff021916908315150217905550905050565b600033905060405180604001604052808273ffffffffffffffffffffffffffffffffffffffff16815260200160011515815250601260008201518160000160006101000a81548173ffffffffffffffffffffffffffffffffffffffff021916908373ffffffffffffffffffffffffffffffffffffffff16021790555060208201518160000160146101000a81548160ff02191690831515021790555090505050565b612275806200012e6000396000f3fe608060405234801561001057600080fd5b50600436106100cf5760003560e01c806340c10f191161008c5780639b96eece116100665780639b96eece146102205780639dc29fac14610250578063a9059cbb1461026c578063c4e41b2214610288576100cf565b806340c10f19146101a4578063448e2c9c146101c057806387e8fc6a146101f0576100cf565b8063095ea7b3146100d45780630af4187d146100f057806317d92cff1461012057806323b872dd14610150578063242cae9f1461016c5780632a7534a314610188575b600080fd5b6100ee60048036038101906100e99190611dd7565b6102a6565b005b61010a60048036038101906101059190611e17565b610301565b6040516101179190611e66565b60405180910390f35b61013a60048036038101906101359190611e17565b610390565b6040516101479190611e9c565b60405180910390f35b61016a60048036038101906101659190611eb7565b61042c565b005b61018660048036038101906101819190611f0a565b610489565b005b6101a2600480360381019061019d9190611f0a565b610500565b005b6101be60048036038101906101b99190611dd7565b610577565b005b6101da60048036038101906101d59190611f0a565b6105d2565b6040516101e79190611e9c565b60405180910390f35b61020a60048036038101906102059190611e17565b610630565b6040516102179190611e9c565b60405180910390f35b61023a60048036038101906102359190611f0a565b6106cc565b6040516102479190611e66565b60405180910390f35b61026a60048036038101906102659190611dd7565b61071d565b005b61028660048036038101906102819190611dd7565b610778565b005b6102906107d3565b60405161029d9190611e66565b60405180910390f35b60006102b283836107e5565b90506000151581151514156102fc576040517f08c379a00000000000000000000000000000000000000000000000000000000081526004016102f390611f94565b60405180910390fd5b505050565b600080600860008573ffffffffffffffffffffffffffffffffffffffff1673ffffffffffffffffffffffffffffffffffffffff16815260200190815260200160002060008473ffffffffffffffffffffffffffffffffffffffff1673ffffffffffffffffffffffffffffffffffffffff1681526020019081526020016000206000015490508091505092915050565b600080600760008573ffffffffffffffffffffffffffffffffffffffff1673ffffffffffffffffffffffffffffffffffffffff16815260200190815260200160002060008473ffffffffffffffffffffffffffffffffffffffff1673ffffffffffffffffffffffffffffffffffffffff16815260200190815260200160002060000160009054906101000a900460ff1690508091505092915050565b60006104398484846108d2565b9050600015158115151415610483576040517f08c379a000000000000000000000000000000000000000000000000000000000815260040161047a90611f94565b60405180910390fd5b50505050565b600061049482610a26565b905060006104a183610be7565b9050600015158215151480156104bb575060001515811515145b156104fb576040517f08c379a00000000000000000000000000000000000000000000000000000000081526004016104f290611f94565b60405180910390fd5b505050565b600061050b82610da8565b9050600061051883610f69565b905060001515821515148015610532575060001515811515145b15610572576040517f08c379a000000000000000000000000000000000000000000000000000000000815260040161056990611f94565b60405180910390fd5b505050565b6000610583838361112a565b90506000151581151514156105cd576040517f08c379a00000000000000000000000000000000000000000000000000000000081526004016105c490611f94565b60405180910390fd5b505050565b600080601160008473ffffffffffffffffffffffffffffffffffffffff1673ffffffffffffffffffffffffffffffffffffffff16815260200190815260200160002060000160009054906101000a900460ff16905080915050919050565b600080601360008573ffffffffffffffffffffffffffffffffffffffff1673ffffffffffffffffffffffffffffffffffffffff16815260200190815260200160002060008473ffffffffffffffffffffffffffffffffffffffff1673ffffffffffffffffffffffffffffffffffffffff16815260200190815260200160002060000160009054906101000a900460ff1690508091505092915050565b600080601660008473ffffffffffffffffffffffffffffffffffffffff1673ffffffffffffffffffffffffffffffffffffffff16815260200190815260200160002060000154905080915050919050565b60006107298383611220565b9050600015158115151415610773576040517f08c379a000000000000000000000000000000000000000000000000000000000815260040161076a90611f94565b60405180910390fd5b505050565b6000610784838361136d565b90506000151581151514156107ce576040517f08c379a00000000000000000000000000000000000000000000000000000000081526004016107c590611f94565b60405180910390fd5b505050565b60008060146000015490508091505090565b6000803390506000600860008373ffffffffffffffffffffffffffffffffffffffff1673ffffffffffffffffffffffffffffffffffffffff16815260200190815260200160002060008673ffffffffffffffffffffffffffffffffffffffff1673ffffffffffffffffffffffffffffffffffffffff1681526020019081526020016000206000015490506000818561087d9190611fe3565b905061088a838783611428565b7f01722f0e92ffd761d4a842cffdd36fe3adb6091e41732a4e714250176b7d8d228387836040516108bd93929190612026565b60405180910390a16001935050505092915050565b6000803390506000600860008773ffffffffffffffffffffffffffffffffffffffff1673ffffffffffffffffffffffffffffffffffffffff16815260200190815260200160002060008373ffffffffffffffffffffffffffffffffffffffff1673ffffffffffffffffffffffffffffffffffffffff1681526020019081526020016000206000015490506000601660008873ffffffffffffffffffffffffffffffffffffffff1673ffffffffffffffffffffffffffffffffffffffff1681526020019081526020016000206000015490508481101580156109b35750848210155b15610a17576109c38787876114d4565b6109ce878487611528565b7f5f7542858008eeb041631f30e6109ae94b83a58e9a58261dd2c42c508850f93987878588604051610a03949392919061205d565b60405180910390a160019350505050610a1f565b600093505050505b9392505050565b600080339050601160008473ffffffffffffffffffffffffffffffffffffffff1673ffffffffffffffffffffffffffffffffffffffff16815260200190815260200160002060000160009054906101000a900460ff161515600115151415610bdc578273ffffffffffffffffffffffffffffffffffffffff168173ffffffffffffffffffffffffffffffffffffffff1614610bdb57604051806040016040528060001515815260200160011515815250600760008573ffffffffffffffffffffffffffffffffffffffff1673ffffffffffffffffffffffffffffffffffffffff16815260200190815260200160002060008373ffffffffffffffffffffffffffffffffffffffff1673ffffffffffffffffffffffffffffffffffffffff16815260200190815260200160002060008201518160000160006101000a81548160ff02191690831515021790555060208201518160000160016101000a81548160ff0219169083151502179055509050507fd85ebb1e330b590f50fd30c048a0ba5753d6a30db94527512c0a05d3ca090a8083826000604051610bc9939291906120a2565b60405180910390a16001915050610be2565b5b60009150505b919050565b600080339050601160008473ffffffffffffffffffffffffffffffffffffffff1673ffffffffffffffffffffffffffffffffffffffff16815260200190815260200160002060000160009054906101000a900460ff161515600015151415610d9d578273ffffffffffffffffffffffffffffffffffffffff168173ffffffffffffffffffffffffffffffffffffffff1614610d9c57604051806040016040528060011515815260200160011515815250601360008373ffffffffffffffffffffffffffffffffffffffff1673ffffffffffffffffffffffffffffffffffffffff16815260200190815260200160002060008573ffffffffffffffffffffffffffffffffffffffff1673ffffffffffffffffffffffffffffffffffffffff16815260200190815260200160002060008201518160000160006101000a81548160ff02191690831515021790555060208201518160000160016101000a81548160ff0219169083151502179055509050507f5e980782d2447d80fcce00db806dd0b2b22fa21fca194769d0a751ecdb972b8d81846001604051610d8a939291906120a2565b60405180910390a16001915050610da3565b5b60009150505b919050565b600080339050601160008473ffffffffffffffffffffffffffffffffffffffff1673ffffffffffffffffffffffffffffffffffffffff16815260200190815260200160002060000160009054906101000a900460ff161515600015151415610f5e578273ffffffffffffffffffffffffffffffffffffffff168173ffffffffffffffffffffffffffffffffffffffff1614610f5d57604051806040016040528060001515815260200160011515815250601360008373ffffffffffffffffffffffffffffffffffffffff1673ffffffffffffffffffffffffffffffffffffffff16815260200190815260200160002060008573ffffffffffffffffffffffffffffffffffffffff1673ffffffffffffffffffffffffffffffffffffffff16815260200190815260200160002060008201518160000160006101000a81548160ff02191690831515021790555060208201518160000160016101000a81548160ff0219169083151502179055509050507f5e980782d2447d80fcce00db806dd0b2b22fa21fca194769d0a751ecdb972b8d81846000604051610f4b939291906120a2565b60405180910390a16001915050610f64565b5b60009150505b919050565b600080339050601160008473ffffffffffffffffffffffffffffffffffffffff1673ffffffffffffffffffffffffffffffffffffffff16815260200190815260200160002060000160009054906101000a900460ff16151560011515141561111f578273ffffffffffffffffffffffffffffffffffffffff168173ffffffffffffffffffffffffffffffffffffffff161461111e57604051806040016040528060011515815260200160011515815250600760008373ffffffffffffffffffffffffffffffffffffffff1673ffffffffffffffffffffffffffffffffffffffff16815260200190815260200160002060008573ffffffffffffffffffffffffffffffffffffffff1673ffffffffffffffffffffffffffffffffffffffff16815260200190815260200160002060008201518160000160006101000a81548160ff02191690831515021790555060208201518160000160016101000a81548160ff0219169083151502179055509050507fd85ebb1e330b590f50fd30c048a0ba5753d6a30db94527512c0a05d3ca090a808184600160405161110c939291906120a2565b60405180910390a16001915050611125565b5b60009150505b919050565b600080601260000160009054906101000a900473ffffffffffffffffffffffffffffffffffffffff1690503373ffffffffffffffffffffffffffffffffffffffff168173ffffffffffffffffffffffffffffffffffffffff16141561121457600073ffffffffffffffffffffffffffffffffffffffff168473ffffffffffffffffffffffffffffffffffffffff1614611213576111c6836115d4565b6111d08484611602565b7f0f6798a560793a54c3bcfe86a93cde1e73087d944c0ea20544137d412139688584846040516112019291906120d9565b60405180910390a1600191505061121a565b5b60009150505b92915050565b600080601260000160009054906101000a900473ffffffffffffffffffffffffffffffffffffffff1690503373ffffffffffffffffffffffffffffffffffffffff168173ffffffffffffffffffffffffffffffffffffffff161415611361576000601660008673ffffffffffffffffffffffffffffffffffffffff1673ffffffffffffffffffffffffffffffffffffffff168152602001908152602001600020600001549050600073ffffffffffffffffffffffffffffffffffffffff168573ffffffffffffffffffffffffffffffffffffffff16141580156113035750808411155b1561135f576113118461166f565b61131b858561169d565b7fcc16f5dbb4873280815c1ee09dbd06736cffcc184412cf7a71a0fdb75d397ca5858560405161134c9291906120d9565b60405180910390a1600192505050611367565b505b60009150505b92915050565b6000803390506000601660008373ffffffffffffffffffffffffffffffffffffffff1673ffffffffffffffffffffffffffffffffffffffff16815260200190815260200160002060000154905080841161141b576113cb828561170a565b6113d58585611777565b7fddf252ad1be2c89b69c2b068fc378daa952ba7f163c4a11628f55a4df523b3ef82868660405161140893929190612026565b60405180910390a1600192505050611422565b6000925050505b92915050565b60008190506114388484836117e3565b81600560008673ffffffffffffffffffffffffffffffffffffffff1673ffffffffffffffffffffffffffffffffffffffff16815260200190815260200160002060008573ffffffffffffffffffffffffffffffffffffffff1673ffffffffffffffffffffffffffffffffffffffff16815260200190815260200160002060000160008282546114c79190612102565b9250508190555050505050565b6114de838261170a565b6114e88282611777565b7fddf252ad1be2c89b69c2b068fc378daa952ba7f163c4a11628f55a4df523b3ef83838360405161151b93929190612026565b60405180910390a1505050565b6000819050611538848483611900565b81600660008673ffffffffffffffffffffffffffffffffffffffff1673ffffffffffffffffffffffffffffffffffffffff16815260200190815260200160002060008573ffffffffffffffffffffffffffffffffffffffff1673ffffffffffffffffffffffffffffffffffffffff16815260200190815260200160002060000160008282546115c79190612102565b9250508190555050505050565b60008190506115e281611a26565b81600360000160008282546115f79190612102565b925050819055505050565b60008190506116118382611a4d565b81600260008573ffffffffffffffffffffffffffffffffffffffff1673ffffffffffffffffffffffffffffffffffffffff16815260200190815260200160002060000160008282546116639190612102565b92505081905550505050565b600081905061167d81611aef565b81601760000160008282546116929190612102565b925050819055505050565b60008190506116ac8382611b1f565b81601060008573ffffffffffffffffffffffffffffffffffffffff1673ffffffffffffffffffffffffffffffffffffffff16815260200190815260200160002060000160008282546116fe9190612102565b92505081905550505050565b60008190506117198382611bca565b81600160008573ffffffffffffffffffffffffffffffffffffffff1673ffffffffffffffffffffffffffffffffffffffff168152602001908152602001600020600001600082825461176b9190612102565b92505081905550505050565b60008190506117868382611c75565b816000808573ffffffffffffffffffffffffffffffffffffffff1673ffffffffffffffffffffffffffffffffffffffff16815260200190815260200160002060000160008282546117d79190612102565b92505081905550505050565b60008190506000611873600860008773ffffffffffffffffffffffffffffffffffffffff1673ffffffffffffffffffffffffffffffffffffffff16815260200190815260200160002060008673ffffffffffffffffffffffffffffffffffffffff1673ffffffffffffffffffffffffffffffffffffffff1681526020019081526020016000206000015483611d17565b905080600860008773ffffffffffffffffffffffffffffffffffffffff1673ffffffffffffffffffffffffffffffffffffffff16815260200190815260200160002060008673ffffffffffffffffffffffffffffffffffffffff1673ffffffffffffffffffffffffffffffffffffffff168152602001908152602001600020600001819055505050505050565b60008161190c90612162565b90506000611999600860008773ffffffffffffffffffffffffffffffffffffffff1673ffffffffffffffffffffffffffffffffffffffff16815260200190815260200160002060008673ffffffffffffffffffffffffffffffffffffffff1673ffffffffffffffffffffffffffffffffffffffff1681526020019081526020016000206000015483611d17565b905080600860008773ffffffffffffffffffffffffffffffffffffffff1673ffffffffffffffffffffffffffffffffffffffff16815260200190815260200160002060008673ffffffffffffffffffffffffffffffffffffffff1673ffffffffffffffffffffffffffffffffffffffff168152602001908152602001600020600001819055505050505050565b60008190506000611a3c60146000015483611d17565b905080601460000181905550505050565b60008190506000611aa0601660008673ffffffffffffffffffffffffffffffffffffffff1673ffffffffffffffffffffffffffffffffffffffff1681526020019081526020016000206000015483611d17565b905080601660008673ffffffffffffffffffffffffffffffffffffffff1673ffffffffffffffffffffffffffffffffffffffff1681526020019081526020016000206000018190555050505050565b600081611afb90612162565b90506000611b0e60146000015483611d17565b905080601460000181905550505050565b600081611b2b90612162565b90506000611b7b601660008673ffffffffffffffffffffffffffffffffffffffff1673ffffffffffffffffffffffffffffffffffffffff1681526020019081526020016000206000015483611d17565b905080601660008673ffffffffffffffffffffffffffffffffffffffff1673ffffffffffffffffffffffffffffffffffffffff1681526020019081526020016000206000018190555050505050565b600081611bd690612162565b90506000611c26601660008673ffffffffffffffffffffffffffffffffffffffff1673ffffffffffffffffffffffffffffffffffffffff1681526020019081526020016000206000015483611d17565b905080601660008673ffffffffffffffffffffffffffffffffffffffff1673ffffffffffffffffffffffffffffffffffffffff1681526020019081526020016000206000018190555050505050565b60008190506000611cc8601660008673ffffffffffffffffffffffffffffffffffffffff1673ffffffffffffffffffffffffffffffffffffffff1681526020019081526020016000206000015483611d17565b905080601660008673ffffffffffffffffffffffffffffffffffffffff1673ffffffffffffffffffffffffffffffffffffffff1681526020019081526020016000206000018190555050505050565b60008083905060008382611d2b91906121ab565b9050600081905080935050505092915050565b600080fd5b600073ffffffffffffffffffffffffffffffffffffffff82169050919050565b6000611d6e82611d43565b9050919050565b611d7e81611d63565b8114611d8957600080fd5b50565b600081359050611d9b81611d75565b92915050565b6000819050919050565b611db481611da1565b8114611dbf57600080fd5b50565b600081359050611dd181611dab565b92915050565b60008060408385031215611dee57611ded611d3e565b5b6000611dfc85828601611d8c565b9250506020611e0d85828601611dc2565b9150509250929050565b60008060408385031215611e2e57611e2d611d3e565b5b6000611e3c85828601611d8c565b9250506020611e4d85828601611d8c565b9150509250929050565b611e6081611da1565b82525050565b6000602082019050611e7b6000830184611e57565b92915050565b60008115159050919050565b611e9681611e81565b82525050565b6000602082019050611eb16000830184611e8d565b92915050565b600080600060608486031215611ed057611ecf611d3e565b5b6000611ede86828701611d8c565b9350506020611eef86828701611d8c565b9250506040611f0086828701611dc2565b9150509250925092565b600060208284031215611f2057611f1f611d3e565b5b6000611f2e84828501611d8c565b91505092915050565b600082825260208201905092915050565b7f52756c6520636f6e646974696f6e206661696c65640000000000000000000000600082015250565b6000611f7e601583611f37565b9150611f8982611f48565b602082019050919050565b60006020820190508181036000830152611fad81611f71565b9050919050565b7f4e487b7100000000000000000000000000000000000000000000000000000000600052601160045260246000fd5b6000611fee82611da1565b9150611ff983611da1565b92508282101561200c5761200b611fb4565b5b828203905092915050565b61202081611d63565b82525050565b600060608201905061203b6000830186612017565b6120486020830185612017565b6120556040830184611e57565b949350505050565b60006080820190506120726000830187612017565b61207f6020830186612017565b61208c6040830185612017565b6120996060830184611e57565b95945050505050565b60006060820190506120b76000830186612017565b6120c46020830185612017565b6120d16040830184611e8d565b949350505050565b60006040820190506120ee6000830185612017565b6120fb6020830184611e57565b9392505050565b600061210d82611da1565b915061211883611da1565b9250827fffffffffffffffffffffffffffffffffffffffffffffffffffffffffffffffff0382111561214d5761214c611fb4565b5b828201905092915050565b6000819050919050565b600061216d82612158565b91507f80000000000000000000000000000000000000000000000000000000000000008214156121a05761219f611fb4565b5b816000039050919050565b60006121b682612158565b91506121c183612158565b9250817f7fffffffffffffffffffffffffffffffffffffffffffffffffffffffffffffff038313600083121516156121fc576121fb611fb4565b5b817f800000000000000000000000000000000000000000000000000000000000000003831260008312161561223457612233611fb4565b5b82820190509291505056fea2646970667358221220993e13cae3f554e5ec2a0f533dc6ca13fb5f9468ba57b89e49aebcad397eb1d764736f6c634300080c0033",
  "immutableReferences": {},
  "source": "contract Erc777 {\n  struct TotalInTuple {\n    uint n;\n    bool _valid;\n  }\n  struct TotalOutTuple {\n    uint n;\n    bool _valid;\n  }\n  struct TotalMintTuple {\n    uint n;\n    bool _valid;\n  }\n  struct AllMintTuple {\n    uint n;\n    bool _valid;\n  }\n  struct AllowanceTotalTuple {\n    uint m;\n    bool _valid;\n  }\n  struct RevokedDefaultOperatorTuple {\n    bool b;\n    bool _valid;\n  }\n  struct OperatorSendTuple {\n    address o;\n    address r;\n    address s;\n    uint n;\n    uint data;\n    uint operatorData;\n    bool _valid;\n  }\n  struct TotalBurnTuple {\n    uint n;\n    bool _valid;\n  }\n  struct DefaultOperatorTuple {\n    bool b;\n    bool _valid;\n  }\n  struct OwnerTuple {\n    address p;\n    bool _valid;\n  }\n  struct OperatorsTuple {\n    bool b;\n    bool _valid;\n  }\n  struct TotalSupplyTuple {\n    uint n;\n    bool _valid;\n  }\n  struct SpentTotalTuple {\n    uint m;\n    bool _valid;\n  }\n  struct BalanceOfTuple {\n    uint n;\n    bool _valid;\n  }\n  struct AllBurnTuple {\n    uint n;\n    bool _valid;\n  }\n  struct AllowanceTuple {\n    uint n;\n    bool _valid;\n  }\n  mapping(address=>TotalInTuple) totalIn;\n  mapping(address=>TotalOutTuple) totalOut;\n  mapping(address=>TotalMintTuple) totalMint;\n  AllMintTuple allMint;\n  mapping(address=>mapping(address=>AllowanceTotalTuple)) allowanceTotal;\n  mapping(address=>mapping(address=>SpentTotalTuple)) spentTotal;\n  mapping(address=>mapping(address=>RevokedDefaultOperatorTuple)) revokedDefaultOperator;\n  mapping(address=>mapping(address=>AllowanceTuple)) allowance;\n  OperatorSendTuple operatorSend;\n  mapping(address=>TotalBurnTuple) totalBurn;\n  mapping(address=>DefaultOperatorTuple) defaultOperator;\n  OwnerTuple owner;\n  mapping(address=>mapping(address=>OperatorsTuple)) operators;\n  TotalSupplyTuple totalSupply;\n  mapping(address=>BalanceOfTuple) balanceOf;\n  AllBurnTuple allBurn;\n  event OperatorBurn(address p,address s,uint n,uint data,uint operatorData);\n  event TransferFrom(address from,address to,address spender,uint amount);\n  event Burn(address p,uint amount);\n  event Mint(address p,uint amount);\n  event IncreaseAllowance(address p,address s,uint n);\n  event OperatorSend(address o,address r,address s,uint n,uint data,uint operatorData);\n  event RevokedDefaultOperator(address p,address o,bool b);\n  event Operators(address p,address o,bool b);\n  event Transfer(address from,address to,uint amount);\n  constructor() public {\n    updateTotalSupplyOnInsertConstructor_r12();\n    updateOwnerOnInsertConstructor_r8();\n  }\n  function getOperators(address p,address o) public view  returns (bool) {\n      bool b = operators[p][o].b;\n      return b;\n  }\n  function approveOperator(address o) public    {\n      bool r0 = updateRevokedDefaultOperatorOnInsertRecv_approveOperator_r0(o);\n      bool r5 = updateOperatorsOnInsertRecv_approveOperator_r5(o);\n      if(r0==false && r5==false) {\n        revert(\"Rule condition failed\");\n      }\n  }\n  function approve(address s,uint n) public    {\n      bool r29 = updateIncreaseAllowanceOnInsertRecv_approve_r29(s,n);\n      if(r29==false) {\n        revert(\"Rule condition failed\");\n      }\n  }\n  function mint(address p,uint amount) public    {\n      bool r27 = updateMintOnInsertRecv_mint_r27(p,amount);\n      if(r27==false) {\n        revert(\"Rule condition failed\");\n      }\n  }\n  function getRevokedDefaultOperator(address p,address o) public view  returns (bool) {\n      bool b = revokedDefaultOperator[p][o].b;\n      return b;\n  }\n  function getTotalSupply() public view  returns (uint) {\n      uint n = totalSupply.n;\n      return n;\n  }\n  function getAllowance(address p,address s) public view  returns (uint) {\n      uint n = allowance[p][s].n;\n      return n;\n  }\n  function getBalanceOf(address p) public view  returns (uint) {\n      uint n = balanceOf[p].n;\n      return n;\n  }\n  function revokeDefaultOperator(address o) public    {\n      bool r21 = updateOperatorsOnInsertRecv_revokeDefaultOperator_r21(o);\n      bool r14 = updateRevokedDefaultOperatorOnInsertRecv_revokeDefaultOperator_r14(o);\n      if(r21==false && r14==false) {\n        revert(\"Rule condition failed\");\n      }\n  }\n  function transfer(address to,uint amount) public    {\n      bool r22 = updateTransferOnInsertRecv_transfer_r22(to,amount);\n      if(r22==false) {\n        revert(\"Rule condition failed\");\n      }\n  }\n  function transferFrom(address from,address to,uint amount) public    {\n      bool r30 = updateTransferFromOnInsertRecv_transferFrom_r30(from,to,amount);\n      if(r30==false) {\n        revert(\"Rule condition failed\");\n      }\n  }\n  function burn(address p,uint amount) public    {\n      bool r20 = updateBurnOnInsertRecv_burn_r20(p,amount);\n      if(r20==false) {\n        revert(\"Rule condition failed\");\n      }\n  }\n  function getDefaultOperator(address p) public view  returns (bool) {\n      bool b = defaultOperator[p].b;\n      return b;\n  }\n  function updateAllowanceTotalOnInsertIncreaseAllowance_r10(address o,address s,uint n) private    {\n      int delta0 = int(n);\n      updateAllowanceOnIncrementAllowanceTotal_r26(o,s,delta0);\n      allowanceTotal[o][s].m += n;\n  }\n  function updateRevokedDefaultOperatorOnInsertRecv_revokeDefaultOperator_r14(address o) private   returns (bool) {\n      address p = msg.sender;\n      if(true==defaultOperator[o].b) {\n        if(p!=o) {\n          revokedDefaultOperator[p][o] = RevokedDefaultOperatorTuple(true,true);\n          emit RevokedDefaultOperator(p,o,true);\n          return true;\n        }\n      }\n      return false;\n  }\n  function updateOwnerOnInsertConstructor_r8() private    {\n      address s = msg.sender;\n      owner = OwnerTuple(s,true);\n  }\n  function updateOperatorsOnInsertRecv_revokeDefaultOperator_r21(address o) private   returns (bool) {\n      address p = msg.sender;\n      if(false==defaultOperator[o].b) {\n        if(p!=o) {\n          operators[p][o] = OperatorsTuple(false,true);\n          emit Operators(p,o,false);\n          return true;\n        }\n      }\n      return false;\n  }\n  function updateTransferOnInsertRecv_transfer_r22(address r,uint n) private   returns (bool) {\n      address s = msg.sender;\n      uint m = balanceOf[s].n;\n      if(n<=m) {\n        updateTotalOutOnInsertTransfer_r23(s,n);\n        updateTotalInOnInsertTransfer_r9(r,n);\n        emit Transfer(s,r,n);\n        return true;\n      }\n      return false;\n  }\n  function updateBurnOnInsertRecv_burn_r20(address p,uint n) private   returns (bool) {\n      address s = owner.p;\n      if(s==msg.sender) {\n        uint m = balanceOf[p].n;\n        if(p!=address(0) && n<=m) {\n          updateAllBurnOnInsertBurn_r31(n);\n          updateTotalBurnOnInsertBurn_r15(p,n);\n          emit Burn(p,n);\n          return true;\n        }\n      }\n      return false;\n  }\n  function updateRevokedDefaultOperatorOnInsertRecv_approveOperator_r0(address o) private   returns (bool) {\n      address p = msg.sender;\n      if(true==defaultOperator[o].b) {\n        if(p!=o) {\n          revokedDefaultOperator[o][p] = RevokedDefaultOperatorTuple(false,true);\n          emit RevokedDefaultOperator(o,p,false);\n          return true;\n        }\n      }\n      return false;\n  }\n  function updateTotalOutOnInsertTransfer_r23(address p,uint n) private    {\n      int delta0 = int(n);\n      updateBalanceOfOnIncrementTotalOut_r6(p,delta0);\n      totalOut[p].n += n;\n  }\n  function updateTotalSupplyOnIncrementAllBurn_r17(int b) private    {\n      int _delta = int(-b);\n      uint newValue = updateuintByint(totalSupply.n,_delta);\n      totalSupply.n = newValue;\n  }\n  function updateTotalSupplyOnIncrementAllMint_r17(int m) private    {\n      int _delta = int(m);\n      uint newValue = updateuintByint(totalSupply.n,_delta);\n      totalSupply.n = newValue;\n  }\n  function updateTransferFromOnInsertRecv_transferFrom_r30(address o,address r,uint n) private   returns (bool) {\n      address s = msg.sender;\n      uint k = allowance[o][s].n;\n      uint m = balanceOf[o].n;\n      if(m>=n && k>=n) {\n        updateTransferOnInsertTransferFrom_r1(o,r,n);\n        updateSpentTotalOnInsertTransferFrom_r24(o,s,n);\n        emit TransferFrom(o,r,s,n);\n        return true;\n      }\n      return false;\n  }\n  function updateAllowanceOnIncrementSpentTotal_r26(address o,address s,int l) private    {\n      int _delta = int(-l);\n      uint newValue = updateuintByint(allowance[o][s].n,_delta);\n      allowance[o][s].n = newValue;\n  }\n  function updateuintByint(uint x,int delta) private   returns (uint) {\n      int convertedX = int(x);\n      int value = convertedX+delta;\n      uint convertedValue = uint(value);\n      return convertedValue;\n  }\n  function updateBalanceOfOnIncrementTotalOut_r6(address p,int o) private    {\n      int _delta = int(-o);\n      uint newValue = updateuintByint(balanceOf[p].n,_delta);\n      balanceOf[p].n = newValue;\n  }\n  function updateOperatorsOnInsertRecv_approveOperator_r5(address o) private   returns (bool) {\n      address p = msg.sender;\n      if(false==defaultOperator[o].b) {\n        if(p!=o) {\n          operators[p][o] = OperatorsTuple(true,true);\n          emit Operators(p,o,true);\n          return true;\n        }\n      }\n      return false;\n  }\n  function updateBalanceOfOnIncrementTotalIn_r6(address p,int i) private    {\n      int _delta = int(i);\n      uint newValue = updateuintByint(balanceOf[p].n,_delta);\n      balanceOf[p].n = newValue;\n  }\n  function updateAllowanceOnIncrementAllowanceTotal_r26(address o,address s,int m) private    {\n      int _delta = int(m);\n      uint newValue = updateuintByint(allowance[o][s].n,_delta);\n      allowance[o][s].n = newValue;\n  }\n  function updateAllMintOnInsertMint_r3(uint n) private    {\n      int delta0 = int(n);\n      updateTotalSupplyOnIncrementAllMint_r17(delta0);\n      allMint.n += n;\n  }\n  function updateTotalBurnOnInsertBurn_r15(address p,uint n) private    {\n      int delta0 = int(n);\n      updateBalanceOfOnIncrementTotalBurn_r6(p,delta0);\n      totalBurn[p].n += n;\n  }\n  function updateSpentTotalOnInsertTransferFrom_r24(address o,address s,uint n) private    {\n      int delta0 = int(n);\n      updateAllowanceOnIncrementSpentTotal_r26(o,s,delta0);\n      spentTotal[o][s].m += n;\n  }\n  function updateAllBurnOnInsertBurn_r31(uint n) private    {\n      int delta0 = int(n);\n      updateTotalSupplyOnIncrementAllBurn_r17(delta0);\n      allBurn.n += n;\n  }\n  function updateTotalMintOnInsertMint_r16(address p,uint n) private    {\n      int delta0 = int(n);\n      updateBalanceOfOnIncrementTotalMint_r6(p,delta0);\n      totalMint[p].n += n;\n  }\n  function updateBalanceOfOnIncrementTotalBurn_r6(address p,int m) private    {\n      int _delta = int(-m);\n      uint newValue = updateuintByint(balanceOf[p].n,_delta);\n      balanceOf[p].n = newValue;\n  }\n  function updateIncreaseAllowanceOnInsertRecv_approve_r29(address s,uint n) private   returns (bool) {\n      address o = msg.sender;\n      uint m = allowance[o][s].n;\n      uint d = n-m;\n      updateAllowanceTotalOnInsertIncreaseAllowance_r10(o,s,d);\n      emit IncreaseAllowance(o,s,d);\n      return true;\n      return false;\n  }\n  function updateMintOnInsertRecv_mint_r27(address p,uint n) private   returns (bool) {\n      address s = owner.p;\n      if(s==msg.sender) {\n        if(p!=address(0)) {\n          updateAllMintOnInsertMint_r3(n);\n          updateTotalMintOnInsertMint_r16(p,n);\n          emit Mint(p,n);\n          return true;\n        }\n      }\n      return false;\n  }\n  function updateBalanceOfOnIncrementTotalMint_r6(address p,int n) private    {\n      int _delta = int(n);\n      uint newValue = updateuintByint(balanceOf[p].n,_delta);\n      balanceOf[p].n = newValue;\n  }\n  function updateTotalInOnInsertTransfer_r9(address p,uint n) private    {\n      int delta0 = int(n);\n      updateBalanceOfOnIncrementTotalIn_r6(p,delta0);\n      totalIn[p].n += n;\n  }\n  function updateTransferOnInsertTransferFrom_r1(address o,address r,uint n) private    {\n      updateTotalOutOnInsertTransfer_r23(o,n);\n      updateTotalInOnInsertTransfer_r9(r,n);\n      emit Transfer(o,r,n);\n  }\n  function updateTotalSupplyOnInsertConstructor_r12() private    {\n      totalSupply = TotalSupplyTuple(0,true);\n  }\n}",
  "sourcePath": "/home/lan/gasOpt/declarative-smart-contracts/solidity/full/erc777.sol",
  "compiler": {
    "name": "solc",
    "version": "0.8.12+commit.f00d7308.Emscripten.clang"
  },
  "schemaVersion": "3.4.14",
  "updatedAt": "2023-09-19T03:58:34.713Z",
  "devdoc": {
    "kind": "dev",
    "methods": {},
    "version": 1
  },
  "userdoc": {
    "kind": "user",
    "methods": {},
    "version": 1
  }
}