{
  "contractName": "Matic",
  "abi": [
    {
      "inputs": [
        {
          "internalType": "uint256",
          "name": "n",
          "type": "uint256"
        }
      ],
      "stateMutability": "nonpayable",
      "type": "constructor"
    },
    {
      "anonymous": false,
      "inputs": [
        {
          "indexed": false,
          "internalType": "address",
          "name": "p",
          "type": "address"
        },
        {
          "indexed": false,
          "internalType": "uint256",
          "name": "amount",
          "type": "uint256"
        }
      ],
      "name": "Burn",
      "type": "event"
    },
    {
      "anonymous": false,
      "inputs": [
        {
          "indexed": false,
          "internalType": "address",
          "name": "p",
          "type": "address"
        },
        {
          "indexed": false,
          "internalType": "address",
          "name": "s",
          "type": "address"
        },
        {
          "indexed": false,
          "internalType": "uint256",
          "name": "n",
          "type": "uint256"
        }
      ],
      "name": "DecreaseAllowance",
      "type": "event"
    },
    {
      "anonymous": false,
      "inputs": [
        {
          "indexed": false,
          "internalType": "address",
          "name": "p",
          "type": "address"
        },
        {
          "indexed": false,
          "internalType": "address",
          "name": "s",
          "type": "address"
        },
        {
          "indexed": false,
          "internalType": "uint256",
          "name": "n",
          "type": "uint256"
        }
      ],
      "name": "IncreaseAllowance",
      "type": "event"
    },
    {
      "anonymous": false,
      "inputs": [
        {
          "indexed": false,
          "internalType": "address",
          "name": "p",
          "type": "address"
        },
        {
          "indexed": false,
          "internalType": "bool",
          "name": "b",
          "type": "bool"
        }
      ],
      "name": "IsPauser",
      "type": "event"
    },
    {
      "anonymous": false,
      "inputs": [
        {
          "indexed": false,
          "internalType": "address",
          "name": "p",
          "type": "address"
        },
        {
          "indexed": false,
          "internalType": "uint256",
          "name": "amount",
          "type": "uint256"
        }
      ],
      "name": "Mint",
      "type": "event"
    },
    {
      "anonymous": false,
      "inputs": [
        {
          "indexed": false,
          "internalType": "bool",
          "name": "b",
          "type": "bool"
        }
      ],
      "name": "Paused",
      "type": "event"
    },
    {
      "anonymous": false,
      "inputs": [
        {
          "indexed": false,
          "internalType": "address",
          "name": "from",
          "type": "address"
        },
        {
          "indexed": false,
          "internalType": "address",
          "name": "to",
          "type": "address"
        },
        {
          "indexed": false,
          "internalType": "uint256",
          "name": "amount",
          "type": "uint256"
        }
      ],
      "name": "Transfer",
      "type": "event"
    },
    {
      "anonymous": false,
      "inputs": [
        {
          "indexed": false,
          "internalType": "address",
          "name": "from",
          "type": "address"
        },
        {
          "indexed": false,
          "internalType": "address",
          "name": "to",
          "type": "address"
        },
        {
          "indexed": false,
          "internalType": "address",
          "name": "spender",
          "type": "address"
        },
        {
          "indexed": false,
          "internalType": "uint256",
          "name": "amount",
          "type": "uint256"
        }
      ],
      "name": "TransferFrom",
      "type": "event"
    },
    {
      "inputs": [
        {
          "internalType": "address",
          "name": "p",
          "type": "address"
        }
      ],
      "name": "addPauser",
      "outputs": [],
      "stateMutability": "nonpayable",
      "type": "function"
    },
    {
      "inputs": [
        {
          "internalType": "address",
          "name": "p",
          "type": "address"
        }
      ],
      "name": "getBalanceOf",
      "outputs": [
        {
          "internalType": "uint256",
          "name": "",
          "type": "uint256"
        }
      ],
      "stateMutability": "view",
      "type": "function"
    },
    {
      "inputs": [
        {
          "internalType": "address",
          "name": "from",
          "type": "address"
        },
        {
          "internalType": "address",
          "name": "to",
          "type": "address"
        },
        {
          "internalType": "uint256",
          "name": "amount",
          "type": "uint256"
        }
      ],
      "name": "transferFrom",
      "outputs": [],
      "stateMutability": "nonpayable",
      "type": "function"
    },
    {
      "inputs": [
        {
          "internalType": "address",
          "name": "to",
          "type": "address"
        },
        {
          "internalType": "uint256",
          "name": "amount",
          "type": "uint256"
        }
      ],
      "name": "transfer",
      "outputs": [],
      "stateMutability": "nonpayable",
      "type": "function"
    },
    {
      "inputs": [
        {
          "internalType": "address",
          "name": "s",
          "type": "address"
        },
        {
          "internalType": "uint256",
          "name": "n",
          "type": "uint256"
        }
      ],
      "name": "approve",
      "outputs": [],
      "stateMutability": "nonpayable",
      "type": "function"
    },
    {
      "inputs": [
        {
          "internalType": "address",
          "name": "p",
          "type": "address"
        },
        {
          "internalType": "uint256",
          "name": "amount",
          "type": "uint256"
        }
      ],
      "name": "mint",
      "outputs": [],
      "stateMutability": "nonpayable",
      "type": "function"
    },
    {
      "inputs": [],
      "name": "unpause",
      "outputs": [],
      "stateMutability": "nonpayable",
      "type": "function"
    },
    {
      "inputs": [
        {
          "internalType": "address",
          "name": "p",
          "type": "address"
        },
        {
          "internalType": "uint256",
          "name": "n",
          "type": "uint256"
        }
      ],
      "name": "increaseApproval",
      "outputs": [],
      "stateMutability": "nonpayable",
      "type": "function"
    },
    {
      "inputs": [
        {
          "internalType": "address",
          "name": "p",
          "type": "address"
        },
        {
          "internalType": "uint256",
          "name": "n",
          "type": "uint256"
        }
      ],
      "name": "decreaseApproval",
      "outputs": [],
      "stateMutability": "nonpayable",
      "type": "function"
    },
    {
      "inputs": [],
      "name": "getTotalSupply",
      "outputs": [
        {
          "internalType": "uint256",
          "name": "",
          "type": "uint256"
        }
      ],
      "stateMutability": "view",
      "type": "function"
    },
    {
      "inputs": [
        {
          "internalType": "address",
          "name": "p",
          "type": "address"
        },
        {
          "internalType": "address",
          "name": "s",
          "type": "address"
        }
      ],
      "name": "getAllowance",
      "outputs": [
        {
          "internalType": "uint256",
          "name": "",
          "type": "uint256"
        }
      ],
      "stateMutability": "view",
      "type": "function"
    },
    {
      "inputs": [],
      "name": "renouncePauser",
      "outputs": [],
      "stateMutability": "nonpayable",
      "type": "function"
    },
    {
      "inputs": [
        {
          "internalType": "address",
          "name": "p",
          "type": "address"
        },
        {
          "internalType": "uint256",
          "name": "amount",
          "type": "uint256"
        }
      ],
      "name": "burn",
      "outputs": [],
      "stateMutability": "nonpayable",
      "type": "function"
    },
    {
      "inputs": [],
      "name": "pause",
      "outputs": [],
      "stateMutability": "nonpayable",
      "type": "function"
    }
  ],
  "bytecode": "0x60806040523480156200001157600080fd5b5060405162002909380380620029098339818101604052810190620000379190620004d3565b62000047620000c360201b60201c565b62000057620001a460201b60201c565b62000068816200024060201b60201c565b6200007981620002cd60201b60201c565b6200008a81620002d060201b60201c565b6200009b816200035d60201b60201c565b620000ab620003a760201b60201c565b620000bc816200044960201b60201c565b50620005b1565b6000339050604051806040016040528060011515815260200160011515815250600a60008373ffffffffffffffffffffffffffffffffffffffff1673ffffffffffffffffffffffffffffffffffffffff16815260200190815260200160002060008201518160000160006101000a81548160ff02191690831515021790555060208201518160000160016101000a81548160ff0219169083151502179055509050507f8ac9153754152e5b728b2c6bdaca961a07c94cfbf57278f89a9865679d90fe738160016040516200019992919062000567565b60405180910390a150565b604051806040016040528060001515815260200160011515815250601160008201518160000160006101000a81548160ff02191690831515021790555060208201518160000160016101000a81548160ff0219169083151502179055509050507f0e2fb031ee032dc02d8011dc50b816eb450cf856abd8261680dac74f72165bd2600060405162000236919062000594565b60405180910390a1565b6000339050604051806040016040528083815260200160011515815250600d60008373ffffffffffffffffffffffffffffffffffffffff1673ffffffffffffffffffffffffffffffffffffffff1681526020019081526020016000206000820151816000015560208201518160010160006101000a81548160ff0219169083151502179055509050505050565b50565b6000339050604051806040016040528083815260200160011515815250600560008373ffffffffffffffffffffffffffffffffffffffff1673ffffffffffffffffffffffffffffffffffffffff1681526020019081526020016000206000820151816000015560208201518160010160006101000a81548160ff0219169083151502179055509050505050565b60405180604001604052808281526020016001151581525060086000820151816000015560208201518160010160006101000a81548160ff02191690831515021790555090505050565b600033905060405180604001604052808273ffffffffffffffffffffffffffffffffffffffff16815260200160011515815250600360008201518160000160006101000a81548173ffffffffffffffffffffffffffffffffffffffff021916908373ffffffffffffffffffffffffffffffffffffffff16021790555060208201518160000160146101000a81548160ff02191690831515021790555090505050565b60405180604001604052808281526020016001151581525060066000820151816000015560208201518160010160006101000a81548160ff02191690831515021790555090505050565b600080fd5b6000819050919050565b620004ad8162000498565b8114620004b957600080fd5b50565b600081519050620004cd81620004a2565b92915050565b600060208284031215620004ec57620004eb62000493565b5b6000620004fc84828501620004bc565b91505092915050565b600073ffffffffffffffffffffffffffffffffffffffff82169050919050565b6000620005328262000505565b9050919050565b620005448162000525565b82525050565b60008115159050919050565b62000561816200054a565b82525050565b60006040820190506200057e600083018562000539565b6200058d602083018462000556565b9392505050565b6000602082019050620005ab600083018462000556565b92915050565b61234880620005c16000396000f3fe608060405234801561001057600080fd5b50600436106100ea5760003560e01c806382dc1ec41161008c5780639dc29fac116100665780639dc29fac146101f9578063a9059cbb14610215578063c4e41b2214610231578063d73dd6231461024f576100ea565b806382dc1ec4146101a35780638456cb59146101bf5780639b96eece146101c9576100ea565b80633f4ba83a116100c85780633f4ba83a1461015757806340c10f1914610161578063661884631461017d5780636ef8d66d14610199576100ea565b8063095ea7b3146100ef5780630af4187d1461010b57806323b872dd1461013b575b600080fd5b61010960048036038101906101049190611eb8565b61026b565b005b61012560048036038101906101209190611ef8565b6102c6565b6040516101329190611f47565b60405180910390f35b61015560048036038101906101509190611f62565b610355565b005b61015f6103b2565b005b61017b60048036038101906101769190611eb8565b610409565b005b61019760048036038101906101929190611eb8565b610464565b005b6101a16104bf565b005b6101bd60048036038101906101b89190611fb5565b610516565b005b6101c761056f565b005b6101e360048036038101906101de9190611fb5565b6105c6565b6040516101f09190611f47565b60405180910390f35b610213600480360381019061020e9190611eb8565b610617565b005b61022f600480360381019061022a9190611eb8565b610672565b005b6102396106cd565b6040516102469190611f47565b60405180910390f35b61026960048036038101906102649190611eb8565b6106df565b005b6000610277838361073a565b90506000151581151514156102c1576040517f08c379a00000000000000000000000000000000000000000000000000000000081526004016102b89061203f565b60405180910390fd5b505050565b600080601060008573ffffffffffffffffffffffffffffffffffffffff1673ffffffffffffffffffffffffffffffffffffffff16815260200190815260200160002060008473ffffffffffffffffffffffffffffffffffffffff1673ffffffffffffffffffffffffffffffffffffffff1681526020019081526020016000206000015490508091505092915050565b6000610362848484610827565b90506000151581151514156103ac576040517f08c379a00000000000000000000000000000000000000000000000000000000081526004016103a39061203f565b60405180910390fd5b50505050565b60006103bc61099b565b9050600015158115151415610406576040517f08c379a00000000000000000000000000000000000000000000000000000000081526004016103fd9061203f565b60405180910390fd5b50565b60006104158383610ac9565b905060001515811515141561045f576040517f08c379a00000000000000000000000000000000000000000000000000000000081526004016104569061203f565b60405180910390fd5b505050565b60006104708383610be0565b90506000151581151514156104ba576040517f08c379a00000000000000000000000000000000000000000000000000000000081526004016104b19061203f565b60405180910390fd5b505050565b60006104c9610ccf565b9050600015158115151415610513576040517f08c379a000000000000000000000000000000000000000000000000000000000815260040161050a9061203f565b60405180910390fd5b50565b600061052182610e1b565b905060001515811515141561056b576040517f08c379a00000000000000000000000000000000000000000000000000000000081526004016105629061203f565b60405180910390fd5b5050565b6000610579610f69565b90506000151581151514156105c3576040517f08c379a00000000000000000000000000000000000000000000000000000000081526004016105ba9061203f565b60405180910390fd5b50565b600080600d60008473ffffffffffffffffffffffffffffffffffffffff1673ffffffffffffffffffffffffffffffffffffffff16815260200190815260200160002060000154905080915050919050565b60006106238383611097565b905060001515811515141561066d576040517f08c379a00000000000000000000000000000000000000000000000000000000081526004016106649061203f565b60405180910390fd5b505050565b600061067e8383611204565b90506000151581151514156106c8576040517f08c379a00000000000000000000000000000000000000000000000000000000081526004016106bf9061203f565b60405180910390fd5b505050565b60008060066000015490508091505090565b60006106eb83836112e0565b9050600015158115151415610735576040517f08c379a000000000000000000000000000000000000000000000000000000000815260040161072c9061203f565b60405180910390fd5b505050565b6000803390506000601060008373ffffffffffffffffffffffffffffffffffffffff1673ffffffffffffffffffffffffffffffffffffffff16815260200190815260200160002060008673ffffffffffffffffffffffffffffffffffffffff1673ffffffffffffffffffffffffffffffffffffffff168152602001908152602001600020600001549050600081856107d2919061208e565b90506107df838783611337565b7f01722f0e92ffd761d4a842cffdd36fe3adb6091e41732a4e714250176b7d8d22838783604051610812939291906120d1565b60405180910390a16001935050505092915050565b600080339050601160000160009054906101000a900460ff16151560001515141561098e576000600d60008773ffffffffffffffffffffffffffffffffffffffff1673ffffffffffffffffffffffffffffffffffffffff1681526020019081526020016000206000015490506000601060008873ffffffffffffffffffffffffffffffffffffffff1673ffffffffffffffffffffffffffffffffffffffff16815260200190815260200160002060008473ffffffffffffffffffffffffffffffffffffffff1673ffffffffffffffffffffffffffffffffffffffff1681526020019081526020016000206000015490508482101580156109275750848110155b1561098b576109378784876113e3565b61094287878761148f565b7f5f7542858008eeb041631f30e6109ae94b83a58e9a58261dd2c42c508850f939878785886040516109779493929190612108565b60405180910390a160019350505050610994565b50505b60009150505b9392505050565b6000601160000160009054906101000a900460ff161515600115151415610ac1576000339050600a60008273ffffffffffffffffffffffffffffffffffffffff1673ffffffffffffffffffffffffffffffffffffffff16815260200190815260200160002060000160009054906101000a900460ff161515600115151415610abf57604051806040016040528060001515815260200160011515815250601160008201518160000160006101000a81548160ff02191690831515021790555060208201518160000160016101000a81548160ff0219169083151502179055509050507f0e2fb031ee032dc02d8011dc50b816eb450cf856abd8261680dac74f72165bd26000604051610aad9190612168565b60405180910390a16001915050610ac6565b505b600090505b90565b6000601160000160009054906101000a900460ff161515600015151415610bd5576000600360000160009054906101000a900473ffffffffffffffffffffffffffffffffffffffff1690503373ffffffffffffffffffffffffffffffffffffffff168173ffffffffffffffffffffffffffffffffffffffff161415610bd357600073ffffffffffffffffffffffffffffffffffffffff168473ffffffffffffffffffffffffffffffffffffffff1614610bd257610b8684846114e3565b610b8f83611550565b7f0f6798a560793a54c3bcfe86a93cde1e73087d944c0ea20544137d41213968858484604051610bc0929190612183565b60405180910390a16001915050610bda565b5b505b600090505b92915050565b6000803390506000601060008373ffffffffffffffffffffffffffffffffffffffff1673ffffffffffffffffffffffffffffffffffffffff16815260200190815260200160002060008673ffffffffffffffffffffffffffffffffffffffff1673ffffffffffffffffffffffffffffffffffffffff168152602001908152602001600020600001549050838110610cc257610c7c82868661157e565b7f3fda289a93fbd447987ffc8940a1af71a1fad600cc184d06b56d4aa271393522828686604051610caf939291906120d1565b60405180910390a1600192505050610cc9565b6000925050505b92915050565b600080339050600a60008273ffffffffffffffffffffffffffffffffffffffff1673ffffffffffffffffffffffffffffffffffffffff16815260200190815260200160002060000160009054906101000a900460ff161515600115151415610e1257604051806040016040528060001515815260200160011515815250600a60008373ffffffffffffffffffffffffffffffffffffffff1673ffffffffffffffffffffffffffffffffffffffff16815260200190815260200160002060008201518160000160006101000a81548160ff02191690831515021790555060208201518160000160016101000a81548160ff0219169083151502179055509050507f8ac9153754152e5b728b2c6bdaca961a07c94cfbf57278f89a9865679d90fe73816000604051610e009291906121ac565b60405180910390a16001915050610e18565b60009150505b90565b600080339050600a60008273ffffffffffffffffffffffffffffffffffffffff1673ffffffffffffffffffffffffffffffffffffffff16815260200190815260200160002060000160009054906101000a900460ff161515600115151415610f5e57604051806040016040528060011515815260200160011515815250600a60008573ffffffffffffffffffffffffffffffffffffffff1673ffffffffffffffffffffffffffffffffffffffff16815260200190815260200160002060008201518160000160006101000a81548160ff02191690831515021790555060208201518160000160016101000a81548160ff0219169083151502179055509050507f8ac9153754152e5b728b2c6bdaca961a07c94cfbf57278f89a9865679d90fe73836001604051610f4c9291906121ac565b60405180910390a16001915050610f64565b60009150505b919050565b6000601160000160009054906101000a900460ff16151560001515141561108f576000339050600a60008273ffffffffffffffffffffffffffffffffffffffff1673ffffffffffffffffffffffffffffffffffffffff16815260200190815260200160002060000160009054906101000a900460ff16151560011515141561108d57604051806040016040528060011515815260200160011515815250601160008201518160000160006101000a81548160ff02191690831515021790555060208201518160000160016101000a81548160ff0219169083151502179055509050507f0e2fb031ee032dc02d8011dc50b816eb450cf856abd8261680dac74f72165bd2600160405161107b9190612168565b60405180910390a16001915050611094565b505b600090505b90565b600080339050601160000160009054906101000a900460ff1615156000151514156111f857600360000160009054906101000a900473ffffffffffffffffffffffffffffffffffffffff1673ffffffffffffffffffffffffffffffffffffffff168173ffffffffffffffffffffffffffffffffffffffff1614156111f7576000600d60008673ffffffffffffffffffffffffffffffffffffffff1673ffffffffffffffffffffffffffffffffffffffff168152602001908152602001600020600001549050600073ffffffffffffffffffffffffffffffffffffffff168573ffffffffffffffffffffffffffffffffffffffff16141580156111995750808411155b156111f5576111a8858561162a565b6111b184611697565b7fcc16f5dbb4873280815c1ee09dbd06736cffcc184412cf7a71a0fdb75d397ca585856040516111e2929190612183565b60405180910390a16001925050506111fe565b505b5b60009150505b92915050565b6000601160000160009054906101000a900460ff1615156000151514156112d55760003390506000600d60008373ffffffffffffffffffffffffffffffffffffffff1673ffffffffffffffffffffffffffffffffffffffff1681526020019081526020016000206000015490508084116112d25761128282856116c5565b61128c8585611732565b7fddf252ad1be2c89b69c2b068fc378daa952ba7f163c4a11628f55a4df523b3ef8286866040516112bf939291906120d1565b60405180910390a16001925050506112da565b50505b600090505b92915050565b6000803390506112f1818585611337565b7f01722f0e92ffd761d4a842cffdd36fe3adb6091e41732a4e714250176b7d8d22818585604051611324939291906120d1565b60405180910390a1600191505092915050565b600081905061134784848361179e565b81600b60008673ffffffffffffffffffffffffffffffffffffffff1673ffffffffffffffffffffffffffffffffffffffff16815260200190815260200160002060008573ffffffffffffffffffffffffffffffffffffffff1673ffffffffffffffffffffffffffffffffffffffff16815260200190815260200160002060000160008282546113d691906121d5565b9250508190555050505050565b60008190506113f38484836118bb565b81600c60008673ffffffffffffffffffffffffffffffffffffffff1673ffffffffffffffffffffffffffffffffffffffff16815260200190815260200160002060008573ffffffffffffffffffffffffffffffffffffffff1673ffffffffffffffffffffffffffffffffffffffff168152602001908152602001600020600001600082825461148291906121d5565b9250508190555050505050565b6114998282611732565b6114a383826116c5565b7fddf252ad1be2c89b69c2b068fc378daa952ba7f163c4a11628f55a4df523b3ef8383836040516114d6939291906120d1565b60405180910390a1505050565b60008190506114f283826119e1565b81600560008573ffffffffffffffffffffffffffffffffffffffff1673ffffffffffffffffffffffffffffffffffffffff168152602001908152602001600020600001600082825461154491906121d5565b92505081905550505050565b600081905061155e81611a83565b816008600001600082825461157391906121d5565b925050819055505050565b600081905061158e848483611aaa565b81600460008673ffffffffffffffffffffffffffffffffffffffff1673ffffffffffffffffffffffffffffffffffffffff16815260200190815260200160002060008573ffffffffffffffffffffffffffffffffffffffff1673ffffffffffffffffffffffffffffffffffffffff168152602001908152602001600020600001600082825461161d91906121d5565b9250508190555050505050565b60008190506116398382611bd0565b81600260008573ffffffffffffffffffffffffffffffffffffffff1673ffffffffffffffffffffffffffffffffffffffff168152602001908152602001600020600001600082825461168b91906121d5565b92505081905550505050565b60008190506116a581611c7b565b81600e60000160008282546116ba91906121d5565b925050819055505050565b60008190506116d48382611cab565b81600160008573ffffffffffffffffffffffffffffffffffffffff1673ffffffffffffffffffffffffffffffffffffffff168152602001908152602001600020600001600082825461172691906121d5565b92505081905550505050565b60008190506117418382611d56565b816000808573ffffffffffffffffffffffffffffffffffffffff1673ffffffffffffffffffffffffffffffffffffffff168152602001908152602001600020600001600082825461179291906121d5565b92505081905550505050565b6000819050600061182e601060008773ffffffffffffffffffffffffffffffffffffffff1673ffffffffffffffffffffffffffffffffffffffff16815260200190815260200160002060008673ffffffffffffffffffffffffffffffffffffffff1673ffffffffffffffffffffffffffffffffffffffff1681526020019081526020016000206000015483611df8565b905080601060008773ffffffffffffffffffffffffffffffffffffffff1673ffffffffffffffffffffffffffffffffffffffff16815260200190815260200160002060008673ffffffffffffffffffffffffffffffffffffffff1673ffffffffffffffffffffffffffffffffffffffff168152602001908152602001600020600001819055505050505050565b6000816118c790612235565b90506000611954601060008773ffffffffffffffffffffffffffffffffffffffff1673ffffffffffffffffffffffffffffffffffffffff16815260200190815260200160002060008673ffffffffffffffffffffffffffffffffffffffff1673ffffffffffffffffffffffffffffffffffffffff1681526020019081526020016000206000015483611df8565b905080601060008773ffffffffffffffffffffffffffffffffffffffff1673ffffffffffffffffffffffffffffffffffffffff16815260200190815260200160002060008673ffffffffffffffffffffffffffffffffffffffff1673ffffffffffffffffffffffffffffffffffffffff168152602001908152602001600020600001819055505050505050565b60008190506000611a34600d60008673ffffffffffffffffffffffffffffffffffffffff1673ffffffffffffffffffffffffffffffffffffffff1681526020019081526020016000206000015483611df8565b905080600d60008673ffffffffffffffffffffffffffffffffffffffff1673ffffffffffffffffffffffffffffffffffffffff1681526020019081526020016000206000018190555050505050565b60008190506000611a9960066000015483611df8565b905080600660000181905550505050565b600081611ab690612235565b90506000611b43601060008773ffffffffffffffffffffffffffffffffffffffff1673ffffffffffffffffffffffffffffffffffffffff16815260200190815260200160002060008673ffffffffffffffffffffffffffffffffffffffff1673ffffffffffffffffffffffffffffffffffffffff1681526020019081526020016000206000015483611df8565b905080601060008773ffffffffffffffffffffffffffffffffffffffff1673ffffffffffffffffffffffffffffffffffffffff16815260200190815260200160002060008673ffffffffffffffffffffffffffffffffffffffff1673ffffffffffffffffffffffffffffffffffffffff168152602001908152602001600020600001819055505050505050565b600081611bdc90612235565b90506000611c2c600d60008673ffffffffffffffffffffffffffffffffffffffff1673ffffffffffffffffffffffffffffffffffffffff1681526020019081526020016000206000015483611df8565b905080600d60008673ffffffffffffffffffffffffffffffffffffffff1673ffffffffffffffffffffffffffffffffffffffff1681526020019081526020016000206000018190555050505050565b600081611c8790612235565b90506000611c9a60066000015483611df8565b905080600660000181905550505050565b600081611cb790612235565b90506000611d07600d60008673ffffffffffffffffffffffffffffffffffffffff1673ffffffffffffffffffffffffffffffffffffffff1681526020019081526020016000206000015483611df8565b905080600d60008673ffffffffffffffffffffffffffffffffffffffff1673ffffffffffffffffffffffffffffffffffffffff1681526020019081526020016000206000018190555050505050565b60008190506000611da9600d60008673ffffffffffffffffffffffffffffffffffffffff1673ffffffffffffffffffffffffffffffffffffffff1681526020019081526020016000206000015483611df8565b905080600d60008673ffffffffffffffffffffffffffffffffffffffff1673ffffffffffffffffffffffffffffffffffffffff1681526020019081526020016000206000018190555050505050565b60008083905060008382611e0c919061227e565b9050600081905080935050505092915050565b600080fd5b600073ffffffffffffffffffffffffffffffffffffffff82169050919050565b6000611e4f82611e24565b9050919050565b611e5f81611e44565b8114611e6a57600080fd5b50565b600081359050611e7c81611e56565b92915050565b6000819050919050565b611e9581611e82565b8114611ea057600080fd5b50565b600081359050611eb281611e8c565b92915050565b60008060408385031215611ecf57611ece611e1f565b5b6000611edd85828601611e6d565b9250506020611eee85828601611ea3565b9150509250929050565b60008060408385031215611f0f57611f0e611e1f565b5b6000611f1d85828601611e6d565b9250506020611f2e85828601611e6d565b9150509250929050565b611f4181611e82565b82525050565b6000602082019050611f5c6000830184611f38565b92915050565b600080600060608486031215611f7b57611f7a611e1f565b5b6000611f8986828701611e6d565b9350506020611f9a86828701611e6d565b9250506040611fab86828701611ea3565b9150509250925092565b600060208284031215611fcb57611fca611e1f565b5b6000611fd984828501611e6d565b91505092915050565b600082825260208201905092915050565b7f52756c6520636f6e646974696f6e206661696c65640000000000000000000000600082015250565b6000612029601583611fe2565b915061203482611ff3565b602082019050919050565b600060208201905081810360008301526120588161201c565b9050919050565b7f4e487b7100000000000000000000000000000000000000000000000000000000600052601160045260246000fd5b600061209982611e82565b91506120a483611e82565b9250828210156120b7576120b661205f565b5b828203905092915050565b6120cb81611e44565b82525050565b60006060820190506120e660008301866120c2565b6120f360208301856120c2565b6121006040830184611f38565b949350505050565b600060808201905061211d60008301876120c2565b61212a60208301866120c2565b61213760408301856120c2565b6121446060830184611f38565b95945050505050565b60008115159050919050565b6121628161214d565b82525050565b600060208201905061217d6000830184612159565b92915050565b600060408201905061219860008301856120c2565b6121a56020830184611f38565b9392505050565b60006040820190506121c160008301856120c2565b6121ce6020830184612159565b9392505050565b60006121e082611e82565b91506121eb83611e82565b9250827fffffffffffffffffffffffffffffffffffffffffffffffffffffffffffffffff038211156122205761221f61205f565b5b828201905092915050565b6000819050919050565b60006122408261222b565b91507f80000000000000000000000000000000000000000000000000000000000000008214156122735761227261205f565b5b816000039050919050565b60006122898261222b565b91506122948361222b565b9250817f7fffffffffffffffffffffffffffffffffffffffffffffffffffffffffffffff038313600083121516156122cf576122ce61205f565b5b817f80000000000000000000000000000000000000000000000000000000000000000383126000831216156123075761230661205f565b5b82820190509291505056fea2646970667358221220e00c31b73982faca263defd99ec809357a276dc88c75d48889f4255dc364649c64736f6c634300080c0033",
  "immutableReferences": {},
  "source": "contract Matic {\n  struct TotalInTuple {\n    uint n;\n    bool _valid;\n  }\n  struct TotalOutTuple {\n    uint n;\n    bool _valid;\n  }\n  struct OwnerTuple {\n    address p;\n    bool _valid;\n  }\n  struct DecreaseAllowanceTotalTuple {\n    uint m;\n    bool _valid;\n  }\n  struct TotalMintTuple {\n    uint n;\n    bool _valid;\n  }\n  struct TotalSupplyTuple {\n    uint n;\n    bool _valid;\n  }\n  struct AllMintTuple {\n    uint n;\n    bool _valid;\n  }\n  struct IsPauserTuple {\n    bool b;\n    bool _valid;\n  }\n  struct AllowanceTotalTuple {\n    uint m;\n    bool _valid;\n  }\n  struct SpentTotalTuple {\n    uint m;\n    bool _valid;\n  }\n  struct TotalBurnTuple {\n    uint n;\n    bool _valid;\n  }\n  struct BalanceOfTuple {\n    uint n;\n    bool _valid;\n  }\n  struct AllBurnTuple {\n    uint n;\n    bool _valid;\n  }\n  struct AllowanceTuple {\n    uint n;\n    bool _valid;\n  }\n  struct PausedTuple {\n    bool b;\n    bool _valid;\n  }\n  mapping(address=>TotalInTuple) totalIn;\n  mapping(address=>TotalOutTuple) totalOut;\n  mapping(address=>TotalBurnTuple) totalBurn;\n  OwnerTuple owner;\n  mapping(address=>mapping(address=>DecreaseAllowanceTotalTuple)) decreaseAllowanceTotal;\n  mapping(address=>TotalMintTuple) totalMint;\n  TotalSupplyTuple totalSupply;\n  AllMintTuple allMint;\n  mapping(address=>IsPauserTuple) isPauser;\n  mapping(address=>mapping(address=>AllowanceTotalTuple)) allowanceTotal;\n  mapping(address=>mapping(address=>SpentTotalTuple)) spentTotal;\n  mapping(address=>BalanceOfTuple) balanceOf;\n  AllBurnTuple allBurn;\n  mapping(address=>mapping(address=>AllowanceTuple)) allowance;\n  PausedTuple paused;\n  event Burn(address p,uint amount);\n  event Mint(address p,uint amount);\n  event DecreaseAllowance(address p,address s,uint n);\n  event IncreaseAllowance(address p,address s,uint n);\n  event IsPauser(address p,bool b);\n  event Transfer(address from,address to,uint amount);\n  event Paused(bool b);\n  event TransferFrom(address from,address to,address spender,uint amount);\n  constructor(uint n) public {\n    updateIsPauserOnInsertConstructor_r22();\n    updatePausedOnInsertConstructor_r25();\n    updateBalanceOfOnInsertConstructor_r18(n);\n    updateTotalBalancesOnInsertConstructor_r32(n);\n    updateTotalMintOnInsertConstructor_r20(n);\n    updateAllMintOnInsertConstructor_r12(n);\n    updateOwnerOnInsertConstructor_r6();\n    updateTotalSupplyOnInsertConstructor_r28(n);\n  }\n  function addPauser(address p) public    {\n      bool r5 = updateIsPauserOnInsertRecv_addPauser_r5(p);\n      if(r5==false) {\n        revert(\"Rule condition failed\");\n      }\n  }\n  function getBalanceOf(address p) public view  returns (uint) {\n      uint n = balanceOf[p].n;\n      return n;\n  }\n  function transferFrom(address from,address to,uint amount) public    {\n      bool r2 = updateTransferFromOnInsertRecv_transferFrom_r2(from,to,amount);\n      if(r2==false) {\n        revert(\"Rule condition failed\");\n      }\n  }\n  function transfer(address to,uint amount) public    {\n      bool r11 = updateTransferOnInsertRecv_transfer_r11(to,amount);\n      if(r11==false) {\n        revert(\"Rule condition failed\");\n      }\n  }\n  function approve(address s,uint n) public    {\n      bool r31 = updateIncreaseAllowanceOnInsertRecv_approve_r31(s,n);\n      if(r31==false) {\n        revert(\"Rule condition failed\");\n      }\n  }\n  function mint(address p,uint amount) public    {\n      bool r3 = updateMintOnInsertRecv_mint_r3(p,amount);\n      if(r3==false) {\n        revert(\"Rule condition failed\");\n      }\n  }\n  function unpause() public    {\n      bool r13 = updatePausedOnInsertRecv_unpause_r13();\n      if(r13==false) {\n        revert(\"Rule condition failed\");\n      }\n  }\n  function increaseApproval(address p,uint n) public    {\n      bool r10 = updateIncreaseAllowanceOnInsertRecv_increaseApproval_r10(p,n);\n      if(r10==false) {\n        revert(\"Rule condition failed\");\n      }\n  }\n  function decreaseApproval(address p,uint n) public    {\n      bool r17 = updateDecreaseAllowanceOnInsertRecv_decreaseApproval_r17(p,n);\n      if(r17==false) {\n        revert(\"Rule condition failed\");\n      }\n  }\n  function getTotalSupply() public view  returns (uint) {\n      uint n = totalSupply.n;\n      return n;\n  }\n  function getAllowance(address p,address s) public view  returns (uint) {\n      uint n = allowance[p][s].n;\n      return n;\n  }\n  function renouncePauser() public    {\n      bool r0 = updateIsPauserOnInsertRecv_renouncePauser_r0();\n      if(r0==false) {\n        revert(\"Rule condition failed\");\n      }\n  }\n  function burn(address p,uint amount) public    {\n      bool r8 = updateBurnOnInsertRecv_burn_r8(p,amount);\n      if(r8==false) {\n        revert(\"Rule condition failed\");\n      }\n  }\n  function pause() public    {\n      bool r21 = updatePausedOnInsertRecv_pause_r21();\n      if(r21==false) {\n        revert(\"Rule condition failed\");\n      }\n  }\n  function updateBalanceOfOnIncrementTotalBurn_r26(address p,int m) private    {\n      int _delta = int(-m);\n      uint newValue = updateuintByint(balanceOf[p].n,_delta);\n      balanceOf[p].n = newValue;\n  }\n  function updatePausedOnInsertConstructor_r25() private    {\n      paused = PausedTuple(false,true);\n      emit Paused(false);\n  }\n  function updateBalanceOfOnIncrementTotalIn_r26(address p,int i) private    {\n      int _delta = int(i);\n      uint newValue = updateuintByint(balanceOf[p].n,_delta);\n      balanceOf[p].n = newValue;\n  }\n  function updateTotalSupplyOnIncrementAllMint_r16(int m) private    {\n      int _delta = int(m);\n      uint newValue = updateuintByint(totalSupply.n,_delta);\n      totalSupply.n = newValue;\n  }\n  function updateTotalBalancesOnInsertConstructor_r32(uint n) private    {\n      // Empty()\n  }\n  function updateTotalMintOnInsertConstructor_r20(uint n) private    {\n      address s = msg.sender;\n      totalMint[s] = TotalMintTuple(n,true);\n  }\n  function updateBurnOnInsertRecv_burn_r8(address p,uint n) private   returns (bool) {\n      address s = msg.sender;\n      if(false==paused.b) {\n        if(s==owner.p) {\n          uint m = balanceOf[p].n;\n          if(p!=address(0) && n<=m) {\n            updateTotalBurnOnInsertBurn_r14(p,n);\n            updateAllBurnOnInsertBurn_r30(n);\n            emit Burn(p,n);\n            return true;\n          }\n        }\n      }\n      return false;\n  }\n  function updateAllBurnOnInsertBurn_r30(uint n) private    {\n      int delta0 = int(n);\n      updateTotalSupplyOnIncrementAllBurn_r16(delta0);\n      allBurn.n += n;\n  }\n  function updateTotalOutOnInsertTransfer_r23(address p,uint n) private    {\n      int delta0 = int(n);\n      updateBalanceOfOnIncrementTotalOut_r26(p,delta0);\n      totalOut[p].n += n;\n  }\n  function updateIsPauserOnInsertRecv_renouncePauser_r0() private   returns (bool) {\n      address s = msg.sender;\n      if(true==isPauser[s].b) {\n        isPauser[s] = IsPauserTuple(false,true);\n        emit IsPauser(s,false);\n        return true;\n      }\n      return false;\n  }\n  function updateTotalSupplyOnInsertConstructor_r28(uint n) private    {\n      totalSupply = TotalSupplyTuple(n,true);\n  }\n  function updateIsPauserOnInsertRecv_addPauser_r5(address p) private   returns (bool) {\n      address s = msg.sender;\n      if(true==isPauser[s].b) {\n        isPauser[p] = IsPauserTuple(true,true);\n        emit IsPauser(p,true);\n        return true;\n      }\n      return false;\n  }\n  function updateTotalSupplyOnIncrementAllBurn_r16(int b) private    {\n      int _delta = int(-b);\n      uint newValue = updateuintByint(totalSupply.n,_delta);\n      totalSupply.n = newValue;\n  }\n  function updateTransferOnInsertTransferFrom_r1(address o,address r,uint n) private    {\n      updateTotalInOnInsertTransfer_r7(r,n);\n      updateTotalOutOnInsertTransfer_r23(o,n);\n      emit Transfer(o,r,n);\n  }\n  function updatePausedOnInsertRecv_unpause_r13() private   returns (bool) {\n      if(true==paused.b) {\n        address s = msg.sender;\n        if(true==isPauser[s].b) {\n          paused = PausedTuple(false,true);\n          emit Paused(false);\n          return true;\n        }\n      }\n      return false;\n  }\n  function updateMintOnInsertRecv_mint_r3(address p,uint n) private   returns (bool) {\n      if(false==paused.b) {\n        address s = owner.p;\n        if(s==msg.sender) {\n          if(p!=address(0)) {\n            updateTotalMintOnInsertMint_r15(p,n);\n            updateAllMintOnInsertMint_r9(n);\n            emit Mint(p,n);\n            return true;\n          }\n        }\n      }\n      return false;\n  }\n  function updateBalanceOfOnInsertConstructor_r18(uint n) private    {\n      address s = msg.sender;\n      balanceOf[s] = BalanceOfTuple(n,true);\n  }\n  function updateOwnerOnInsertConstructor_r6() private    {\n      address s = msg.sender;\n      owner = OwnerTuple(s,true);\n  }\n  function updateBalanceOfOnIncrementTotalOut_r26(address p,int o) private    {\n      int _delta = int(-o);\n      uint newValue = updateuintByint(balanceOf[p].n,_delta);\n      balanceOf[p].n = newValue;\n  }\n  function updateTransferOnInsertRecv_transfer_r11(address r,uint n) private   returns (bool) {\n      if(false==paused.b) {\n        address s = msg.sender;\n        uint m = balanceOf[s].n;\n        if(n<=m) {\n          updateTotalOutOnInsertTransfer_r23(s,n);\n          updateTotalInOnInsertTransfer_r7(r,n);\n          emit Transfer(s,r,n);\n          return true;\n        }\n      }\n      return false;\n  }\n  function updateDecreaseAllowanceOnInsertRecv_decreaseApproval_r17(address s,uint n) private   returns (bool) {\n      address o = msg.sender;\n      uint m = allowance[o][s].n;\n      if(m>=n) {\n        updateDecreaseAllowanceTotalOnInsertDecreaseAllowance_r4(o,s,n);\n        emit DecreaseAllowance(o,s,n);\n        return true;\n      }\n      return false;\n  }\n  function updateTotalInOnInsertTransfer_r7(address p,uint n) private    {\n      int delta0 = int(n);\n      updateBalanceOfOnIncrementTotalIn_r26(p,delta0);\n      totalIn[p].n += n;\n  }\n  function updateIncreaseAllowanceOnInsertRecv_approve_r31(address s,uint n) private   returns (bool) {\n      address o = msg.sender;\n      uint m = allowance[o][s].n;\n      uint d = n-m;\n      updateAllowanceTotalOnInsertIncreaseAllowance_r33(o,s,d);\n      emit IncreaseAllowance(o,s,d);\n      return true;\n      return false;\n  }\n  function updateAllMintOnInsertConstructor_r12(uint n) private    {\n      allMint = AllMintTuple(n,true);\n  }\n  function updateAllowanceOnIncrementAllowanceTotal_r29(address o,address s,int m) private    {\n      int _delta = int(m);\n      uint newValue = updateuintByint(allowance[o][s].n,_delta);\n      allowance[o][s].n = newValue;\n  }\n  function updateAllowanceTotalOnInsertIncreaseAllowance_r33(address o,address s,uint n) private    {\n      int delta0 = int(n);\n      updateAllowanceOnIncrementAllowanceTotal_r29(o,s,delta0);\n      allowanceTotal[o][s].m += n;\n  }\n  function updateuintByint(uint x,int delta) private   returns (uint) {\n      int convertedX = int(x);\n      int value = convertedX+delta;\n      uint convertedValue = uint(value);\n      return convertedValue;\n  }\n  function updateSpentTotalOnInsertTransferFrom_r27(address o,address s,uint n) private    {\n      int delta0 = int(n);\n      updateAllowanceOnIncrementSpentTotal_r29(o,s,delta0);\n      spentTotal[o][s].m += n;\n  }\n  function updateTotalBurnOnInsertBurn_r14(address p,uint n) private    {\n      int delta0 = int(n);\n      updateBalanceOfOnIncrementTotalBurn_r26(p,delta0);\n      totalBurn[p].n += n;\n  }\n  function updateBalanceOfOnIncrementTotalMint_r26(address p,int n) private    {\n      int _delta = int(n);\n      uint newValue = updateuintByint(balanceOf[p].n,_delta);\n      balanceOf[p].n = newValue;\n  }\n  function updateAllowanceOnIncrementDecreaseAllowanceTotal_r29(address o,address s,int d) private    {\n      int _delta = int(-d);\n      uint newValue = updateuintByint(allowance[o][s].n,_delta);\n      allowance[o][s].n = newValue;\n  }\n  function updatePausedOnInsertRecv_pause_r21() private   returns (bool) {\n      if(false==paused.b) {\n        address s = msg.sender;\n        if(true==isPauser[s].b) {\n          paused = PausedTuple(true,true);\n          emit Paused(true);\n          return true;\n        }\n      }\n      return false;\n  }\n  function updateDecreaseAllowanceTotalOnInsertDecreaseAllowance_r4(address o,address s,uint n) private    {\n      int delta0 = int(n);\n      updateAllowanceOnIncrementDecreaseAllowanceTotal_r29(o,s,delta0);\n      decreaseAllowanceTotal[o][s].m += n;\n  }\n  function updateTransferFromOnInsertRecv_transferFrom_r2(address o,address r,uint n) private   returns (bool) {\n      address s = msg.sender;\n      if(false==paused.b) {\n        uint m = balanceOf[o].n;\n        uint k = allowance[o][s].n;\n        if(m>=n && k>=n) {\n          updateSpentTotalOnInsertTransferFrom_r27(o,s,n);\n          updateTransferOnInsertTransferFrom_r1(o,r,n);\n          emit TransferFrom(o,r,s,n);\n          return true;\n        }\n      }\n      return false;\n  }\n  function updateAllowanceOnIncrementSpentTotal_r29(address o,address s,int l) private    {\n      int _delta = int(-l);\n      uint newValue = updateuintByint(allowance[o][s].n,_delta);\n      allowance[o][s].n = newValue;\n  }\n  function updateTotalMintOnInsertMint_r15(address p,uint n) private    {\n      int delta0 = int(n);\n      updateBalanceOfOnIncrementTotalMint_r26(p,delta0);\n      totalMint[p].n += n;\n  }\n  function updateAllMintOnInsertMint_r9(uint n) private    {\n      int delta0 = int(n);\n      updateTotalSupplyOnIncrementAllMint_r16(delta0);\n      allMint.n += n;\n  }\n  function updateIncreaseAllowanceOnInsertRecv_increaseApproval_r10(address s,uint n) private   returns (bool) {\n      address o = msg.sender;\n      updateAllowanceTotalOnInsertIncreaseAllowance_r33(o,s,n);\n      emit IncreaseAllowance(o,s,n);\n      return true;\n      return false;\n  }\n  function updateIsPauserOnInsertConstructor_r22() private    {\n      address s = msg.sender;\n      isPauser[s] = IsPauserTuple(true,true);\n      emit IsPauser(s,true);\n  }\n}",
  "sourcePath": "/home/lan/gasOpt/declarative-smart-contracts/solidity/full/matic.sol",
  "compiler": {
    "name": "solc",
    "version": "0.8.12+commit.f00d7308.Emscripten.clang"
  },
  "schemaVersion": "3.4.14",
  "updatedAt": "2023-09-19T03:58:11.586Z",
  "devdoc": {
    "kind": "dev",
    "methods": {},
    "version": 1
  },
  "userdoc": {
    "kind": "user",
    "methods": {},
    "version": 1
  }
}