{
  "contractName": "Matic",
  "abi": [
    {
      "inputs": [
        {
          "internalType": "uint256",
          "name": "n",
          "type": "uint256"
        }
      ],
      "stateMutability": "nonpayable",
      "type": "constructor"
    },
    {
      "anonymous": false,
      "inputs": [
        {
          "indexed": false,
          "internalType": "address",
          "name": "p",
          "type": "address"
        },
        {
          "indexed": false,
          "internalType": "bool",
          "name": "b",
          "type": "bool"
        }
      ],
      "name": "AddPauser",
      "type": "event"
    },
    {
      "anonymous": false,
      "inputs": [
        {
          "indexed": false,
          "internalType": "address",
          "name": "p",
          "type": "address"
        },
        {
          "indexed": false,
          "internalType": "uint256",
          "name": "amount",
          "type": "uint256"
        }
      ],
      "name": "Burn",
      "type": "event"
    },
    {
      "anonymous": false,
      "inputs": [
        {
          "indexed": false,
          "internalType": "address",
          "name": "p",
          "type": "address"
        },
        {
          "indexed": false,
          "internalType": "address",
          "name": "s",
          "type": "address"
        },
        {
          "indexed": false,
          "internalType": "uint256",
          "name": "n",
          "type": "uint256"
        }
      ],
      "name": "DecreaseAllowance",
      "type": "event"
    },
    {
      "anonymous": false,
      "inputs": [
        {
          "indexed": false,
          "internalType": "address",
          "name": "p",
          "type": "address"
        },
        {
          "indexed": false,
          "internalType": "address",
          "name": "s",
          "type": "address"
        },
        {
          "indexed": false,
          "internalType": "uint256",
          "name": "n",
          "type": "uint256"
        }
      ],
      "name": "IncreaseAllowance",
      "type": "event"
    },
    {
      "anonymous": false,
      "inputs": [
        {
          "indexed": false,
          "internalType": "address",
          "name": "p",
          "type": "address"
        },
        {
          "indexed": false,
          "internalType": "uint256",
          "name": "amount",
          "type": "uint256"
        }
      ],
      "name": "Mint",
      "type": "event"
    },
    {
      "anonymous": false,
      "inputs": [
        {
          "indexed": false,
          "internalType": "bool",
          "name": "b",
          "type": "bool"
        }
      ],
      "name": "Pause",
      "type": "event"
    },
    {
      "anonymous": false,
      "inputs": [
        {
          "indexed": false,
          "internalType": "address",
          "name": "p",
          "type": "address"
        },
        {
          "indexed": false,
          "internalType": "bool",
          "name": "b",
          "type": "bool"
        }
      ],
      "name": "RenouncePauser",
      "type": "event"
    },
    {
      "anonymous": false,
      "inputs": [
        {
          "indexed": false,
          "internalType": "address",
          "name": "from",
          "type": "address"
        },
        {
          "indexed": false,
          "internalType": "address",
          "name": "to",
          "type": "address"
        },
        {
          "indexed": false,
          "internalType": "uint256",
          "name": "amount",
          "type": "uint256"
        }
      ],
      "name": "Transfer",
      "type": "event"
    },
    {
      "anonymous": false,
      "inputs": [
        {
          "indexed": false,
          "internalType": "address",
          "name": "from",
          "type": "address"
        },
        {
          "indexed": false,
          "internalType": "address",
          "name": "to",
          "type": "address"
        },
        {
          "indexed": false,
          "internalType": "address",
          "name": "spender",
          "type": "address"
        },
        {
          "indexed": false,
          "internalType": "uint256",
          "name": "amount",
          "type": "uint256"
        }
      ],
      "name": "TransferFrom",
      "type": "event"
    },
    {
      "anonymous": false,
      "inputs": [
        {
          "indexed": false,
          "internalType": "bool",
          "name": "b",
          "type": "bool"
        }
      ],
      "name": "Unpause",
      "type": "event"
    },
    {
      "inputs": [
        {
          "internalType": "address",
          "name": "p",
          "type": "address"
        },
        {
          "internalType": "uint256",
          "name": "amount",
          "type": "uint256"
        }
      ],
      "name": "burn",
      "outputs": [],
      "stateMutability": "nonpayable",
      "type": "function"
    },
    {
      "inputs": [
        {
          "internalType": "address",
          "name": "p",
          "type": "address"
        },
        {
          "internalType": "uint256",
          "name": "n",
          "type": "uint256"
        }
      ],
      "name": "increaseApproval",
      "outputs": [],
      "stateMutability": "nonpayable",
      "type": "function"
    },
    {
      "inputs": [
        {
          "internalType": "address",
          "name": "s",
          "type": "address"
        },
        {
          "internalType": "uint256",
          "name": "n",
          "type": "uint256"
        }
      ],
      "name": "approve",
      "outputs": [],
      "stateMutability": "nonpayable",
      "type": "function"
    },
    {
      "inputs": [],
      "name": "getTotalSupply",
      "outputs": [
        {
          "internalType": "uint256",
          "name": "",
          "type": "uint256"
        }
      ],
      "stateMutability": "view",
      "type": "function"
    },
    {
      "inputs": [
        {
          "internalType": "address",
          "name": "p",
          "type": "address"
        }
      ],
      "name": "getBalanceOf",
      "outputs": [
        {
          "internalType": "uint256",
          "name": "",
          "type": "uint256"
        }
      ],
      "stateMutability": "view",
      "type": "function"
    },
    {
      "inputs": [
        {
          "internalType": "address",
          "name": "from",
          "type": "address"
        },
        {
          "internalType": "address",
          "name": "to",
          "type": "address"
        },
        {
          "internalType": "uint256",
          "name": "amount",
          "type": "uint256"
        }
      ],
      "name": "transferFrom",
      "outputs": [],
      "stateMutability": "nonpayable",
      "type": "function"
    },
    {
      "inputs": [],
      "name": "renouncePauser",
      "outputs": [],
      "stateMutability": "nonpayable",
      "type": "function"
    },
    {
      "inputs": [],
      "name": "pause",
      "outputs": [],
      "stateMutability": "nonpayable",
      "type": "function"
    },
    {
      "inputs": [
        {
          "internalType": "address",
          "name": "p",
          "type": "address"
        }
      ],
      "name": "addPauser",
      "outputs": [],
      "stateMutability": "nonpayable",
      "type": "function"
    },
    {
      "inputs": [
        {
          "internalType": "address",
          "name": "p",
          "type": "address"
        },
        {
          "internalType": "uint256",
          "name": "n",
          "type": "uint256"
        }
      ],
      "name": "decreaseApproval",
      "outputs": [],
      "stateMutability": "nonpayable",
      "type": "function"
    },
    {
      "inputs": [
        {
          "internalType": "address",
          "name": "p",
          "type": "address"
        },
        {
          "internalType": "address",
          "name": "s",
          "type": "address"
        }
      ],
      "name": "getAllowance",
      "outputs": [
        {
          "internalType": "uint256",
          "name": "",
          "type": "uint256"
        }
      ],
      "stateMutability": "view",
      "type": "function"
    },
    {
      "inputs": [
        {
          "internalType": "address",
          "name": "to",
          "type": "address"
        },
        {
          "internalType": "uint256",
          "name": "amount",
          "type": "uint256"
        }
      ],
      "name": "transfer",
      "outputs": [],
      "stateMutability": "nonpayable",
      "type": "function"
    },
    {
      "inputs": [
        {
          "internalType": "address",
          "name": "p",
          "type": "address"
        },
        {
          "internalType": "uint256",
          "name": "amount",
          "type": "uint256"
        }
      ],
      "name": "mint",
      "outputs": [],
      "stateMutability": "nonpayable",
      "type": "function"
    },
    {
      "inputs": [],
      "name": "unpause",
      "outputs": [],
      "stateMutability": "nonpayable",
      "type": "function"
    }
  ],
  "bytecode": "0x60806040523480156200001157600080fd5b506040516200281a3803806200281a83398181016040528101906200003791906200045d565b6200004881620000c360201b60201c565b62000059816200015060201b60201c565b62000069620001dd60201b60201c565b6200007a816200027f60201b60201c565b6200008a620002c960201b60201c565b6200009a6200032b60201b60201c565b620000ab81620003d060201b60201c565b620000bc816200041a60201b60201c565b506200048f565b6000339050604051806040016040528083815260200160011515815250600560008373ffffffffffffffffffffffffffffffffffffffff1673ffffffffffffffffffffffffffffffffffffffff1681526020019081526020016000206000820151816000015560208201518160010160006101000a81548160ff0219169083151502179055509050505050565b6000339050604051806040016040528083815260200160011515815250600d60008373ffffffffffffffffffffffffffffffffffffffff1673ffffffffffffffffffffffffffffffffffffffff1681526020019081526020016000206000820151816000015560208201518160010160006101000a81548160ff0219169083151502179055509050505050565b600033905060405180604001604052808273ffffffffffffffffffffffffffffffffffffffff16815260200160011515815250600360008201518160000160006101000a81548173ffffffffffffffffffffffffffffffffffffffff021916908373ffffffffffffffffffffffffffffffffffffffff16021790555060208201518160000160146101000a81548160ff02191690831515021790555090505050565b60405180604001604052808281526020016001151581525060066000820151816000015560208201518160010160006101000a81548160ff02191690831515021790555090505050565b604051806040016040528060001515815260200160011515815250601160008201518160000160006101000a81548160ff02191690831515021790555060208201518160000160016101000a81548160ff021916908315150217905550905050565b6000339050604051806040016040528060011515815260200160011515815250600a60008373ffffffffffffffffffffffffffffffffffffffff1673ffffffffffffffffffffffffffffffffffffffff16815260200190815260200160002060008201518160000160006101000a81548160ff02191690831515021790555060208201518160000160016101000a81548160ff02191690831515021790555090505050565b60405180604001604052808281526020016001151581525060086000820151816000015560208201518160010160006101000a81548160ff02191690831515021790555090505050565b50565b600080fd5b6000819050919050565b620004378162000422565b81146200044357600080fd5b50565b60008151905062000457816200042c565b92915050565b6000602082840312156200047657620004756200041d565b5b6000620004868482850162000446565b91505092915050565b61237b806200049f6000396000f3fe608060405234801561001057600080fd5b50600436106100ea5760003560e01c806382dc1ec41161008c5780639dc29fac116100665780639dc29fac146101f9578063a9059cbb14610215578063c4e41b2214610231578063d73dd6231461024f576100ea565b806382dc1ec4146101a35780638456cb59146101bf5780639b96eece146101c9576100ea565b80633f4ba83a116100c85780633f4ba83a1461015757806340c10f1914610161578063661884631461017d5780636ef8d66d14610199576100ea565b8063095ea7b3146100ef5780630af4187d1461010b57806323b872dd1461013b575b600080fd5b61010960048036038101906101049190611eeb565b61026b565b005b61012560048036038101906101209190611f2b565b6102c6565b6040516101329190611f7a565b60405180910390f35b61015560048036038101906101509190611f95565b610355565b005b61015f6103b2565b005b61017b60048036038101906101769190611eeb565b610409565b005b61019760048036038101906101929190611eeb565b610464565b005b6101a16104bf565b005b6101bd60048036038101906101b89190611fe8565b610516565b005b6101c761056f565b005b6101e360048036038101906101de9190611fe8565b6105c6565b6040516101f09190611f7a565b60405180910390f35b610213600480360381019061020e9190611eeb565b610617565b005b61022f600480360381019061022a9190611eeb565b610672565b005b6102396106cd565b6040516102469190611f7a565b60405180910390f35b61026960048036038101906102649190611eeb565b6106df565b005b6000610277838361073a565b90506000151581151514156102c1576040517f08c379a00000000000000000000000000000000000000000000000000000000081526004016102b890612072565b60405180910390fd5b505050565b600080601060008573ffffffffffffffffffffffffffffffffffffffff1673ffffffffffffffffffffffffffffffffffffffff16815260200190815260200160002060008473ffffffffffffffffffffffffffffffffffffffff1673ffffffffffffffffffffffffffffffffffffffff1681526020019081526020016000206000015490508091505092915050565b6000610362848484610827565b90506000151581151514156103ac576040517f08c379a00000000000000000000000000000000000000000000000000000000081526004016103a390612072565b60405180910390fd5b50505050565b60006103bc61099b565b9050600015158115151415610406576040517f08c379a00000000000000000000000000000000000000000000000000000000081526004016103fd90612072565b60405180910390fd5b50565b60006104158383610a73565b905060001515811515141561045f576040517f08c379a000000000000000000000000000000000000000000000000000000000815260040161045690612072565b60405180910390fd5b505050565b60006104708383610b8a565b90506000151581151514156104ba576040517f08c379a00000000000000000000000000000000000000000000000000000000081526004016104b190612072565b60405180910390fd5b505050565b60006104c9610c79565b9050600015158115151415610513576040517f08c379a000000000000000000000000000000000000000000000000000000000815260040161050a90612072565b60405180910390fd5b50565b600061052182610d32565b905060001515811515141561056b576040517f08c379a000000000000000000000000000000000000000000000000000000000815260040161056290612072565b60405180910390fd5b5050565b6000610579610dee565b90506000151581151514156105c3576040517f08c379a00000000000000000000000000000000000000000000000000000000081526004016105ba90612072565b60405180910390fd5b50565b600080600d60008473ffffffffffffffffffffffffffffffffffffffff1673ffffffffffffffffffffffffffffffffffffffff16815260200190815260200160002060000154905080915050919050565b60006106238383610ec6565b905060001515811515141561066d576040517f08c379a000000000000000000000000000000000000000000000000000000000815260040161066490612072565b60405180910390fd5b505050565b600061067e8383611033565b90506000151581151514156106c8576040517f08c379a00000000000000000000000000000000000000000000000000000000081526004016106bf90612072565b60405180910390fd5b505050565b60008060066000015490508091505090565b60006106eb838361110f565b9050600015158115151415610735576040517f08c379a000000000000000000000000000000000000000000000000000000000815260040161072c90612072565b60405180910390fd5b505050565b6000803390506000601060008373ffffffffffffffffffffffffffffffffffffffff1673ffffffffffffffffffffffffffffffffffffffff16815260200190815260200160002060008673ffffffffffffffffffffffffffffffffffffffff1673ffffffffffffffffffffffffffffffffffffffff168152602001908152602001600020600001549050600081856107d291906120c1565b90506107df838783611166565b7f01722f0e92ffd761d4a842cffdd36fe3adb6091e41732a4e714250176b7d8d2283878360405161081293929190612104565b60405180910390a16001935050505092915050565b600080339050601160000160009054906101000a900460ff16151560001515141561098e576000600d60008773ffffffffffffffffffffffffffffffffffffffff1673ffffffffffffffffffffffffffffffffffffffff1681526020019081526020016000206000015490506000601060008873ffffffffffffffffffffffffffffffffffffffff1673ffffffffffffffffffffffffffffffffffffffff16815260200190815260200160002060008473ffffffffffffffffffffffffffffffffffffffff1673ffffffffffffffffffffffffffffffffffffffff1681526020019081526020016000206000015490508482101580156109275750848110155b1561098b57610937878487611212565b6109428787876112be565b7f5f7542858008eeb041631f30e6109ae94b83a58e9a58261dd2c42c508850f93987878588604051610977949392919061213b565b60405180910390a160019350505050610994565b50505b60009150505b9392505050565b6000601160000160009054906101000a900460ff161515600115151415610a6b576000339050600a60008273ffffffffffffffffffffffffffffffffffffffff1673ffffffffffffffffffffffffffffffffffffffff16815260200190815260200160002060000160009054906101000a900460ff161515600115151415610a6957610a276000611312565b7f438b0bb88e1b4ec35c11877ff82c0cdfb4d7a0053df376e1d8f8494b0335c3f46000604051610a57919061219b565b60405180910390a16001915050610a70565b505b600090505b90565b6000601160000160009054906101000a900460ff161515600015151415610b7f576000600360000160009054906101000a900473ffffffffffffffffffffffffffffffffffffffff1690503373ffffffffffffffffffffffffffffffffffffffff168173ffffffffffffffffffffffffffffffffffffffff161415610b7d57600073ffffffffffffffffffffffffffffffffffffffff168473ffffffffffffffffffffffffffffffffffffffff1614610b7c57610b2f83611374565b610b3984846113a2565b7f0f6798a560793a54c3bcfe86a93cde1e73087d944c0ea20544137d41213968858484604051610b6a9291906121b6565b60405180910390a16001915050610b84565b5b505b600090505b92915050565b6000803390506000601060008373ffffffffffffffffffffffffffffffffffffffff1673ffffffffffffffffffffffffffffffffffffffff16815260200190815260200160002060008673ffffffffffffffffffffffffffffffffffffffff1673ffffffffffffffffffffffffffffffffffffffff168152602001908152602001600020600001549050838110610c6c57610c2682868661140f565b7f3fda289a93fbd447987ffc8940a1af71a1fad600cc184d06b56d4aa271393522828686604051610c5993929190612104565b60405180910390a1600192505050610c73565b6000925050505b92915050565b600080339050600a60008273ffffffffffffffffffffffffffffffffffffffff1673ffffffffffffffffffffffffffffffffffffffff16815260200190815260200160002060000160009054906101000a900460ff161515600115151415610d2957610ce68160006114bb565b7e118cad6482195f9008e61e1af277ec7e1f478b44dc10d0a1136316cad3588a816000604051610d179291906121df565b60405180910390a16001915050610d2f565b60009150505b90565b600080339050600a60008273ffffffffffffffffffffffffffffffffffffffff1673ffffffffffffffffffffffffffffffffffffffff16815260200190815260200160002060000160009054906101000a900460ff161515600115151415610de357610d9f83600161155b565b7f77c96e1d5cc530a80bdb88d8755a9391f31102bc1cc0557888439733c2a7ed20836001604051610dd19291906121df565b60405180910390a16001915050610de9565b60009150505b919050565b6000601160000160009054906101000a900460ff161515600015151415610ebe576000339050600a60008273ffffffffffffffffffffffffffffffffffffffff1673ffffffffffffffffffffffffffffffffffffffff16815260200190815260200160002060000160009054906101000a900460ff161515600115151415610ebc57610e7a60016115fb565b7f9422424b175dda897495a07b091ef74a3ef715cf6d866fc972954c1c7f4593046001604051610eaa919061219b565b60405180910390a16001915050610ec3565b505b600090505b90565b600080339050601160000160009054906101000a900460ff16151560001515141561102757600360000160009054906101000a900473ffffffffffffffffffffffffffffffffffffffff1673ffffffffffffffffffffffffffffffffffffffff168173ffffffffffffffffffffffffffffffffffffffff161415611026576000600d60008673ffffffffffffffffffffffffffffffffffffffff1673ffffffffffffffffffffffffffffffffffffffff168152602001908152602001600020600001549050600073ffffffffffffffffffffffffffffffffffffffff168573ffffffffffffffffffffffffffffffffffffffff1614158015610fc85750808411155b1561102457610fd7858561165d565b610fe0846116ca565b7fcc16f5dbb4873280815c1ee09dbd06736cffcc184412cf7a71a0fdb75d397ca585856040516110119291906121b6565b60405180910390a160019250505061102d565b505b5b60009150505b92915050565b6000601160000160009054906101000a900460ff1615156000151514156111045760003390506000600d60008373ffffffffffffffffffffffffffffffffffffffff1673ffffffffffffffffffffffffffffffffffffffff168152602001908152602001600020600001549050808411611101576110b182856116f8565b6110bb8585611765565b7fddf252ad1be2c89b69c2b068fc378daa952ba7f163c4a11628f55a4df523b3ef8286866040516110ee93929190612104565b60405180910390a1600192505050611109565b50505b600090505b92915050565b600080339050611120818585611166565b7f01722f0e92ffd761d4a842cffdd36fe3adb6091e41732a4e714250176b7d8d2281858560405161115393929190612104565b60405180910390a1600191505092915050565b60008190506111768484836117d1565b81600b60008673ffffffffffffffffffffffffffffffffffffffff1673ffffffffffffffffffffffffffffffffffffffff16815260200190815260200160002060008573ffffffffffffffffffffffffffffffffffffffff1673ffffffffffffffffffffffffffffffffffffffff16815260200190815260200160002060000160008282546112059190612208565b9250508190555050505050565b60008190506112228484836118ee565b81600c60008673ffffffffffffffffffffffffffffffffffffffff1673ffffffffffffffffffffffffffffffffffffffff16815260200190815260200160002060008573ffffffffffffffffffffffffffffffffffffffff1673ffffffffffffffffffffffffffffffffffffffff16815260200190815260200160002060000160008282546112b19190612208565b9250508190555050505050565b6112c883826116f8565b6112d28282611765565b7fddf252ad1be2c89b69c2b068fc378daa952ba7f163c4a11628f55a4df523b3ef83838360405161130593929190612104565b60405180910390a1505050565b6040518060400160405280821515815260200160011515815250601160008201518160000160006101000a81548160ff02191690831515021790555060208201518160000160016101000a81548160ff02191690831515021790555090505050565b600081905061138281611a14565b81600860000160008282546113979190612208565b925050819055505050565b60008190506113b18382611a3b565b81600560008573ffffffffffffffffffffffffffffffffffffffff1673ffffffffffffffffffffffffffffffffffffffff16815260200190815260200160002060000160008282546114039190612208565b92505081905550505050565b600081905061141f848483611add565b81600460008673ffffffffffffffffffffffffffffffffffffffff1673ffffffffffffffffffffffffffffffffffffffff16815260200190815260200160002060008573ffffffffffffffffffffffffffffffffffffffff1673ffffffffffffffffffffffffffffffffffffffff16815260200190815260200160002060000160008282546114ae9190612208565b9250508190555050505050565b6040518060400160405280821515815260200160011515815250600a60008473ffffffffffffffffffffffffffffffffffffffff1673ffffffffffffffffffffffffffffffffffffffff16815260200190815260200160002060008201518160000160006101000a81548160ff02191690831515021790555060208201518160000160016101000a81548160ff0219169083151502179055509050505050565b6040518060400160405280821515815260200160011515815250600a60008473ffffffffffffffffffffffffffffffffffffffff1673ffffffffffffffffffffffffffffffffffffffff16815260200190815260200160002060008201518160000160006101000a81548160ff02191690831515021790555060208201518160000160016101000a81548160ff0219169083151502179055509050505050565b6040518060400160405280821515815260200160011515815250601160008201518160000160006101000a81548160ff02191690831515021790555060208201518160000160016101000a81548160ff02191690831515021790555090505050565b600081905061166c8382611c03565b81600260008573ffffffffffffffffffffffffffffffffffffffff1673ffffffffffffffffffffffffffffffffffffffff16815260200190815260200160002060000160008282546116be9190612208565b92505081905550505050565b60008190506116d881611cae565b81600e60000160008282546116ed9190612208565b925050819055505050565b60008190506117078382611cde565b81600160008573ffffffffffffffffffffffffffffffffffffffff1673ffffffffffffffffffffffffffffffffffffffff16815260200190815260200160002060000160008282546117599190612208565b92505081905550505050565b60008190506117748382611d89565b816000808573ffffffffffffffffffffffffffffffffffffffff1673ffffffffffffffffffffffffffffffffffffffff16815260200190815260200160002060000160008282546117c59190612208565b92505081905550505050565b60008190506000611861601060008773ffffffffffffffffffffffffffffffffffffffff1673ffffffffffffffffffffffffffffffffffffffff16815260200190815260200160002060008673ffffffffffffffffffffffffffffffffffffffff1673ffffffffffffffffffffffffffffffffffffffff1681526020019081526020016000206000015483611e2b565b905080601060008773ffffffffffffffffffffffffffffffffffffffff1673ffffffffffffffffffffffffffffffffffffffff16815260200190815260200160002060008673ffffffffffffffffffffffffffffffffffffffff1673ffffffffffffffffffffffffffffffffffffffff168152602001908152602001600020600001819055505050505050565b6000816118fa90612268565b90506000611987601060008773ffffffffffffffffffffffffffffffffffffffff1673ffffffffffffffffffffffffffffffffffffffff16815260200190815260200160002060008673ffffffffffffffffffffffffffffffffffffffff1673ffffffffffffffffffffffffffffffffffffffff1681526020019081526020016000206000015483611e2b565b905080601060008773ffffffffffffffffffffffffffffffffffffffff1673ffffffffffffffffffffffffffffffffffffffff16815260200190815260200160002060008673ffffffffffffffffffffffffffffffffffffffff1673ffffffffffffffffffffffffffffffffffffffff168152602001908152602001600020600001819055505050505050565b60008190506000611a2a60066000015483611e2b565b905080600660000181905550505050565b60008190506000611a8e600d60008673ffffffffffffffffffffffffffffffffffffffff1673ffffffffffffffffffffffffffffffffffffffff1681526020019081526020016000206000015483611e2b565b905080600d60008673ffffffffffffffffffffffffffffffffffffffff1673ffffffffffffffffffffffffffffffffffffffff1681526020019081526020016000206000018190555050505050565b600081611ae990612268565b90506000611b76601060008773ffffffffffffffffffffffffffffffffffffffff1673ffffffffffffffffffffffffffffffffffffffff16815260200190815260200160002060008673ffffffffffffffffffffffffffffffffffffffff1673ffffffffffffffffffffffffffffffffffffffff1681526020019081526020016000206000015483611e2b565b905080601060008773ffffffffffffffffffffffffffffffffffffffff1673ffffffffffffffffffffffffffffffffffffffff16815260200190815260200160002060008673ffffffffffffffffffffffffffffffffffffffff1673ffffffffffffffffffffffffffffffffffffffff168152602001908152602001600020600001819055505050505050565b600081611c0f90612268565b90506000611c5f600d60008673ffffffffffffffffffffffffffffffffffffffff1673ffffffffffffffffffffffffffffffffffffffff1681526020019081526020016000206000015483611e2b565b905080600d60008673ffffffffffffffffffffffffffffffffffffffff1673ffffffffffffffffffffffffffffffffffffffff1681526020019081526020016000206000018190555050505050565b600081611cba90612268565b90506000611ccd60066000015483611e2b565b905080600660000181905550505050565b600081611cea90612268565b90506000611d3a600d60008673ffffffffffffffffffffffffffffffffffffffff1673ffffffffffffffffffffffffffffffffffffffff1681526020019081526020016000206000015483611e2b565b905080600d60008673ffffffffffffffffffffffffffffffffffffffff1673ffffffffffffffffffffffffffffffffffffffff1681526020019081526020016000206000018190555050505050565b60008190506000611ddc600d60008673ffffffffffffffffffffffffffffffffffffffff1673ffffffffffffffffffffffffffffffffffffffff1681526020019081526020016000206000015483611e2b565b905080600d60008673ffffffffffffffffffffffffffffffffffffffff1673ffffffffffffffffffffffffffffffffffffffff1681526020019081526020016000206000018190555050505050565b60008083905060008382611e3f91906122b1565b9050600081905080935050505092915050565b600080fd5b600073ffffffffffffffffffffffffffffffffffffffff82169050919050565b6000611e8282611e57565b9050919050565b611e9281611e77565b8114611e9d57600080fd5b50565b600081359050611eaf81611e89565b92915050565b6000819050919050565b611ec881611eb5565b8114611ed357600080fd5b50565b600081359050611ee581611ebf565b92915050565b60008060408385031215611f0257611f01611e52565b5b6000611f1085828601611ea0565b9250506020611f2185828601611ed6565b9150509250929050565b60008060408385031215611f4257611f41611e52565b5b6000611f5085828601611ea0565b9250506020611f6185828601611ea0565b9150509250929050565b611f7481611eb5565b82525050565b6000602082019050611f8f6000830184611f6b565b92915050565b600080600060608486031215611fae57611fad611e52565b5b6000611fbc86828701611ea0565b9350506020611fcd86828701611ea0565b9250506040611fde86828701611ed6565b9150509250925092565b600060208284031215611ffe57611ffd611e52565b5b600061200c84828501611ea0565b91505092915050565b600082825260208201905092915050565b7f52756c6520636f6e646974696f6e206661696c65640000000000000000000000600082015250565b600061205c601583612015565b915061206782612026565b602082019050919050565b6000602082019050818103600083015261208b8161204f565b9050919050565b7f4e487b7100000000000000000000000000000000000000000000000000000000600052601160045260246000fd5b60006120cc82611eb5565b91506120d783611eb5565b9250828210156120ea576120e9612092565b5b828203905092915050565b6120fe81611e77565b82525050565b600060608201905061211960008301866120f5565b61212660208301856120f5565b6121336040830184611f6b565b949350505050565b600060808201905061215060008301876120f5565b61215d60208301866120f5565b61216a60408301856120f5565b6121776060830184611f6b565b95945050505050565b60008115159050919050565b61219581612180565b82525050565b60006020820190506121b0600083018461218c565b92915050565b60006040820190506121cb60008301856120f5565b6121d86020830184611f6b565b9392505050565b60006040820190506121f460008301856120f5565b612201602083018461218c565b9392505050565b600061221382611eb5565b915061221e83611eb5565b9250827fffffffffffffffffffffffffffffffffffffffffffffffffffffffffffffffff0382111561225357612252612092565b5b828201905092915050565b6000819050919050565b60006122738261225e565b91507f80000000000000000000000000000000000000000000000000000000000000008214156122a6576122a5612092565b5b816000039050919050565b60006122bc8261225e565b91506122c78361225e565b9250817f7fffffffffffffffffffffffffffffffffffffffffffffffffffffffffffffff0383136000831215161561230257612301612092565b5b817f800000000000000000000000000000000000000000000000000000000000000003831260008312161561233a57612339612092565b5b82820190509291505056fea2646970667358221220586f1d37a4ac32f9fbc3c382983e664d7188b769aa6093d78b915723eecbda1464736f6c634300080c0033",
  "immutableReferences": {},
  "source": "contract Matic {\n  struct TotalInTuple {\n    uint n;\n    bool _valid;\n  }\n  struct TotalOutTuple {\n    uint n;\n    bool _valid;\n  }\n  struct OwnerTuple {\n    address p;\n    bool _valid;\n  }\n  struct DecreaseAllowanceTotalTuple {\n    uint m;\n    bool _valid;\n  }\n  struct TotalMintTuple {\n    uint n;\n    bool _valid;\n  }\n  struct TotalSupplyTuple {\n    uint n;\n    bool _valid;\n  }\n  struct AllMintTuple {\n    uint n;\n    bool _valid;\n  }\n  struct IsPauserTuple {\n    bool b;\n    bool _valid;\n  }\n  struct AllowanceTotalTuple {\n    uint m;\n    bool _valid;\n  }\n  struct SpentTotalTuple {\n    uint m;\n    bool _valid;\n  }\n  struct TotalBurnTuple {\n    uint n;\n    bool _valid;\n  }\n  struct BalanceOfTuple {\n    uint n;\n    bool _valid;\n  }\n  struct AllBurnTuple {\n    uint n;\n    bool _valid;\n  }\n  struct AllowanceTuple {\n    uint n;\n    bool _valid;\n  }\n  struct PausedTuple {\n    bool b;\n    bool _valid;\n  }\n  mapping(address=>TotalInTuple) totalIn;\n  mapping(address=>TotalOutTuple) totalOut;\n  mapping(address=>TotalBurnTuple) totalBurn;\n  OwnerTuple owner;\n  mapping(address=>mapping(address=>DecreaseAllowanceTotalTuple)) decreaseAllowanceTotal;\n  mapping(address=>TotalMintTuple) totalMint;\n  TotalSupplyTuple totalSupply;\n  AllMintTuple allMint;\n  mapping(address=>IsPauserTuple) isPauser;\n  mapping(address=>mapping(address=>AllowanceTotalTuple)) allowanceTotal;\n  mapping(address=>mapping(address=>SpentTotalTuple)) spentTotal;\n  mapping(address=>BalanceOfTuple) balanceOf;\n  AllBurnTuple allBurn;\n  mapping(address=>mapping(address=>AllowanceTuple)) allowance;\n  PausedTuple paused;\n  event TransferFrom(address from,address to,address spender,uint amount);\n  event Burn(address p,uint amount);\n  event RenouncePauser(address p,bool b);\n  event Mint(address p,uint amount);\n  event Unpause(bool b);\n  event DecreaseAllowance(address p,address s,uint n);\n  event AddPauser(address p,bool b);\n  event Transfer(address from,address to,uint amount);\n  event IncreaseAllowance(address p,address s,uint n);\n  event Pause(bool b);\n  constructor(uint n) public {\n    updateTotalMintOnInsertConstructor_r23(n);\n    updateBalanceOfOnInsertConstructor_r21(n);\n    updateOwnerOnInsertConstructor_r8();\n    updateTotalSupplyOnInsertConstructor_r31(n);\n    updatePausedOnInsertConstructor_r28();\n    updateIsPauserOnInsertConstructor_r6();\n    updateAllMintOnInsertConstructor_r15(n);\n    updateTotalBalancesOnInsertConstructor_r36(n);\n  }\n  function burn(address p,uint amount) public    {\n      bool r11 = updateBurnOnInsertRecv_burn_r11(p,amount);\n      if(r11==false) {\n        revert(\"Rule condition failed\");\n      }\n  }\n  function increaseApproval(address p,uint n) public    {\n      bool r13 = updateIncreaseAllowanceOnInsertRecv_increaseApproval_r13(p,n);\n      if(r13==false) {\n        revert(\"Rule condition failed\");\n      }\n  }\n  function approve(address s,uint n) public    {\n      bool r35 = updateIncreaseAllowanceOnInsertRecv_approve_r35(s,n);\n      if(r35==false) {\n        revert(\"Rule condition failed\");\n      }\n  }\n  function getTotalSupply() public view  returns (uint) {\n      uint n = totalSupply.n;\n      return n;\n  }\n  function getBalanceOf(address p) public view  returns (uint) {\n      uint n = balanceOf[p].n;\n      return n;\n  }\n  function transferFrom(address from,address to,uint amount) public    {\n      bool r2 = updateTransferFromOnInsertRecv_transferFrom_r2(from,to,amount);\n      if(r2==false) {\n        revert(\"Rule condition failed\");\n      }\n  }\n  function renouncePauser() public    {\n      bool r3 = updateRenouncePauserOnInsertRecv_renouncePauser_r3();\n      if(r3==false) {\n        revert(\"Rule condition failed\");\n      }\n  }\n  function pause() public    {\n      bool r18 = updatePauseOnInsertRecv_pause_r18();\n      if(r18==false) {\n        revert(\"Rule condition failed\");\n      }\n  }\n  function addPauser(address p) public    {\n      bool r25 = updateAddPauserOnInsertRecv_addPauser_r25(p);\n      if(r25==false) {\n        revert(\"Rule condition failed\");\n      }\n  }\n  function decreaseApproval(address p,uint n) public    {\n      bool r20 = updateDecreaseAllowanceOnInsertRecv_decreaseApproval_r20(p,n);\n      if(r20==false) {\n        revert(\"Rule condition failed\");\n      }\n  }\n  function getAllowance(address p,address s) public view  returns (uint) {\n      uint n = allowance[p][s].n;\n      return n;\n  }\n  function transfer(address to,uint amount) public    {\n      bool r14 = updateTransferOnInsertRecv_transfer_r14(to,amount);\n      if(r14==false) {\n        revert(\"Rule condition failed\");\n      }\n  }\n  function mint(address p,uint amount) public    {\n      bool r4 = updateMintOnInsertRecv_mint_r4(p,amount);\n      if(r4==false) {\n        revert(\"Rule condition failed\");\n      }\n  }\n  function unpause() public    {\n      bool r5 = updateUnpauseOnInsertRecv_unpause_r5();\n      if(r5==false) {\n        revert(\"Rule condition failed\");\n      }\n  }\n  function updatePausedOnInsertConstructor_r28() private    {\n      paused = PausedTuple(false,true);\n  }\n  function updateOwnerOnInsertConstructor_r8() private    {\n      address s = msg.sender;\n      owner = OwnerTuple(s,true);\n  }\n  function updateUnpauseOnInsertRecv_unpause_r5() private   returns (bool) {\n      if(true==paused.b) {\n        address s = msg.sender;\n        if(true==isPauser[s].b) {\n          updatePausedOnInsertUnpause_r9(bool(false));\n          emit Unpause(false);\n          return true;\n        }\n      }\n      return false;\n  }\n  function updateAllowanceTotalOnInsertIncreaseAllowance_r37(address o,address s,uint n) private    {\n      int delta0 = int(n);\n      updateAllowanceOnIncrementAllowanceTotal_r32(o,s,delta0);\n      allowanceTotal[o][s].m += n;\n  }\n  function updateDecreaseAllowanceOnInsertRecv_decreaseApproval_r20(address s,uint n) private   returns (bool) {\n      address o = msg.sender;\n      uint m = allowance[o][s].n;\n      if(m>=n) {\n        updateDecreaseAllowanceTotalOnInsertDecreaseAllowance_r7(o,s,n);\n        emit DecreaseAllowance(o,s,n);\n        return true;\n      }\n      return false;\n  }\n  function updateTotalMintOnInsertMint_r17(address p,uint n) private    {\n      int delta0 = int(n);\n      updateBalanceOfOnIncrementTotalMint_r29(p,delta0);\n      totalMint[p].n += n;\n  }\n  function updateBurnOnInsertRecv_burn_r11(address p,uint n) private   returns (bool) {\n      address s = msg.sender;\n      if(false==paused.b) {\n        if(s==owner.p) {\n          uint m = balanceOf[p].n;\n          if(p!=address(0) && n<=m) {\n            updateTotalBurnOnInsertBurn_r16(p,n);\n            updateAllBurnOnInsertBurn_r33(n);\n            emit Burn(p,n);\n            return true;\n          }\n        }\n      }\n      return false;\n  }\n  function updateTotalInOnInsertTransfer_r10(address p,uint n) private    {\n      int delta0 = int(n);\n      updateBalanceOfOnIncrementTotalIn_r29(p,delta0);\n      totalIn[p].n += n;\n  }\n  function updateTotalBalancesOnInsertConstructor_r36(uint n) private    {\n      // Empty()\n  }\n  function updateSpentTotalOnInsertTransferFrom_r30(address o,address s,uint n) private    {\n      int delta0 = int(n);\n      updateAllowanceOnIncrementSpentTotal_r32(o,s,delta0);\n      spentTotal[o][s].m += n;\n  }\n  function updateTransferOnInsertRecv_transfer_r14(address r,uint n) private   returns (bool) {\n      if(false==paused.b) {\n        address s = msg.sender;\n        uint m = balanceOf[s].n;\n        if(n<=m) {\n          updateTotalOutOnInsertTransfer_r26(s,n);\n          updateTotalInOnInsertTransfer_r10(r,n);\n          emit Transfer(s,r,n);\n          return true;\n        }\n      }\n      return false;\n  }\n  function updateIncreaseAllowanceOnInsertRecv_approve_r35(address s,uint n) private   returns (bool) {\n      address o = msg.sender;\n      uint m = allowance[o][s].n;\n      uint d = n-m;\n      updateAllowanceTotalOnInsertIncreaseAllowance_r37(o,s,d);\n      emit IncreaseAllowance(o,s,d);\n      return true;\n      return false;\n  }\n  function updatePauseOnInsertRecv_pause_r18() private   returns (bool) {\n      if(false==paused.b) {\n        address s = msg.sender;\n        if(true==isPauser[s].b) {\n          updatePausedOnInsertPause_r1(bool(true));\n          emit Pause(true);\n          return true;\n        }\n      }\n      return false;\n  }\n  function updateBalanceOfOnIncrementTotalBurn_r29(address p,int m) private    {\n      int _delta = int(-m);\n      uint newValue = updateuintByint(balanceOf[p].n,_delta);\n      balanceOf[p].n = newValue;\n  }\n  function updatePausedOnInsertPause_r1(bool b) private    {\n      paused = PausedTuple(b,true);\n  }\n  function updateTotalMintOnInsertConstructor_r23(uint n) private    {\n      address s = msg.sender;\n      totalMint[s] = TotalMintTuple(n,true);\n  }\n  function updateTransferFromOnInsertRecv_transferFrom_r2(address o,address r,uint n) private   returns (bool) {\n      address s = msg.sender;\n      if(false==paused.b) {\n        uint m = balanceOf[o].n;\n        uint k = allowance[o][s].n;\n        if(m>=n && k>=n) {\n          updateSpentTotalOnInsertTransferFrom_r30(o,s,n);\n          updateTransferOnInsertTransferFrom_r0(o,r,n);\n          emit TransferFrom(o,r,s,n);\n          return true;\n        }\n      }\n      return false;\n  }\n  function updateAllowanceOnIncrementDecreaseAllowanceTotal_r32(address o,address s,int d) private    {\n      int _delta = int(-d);\n      uint newValue = updateuintByint(allowance[o][s].n,_delta);\n      allowance[o][s].n = newValue;\n  }\n  function updateTotalOutOnInsertTransfer_r26(address p,uint n) private    {\n      int delta0 = int(n);\n      updateBalanceOfOnIncrementTotalOut_r29(p,delta0);\n      totalOut[p].n += n;\n  }\n  function updateAddPauserOnInsertRecv_addPauser_r25(address p) private   returns (bool) {\n      address s = msg.sender;\n      if(true==isPauser[s].b) {\n        updateIsPauserOnInsertAddPauser_r24(p,bool(true));\n        emit AddPauser(p,true);\n        return true;\n      }\n      return false;\n  }\n  function updateAllowanceOnIncrementAllowanceTotal_r32(address o,address s,int m) private    {\n      int _delta = int(m);\n      uint newValue = updateuintByint(allowance[o][s].n,_delta);\n      allowance[o][s].n = newValue;\n  }\n  function updateAllBurnOnInsertBurn_r33(uint n) private    {\n      int delta0 = int(n);\n      updateTotalSupplyOnIncrementAllBurn_r19(delta0);\n      allBurn.n += n;\n  }\n  function updateDecreaseAllowanceTotalOnInsertDecreaseAllowance_r7(address o,address s,uint n) private    {\n      int delta0 = int(n);\n      updateAllowanceOnIncrementDecreaseAllowanceTotal_r32(o,s,delta0);\n      decreaseAllowanceTotal[o][s].m += n;\n  }\n  function updateIsPauserOnInsertAddPauser_r24(address p,bool b) private    {\n      isPauser[p] = IsPauserTuple(b,true);\n  }\n  function updateBalanceOfOnIncrementTotalOut_r29(address p,int o) private    {\n      int _delta = int(-o);\n      uint newValue = updateuintByint(balanceOf[p].n,_delta);\n      balanceOf[p].n = newValue;\n  }\n  function updateTotalSupplyOnInsertConstructor_r31(uint n) private    {\n      totalSupply = TotalSupplyTuple(n,true);\n  }\n  function updateBalanceOfOnIncrementTotalIn_r29(address p,int i) private    {\n      int _delta = int(i);\n      uint newValue = updateuintByint(balanceOf[p].n,_delta);\n      balanceOf[p].n = newValue;\n  }\n  function updateIsPauserOnInsertRenouncePauser_r34(address p,bool b) private    {\n      isPauser[p] = IsPauserTuple(b,true);\n  }\n  function updateTotalBurnOnInsertBurn_r16(address p,uint n) private    {\n      int delta0 = int(n);\n      updateBalanceOfOnIncrementTotalBurn_r29(p,delta0);\n      totalBurn[p].n += n;\n  }\n  function updateMintOnInsertRecv_mint_r4(address p,uint n) private   returns (bool) {\n      if(false==paused.b) {\n        address s = owner.p;\n        if(s==msg.sender) {\n          if(p!=address(0)) {\n            updateAllMintOnInsertMint_r12(n);\n            updateTotalMintOnInsertMint_r17(p,n);\n            emit Mint(p,n);\n            return true;\n          }\n        }\n      }\n      return false;\n  }\n  function updateBalanceOfOnInsertConstructor_r21(uint n) private    {\n      address s = msg.sender;\n      balanceOf[s] = BalanceOfTuple(n,true);\n  }\n  function updateuintByint(uint x,int delta) private   returns (uint) {\n      int convertedX = int(x);\n      int value = convertedX+delta;\n      uint convertedValue = uint(value);\n      return convertedValue;\n  }\n  function updateIncreaseAllowanceOnInsertRecv_increaseApproval_r13(address s,uint n) private   returns (bool) {\n      address o = msg.sender;\n      updateAllowanceTotalOnInsertIncreaseAllowance_r37(o,s,n);\n      emit IncreaseAllowance(o,s,n);\n      return true;\n      return false;\n  }\n  function updateRenouncePauserOnInsertRecv_renouncePauser_r3() private   returns (bool) {\n      address s = msg.sender;\n      if(true==isPauser[s].b) {\n        updateIsPauserOnInsertRenouncePauser_r34(s,bool(false));\n        emit RenouncePauser(s,false);\n        return true;\n      }\n      return false;\n  }\n  function updateTransferOnInsertTransferFrom_r0(address o,address r,uint n) private    {\n      updateTotalOutOnInsertTransfer_r26(o,n);\n      updateTotalInOnInsertTransfer_r10(r,n);\n      emit Transfer(o,r,n);\n  }\n  function updateAllowanceOnIncrementSpentTotal_r32(address o,address s,int l) private    {\n      int _delta = int(-l);\n      uint newValue = updateuintByint(allowance[o][s].n,_delta);\n      allowance[o][s].n = newValue;\n  }\n  function updateAllMintOnInsertConstructor_r15(uint n) private    {\n      allMint = AllMintTuple(n,true);\n  }\n  function updateTotalSupplyOnIncrementAllBurn_r19(int b) private    {\n      int _delta = int(-b);\n      uint newValue = updateuintByint(totalSupply.n,_delta);\n      totalSupply.n = newValue;\n  }\n  function updateAllMintOnInsertMint_r12(uint n) private    {\n      int delta0 = int(n);\n      updateTotalSupplyOnIncrementAllMint_r19(delta0);\n      allMint.n += n;\n  }\n  function updateTotalSupplyOnIncrementAllMint_r19(int m) private    {\n      int _delta = int(m);\n      uint newValue = updateuintByint(totalSupply.n,_delta);\n      totalSupply.n = newValue;\n  }\n  function updateBalanceOfOnIncrementTotalMint_r29(address p,int n) private    {\n      int _delta = int(n);\n      uint newValue = updateuintByint(balanceOf[p].n,_delta);\n      balanceOf[p].n = newValue;\n  }\n  function updatePausedOnInsertUnpause_r9(bool b) private    {\n      paused = PausedTuple(b,true);\n  }\n  function updateIsPauserOnInsertConstructor_r6() private    {\n      address s = msg.sender;\n      isPauser[s] = IsPauserTuple(true,true);\n  }\n}",
  "sourcePath": "/home/lan/gasOpt/declarative-smart-contracts/solidity/full/matic/matic1.sol",
  "compiler": {
    "name": "solc",
    "version": "0.8.12+commit.f00d7308.Emscripten.clang"
  },
  "schemaVersion": "3.4.14",
  "updatedAt": "2023-12-15T21:27:25.764Z",
  "devdoc": {
    "kind": "dev",
    "methods": {},
    "version": 1
  },
  "userdoc": {
    "kind": "user",
    "methods": {},
    "version": 1
  }
}