{
  "contractName": "Nft",
  "abi": [
    {
      "inputs": [],
      "stateMutability": "nonpayable",
      "type": "constructor"
    },
    {
      "anonymous": false,
      "inputs": [
        {
          "indexed": false,
          "internalType": "address",
          "name": "o",
          "type": "address"
        },
        {
          "indexed": false,
          "internalType": "uint256",
          "name": "tokenId",
          "type": "uint256"
        },
        {
          "indexed": false,
          "internalType": "address",
          "name": "p",
          "type": "address"
        },
        {
          "indexed": false,
          "internalType": "bool",
          "name": "b",
          "type": "bool"
        }
      ],
      "name": "Approval",
      "type": "event"
    },
    {
      "anonymous": false,
      "inputs": [
        {
          "indexed": false,
          "internalType": "address",
          "name": "owner",
          "type": "address"
        },
        {
          "indexed": false,
          "internalType": "address",
          "name": "operator",
          "type": "address"
        },
        {
          "indexed": false,
          "internalType": "bool",
          "name": "b",
          "type": "bool"
        }
      ],
      "name": "IsApprovedForAll",
      "type": "event"
    },
    {
      "anonymous": false,
      "inputs": [
        {
          "indexed": false,
          "internalType": "uint256",
          "name": "tokenId",
          "type": "uint256"
        },
        {
          "indexed": false,
          "internalType": "address",
          "name": "from",
          "type": "address"
        },
        {
          "indexed": false,
          "internalType": "address",
          "name": "to",
          "type": "address"
        },
        {
          "indexed": false,
          "internalType": "uint256",
          "name": "time",
          "type": "uint256"
        }
      ],
      "name": "Transfer",
      "type": "event"
    },
    {
      "inputs": [
        {
          "internalType": "uint256",
          "name": "tokenId",
          "type": "uint256"
        },
        {
          "internalType": "address",
          "name": "p",
          "type": "address"
        }
      ],
      "name": "getApproved",
      "outputs": [
        {
          "internalType": "bool",
          "name": "",
          "type": "bool"
        }
      ],
      "stateMutability": "view",
      "type": "function"
    },
    {
      "inputs": [
        {
          "internalType": "uint256",
          "name": "tokenId",
          "type": "uint256"
        }
      ],
      "name": "getOwnerOf",
      "outputs": [
        {
          "internalType": "address",
          "name": "",
          "type": "address"
        }
      ],
      "stateMutability": "view",
      "type": "function"
    },
    {
      "inputs": [
        {
          "internalType": "address",
          "name": "owner",
          "type": "address"
        },
        {
          "internalType": "address",
          "name": "operator",
          "type": "address"
        }
      ],
      "name": "getIsApprovedForAll",
      "outputs": [
        {
          "internalType": "bool",
          "name": "",
          "type": "bool"
        }
      ],
      "stateMutability": "view",
      "type": "function"
    },
    {
      "inputs": [
        {
          "internalType": "address",
          "name": "from",
          "type": "address"
        },
        {
          "internalType": "address",
          "name": "to",
          "type": "address"
        },
        {
          "internalType": "uint256",
          "name": "tokenId",
          "type": "uint256"
        }
      ],
      "name": "transferFrom",
      "outputs": [],
      "stateMutability": "nonpayable",
      "type": "function"
    },
    {
      "inputs": [
        {
          "internalType": "address",
          "name": "to",
          "type": "address"
        },
        {
          "internalType": "uint256",
          "name": "tokenId",
          "type": "uint256"
        }
      ],
      "name": "transfer",
      "outputs": [],
      "stateMutability": "nonpayable",
      "type": "function"
    },
    {
      "inputs": [
        {
          "internalType": "address",
          "name": "p",
          "type": "address"
        }
      ],
      "name": "getBalanceOf",
      "outputs": [
        {
          "internalType": "uint256",
          "name": "",
          "type": "uint256"
        }
      ],
      "stateMutability": "view",
      "type": "function"
    },
    {
      "inputs": [
        {
          "internalType": "uint256",
          "name": "tokenId",
          "type": "uint256"
        },
        {
          "internalType": "address",
          "name": "to",
          "type": "address"
        }
      ],
      "name": "mint",
      "outputs": [],
      "stateMutability": "nonpayable",
      "type": "function"
    },
    {
      "inputs": [
        {
          "internalType": "uint256",
          "name": "tokenId",
          "type": "uint256"
        }
      ],
      "name": "getExists",
      "outputs": [
        {
          "internalType": "bool",
          "name": "",
          "type": "bool"
        }
      ],
      "stateMutability": "view",
      "type": "function"
    },
    {
      "inputs": [
        {
          "internalType": "address",
          "name": "operator",
          "type": "address"
        },
        {
          "internalType": "bool",
          "name": "_approved",
          "type": "bool"
        }
      ],
      "name": "setApprovalForAll",
      "outputs": [],
      "stateMutability": "nonpayable",
      "type": "function"
    },
    {
      "inputs": [
        {
          "internalType": "uint256",
          "name": "tokenId",
          "type": "uint256"
        }
      ],
      "name": "burn",
      "outputs": [],
      "stateMutability": "nonpayable",
      "type": "function"
    },
    {
      "inputs": [
        {
          "internalType": "uint256",
          "name": "tokenId",
          "type": "uint256"
        },
        {
          "internalType": "address",
          "name": "p",
          "type": "address"
        },
        {
          "internalType": "bool",
          "name": "b",
          "type": "bool"
        }
      ],
      "name": "setApproval",
      "outputs": [],
      "stateMutability": "nonpayable",
      "type": "function"
    }
  ],
  "bytecode": "0x608060405234801561001057600080fd5b5061001f61002460201b60201c565b6100c6565b600033905060405180604001604052808273ffffffffffffffffffffffffffffffffffffffff16815260200160011515815250600160008201518160000160006101000a81548173ffffffffffffffffffffffffffffffffffffffff021916908373ffffffffffffffffffffffffffffffffffffffff16021790555060208201518160000160146101000a81548160ff02191690831515021790555090505050565b6125c0806100d56000396000f3fe608060405234801561001057600080fd5b50600436106100a95760003560e01c80639b96eece116100715780639b96eece14610162578063a22cb46514610192578063a9059cbb146101ae578063d2638bb9146101ca578063dc96e2aa146101fa578063dd10f33814610216576100a9565b806323b872dd146100ae57806342966c68146100ca57806376af5bf6146100e6578063836387101461011657806394bf804d14610146575b600080fd5b6100c860048036038101906100c391906120dd565b610246565b005b6100e460048036038101906100df9190612130565b6102c3565b005b61010060048036038101906100fb9190612130565b61031c565b60405161010d9190612178565b60405180910390f35b610130600480360381019061012b9190612130565b61034e565b60405161013d91906121a2565b60405180910390f35b610160600480360381019061015b91906121bd565b610392565b005b61017c600480360381019061017791906121fd565b6103ed565b6040516101899190612239565b60405180910390f35b6101ac60048036038101906101a79190612280565b61043e565b005b6101c860048036038101906101c391906122c0565b610499565b005b6101e460048036038101906101df9190612300565b6104f4565b6040516101f19190612178565b60405180910390f35b610214600480360381019061020f9190612340565b610590565b005b610230600480360381019061022b91906121bd565b6105ed565b60405161023d9190612178565b60405180910390f35b600061025384848461065d565b90506000610262858585610765565b90506000151582151514801561027c575060001515811515145b156102bc576040517f08c379a00000000000000000000000000000000000000000000000000000000081526004016102b3906123f0565b60405180910390fd5b5050505050565b60006102ce8261090a565b9050600015158115151415610318576040517f08c379a000000000000000000000000000000000000000000000000000000000815260040161030f906123f0565b60405180910390fd5b5050565b6000806005600084815260200190815260200160002060000160009054906101000a900460ff16905080915050919050565b60008060008084815260200190815260200160002060000160009054906101000a900473ffffffffffffffffffffffffffffffffffffffff16905080915050919050565b600061039e8383610a3c565b90506000151581151514156103e8576040517f08c379a00000000000000000000000000000000000000000000000000000000081526004016103df906123f0565b60405180910390fd5b505050565b600080600760008473ffffffffffffffffffffffffffffffffffffffff1673ffffffffffffffffffffffffffffffffffffffff16815260200190815260200160002060000154905080915050919050565b600061044a8383610b69565b9050600015158115151415610494576040517f08c379a000000000000000000000000000000000000000000000000000000000815260040161048b906123f0565b60405180910390fd5b505050565b60006104a58383610c8e565b90506000151581151514156104ef576040517f08c379a00000000000000000000000000000000000000000000000000000000081526004016104e6906123f0565b60405180910390fd5b505050565b600080600660008573ffffffffffffffffffffffffffffffffffffffff1673ffffffffffffffffffffffffffffffffffffffff16815260200190815260200160002060008473ffffffffffffffffffffffffffffffffffffffff1673ffffffffffffffffffffffffffffffffffffffff16815260200190815260200160002060000160009054906101000a900460ff1690508091505092915050565b600061059d848484610d98565b90506000151581151514156105e7576040517f08c379a00000000000000000000000000000000000000000000000000000000081526004016105de906123f0565b60405180910390fd5b50505050565b6000806002600085815260200190815260200160002060008473ffffffffffffffffffffffffffffffffffffffff1673ffffffffffffffffffffffffffffffffffffffff16815260200190815260200160002060000160009054906101000a900460ff1690508091505092915050565b6000804290506002600084815260200190815260200160002060008673ffffffffffffffffffffffffffffffffffffffff1673ffffffffffffffffffffffffffffffffffffffff16815260200190815260200160002060000160009054906101000a900460ff16151560011515141561075857600073ffffffffffffffffffffffffffffffffffffffff168473ffffffffffffffffffffffffffffffffffffffff16146107575761071083868684610f77565b7ff2dbd98d79f00f7aff338b824931d607bfcc63d47307162470f25a055102d3b0838686846040516107459493929190612410565b60405180910390a1600191505061075e565b5b60009150505b9392505050565b600080339050600042905060008085815260200190815260200160002060000160009054906101000a900473ffffffffffffffffffffffffffffffffffffffff1673ffffffffffffffffffffffffffffffffffffffff168673ffffffffffffffffffffffffffffffffffffffff1614156108fc57600660008773ffffffffffffffffffffffffffffffffffffffff1673ffffffffffffffffffffffffffffffffffffffff16815260200190815260200160002060008373ffffffffffffffffffffffffffffffffffffffff1673ffffffffffffffffffffffffffffffffffffffff16815260200190815260200160002060000160009054906101000a900460ff1615156001151514156108fb57600073ffffffffffffffffffffffffffffffffffffffff168573ffffffffffffffffffffffffffffffffffffffff16146108fa576108b284878784610f77565b7ff2dbd98d79f00f7aff338b824931d607bfcc63d47307162470f25a055102d3b0848787846040516108e79493929190612410565b60405180910390a1600192505050610903565b5b5b6000925050505b9392505050565b6000803390506000429050600160000160009054906101000a900473ffffffffffffffffffffffffffffffffffffffff1673ffffffffffffffffffffffffffffffffffffffff168273ffffffffffffffffffffffffffffffffffffffff161415610a30576005600085815260200190815260200160002060000160009054906101000a900460ff161515600115151415610a2f57600080600086815260200190815260200160002060000160009054906101000a900473ffffffffffffffffffffffffffffffffffffffff1690506109e58582600085610f77565b7ff2dbd98d79f00f7aff338b824931d607bfcc63d47307162470f25a055102d3b08582600085604051610a1b9493929190612410565b60405180910390a160019350505050610a37565b5b6000925050505b919050565b6000803390506000429050600160000160009054906101000a900473ffffffffffffffffffffffffffffffffffffffff1673ffffffffffffffffffffffffffffffffffffffff168273ffffffffffffffffffffffffffffffffffffffff161415610b5c576005600086815260200190815260200160002060000160009054906101000a900460ff161515600015151415610b5b57600073ffffffffffffffffffffffffffffffffffffffff168473ffffffffffffffffffffffffffffffffffffffff1614610b5a57610b118560008684610f77565b7ff2dbd98d79f00f7aff338b824931d607bfcc63d47307162470f25a055102d3b08560008684604051610b479493929190612410565b60405180910390a1600192505050610b63565b5b5b6000925050505b92915050565b6000803390506040518060400160405280841515815260200160011515815250600660008373ffffffffffffffffffffffffffffffffffffffff1673ffffffffffffffffffffffffffffffffffffffff16815260200190815260200160002060008673ffffffffffffffffffffffffffffffffffffffff1673ffffffffffffffffffffffffffffffffffffffff16815260200190815260200160002060008201518160000160006101000a81548160ff02191690831515021790555060208201518160000160016101000a81548160ff0219169083151502179055509050507fb7ef5c2dffbdf040aaf35b0bcaa51a839d9b1447689087c3ac77622dcab0b19b818585604051610c7b93929190612455565b60405180910390a1600191505092915050565b600080429050600033905060008085815260200190815260200160002060000160009054906101000a900473ffffffffffffffffffffffffffffffffffffffff1673ffffffffffffffffffffffffffffffffffffffff168173ffffffffffffffffffffffffffffffffffffffff161415610d8b57600073ffffffffffffffffffffffffffffffffffffffff168573ffffffffffffffffffffffffffffffffffffffff1614610d8a57610d4284828785610f77565b7ff2dbd98d79f00f7aff338b824931d607bfcc63d47307162470f25a055102d3b084828785604051610d779493929190612410565b60405180910390a1600192505050610d92565b5b6000925050505b92915050565b60008033905060008086815260200190815260200160002060000160009054906101000a900473ffffffffffffffffffffffffffffffffffffffff1673ffffffffffffffffffffffffffffffffffffffff168173ffffffffffffffffffffffffffffffffffffffff161415610f6a57610e13818686866110d4565b60405180606001604052808573ffffffffffffffffffffffffffffffffffffffff168152602001841515815260200160011515815250600460008373ffffffffffffffffffffffffffffffffffffffff1673ffffffffffffffffffffffffffffffffffffffff168152602001908152602001600020600087815260200190815260200160002060008201518160000160006101000a81548173ffffffffffffffffffffffffffffffffffffffff021916908373ffffffffffffffffffffffffffffffffffffffff16021790555060208201518160000160146101000a81548160ff02191690831515021790555060408201518160000160156101000a81548160ff0219169083151502179055509050507fd5c838685c91fc024ad915094c7bb55924d0e44912033bc064873a2f7944587481868686604051610f58949392919061248c565b60405180910390a16001915050610f70565b60009150505b9392505050565b600060036000868152602001908152602001600020600201549050808211156110cd57610fa48584611303565b610fae85846114c1565b60405180608001604052808573ffffffffffffffffffffffffffffffffffffffff1681526020018473ffffffffffffffffffffffffffffffffffffffff168152602001838152602001600115158152506003600087815260200190815260200160002060008201518160000160006101000a81548173ffffffffffffffffffffffffffffffffffffffff021916908373ffffffffffffffffffffffffffffffffffffffff16021790555060208201518160010160006101000a81548173ffffffffffffffffffffffffffffffffffffffff021916908373ffffffffffffffffffffffffffffffffffffffff1602179055506040820151816002015560608201518160030160006101000a81548160ff0219169083151502179055509050505b5050505050565b6000600460008673ffffffffffffffffffffffffffffffffffffffff1673ffffffffffffffffffffffffffffffffffffffff16815260200190815260200160002060008581526020019081526020016000206040518060600160405290816000820160009054906101000a900473ffffffffffffffffffffffffffffffffffffffff1673ffffffffffffffffffffffffffffffffffffffff1673ffffffffffffffffffffffffffffffffffffffff1681526020016000820160149054906101000a900460ff161515151581526020016000820160159054906101000a900460ff1615151515815250509050600115158160400151151514156111e5576111e48585836000015184602001516116cc565b5b60008085815260200190815260200160002060000160009054906101000a900473ffffffffffffffffffffffffffffffffffffffff1673ffffffffffffffffffffffffffffffffffffffff168573ffffffffffffffffffffffffffffffffffffffff1614156112fc5760405180604001604052808315158152602001600115158152506002600086815260200190815260200160002060008573ffffffffffffffffffffffffffffffffffffffff1673ffffffffffffffffffffffffffffffffffffffff16815260200190815260200160002060008201518160000160006101000a81548160ff02191690831515021790555060208201518160000160016101000a81548160ff0219169083151502179055509050505b5050505050565b6000600360008481526020019081526020016000206040518060800160405290816000820160009054906101000a900473ffffffffffffffffffffffffffffffffffffffff1673ffffffffffffffffffffffffffffffffffffffff1673ffffffffffffffffffffffffffffffffffffffff1681526020016001820160009054906101000a900473ffffffffffffffffffffffffffffffffffffffff1673ffffffffffffffffffffffffffffffffffffffff1673ffffffffffffffffffffffffffffffffffffffff168152602001600282015481526020016003820160009054906101000a900460ff16151515158152505090506001151581606001511515141561141657611415838260200151611857565b5b600073ffffffffffffffffffffffffffffffffffffffff168273ffffffffffffffffffffffffffffffffffffffff16146114bc576040518060400160405280600115158152602001600115158152506005600085815260200190815260200160002060008201518160000160006101000a81548160ff02191690831515021790555060208201518160000160016101000a81548160ff0219169083151502179055509050505b505050565b6000600360008481526020019081526020016000206040518060800160405290816000820160009054906101000a900473ffffffffffffffffffffffffffffffffffffffff1673ffffffffffffffffffffffffffffffffffffffff1673ffffffffffffffffffffffffffffffffffffffff1681526020016001820160009054906101000a900473ffffffffffffffffffffffffffffffffffffffff1673ffffffffffffffffffffffffffffffffffffffff1673ffffffffffffffffffffffffffffffffffffffff168152602001600282015481526020016003820160009054906101000a900460ff1615151515815250509050600115158160600151151514156115d4576115d3838260200151611932565b5b600073ffffffffffffffffffffffffffffffffffffffff168273ffffffffffffffffffffffffffffffffffffffff16146116c7576116128383611a94565b61161c8383611cd7565b60405180604001604052808373ffffffffffffffffffffffffffffffffffffffff1681526020016001151581525060008085815260200190815260200160002060008201518160000160006101000a81548173ffffffffffffffffffffffffffffffffffffffff021916908373ffffffffffffffffffffffffffffffffffffffff16021790555060208201518160000160146101000a81548160ff0219169083151502179055509050505b505050565b60008084815260200190815260200160002060000160009054906101000a900473ffffffffffffffffffffffffffffffffffffffff1673ffffffffffffffffffffffffffffffffffffffff168473ffffffffffffffffffffffffffffffffffffffff161415611851576002600084815260200190815260200160002060008373ffffffffffffffffffffffffffffffffffffffff1673ffffffffffffffffffffffffffffffffffffffff16815260200190815260200160002060000160009054906101000a900460ff1615158115151415611850576040518060400160405280600015158152602001600015158152506002600085815260200190815260200160002060008473ffffffffffffffffffffffffffffffffffffffff1673ffffffffffffffffffffffffffffffffffffffff16815260200190815260200160002060008201518160000160006101000a81548160ff02191690831515021790555060208201518160000160016101000a81548160ff0219169083151502179055509050505b5b50505050565b600073ffffffffffffffffffffffffffffffffffffffff168173ffffffffffffffffffffffffffffffffffffffff161461192e576005600083815260200190815260200160002060000160009054906101000a900460ff16151560011515141561192d576040518060400160405280600015158152602001600015158152506005600084815260200190815260200160002060008201518160000160006101000a81548160ff02191690831515021790555060208201518160000160016101000a81548160ff0219169083151502179055509050505b5b5050565b600073ffffffffffffffffffffffffffffffffffffffff168173ffffffffffffffffffffffffffffffffffffffff1614611a90576119708282611de8565b61197a8282611e46565b60008083815260200190815260200160002060000160009054906101000a900473ffffffffffffffffffffffffffffffffffffffff1673ffffffffffffffffffffffffffffffffffffffff168173ffffffffffffffffffffffffffffffffffffffff161415611a8f576040518060400160405280600073ffffffffffffffffffffffffffffffffffffffff1681526020016000151581525060008084815260200190815260200160002060008201518160000160006101000a81548173ffffffffffffffffffffffffffffffffffffffff021916908373ffffffffffffffffffffffffffffffffffffffff16021790555060208201518160000160146101000a81548160ff0219169083151502179055509050505b5b5050565b60008060008481526020019081526020016000206040518060400160405290816000820160009054906101000a900473ffffffffffffffffffffffffffffffffffffffff1673ffffffffffffffffffffffffffffffffffffffff1673ffffffffffffffffffffffffffffffffffffffff1681526020016000820160149054906101000a900460ff161515151581525050905060011515816020015115151415611b4657611b45838260000151611e46565b5b6000600460008473ffffffffffffffffffffffffffffffffffffffff1673ffffffffffffffffffffffffffffffffffffffff168152602001908152602001600020600085815260200190815260200160002060000160009054906101000a900473ffffffffffffffffffffffffffffffffffffffff1690506000600460008573ffffffffffffffffffffffffffffffffffffffff1673ffffffffffffffffffffffffffffffffffffffff168152602001908152602001600020600086815260200190815260200160002060000160149054906101000a900460ff16905060405180604001604052808215158152602001600115158152506002600087815260200190815260200160002060008473ffffffffffffffffffffffffffffffffffffffff1673ffffffffffffffffffffffffffffffffffffffff16815260200190815260200160002060008201518160000160006101000a81548160ff02191690831515021790555060208201518160000160016101000a81548160ff0219169083151502179055509050505050505050565b60008060008481526020019081526020016000206040518060400160405290816000820160009054906101000a900473ffffffffffffffffffffffffffffffffffffffff1673ffffffffffffffffffffffffffffffffffffffff1673ffffffffffffffffffffffffffffffffffffffff1681526020016000820160149054906101000a900460ff161515151581525050905060011515816020015115151415611d8957611d88838260000151611de8565b5b6001600760008473ffffffffffffffffffffffffffffffffffffffff1673ffffffffffffffffffffffffffffffffffffffff1681526020019081526020016000206000016000828254611ddc9190612500565b92505081905550505050565b6001600760008373ffffffffffffffffffffffffffffffffffffffff1673ffffffffffffffffffffffffffffffffffffffff1681526020019081526020016000206000016000828254611e3b9190612556565b925050819055505050565b6000600460008373ffffffffffffffffffffffffffffffffffffffff1673ffffffffffffffffffffffffffffffffffffffff168152602001908152602001600020600084815260200190815260200160002060000160009054906101000a900473ffffffffffffffffffffffffffffffffffffffff1690506000600460008473ffffffffffffffffffffffffffffffffffffffff1673ffffffffffffffffffffffffffffffffffffffff168152602001908152602001600020600085815260200190815260200160002060000160149054906101000a900460ff1690506002600085815260200190815260200160002060008373ffffffffffffffffffffffffffffffffffffffff1673ffffffffffffffffffffffffffffffffffffffff16815260200190815260200160002060000160009054906101000a900460ff161515811515141561203e576040518060400160405280600015158152602001600015158152506002600086815260200190815260200160002060008473ffffffffffffffffffffffffffffffffffffffff1673ffffffffffffffffffffffffffffffffffffffff16815260200190815260200160002060008201518160000160006101000a81548160ff02191690831515021790555060208201518160000160016101000a81548160ff0219169083151502179055509050505b50505050565b600080fd5b600073ffffffffffffffffffffffffffffffffffffffff82169050919050565b600061207482612049565b9050919050565b61208481612069565b811461208f57600080fd5b50565b6000813590506120a18161207b565b92915050565b6000819050919050565b6120ba816120a7565b81146120c557600080fd5b50565b6000813590506120d7816120b1565b92915050565b6000806000606084860312156120f6576120f5612044565b5b600061210486828701612092565b935050602061211586828701612092565b9250506040612126868287016120c8565b9150509250925092565b60006020828403121561214657612145612044565b5b6000612154848285016120c8565b91505092915050565b60008115159050919050565b6121728161215d565b82525050565b600060208201905061218d6000830184612169565b92915050565b61219c81612069565b82525050565b60006020820190506121b76000830184612193565b92915050565b600080604083850312156121d4576121d3612044565b5b60006121e2858286016120c8565b92505060206121f385828601612092565b9150509250929050565b60006020828403121561221357612212612044565b5b600061222184828501612092565b91505092915050565b612233816120a7565b82525050565b600060208201905061224e600083018461222a565b92915050565b61225d8161215d565b811461226857600080fd5b50565b60008135905061227a81612254565b92915050565b6000806040838503121561229757612296612044565b5b60006122a585828601612092565b92505060206122b68582860161226b565b9150509250929050565b600080604083850312156122d7576122d6612044565b5b60006122e585828601612092565b92505060206122f6858286016120c8565b9150509250929050565b6000806040838503121561231757612316612044565b5b600061232585828601612092565b925050602061233685828601612092565b9150509250929050565b60008060006060848603121561235957612358612044565b5b6000612367868287016120c8565b935050602061237886828701612092565b92505060406123898682870161226b565b9150509250925092565b600082825260208201905092915050565b7f52756c6520636f6e646974696f6e206661696c65640000000000000000000000600082015250565b60006123da601583612393565b91506123e5826123a4565b602082019050919050565b60006020820190508181036000830152612409816123cd565b9050919050565b6000608082019050612425600083018761222a565b6124326020830186612193565b61243f6040830185612193565b61244c606083018461222a565b95945050505050565b600060608201905061246a6000830186612193565b6124776020830185612193565b6124846040830184612169565b949350505050565b60006080820190506124a16000830187612193565b6124ae602083018661222a565b6124bb6040830185612193565b6124c86060830184612169565b95945050505050565b7f4e487b7100000000000000000000000000000000000000000000000000000000600052601160045260246000fd5b600061250b826120a7565b9150612516836120a7565b9250827fffffffffffffffffffffffffffffffffffffffffffffffffffffffffffffffff0382111561254b5761254a6124d1565b5b828201905092915050565b6000612561826120a7565b915061256c836120a7565b92508282101561257f5761257e6124d1565b5b82820390509291505056fea26469706673582212203b59e2fda447f4c2c4ee3858a11110b61faa36773b02f76fce2253ea26ef20b964736f6c634300080c0033",
  "immutableReferences": {},
  "source": "contract Nft {\n  struct OwnerOfTuple {\n    address p;\n    bool _valid;\n  }\n  struct OwnerTuple {\n    address p;\n    bool _valid;\n  }\n  struct ApprovedTuple {\n    bool b;\n    bool _valid;\n  }\n  struct LatestTransferTuple {\n    address from;\n    address to;\n    uint time;\n    bool _valid;\n  }\n  struct ApprovalTuple {\n    address p;\n    bool b;\n    bool _valid;\n  }\n  struct ExistsTuple {\n    bool b;\n    bool _valid;\n  }\n  struct IsApprovedForAllTuple {\n    bool b;\n    bool _valid;\n  }\n  struct BalanceOfTuple {\n    uint n;\n    bool _valid;\n  }\n  mapping(uint=>OwnerOfTuple) ownerOf;\n  OwnerTuple owner;\n  mapping(uint=>mapping(address=>ApprovedTuple)) approved;\n  mapping(uint=>LatestTransferTuple) latestTransfer;\n  mapping(address=>mapping(uint=>ApprovalTuple)) approval;\n  mapping(uint=>ExistsTuple) exists;\n  mapping(address=>mapping(address=>IsApprovedForAllTuple)) isApprovedForAll;\n  mapping(address=>BalanceOfTuple) balanceOf;\n  event Transfer(uint tokenId,address from,address to,uint time);\n  event Approval(address o,uint tokenId,address p,bool b);\n  event IsApprovedForAll(address owner,address operator,bool b);\n  constructor() public {\n    updateOwnerOnInsertConstructor_r10();\n  }\n  function getApproved(uint tokenId,address p) public view  returns (bool) {\n      bool b = approved[tokenId][p].b;\n      return b;\n  }\n  function getOwnerOf(uint tokenId) public view  returns (address) {\n      address p = ownerOf[tokenId].p;\n      return p;\n  }\n  function getIsApprovedForAll(address owner,address operator) public view  returns (bool) {\n      bool b = isApprovedForAll[owner][operator].b;\n      return b;\n  }\n  function transferFrom(address from,address to,uint tokenId) public    {\n      bool r6 = updateTransferOnInsertRecv_transferFrom_r6(from,to,tokenId);\n      bool r7 = updateTransferOnInsertRecv_transferFrom_r7(from,to,tokenId);\n      if(r6==false && r7==false) {\n        revert(\"Rule condition failed\");\n      }\n  }\n  function transfer(address to,uint tokenId) public    {\n      bool r9 = updateTransferOnInsertRecv_transfer_r9(to,tokenId);\n      if(r9==false) {\n        revert(\"Rule condition failed\");\n      }\n  }\n  function getBalanceOf(address p) public view  returns (uint) {\n      uint n = balanceOf[p].n;\n      return n;\n  }\n  function mint(uint tokenId,address to) public    {\n      bool r3 = updateTransferOnInsertRecv_mint_r3(tokenId,to);\n      if(r3==false) {\n        revert(\"Rule condition failed\");\n      }\n  }\n  function getExists(uint tokenId) public view  returns (bool) {\n      bool b = exists[tokenId].b;\n      return b;\n  }\n  function setApprovalForAll(address operator,bool _approved) public    {\n      bool r2 = updateIsApprovedForAllOnInsertRecv_setApprovalForAll_r2(operator,_approved);\n      if(r2==false) {\n        revert(\"Rule condition failed\");\n      }\n  }\n  function burn(uint tokenId) public    {\n      bool r12 = updateTransferOnInsertRecv_burn_r12(tokenId);\n      if(r12==false) {\n        revert(\"Rule condition failed\");\n      }\n  }\n  function setApproval(uint tokenId,address p,bool b) public    {\n      bool r1 = updateApprovalOnInsertRecv_setApproval_r1(tokenId,p,b);\n      if(r1==false) {\n        revert(\"Rule condition failed\");\n      }\n  }\n  function updateExistsOnDeleteLatestTransfer_r11(uint tokenId,address to) private    {\n      if(to!=address(0)) {\n        if(true==exists[tokenId].b) {\n          exists[tokenId] = ExistsTuple(false,false);\n        }\n      }\n  }\n  function updateTransferOnInsertRecv_transfer_r9(address r,uint tokenId) private   returns (bool) {\n      uint time = block.timestamp;\n      address s = msg.sender;\n      if(s==ownerOf[tokenId].p) {\n        if(r!=address(0)) {\n          updateLatestTransferOnInsertTransfer_r13(tokenId,s,r,time);\n          emit Transfer(tokenId,s,r,time);\n          return true;\n        }\n      }\n      return false;\n  }\n  function updateLatestTransferOnInsertTransfer_r13(uint tokenId,address s,address r,uint t) private    {\n      uint _max = latestTransfer[tokenId].time;\n      if(t>_max) {\n        updateExistsOnInsertLatestTransfer_r11(tokenId,r);\n        updateOwnerOfOnInsertLatestTransfer_r0(tokenId,r);\n        latestTransfer[tokenId] = LatestTransferTuple(s,r,t,true);\n      }\n  }\n  function updateTransferOnInsertRecv_burn_r12(uint tokenId) private   returns (bool) {\n      address s = msg.sender;\n      uint time = block.timestamp;\n      if(s==owner.p) {\n        if(true==exists[tokenId].b) {\n          address p = ownerOf[tokenId].p;\n          updateLatestTransferOnInsertTransfer_r13(tokenId,p,address(0),time);\n          emit Transfer(tokenId,p,address(0),time);\n          return true;\n        }\n      }\n      return false;\n  }\n  function updateApprovedOnDeleteOwnerOf_r4(uint tokenId,address o) private    {\n      address p = approval[o][tokenId].p;\n      bool b = approval[o][tokenId].b;\n      if(b==approved[tokenId][p].b) {\n        approved[tokenId][p] = ApprovedTuple(false,false);\n      }\n  }\n  function updateTransferOnInsertRecv_mint_r3(uint tokenId,address to) private   returns (bool) {\n      address s = msg.sender;\n      uint time = block.timestamp;\n      if(s==owner.p) {\n        if(false==exists[tokenId].b) {\n          if(to!=address(0)) {\n            updateLatestTransferOnInsertTransfer_r13(tokenId,address(0),to,time);\n            emit Transfer(tokenId,address(0),to,time);\n            return true;\n          }\n        }\n      }\n      return false;\n  }\n  function updateApprovedOnInsertOwnerOf_r4(uint tokenId,address o) private    {\n      OwnerOfTuple memory toDelete = ownerOf[tokenId];\n      if(toDelete._valid==true) {\n        updateApprovedOnDeleteOwnerOf_r4(tokenId,toDelete.p);\n      }\n      address p = approval[o][tokenId].p;\n      bool b = approval[o][tokenId].b;\n      approved[tokenId][p] = ApprovedTuple(b,true);\n  }\n  function updateOwnerOfOnInsertLatestTransfer_r0(uint tokenId,address p) private    {\n      LatestTransferTuple memory toDelete = latestTransfer[tokenId];\n      if(toDelete._valid==true) {\n        updateOwnerOfOnDeleteLatestTransfer_r0(tokenId,toDelete.to);\n      }\n      if(p!=address(0)) {\n        updateApprovedOnInsertOwnerOf_r4(tokenId,p);\n        updateBalanceOfOnInsertOwnerOf_r5(tokenId,p);\n        ownerOf[tokenId] = OwnerOfTuple(p,true);\n      }\n  }\n  function updateTransferOnInsertRecv_transferFrom_r7(address s,address r,uint tokenId) private   returns (bool) {\n      address o = msg.sender;\n      uint time = block.timestamp;\n      if(s==ownerOf[tokenId].p) {\n        if(true==isApprovedForAll[s][o].b) {\n          if(r!=address(0)) {\n            updateLatestTransferOnInsertTransfer_r13(tokenId,s,r,time);\n            emit Transfer(tokenId,s,r,time);\n            return true;\n          }\n        }\n      }\n      return false;\n  }\n  function updateApprovalOnInsertRecv_setApproval_r1(uint tokenId,address p,bool b) private   returns (bool) {\n      address o = msg.sender;\n      if(o==ownerOf[tokenId].p) {\n        updateApprovedOnInsertApproval_r4(o,tokenId,p,b);\n        approval[o][tokenId] = ApprovalTuple(p,b,true);\n        emit Approval(o,tokenId,p,b);\n        return true;\n      }\n      return false;\n  }\n  function updateExistsOnInsertLatestTransfer_r11(uint tokenId,address to) private    {\n      LatestTransferTuple memory toDelete = latestTransfer[tokenId];\n      if(toDelete._valid==true) {\n        updateExistsOnDeleteLatestTransfer_r11(tokenId,toDelete.to);\n      }\n      if(to!=address(0)) {\n        exists[tokenId] = ExistsTuple(true,true);\n      }\n  }\n  function updateIsApprovedForAllOnInsertRecv_setApprovalForAll_r2(address o,bool b) private   returns (bool) {\n      address p = msg.sender;\n      isApprovedForAll[p][o] = IsApprovedForAllTuple(b,true);\n      emit IsApprovedForAll(p,o,b);\n      return true;\n      return false;\n  }\n  function updateBalanceOfOnDeleteOwnerOf_r5(uint _tokenId0,address p) private    {\n      balanceOf[p].n -= 1;\n  }\n  function updateApprovedOnDeleteApproval_r4(address o,uint tokenId,address p,bool b) private    {\n      if(o==ownerOf[tokenId].p) {\n        if(b==approved[tokenId][p].b) {\n          approved[tokenId][p] = ApprovedTuple(false,false);\n        }\n      }\n  }\n  function updateOwnerOnInsertConstructor_r10() private    {\n      address s = msg.sender;\n      owner = OwnerTuple(s,true);\n  }\n  function updateBalanceOfOnInsertOwnerOf_r5(uint _tokenId0,address p) private    {\n      OwnerOfTuple memory toDelete = ownerOf[_tokenId0];\n      if(toDelete._valid==true) {\n        updateBalanceOfOnDeleteOwnerOf_r5(_tokenId0,toDelete.p);\n      }\n      balanceOf[p].n += 1;\n  }\n  function updateuintByint(uint x,int delta) private   returns (uint) {\n      int convertedX = int(x);\n      int value = convertedX+delta;\n      uint convertedValue = uint(value);\n      return convertedValue;\n  }\n  function updateOwnerOfOnDeleteLatestTransfer_r0(uint tokenId,address p) private    {\n      if(p!=address(0)) {\n        updateBalanceOfOnDeleteOwnerOf_r5(tokenId,p);\n        updateApprovedOnDeleteOwnerOf_r4(tokenId,p);\n        if(p==ownerOf[tokenId].p) {\n          ownerOf[tokenId] = OwnerOfTuple(address(address(0)),false);\n        }\n      }\n  }\n  function updateApprovedOnInsertApproval_r4(address o,uint tokenId,address p,bool b) private    {\n      ApprovalTuple memory toDelete = approval[o][tokenId];\n      if(toDelete._valid==true) {\n        updateApprovedOnDeleteApproval_r4(o,tokenId,toDelete.p,toDelete.b);\n      }\n      if(o==ownerOf[tokenId].p) {\n        approved[tokenId][p] = ApprovedTuple(b,true);\n      }\n  }\n  function updateTransferOnInsertRecv_transferFrom_r6(address s,address r,uint tokenId) private   returns (bool) {\n      uint time = block.timestamp;\n      if(true==approved[tokenId][s].b) {\n        if(r!=address(0)) {\n          updateLatestTransferOnInsertTransfer_r13(tokenId,s,r,time);\n          emit Transfer(tokenId,s,r,time);\n          return true;\n        }\n      }\n      return false;\n  }\n}",
  "sourcePath": "/home/lan/gasOpt/declarative-smart-contracts/solidity/full/nft.sol",
  "compiler": {
    "name": "solc",
    "version": "0.8.12+commit.f00d7308.Emscripten.clang"
  },
  "schemaVersion": "3.4.14",
  "updatedAt": "2023-09-19T03:58:27.550Z",
  "devdoc": {
    "kind": "dev",
    "methods": {},
    "version": 1
  },
  "userdoc": {
    "kind": "user",
    "methods": {},
    "version": 1
  }
}