{
  "contractName": "PaymentSplitter",
  "abi": [
    {
      "anonymous": false,
      "inputs": [
        {
          "indexed": false,
          "internalType": "address",
          "name": "p",
          "type": "address"
        },
        {
          "indexed": false,
          "internalType": "uint256",
          "name": "n",
          "type": "uint256"
        }
      ],
      "name": "Release",
      "type": "event"
    },
    {
      "inputs": [
        {
          "internalType": "address",
          "name": "p",
          "type": "address"
        }
      ],
      "name": "release",
      "outputs": [],
      "stateMutability": "nonpayable",
      "type": "function"
    }
  ],
  "bytecode": "0x608060405234801561001057600080fd5b506106b5806100206000396000f3fe608060405234801561001057600080fd5b506004361061002b5760003560e01c80631916558714610030575b600080fd5b61004a60048036038101906100459190610373565b61004c565b005b6000610057826100a5565b90506000151581151514156100a1576040517f08c379a0000000000000000000000000000000000000000000000000000000008152600401610098906103fd565b60405180910390fd5b5050565b6000806004600001549050600060066000015490506000600260008673ffffffffffffffffffffffffffffffffffffffff1673ffffffffffffffffffffffffffffffffffffffff1681526020019081526020016000206000015490506000600360008773ffffffffffffffffffffffffffffffffffffffff1673ffffffffffffffffffffffffffffffffffffffff168152602001908152602001600020600001549050808383866101569190610456565b61016091906104df565b11156101f0576000818484876101769190610456565b61018091906104df565b61018a9190610510565b905061019687826101fe565b61019f8161025b565b6101a98782610288565b7ff6334794522b9db534a812aaae1af828a2e96aac68473b58e36d7d0bfd67477b87826040516101da929190610562565b60405180910390a16001955050505050506101f9565b60009450505050505b919050565b80600360008473ffffffffffffffffffffffffffffffffffffffff1673ffffffffffffffffffffffffffffffffffffffff1681526020019081526020016000206000016000828254610250919061058b565b925050819055505050565b6000819050610269816102c2565b8160008001600082825461027d919061058b565b925050819055505050565b8173ffffffffffffffffffffffffffffffffffffffff166108fc829081150290604051600060405180830381858888f19350505050505050565b600081905060006102d8600460000154836102e9565b905080600460000181905550505050565b600080839050600083826102fd91906105eb565b9050600081905080935050505092915050565b600080fd5b600073ffffffffffffffffffffffffffffffffffffffff82169050919050565b600061034082610315565b9050919050565b61035081610335565b811461035b57600080fd5b50565b60008135905061036d81610347565b92915050565b60006020828403121561038957610388610310565b5b60006103978482850161035e565b91505092915050565b600082825260208201905092915050565b7f52756c6520636f6e646974696f6e206661696c65640000000000000000000000600082015250565b60006103e76015836103a0565b91506103f2826103b1565b602082019050919050565b60006020820190508181036000830152610416816103da565b9050919050565b6000819050919050565b7f4e487b7100000000000000000000000000000000000000000000000000000000600052601160045260246000fd5b60006104618261041d565b915061046c8361041d565b9250817fffffffffffffffffffffffffffffffffffffffffffffffffffffffffffffffff04831182151516156104a5576104a4610427565b5b828202905092915050565b7f4e487b7100000000000000000000000000000000000000000000000000000000600052601260045260246000fd5b60006104ea8261041d565b91506104f58361041d565b925082610505576105046104b0565b5b828204905092915050565b600061051b8261041d565b91506105268361041d565b92508282101561053957610538610427565b5b828203905092915050565b61054d81610335565b82525050565b61055c8161041d565b82525050565b60006040820190506105776000830185610544565b6105846020830184610553565b9392505050565b60006105968261041d565b91506105a18361041d565b9250827fffffffffffffffffffffffffffffffffffffffffffffffffffffffffffffffff038211156105d6576105d5610427565b5b828201905092915050565b6000819050919050565b60006105f6826105e1565b9150610601836105e1565b9250817f7fffffffffffffffffffffffffffffffffffffffffffffffffffffffffffffff0383136000831215161561063c5761063b610427565b5b817f800000000000000000000000000000000000000000000000000000000000000003831260008312161561067457610673610427565b5b82820190509291505056fea264697066735822122049219f18c22448e28d1059a13e47993b675926fe381e6ec84ec190b27ae0671264736f6c634300080c0033",
  "immutableReferences": {},
  "source": "contract PaymentSplitter {\n  struct TotalReleasedTuple {\n    uint n;\n    bool _valid;\n  }\n  struct SharesTuple {\n    uint n;\n    bool _valid;\n  }\n  struct ReleasedTuple {\n    uint n;\n    bool _valid;\n  }\n  struct TotalReceivedTuple {\n    uint n;\n    bool _valid;\n  }\n  struct TotalSharesTuple {\n    uint n;\n    bool _valid;\n  }\n  TotalReleasedTuple totalReleased;\n  mapping(address=>SharesTuple) shares;\n  mapping(address=>ReleasedTuple) released;\n  TotalReceivedTuple totalReceived;\n  TotalSharesTuple totalShares;\n  event Release(address p,uint n);\n  function release(address p) public    {\n      bool r6 = updateReleaseOnInsertRecv_release_r6(p);\n      if(r6==false) {\n        revert(\"Rule condition failed\");\n      }\n  }\n  function updateReleaseOnInsertRecv_release_r6(address p) private   returns (bool) {\n      uint r = totalReceived.n;\n      uint s = totalShares.n;\n      uint m = shares[p].n;\n      uint e = released[p].n;\n      if((r*m)/s>e) {\n        uint n = ((r*m)/s)-e;\n        updateReleasedOnInsertRelease_r4(p,n);\n        updateTotalReleasedOnInsertRelease_r1(n);\n        updateSendOnInsertRelease_r3(p,n);\n        emit Release(p,n);\n        return true;\n      }\n      return false;\n  }\n  function updateTotalReleasedOnInsertRelease_r1(uint e) private    {\n      int delta0 = int(e);\n      updateTotalReceivedOnIncrementTotalReleased_r0(delta0);\n      totalReleased.n += e;\n  }\n  function updateSendOnInsertRelease_r3(address p,uint n) private    {\n      payable(p).send(n);\n  }\n  function updateTotalReceivedOnIncrementTotalReleased_r0(int e) private    {\n      int _delta = int(e);\n      uint newValue = updateuintByint(totalReceived.n,_delta);\n      totalReceived.n = newValue;\n  }\n  function updateuintByint(uint x,int delta) private   returns (uint) {\n      int convertedX = int(x);\n      int value = convertedX+delta;\n      uint convertedValue = uint(value);\n      return convertedValue;\n  }\n  function updateReleasedOnInsertRelease_r4(address p,uint n) private    {\n      released[p].n += n;\n  }\n}",
  "sourcePath": "/home/lan/gasOpt/declarative-smart-contracts/solidity/full/paymentSplitter.sol",
  "compiler": {
    "name": "solc",
    "version": "0.8.12+commit.f00d7308.Emscripten.clang"
  },
  "schemaVersion": "3.4.14",
  "updatedAt": "2023-09-19T03:58:25.339Z",
  "devdoc": {
    "kind": "dev",
    "methods": {},
    "version": 1
  },
  "userdoc": {
    "kind": "user",
    "methods": {},
    "version": 1
  }
}