{
  "contractName": "Shib",
  "abi": [
    {
      "inputs": [],
      "stateMutability": "nonpayable",
      "type": "constructor"
    },
    {
      "anonymous": false,
      "inputs": [
        {
          "indexed": false,
          "internalType": "address",
          "name": "p",
          "type": "address"
        },
        {
          "indexed": false,
          "internalType": "uint256",
          "name": "amount",
          "type": "uint256"
        }
      ],
      "name": "Burn",
      "type": "event"
    },
    {
      "anonymous": false,
      "inputs": [
        {
          "indexed": false,
          "internalType": "address",
          "name": "p",
          "type": "address"
        },
        {
          "indexed": false,
          "internalType": "address",
          "name": "from",
          "type": "address"
        },
        {
          "indexed": false,
          "internalType": "uint256",
          "name": "n",
          "type": "uint256"
        }
      ],
      "name": "BurnFrom",
      "type": "event"
    },
    {
      "anonymous": false,
      "inputs": [
        {
          "indexed": false,
          "internalType": "address",
          "name": "p",
          "type": "address"
        },
        {
          "indexed": false,
          "internalType": "address",
          "name": "s",
          "type": "address"
        },
        {
          "indexed": false,
          "internalType": "uint256",
          "name": "n",
          "type": "uint256"
        }
      ],
      "name": "IncreaseAllowance",
      "type": "event"
    },
    {
      "anonymous": false,
      "inputs": [
        {
          "indexed": false,
          "internalType": "address",
          "name": "p",
          "type": "address"
        },
        {
          "indexed": false,
          "internalType": "uint256",
          "name": "amount",
          "type": "uint256"
        }
      ],
      "name": "Mint",
      "type": "event"
    },
    {
      "anonymous": false,
      "inputs": [
        {
          "indexed": false,
          "internalType": "address",
          "name": "from",
          "type": "address"
        },
        {
          "indexed": false,
          "internalType": "address",
          "name": "to",
          "type": "address"
        },
        {
          "indexed": false,
          "internalType": "uint256",
          "name": "amount",
          "type": "uint256"
        }
      ],
      "name": "Transfer",
      "type": "event"
    },
    {
      "anonymous": false,
      "inputs": [
        {
          "indexed": false,
          "internalType": "address",
          "name": "from",
          "type": "address"
        },
        {
          "indexed": false,
          "internalType": "address",
          "name": "to",
          "type": "address"
        },
        {
          "indexed": false,
          "internalType": "address",
          "name": "spender",
          "type": "address"
        },
        {
          "indexed": false,
          "internalType": "uint256",
          "name": "amount",
          "type": "uint256"
        }
      ],
      "name": "TransferFrom",
      "type": "event"
    },
    {
      "inputs": [
        {
          "internalType": "address",
          "name": "p",
          "type": "address"
        },
        {
          "internalType": "uint256",
          "name": "amount",
          "type": "uint256"
        }
      ],
      "name": "burn",
      "outputs": [],
      "stateMutability": "nonpayable",
      "type": "function"
    },
    {
      "inputs": [
        {
          "internalType": "address",
          "name": "to",
          "type": "address"
        },
        {
          "internalType": "uint256",
          "name": "amount",
          "type": "uint256"
        }
      ],
      "name": "transfer",
      "outputs": [],
      "stateMutability": "nonpayable",
      "type": "function"
    },
    {
      "inputs": [
        {
          "internalType": "address",
          "name": "p",
          "type": "address"
        },
        {
          "internalType": "uint256",
          "name": "amount",
          "type": "uint256"
        }
      ],
      "name": "mint",
      "outputs": [],
      "stateMutability": "nonpayable",
      "type": "function"
    },
    {
      "inputs": [],
      "name": "getTotalSupply",
      "outputs": [
        {
          "internalType": "uint256",
          "name": "",
          "type": "uint256"
        }
      ],
      "stateMutability": "view",
      "type": "function"
    },
    {
      "inputs": [
        {
          "internalType": "address",
          "name": "p",
          "type": "address"
        },
        {
          "internalType": "address",
          "name": "s",
          "type": "address"
        }
      ],
      "name": "getAllowance",
      "outputs": [
        {
          "internalType": "uint256",
          "name": "",
          "type": "uint256"
        }
      ],
      "stateMutability": "view",
      "type": "function"
    },
    {
      "inputs": [
        {
          "internalType": "address",
          "name": "p",
          "type": "address"
        }
      ],
      "name": "getBalanceOf",
      "outputs": [
        {
          "internalType": "uint256",
          "name": "",
          "type": "uint256"
        }
      ],
      "stateMutability": "view",
      "type": "function"
    },
    {
      "inputs": [
        {
          "internalType": "address",
          "name": "p",
          "type": "address"
        },
        {
          "internalType": "uint256",
          "name": "n",
          "type": "uint256"
        }
      ],
      "name": "burnFrom",
      "outputs": [],
      "stateMutability": "nonpayable",
      "type": "function"
    },
    {
      "inputs": [
        {
          "internalType": "address",
          "name": "from",
          "type": "address"
        },
        {
          "internalType": "address",
          "name": "to",
          "type": "address"
        },
        {
          "internalType": "uint256",
          "name": "amount",
          "type": "uint256"
        }
      ],
      "name": "transferFrom",
      "outputs": [],
      "stateMutability": "nonpayable",
      "type": "function"
    },
    {
      "inputs": [
        {
          "internalType": "address",
          "name": "s",
          "type": "address"
        },
        {
          "internalType": "uint256",
          "name": "n",
          "type": "uint256"
        }
      ],
      "name": "approve",
      "outputs": [],
      "stateMutability": "nonpayable",
      "type": "function"
    }
  ],
  "bytecode": "0x608060405234801561001057600080fd5b5061001f61004060201b60201c565b61002d61008a60201b60201c565b61003b61012c60201b60201c565b61012e565b6040518060400160405280600081526020016001151581525060056000820151816000015560208201518160010160006101000a81548160ff021916908315150217905550905050565b600033905060405180604001604052808273ffffffffffffffffffffffffffffffffffffffff16815260200160011515815250600360008201518160000160006101000a81548173ffffffffffffffffffffffffffffffffffffffff021916908373ffffffffffffffffffffffffffffffffffffffff16021790555060208201518160000160146101000a81548160ff02191690831515021790555090505050565b565b611a26806200013e6000396000f3fe608060405234801561001057600080fd5b50600436106100935760003560e01c806379cc67901161006657806379cc67901461011c5780639b96eece146101385780639dc29fac14610168578063a9059cbb14610184578063c4e41b22146101a057610093565b8063095ea7b3146100985780630af4187d146100b457806323b872dd146100e457806340c10f1914610100575b600080fd5b6100b260048036038101906100ad91906115f5565b6101be565b005b6100ce60048036038101906100c99190611635565b610219565b6040516100db9190611684565b60405180910390f35b6100fe60048036038101906100f9919061169f565b6102a8565b005b61011a600480360381019061011591906115f5565b610305565b005b610136600480360381019061013191906115f5565b610360565b005b610152600480360381019061014d91906116f2565b6103bb565b60405161015f9190611684565b60405180910390f35b610182600480360381019061017d91906115f5565b61040c565b005b61019e600480360381019061019991906115f5565b610467565b005b6101a86104c2565b6040516101b59190611684565b60405180910390f35b60006101ca83836104d4565b9050600015158115151415610214576040517f08c379a000000000000000000000000000000000000000000000000000000000815260040161020b9061177c565b60405180910390fd5b505050565b600080600b60008573ffffffffffffffffffffffffffffffffffffffff1673ffffffffffffffffffffffffffffffffffffffff16815260200190815260200160002060008473ffffffffffffffffffffffffffffffffffffffff1673ffffffffffffffffffffffffffffffffffffffff1681526020019081526020016000206000015490508091505092915050565b60006102b58484846105c1565b90506000151581151514156102ff576040517f08c379a00000000000000000000000000000000000000000000000000000000081526004016102f69061177c565b60405180910390fd5b50505050565b60006103118383610715565b905060001515811515141561035b576040517f08c379a00000000000000000000000000000000000000000000000000000000081526004016103529061177c565b60405180910390fd5b505050565b600061036c838361080b565b90506000151581151514156103b6576040517f08c379a00000000000000000000000000000000000000000000000000000000081526004016103ad9061177c565b60405180910390fd5b505050565b600080600c60008473ffffffffffffffffffffffffffffffffffffffff1673ffffffffffffffffffffffffffffffffffffffff16815260200190815260200160002060000154905080915050919050565b60006104188383610994565b9050600015158115151415610462576040517f08c379a00000000000000000000000000000000000000000000000000000000081526004016104599061177c565b60405180910390fd5b505050565b60006104738383610ae1565b90506000151581151514156104bd576040517f08c379a00000000000000000000000000000000000000000000000000000000081526004016104b49061177c565b60405180910390fd5b505050565b60008060056000015490508091505090565b6000803390506000600b60008373ffffffffffffffffffffffffffffffffffffffff1673ffffffffffffffffffffffffffffffffffffffff16815260200190815260200160002060008673ffffffffffffffffffffffffffffffffffffffff1673ffffffffffffffffffffffffffffffffffffffff1681526020019081526020016000206000015490506000818561056c91906117cb565b9050610579838783610b9c565b7f01722f0e92ffd761d4a842cffdd36fe3adb6091e41732a4e714250176b7d8d228387836040516105ac9392919061180e565b60405180910390a16001935050505092915050565b6000803390506000600b60008773ffffffffffffffffffffffffffffffffffffffff1673ffffffffffffffffffffffffffffffffffffffff16815260200190815260200160002060008373ffffffffffffffffffffffffffffffffffffffff1673ffffffffffffffffffffffffffffffffffffffff1681526020019081526020016000206000015490506000600c60008873ffffffffffffffffffffffffffffffffffffffff1673ffffffffffffffffffffffffffffffffffffffff1681526020019081526020016000206000015490508481101580156106a25750848210155b15610706576106b2878787610c48565b6106bd878487610c9c565b7f5f7542858008eeb041631f30e6109ae94b83a58e9a58261dd2c42c508850f939878785886040516106f29493929190611845565b60405180910390a16001935050505061070e565b600093505050505b9392505050565b600080600360000160009054906101000a900473ffffffffffffffffffffffffffffffffffffffff1690503373ffffffffffffffffffffffffffffffffffffffff168173ffffffffffffffffffffffffffffffffffffffff1614156107ff57600073ffffffffffffffffffffffffffffffffffffffff168473ffffffffffffffffffffffffffffffffffffffff16146107fe576107b183610d48565b6107bb8484610d76565b7f0f6798a560793a54c3bcfe86a93cde1e73087d944c0ea20544137d412139688584846040516107ec92919061188a565b60405180910390a16001915050610805565b5b60009150505b92915050565b6000803390506000600b60008673ffffffffffffffffffffffffffffffffffffffff1673ffffffffffffffffffffffffffffffffffffffff16815260200190815260200160002060008373ffffffffffffffffffffffffffffffffffffffff1673ffffffffffffffffffffffffffffffffffffffff1681526020019081526020016000206000015490506000600c60008773ffffffffffffffffffffffffffffffffffffffff1673ffffffffffffffffffffffffffffffffffffffff168152602001908152602001600020600001549050600073ffffffffffffffffffffffffffffffffffffffff168673ffffffffffffffffffffffffffffffffffffffff16141580156109195750848110155b80156109255750808210155b15610986576109348686610de3565b61093f838787610e33565b7f3c7611a5be35512cb20a6f2f039b47efb0d70f9c538e3886fa3f3e9c32af924f8387876040516109729392919061180e565b60405180910390a16001935050505061098e565b600093505050505b92915050565b600080600360000160009054906101000a900473ffffffffffffffffffffffffffffffffffffffff1690503373ffffffffffffffffffffffffffffffffffffffff168173ffffffffffffffffffffffffffffffffffffffff161415610ad5576000600c60008673ffffffffffffffffffffffffffffffffffffffff1673ffffffffffffffffffffffffffffffffffffffff168152602001908152602001600020600001549050600073ffffffffffffffffffffffffffffffffffffffff168573ffffffffffffffffffffffffffffffffffffffff1614158015610a775750808411155b15610ad357610a868585610e8d565b610a8f84610efa565b7fcc16f5dbb4873280815c1ee09dbd06736cffcc184412cf7a71a0fdb75d397ca58585604051610ac092919061188a565b60405180910390a1600192505050610adb565b505b60009150505b92915050565b6000803390506000600c60008373ffffffffffffffffffffffffffffffffffffffff1673ffffffffffffffffffffffffffffffffffffffff168152602001908152602001600020600001549050808411610b8f57610b3f8285610f28565b610b498585610f95565b7fddf252ad1be2c89b69c2b068fc378daa952ba7f163c4a11628f55a4df523b3ef828686604051610b7c9392919061180e565b60405180910390a1600192505050610b96565b6000925050505b92915050565b6000819050610bac848483611001565b81600960008673ffffffffffffffffffffffffffffffffffffffff1673ffffffffffffffffffffffffffffffffffffffff16815260200190815260200160002060008573ffffffffffffffffffffffffffffffffffffffff1673ffffffffffffffffffffffffffffffffffffffff1681526020019081526020016000206000016000828254610c3b91906118b3565b9250508190555050505050565b610c528382610f28565b610c5c8282610f95565b7fddf252ad1be2c89b69c2b068fc378daa952ba7f163c4a11628f55a4df523b3ef838383604051610c8f9392919061180e565b60405180910390a1505050565b6000819050610cac84848361111e565b81600a60008673ffffffffffffffffffffffffffffffffffffffff1673ffffffffffffffffffffffffffffffffffffffff16815260200190815260200160002060008573ffffffffffffffffffffffffffffffffffffffff1673ffffffffffffffffffffffffffffffffffffffff1681526020019081526020016000206000016000828254610d3b91906118b3565b9250508190555050505050565b6000819050610d5681611244565b8160076000016000828254610d6b91906118b3565b925050819055505050565b6000819050610d85838261126b565b81600460008573ffffffffffffffffffffffffffffffffffffffff1673ffffffffffffffffffffffffffffffffffffffff1681526020019081526020016000206000016000828254610dd791906118b3565b92505081905550505050565b610ded8282610e8d565b610df681610efa565b7fcc16f5dbb4873280815c1ee09dbd06736cffcc184412cf7a71a0fdb75d397ca58282604051610e2792919061188a565b60405180910390a15050565b610e3e838383610c48565b610e4a83600083610c9c565b7f5f7542858008eeb041631f30e6109ae94b83a58e9a58261dd2c42c508850f9398383600084604051610e809493929190611845565b60405180910390a1505050565b6000819050610e9c838261130d565b81600260008573ffffffffffffffffffffffffffffffffffffffff1673ffffffffffffffffffffffffffffffffffffffff1681526020019081526020016000206000016000828254610eee91906118b3565b92505081905550505050565b6000819050610f08816113b8565b81600d6000016000828254610f1d91906118b3565b925050819055505050565b6000819050610f3783826113e8565b81600160008573ffffffffffffffffffffffffffffffffffffffff1673ffffffffffffffffffffffffffffffffffffffff1681526020019081526020016000206000016000828254610f8991906118b3565b92505081905550505050565b6000819050610fa48382611493565b816000808573ffffffffffffffffffffffffffffffffffffffff1673ffffffffffffffffffffffffffffffffffffffff1681526020019081526020016000206000016000828254610ff591906118b3565b92505081905550505050565b60008190506000611091600b60008773ffffffffffffffffffffffffffffffffffffffff1673ffffffffffffffffffffffffffffffffffffffff16815260200190815260200160002060008673ffffffffffffffffffffffffffffffffffffffff1673ffffffffffffffffffffffffffffffffffffffff1681526020019081526020016000206000015483611535565b905080600b60008773ffffffffffffffffffffffffffffffffffffffff1673ffffffffffffffffffffffffffffffffffffffff16815260200190815260200160002060008673ffffffffffffffffffffffffffffffffffffffff1673ffffffffffffffffffffffffffffffffffffffff168152602001908152602001600020600001819055505050505050565b60008161112a90611913565b905060006111b7600b60008773ffffffffffffffffffffffffffffffffffffffff1673ffffffffffffffffffffffffffffffffffffffff16815260200190815260200160002060008673ffffffffffffffffffffffffffffffffffffffff1673ffffffffffffffffffffffffffffffffffffffff1681526020019081526020016000206000015483611535565b905080600b60008773ffffffffffffffffffffffffffffffffffffffff1673ffffffffffffffffffffffffffffffffffffffff16815260200190815260200160002060008673ffffffffffffffffffffffffffffffffffffffff1673ffffffffffffffffffffffffffffffffffffffff168152602001908152602001600020600001819055505050505050565b6000819050600061125a60056000015483611535565b905080600560000181905550505050565b600081905060006112be600c60008673ffffffffffffffffffffffffffffffffffffffff1673ffffffffffffffffffffffffffffffffffffffff1681526020019081526020016000206000015483611535565b905080600c60008673ffffffffffffffffffffffffffffffffffffffff1673ffffffffffffffffffffffffffffffffffffffff1681526020019081526020016000206000018190555050505050565b60008161131990611913565b90506000611369600c60008673ffffffffffffffffffffffffffffffffffffffff1673ffffffffffffffffffffffffffffffffffffffff1681526020019081526020016000206000015483611535565b905080600c60008673ffffffffffffffffffffffffffffffffffffffff1673ffffffffffffffffffffffffffffffffffffffff1681526020019081526020016000206000018190555050505050565b6000816113c490611913565b905060006113d760056000015483611535565b905080600560000181905550505050565b6000816113f490611913565b90506000611444600c60008673ffffffffffffffffffffffffffffffffffffffff1673ffffffffffffffffffffffffffffffffffffffff1681526020019081526020016000206000015483611535565b905080600c60008673ffffffffffffffffffffffffffffffffffffffff1673ffffffffffffffffffffffffffffffffffffffff1681526020019081526020016000206000018190555050505050565b600081905060006114e6600c60008673ffffffffffffffffffffffffffffffffffffffff1673ffffffffffffffffffffffffffffffffffffffff1681526020019081526020016000206000015483611535565b905080600c60008673ffffffffffffffffffffffffffffffffffffffff1673ffffffffffffffffffffffffffffffffffffffff1681526020019081526020016000206000018190555050505050565b60008083905060008382611549919061195c565b9050600081905080935050505092915050565b600080fd5b600073ffffffffffffffffffffffffffffffffffffffff82169050919050565b600061158c82611561565b9050919050565b61159c81611581565b81146115a757600080fd5b50565b6000813590506115b981611593565b92915050565b6000819050919050565b6115d2816115bf565b81146115dd57600080fd5b50565b6000813590506115ef816115c9565b92915050565b6000806040838503121561160c5761160b61155c565b5b600061161a858286016115aa565b925050602061162b858286016115e0565b9150509250929050565b6000806040838503121561164c5761164b61155c565b5b600061165a858286016115aa565b925050602061166b858286016115aa565b9150509250929050565b61167e816115bf565b82525050565b60006020820190506116996000830184611675565b92915050565b6000806000606084860312156116b8576116b761155c565b5b60006116c6868287016115aa565b93505060206116d7868287016115aa565b92505060406116e8868287016115e0565b9150509250925092565b6000602082840312156117085761170761155c565b5b6000611716848285016115aa565b91505092915050565b600082825260208201905092915050565b7f52756c6520636f6e646974696f6e206661696c65640000000000000000000000600082015250565b600061176660158361171f565b915061177182611730565b602082019050919050565b6000602082019050818103600083015261179581611759565b9050919050565b7f4e487b7100000000000000000000000000000000000000000000000000000000600052601160045260246000fd5b60006117d6826115bf565b91506117e1836115bf565b9250828210156117f4576117f361179c565b5b828203905092915050565b61180881611581565b82525050565b600060608201905061182360008301866117ff565b61183060208301856117ff565b61183d6040830184611675565b949350505050565b600060808201905061185a60008301876117ff565b61186760208301866117ff565b61187460408301856117ff565b6118816060830184611675565b95945050505050565b600060408201905061189f60008301856117ff565b6118ac6020830184611675565b9392505050565b60006118be826115bf565b91506118c9836115bf565b9250827fffffffffffffffffffffffffffffffffffffffffffffffffffffffffffffffff038211156118fe576118fd61179c565b5b828201905092915050565b6000819050919050565b600061191e82611909565b91507f80000000000000000000000000000000000000000000000000000000000000008214156119515761195061179c565b5b816000039050919050565b600061196782611909565b915061197283611909565b9250817f7fffffffffffffffffffffffffffffffffffffffffffffffffffffffffffffff038313600083121516156119ad576119ac61179c565b5b817f80000000000000000000000000000000000000000000000000000000000000000383126000831216156119e5576119e461179c565b5b82820190509291505056fea2646970667358221220041f221e3b6b22573b36d8247964bfca584330faa97a5c914fa080b6354bf19f64736f6c634300080c0033",
  "immutableReferences": {},
  "source": "contract Shib {\n  struct TotalInTuple {\n    uint n;\n    bool _valid;\n  }\n  struct TotalOutTuple {\n    uint n;\n    bool _valid;\n  }\n  struct OwnerTuple {\n    address p;\n    bool _valid;\n  }\n  struct TotalMintTuple {\n    uint n;\n    bool _valid;\n  }\n  struct TotalSupplyTuple {\n    uint n;\n    bool _valid;\n  }\n  struct AllMintTuple {\n    uint n;\n    bool _valid;\n  }\n  struct AllowanceTotalTuple {\n    uint m;\n    bool _valid;\n  }\n  struct SpentTotalTuple {\n    uint m;\n    bool _valid;\n  }\n  struct AllowanceTuple {\n    uint n;\n    bool _valid;\n  }\n  struct TotalBurnTuple {\n    uint n;\n    bool _valid;\n  }\n  struct BalanceOfTuple {\n    uint n;\n    bool _valid;\n  }\n  struct AllBurnTuple {\n    uint n;\n    bool _valid;\n  }\n  mapping(address=>TotalInTuple) totalIn;\n  mapping(address=>TotalOutTuple) totalOut;\n  mapping(address=>TotalBurnTuple) totalBurn;\n  OwnerTuple owner;\n  mapping(address=>TotalMintTuple) totalMint;\n  TotalSupplyTuple totalSupply;\n  AllMintTuple allMint;\n  mapping(address=>mapping(address=>AllowanceTotalTuple)) allowanceTotal;\n  mapping(address=>mapping(address=>SpentTotalTuple)) spentTotal;\n  mapping(address=>mapping(address=>AllowanceTuple)) allowance;\n  mapping(address=>BalanceOfTuple) balanceOf;\n  AllBurnTuple allBurn;\n  event TransferFrom(address from,address to,address spender,uint amount);\n  event Burn(address p,uint amount);\n  event Mint(address p,uint amount);\n  event IncreaseAllowance(address p,address s,uint n);\n  event BurnFrom(address p,address from,uint n);\n  event Transfer(address from,address to,uint amount);\n  constructor() public {\n    updateTotalSupplyOnInsertConstructor_r1();\n    updateOwnerOnInsertConstructor_r8();\n    updateTotalBalancesOnInsertConstructor_r22();\n  }\n  function burn(address p,uint amount) public    {\n      bool r5 = updateBurnOnInsertRecv_burn_r5(p,amount);\n      if(r5==false) {\n        revert(\"Rule condition failed\");\n      }\n  }\n  function transfer(address to,uint amount) public    {\n      bool r13 = updateTransferOnInsertRecv_transfer_r13(to,amount);\n      if(r13==false) {\n        revert(\"Rule condition failed\");\n      }\n  }\n  function mint(address p,uint amount) public    {\n      bool r18 = updateMintOnInsertRecv_mint_r18(p,amount);\n      if(r18==false) {\n        revert(\"Rule condition failed\");\n      }\n  }\n  function getTotalSupply() public view  returns (uint) {\n      uint n = totalSupply.n;\n      return n;\n  }\n  function getAllowance(address p,address s) public view  returns (uint) {\n      uint n = allowance[p][s].n;\n      return n;\n  }\n  function getBalanceOf(address p) public view  returns (uint) {\n      uint n = balanceOf[p].n;\n      return n;\n  }\n  function burnFrom(address p,uint n) public    {\n      bool r2 = updateBurnFromOnInsertRecv_burnFrom_r2(p,n);\n      if(r2==false) {\n        revert(\"Rule condition failed\");\n      }\n  }\n  function transferFrom(address from,address to,uint amount) public    {\n      bool r20 = updateTransferFromOnInsertRecv_transferFrom_r20(from,to,amount);\n      if(r20==false) {\n        revert(\"Rule condition failed\");\n      }\n  }\n  function approve(address s,uint n) public    {\n      bool r19 = updateIncreaseAllowanceOnInsertRecv_approve_r19(s,n);\n      if(r19==false) {\n        revert(\"Rule condition failed\");\n      }\n  }\n  function updateTotalSupplyOnIncrementAllBurn_r12(int b) private    {\n      int _delta = int(-b);\n      uint newValue = updateuintByint(totalSupply.n,_delta);\n      totalSupply.n = newValue;\n  }\n  function updateTransferFromOnInsertBurnFrom_r23(address s,address p,uint n) private    {\n      updateTransferOnInsertTransferFrom_r0(s,p,n);\n      updateSpentTotalOnInsertTransferFrom_r7(s,address(0),n);\n      emit TransferFrom(s,p,address(0),n);\n  }\n  function updateTotalOutOnInsertTransfer_r15(address p,uint n) private    {\n      int delta0 = int(n);\n      updateBalanceOfOnIncrementTotalOut_r6(p,delta0);\n      totalOut[p].n += n;\n  }\n  function updateSpentTotalOnInsertTransferFrom_r7(address o,address s,uint n) private    {\n      int delta0 = int(n);\n      updateAllowanceOnIncrementSpentTotal_r17(o,s,delta0);\n      spentTotal[o][s].m += n;\n  }\n  function updateuintByint(uint x,int delta) private   returns (uint) {\n      int convertedX = int(x);\n      int value = convertedX+delta;\n      uint convertedValue = uint(value);\n      return convertedValue;\n  }\n  function updateAllowanceTotalOnInsertIncreaseAllowance_r24(address o,address s,uint n) private    {\n      int delta0 = int(n);\n      updateAllowanceOnIncrementAllowanceTotal_r17(o,s,delta0);\n      allowanceTotal[o][s].m += n;\n  }\n  function updateTotalSupplyOnIncrementAllMint_r12(int m) private    {\n      int _delta = int(m);\n      uint newValue = updateuintByint(totalSupply.n,_delta);\n      totalSupply.n = newValue;\n  }\n  function updateBalanceOfOnIncrementTotalOut_r6(address p,int o) private    {\n      int _delta = int(-o);\n      uint newValue = updateuintByint(balanceOf[p].n,_delta);\n      balanceOf[p].n = newValue;\n  }\n  function updateBurnFromOnInsertRecv_burnFrom_r2(address p,uint n) private   returns (bool) {\n      address s = msg.sender;\n      uint k = allowance[p][s].n;\n      uint m = balanceOf[p].n;\n      if(p!=address(0) && m>=n && k>=m) {\n        updateBurnOnInsertBurnFrom_r14(p,n);\n        updateTransferFromOnInsertBurnFrom_r23(s,p,n);\n        emit BurnFrom(s,p,n);\n        return true;\n      }\n      return false;\n  }\n  function updateOwnerOnInsertConstructor_r8() private    {\n      address s = msg.sender;\n      owner = OwnerTuple(s,true);\n  }\n  function updateBurnOnInsertBurnFrom_r14(address p,uint n) private    {\n      updateTotalBurnOnInsertBurn_r10(p,n);\n      updateAllBurnOnInsertBurn_r21(n);\n      emit Burn(p,n);\n  }\n  function updateBurnOnInsertRecv_burn_r5(address p,uint n) private   returns (bool) {\n      address s = owner.p;\n      if(s==msg.sender) {\n        uint m = balanceOf[p].n;\n        if(p!=address(0) && n<=m) {\n          updateTotalBurnOnInsertBurn_r10(p,n);\n          updateAllBurnOnInsertBurn_r21(n);\n          emit Burn(p,n);\n          return true;\n        }\n      }\n      return false;\n  }\n  function updateTransferFromOnInsertRecv_transferFrom_r20(address o,address r,uint n) private   returns (bool) {\n      address s = msg.sender;\n      uint k = allowance[o][s].n;\n      uint m = balanceOf[o].n;\n      if(m>=n && k>=n) {\n        updateTransferOnInsertTransferFrom_r0(o,r,n);\n        updateSpentTotalOnInsertTransferFrom_r7(o,s,n);\n        emit TransferFrom(o,r,s,n);\n        return true;\n      }\n      return false;\n  }\n  function updateMintOnInsertRecv_mint_r18(address p,uint n) private   returns (bool) {\n      address s = owner.p;\n      if(s==msg.sender) {\n        if(p!=address(0)) {\n          updateAllMintOnInsertMint_r3(n);\n          updateTotalMintOnInsertMint_r11(p,n);\n          emit Mint(p,n);\n          return true;\n        }\n      }\n      return false;\n  }\n  function updateTotalBurnOnInsertBurn_r10(address p,uint n) private    {\n      int delta0 = int(n);\n      updateBalanceOfOnIncrementTotalBurn_r6(p,delta0);\n      totalBurn[p].n += n;\n  }\n  function updateAllowanceOnIncrementSpentTotal_r17(address o,address s,int l) private    {\n      int _delta = int(-l);\n      uint newValue = updateuintByint(allowance[o][s].n,_delta);\n      allowance[o][s].n = newValue;\n  }\n  function updateAllowanceOnIncrementAllowanceTotal_r17(address o,address s,int m) private    {\n      int _delta = int(m);\n      uint newValue = updateuintByint(allowance[o][s].n,_delta);\n      allowance[o][s].n = newValue;\n  }\n  function updateTransferOnInsertTransferFrom_r0(address o,address r,uint n) private    {\n      updateTotalOutOnInsertTransfer_r15(o,n);\n      updateTotalInOnInsertTransfer_r9(r,n);\n      emit Transfer(o,r,n);\n  }\n  function updateTransferOnInsertRecv_transfer_r13(address r,uint n) private   returns (bool) {\n      address s = msg.sender;\n      uint m = balanceOf[s].n;\n      if(n<=m) {\n        updateTotalOutOnInsertTransfer_r15(s,n);\n        updateTotalInOnInsertTransfer_r9(r,n);\n        emit Transfer(s,r,n);\n        return true;\n      }\n      return false;\n  }\n  function updateBalanceOfOnIncrementTotalBurn_r6(address p,int m) private    {\n      int _delta = int(-m);\n      uint newValue = updateuintByint(balanceOf[p].n,_delta);\n      balanceOf[p].n = newValue;\n  }\n  function updateBalanceOfOnIncrementTotalMint_r6(address p,int n) private    {\n      int _delta = int(n);\n      uint newValue = updateuintByint(balanceOf[p].n,_delta);\n      balanceOf[p].n = newValue;\n  }\n  function updateTotalInOnInsertTransfer_r9(address p,uint n) private    {\n      int delta0 = int(n);\n      updateBalanceOfOnIncrementTotalIn_r6(p,delta0);\n      totalIn[p].n += n;\n  }\n  function updateTotalMintOnInsertMint_r11(address p,uint n) private    {\n      int delta0 = int(n);\n      updateBalanceOfOnIncrementTotalMint_r6(p,delta0);\n      totalMint[p].n += n;\n  }\n  function updateTotalSupplyOnInsertConstructor_r1() private    {\n      totalSupply = TotalSupplyTuple(0,true);\n  }\n  function updateAllMintOnInsertMint_r3(uint n) private    {\n      int delta0 = int(n);\n      updateTotalSupplyOnIncrementAllMint_r12(delta0);\n      allMint.n += n;\n  }\n  function updateTotalBalancesOnInsertConstructor_r22() private    {\n      // Empty()\n  }\n  function updateIncreaseAllowanceOnInsertRecv_approve_r19(address s,uint n) private   returns (bool) {\n      address o = msg.sender;\n      uint m = allowance[o][s].n;\n      uint d = n-m;\n      updateAllowanceTotalOnInsertIncreaseAllowance_r24(o,s,d);\n      emit IncreaseAllowance(o,s,d);\n      return true;\n      return false;\n  }\n  function updateBalanceOfOnIncrementTotalIn_r6(address p,int i) private    {\n      int _delta = int(i);\n      uint newValue = updateuintByint(balanceOf[p].n,_delta);\n      balanceOf[p].n = newValue;\n  }\n  function updateAllBurnOnInsertBurn_r21(uint n) private    {\n      int delta0 = int(n);\n      updateTotalSupplyOnIncrementAllBurn_r12(delta0);\n      allBurn.n += n;\n  }\n}",
  "sourcePath": "/home/lan/gasOpt/declarative-smart-contracts/solidity/full/shib.sol",
  "compiler": {
    "name": "solc",
    "version": "0.8.12+commit.f00d7308.Emscripten.clang"
  },
  "schemaVersion": "3.4.14",
  "updatedAt": "2023-09-19T03:58:37.639Z",
  "devdoc": {
    "kind": "dev",
    "methods": {},
    "version": 1
  },
  "userdoc": {
    "kind": "user",
    "methods": {},
    "version": 1
  }
}