{
  "contractName": "Tether",
  "abi": [
    {
      "inputs": [
        {
          "internalType": "uint256",
          "name": "n",
          "type": "uint256"
        }
      ],
      "stateMutability": "nonpayable",
      "type": "constructor"
    },
    {
      "anonymous": false,
      "inputs": [
        {
          "indexed": false,
          "internalType": "address",
          "name": "p",
          "type": "address"
        }
      ],
      "name": "AddBlackList",
      "type": "event"
    },
    {
      "anonymous": false,
      "inputs": [
        {
          "indexed": false,
          "internalType": "address",
          "name": "p",
          "type": "address"
        },
        {
          "indexed": false,
          "internalType": "uint256",
          "name": "n",
          "type": "uint256"
        }
      ],
      "name": "DestroyBlackFund",
      "type": "event"
    },
    {
      "anonymous": false,
      "inputs": [
        {
          "indexed": false,
          "internalType": "address",
          "name": "p",
          "type": "address"
        },
        {
          "indexed": false,
          "internalType": "address",
          "name": "s",
          "type": "address"
        },
        {
          "indexed": false,
          "internalType": "uint256",
          "name": "n",
          "type": "uint256"
        }
      ],
      "name": "IncreaseAllowance",
      "type": "event"
    },
    {
      "anonymous": false,
      "inputs": [
        {
          "indexed": false,
          "internalType": "address",
          "name": "p",
          "type": "address"
        },
        {
          "indexed": false,
          "internalType": "uint256",
          "name": "amount",
          "type": "uint256"
        }
      ],
      "name": "Issue",
      "type": "event"
    },
    {
      "anonymous": false,
      "inputs": [
        {
          "indexed": false,
          "internalType": "address",
          "name": "p",
          "type": "address"
        },
        {
          "indexed": false,
          "internalType": "uint256",
          "name": "amount",
          "type": "uint256"
        }
      ],
      "name": "Redeem",
      "type": "event"
    },
    {
      "anonymous": false,
      "inputs": [
        {
          "indexed": false,
          "internalType": "address",
          "name": "from",
          "type": "address"
        },
        {
          "indexed": false,
          "internalType": "address",
          "name": "to",
          "type": "address"
        },
        {
          "indexed": false,
          "internalType": "address",
          "name": "spender",
          "type": "address"
        },
        {
          "indexed": false,
          "internalType": "uint256",
          "name": "fee",
          "type": "uint256"
        },
        {
          "indexed": false,
          "internalType": "uint256",
          "name": "amount",
          "type": "uint256"
        }
      ],
      "name": "TransferFromWithFee",
      "type": "event"
    },
    {
      "anonymous": false,
      "inputs": [
        {
          "indexed": false,
          "internalType": "address",
          "name": "from",
          "type": "address"
        },
        {
          "indexed": false,
          "internalType": "address",
          "name": "to",
          "type": "address"
        },
        {
          "indexed": false,
          "internalType": "uint256",
          "name": "fee",
          "type": "uint256"
        },
        {
          "indexed": false,
          "internalType": "uint256",
          "name": "amount",
          "type": "uint256"
        }
      ],
      "name": "TransferWithFee",
      "type": "event"
    },
    {
      "inputs": [
        {
          "internalType": "address",
          "name": "to",
          "type": "address"
        },
        {
          "internalType": "uint256",
          "name": "amount",
          "type": "uint256"
        }
      ],
      "name": "transfer",
      "outputs": [],
      "stateMutability": "nonpayable",
      "type": "function"
    },
    {
      "inputs": [
        {
          "internalType": "address",
          "name": "s",
          "type": "address"
        },
        {
          "internalType": "uint256",
          "name": "n",
          "type": "uint256"
        }
      ],
      "name": "approve",
      "outputs": [],
      "stateMutability": "nonpayable",
      "type": "function"
    },
    {
      "inputs": [
        {
          "internalType": "address",
          "name": "p",
          "type": "address"
        },
        {
          "internalType": "uint256",
          "name": "amount",
          "type": "uint256"
        }
      ],
      "name": "issue",
      "outputs": [],
      "stateMutability": "nonpayable",
      "type": "function"
    },
    {
      "inputs": [],
      "name": "getTotalSupply",
      "outputs": [
        {
          "internalType": "uint256",
          "name": "",
          "type": "uint256"
        }
      ],
      "stateMutability": "view",
      "type": "function"
    },
    {
      "inputs": [
        {
          "internalType": "address",
          "name": "p",
          "type": "address"
        },
        {
          "internalType": "uint256",
          "name": "amount",
          "type": "uint256"
        }
      ],
      "name": "redeem",
      "outputs": [],
      "stateMutability": "nonpayable",
      "type": "function"
    },
    {
      "inputs": [
        {
          "internalType": "address",
          "name": "p",
          "type": "address"
        },
        {
          "internalType": "address",
          "name": "s",
          "type": "address"
        }
      ],
      "name": "getAllowance",
      "outputs": [
        {
          "internalType": "uint256",
          "name": "",
          "type": "uint256"
        }
      ],
      "stateMutability": "view",
      "type": "function"
    },
    {
      "inputs": [
        {
          "internalType": "address",
          "name": "p",
          "type": "address"
        }
      ],
      "name": "getBalanceOf",
      "outputs": [
        {
          "internalType": "uint256",
          "name": "",
          "type": "uint256"
        }
      ],
      "stateMutability": "view",
      "type": "function"
    },
    {
      "inputs": [
        {
          "internalType": "address",
          "name": "from",
          "type": "address"
        },
        {
          "internalType": "address",
          "name": "to",
          "type": "address"
        },
        {
          "internalType": "uint256",
          "name": "amount",
          "type": "uint256"
        }
      ],
      "name": "transferFrom",
      "outputs": [],
      "stateMutability": "nonpayable",
      "type": "function"
    }
  ],
  "bytecode": "0x60806040523480156200001157600080fd5b5060405162001e3f38038062001e3f83398181016040528101906200003791906200023d565b620000476200008160201b60201c565b62000058816200012360201b60201c565b6200006981620001b060201b60201c565b6200007a81620001fa60201b60201c565b506200026f565b600033905060405180604001604052808273ffffffffffffffffffffffffffffffffffffffff16815260200160011515815250600360008201518160000160006101000a81548173ffffffffffffffffffffffffffffffffffffffff021916908373ffffffffffffffffffffffffffffffffffffffff16021790555060208201518160000160146101000a81548160ff02191690831515021790555090505050565b6000339050604051806040016040528083815260200160011515815250600f60008373ffffffffffffffffffffffffffffffffffffffff1673ffffffffffffffffffffffffffffffffffffffff1681526020019081526020016000206000820151816000015560208201518160010160006101000a81548160ff0219169083151502179055509050505050565b60405180604001604052808281526020016001151581525060066000820151816000015560208201518160010160006101000a81548160ff02191690831515021790555090505050565b50565b600080fd5b6000819050919050565b620002178162000202565b81146200022357600080fd5b50565b60008151905062000237816200020c565b92915050565b600060208284031215620002565762000255620001fd565b5b6000620002668482850162000226565b91505092915050565b611bc0806200027f6000396000f3fe608060405234801561001057600080fd5b50600436106100885760003560e01c8063867904b41161005b578063867904b4146101115780639b96eece1461012d578063a9059cbb1461015d578063c4e41b221461017957610088565b8063095ea7b31461008d5780630af4187d146100a95780631e9a6950146100d957806323b872dd146100f5575b600080fd5b6100a760048036038101906100a29190611682565b610197565b005b6100c360048036038101906100be91906116c2565b6101f2565b6040516100d09190611711565b60405180910390f35b6100f360048036038101906100ee9190611682565b610281565b005b61010f600480360381019061010a919061172c565b6102dc565b005b61012b60048036038101906101269190611682565b610339565b005b6101476004803603810190610142919061177f565b610394565b6040516101549190611711565b60405180910390f35b61017760048036038101906101729190611682565b6103e5565b005b610181610440565b60405161018e9190611711565b60405180910390f35b60006101a38383610452565b90506000151581151514156101ed576040517f08c379a00000000000000000000000000000000000000000000000000000000081526004016101e490611809565b60405180910390fd5b505050565b600080601060008573ffffffffffffffffffffffffffffffffffffffff1673ffffffffffffffffffffffffffffffffffffffff16815260200190815260200160002060008473ffffffffffffffffffffffffffffffffffffffff1673ffffffffffffffffffffffffffffffffffffffff1681526020019081526020016000206000015490508091505092915050565b600061028d838361053f565b90506000151581151514156102d7576040517f08c379a00000000000000000000000000000000000000000000000000000000081526004016102ce90611809565b60405180910390fd5b505050565b60006102e984848461068c565b9050600015158115151415610333576040517f08c379a000000000000000000000000000000000000000000000000000000000815260040161032a90611809565b60405180910390fd5b50505050565b6000610345838361089e565b905060001515811515141561038f576040517f08c379a000000000000000000000000000000000000000000000000000000000815260040161038690611809565b60405180910390fd5b505050565b600080600f60008473ffffffffffffffffffffffffffffffffffffffff1673ffffffffffffffffffffffffffffffffffffffff16815260200190815260200160002060000154905080915050919050565b60006103f18383610994565b905060001515811515141561043b576040517f08c379a000000000000000000000000000000000000000000000000000000000815260040161043290611809565b60405180910390fd5b505050565b60008060066000015490508091505090565b6000803390506000601060008373ffffffffffffffffffffffffffffffffffffffff1673ffffffffffffffffffffffffffffffffffffffff16815260200190815260200160002060008673ffffffffffffffffffffffffffffffffffffffff1673ffffffffffffffffffffffffffffffffffffffff168152602001908152602001600020600001549050600081856104ea9190611858565b90506104f7838783610c2a565b7f01722f0e92ffd761d4a842cffdd36fe3adb6091e41732a4e714250176b7d8d2283878360405161052a9392919061189b565b60405180910390a16001935050505092915050565b600080600360000160009054906101000a900473ffffffffffffffffffffffffffffffffffffffff1690503373ffffffffffffffffffffffffffffffffffffffff168173ffffffffffffffffffffffffffffffffffffffff161415610680576000600f60008673ffffffffffffffffffffffffffffffffffffffff1673ffffffffffffffffffffffffffffffffffffffff168152602001908152602001600020600001549050600073ffffffffffffffffffffffffffffffffffffffff168573ffffffffffffffffffffffffffffffffffffffff16141580156106225750808411155b1561067e576106318585610cd6565b61063a84610d43565b7f222838db2794d11532d940e8dec38ae307ed0b63cd97c233322e221f998767a6858560405161066b9291906118d2565b60405180910390a1600192505050610686565b505b60009150505b92915050565b60008060166000015490506000600b60000154905060003390506000600f60008973ffffffffffffffffffffffffffffffffffffffff1673ffffffffffffffffffffffffffffffffffffffff168152602001908152602001600020600001549050600860008973ffffffffffffffffffffffffffffffffffffffff1673ffffffffffffffffffffffffffffffffffffffff16815260200190815260200160002060000160009054906101000a900460ff16151560001515141561088e576000601060008a73ffffffffffffffffffffffffffffffffffffffff1673ffffffffffffffffffffffffffffffffffffffff16815260200190815260200160002060008473ffffffffffffffffffffffffffffffffffffffff1673ffffffffffffffffffffffffffffffffffffffff1681526020019081526020016000206000015490508682101580156107dd5750868110155b1561088c5760008461271089886107f491906118fb565b6107fe9190611984565b106108095784610823565b612710888761081891906118fb565b6108229190611984565b5b90506108318a8a8684610d71565b61083e8a8a86848c610db8565b7fbc142226ba12c181c61a3dfcb074262dd02d875cde19fd8731689283de37e5018a8a86848c6040516108759594939291906119b5565b60405180910390a160019650505050505050610897565b505b60009450505050505b9392505050565b600080600360000160009054906101000a900473ffffffffffffffffffffffffffffffffffffffff1690503373ffffffffffffffffffffffffffffffffffffffff168173ffffffffffffffffffffffffffffffffffffffff16141561098857600073ffffffffffffffffffffffffffffffffffffffff168473ffffffffffffffffffffffffffffffffffffffff16146109875761093b8484610de6565b61094483610e53565b7fc65a3f767206d2fdcede0b094a4840e01c0dd0be1888b5ba800346eaa0123c1684846040516109759291906118d2565b60405180910390a1600191505061098e565b5b60009150505b92915050565b60008060166000015490506000600b60000154905060003390506000600f60008373ffffffffffffffffffffffffffffffffffffffff1673ffffffffffffffffffffffffffffffffffffffff168152602001908152602001600020600001549050600860008373ffffffffffffffffffffffffffffffffffffffff1673ffffffffffffffffffffffffffffffffffffffff16815260200190815260200160002060000160009054906101000a900460ff161515600015151415610c1b57808611610c1a576000836127108887610a6a91906118fb565b610a749190611984565b10610a7f5783610a99565b6127108786610a8e91906118fb565b610a989190611984565b5b9050610aa6838983610e81565b610ab28389838a610ec5565b6040518060a001604052808473ffffffffffffffffffffffffffffffffffffffff1681526020018973ffffffffffffffffffffffffffffffffffffffff16815260200182815260200188815260200160011515815250601160008201518160000160006101000a81548173ffffffffffffffffffffffffffffffffffffffff021916908373ffffffffffffffffffffffffffffffffffffffff16021790555060208201518160010160006101000a81548173ffffffffffffffffffffffffffffffffffffffff021916908373ffffffffffffffffffffffffffffffffffffffff160217905550604082015181600201556060820151816003015560808201518160040160006101000a81548160ff0219169083151502179055509050507f98bc3fe7d138931a49691b623c256b8812f2a3d7f9b25ba7098c82538977a5d08389838a604051610c049493929190611a08565b60405180910390a1600195505050505050610c24565b5b60009450505050505b92915050565b6000819050610c3a848483610ef0565b81600a60008673ffffffffffffffffffffffffffffffffffffffff1673ffffffffffffffffffffffffffffffffffffffff16815260200190815260200160002060008573ffffffffffffffffffffffffffffffffffffffff1673ffffffffffffffffffffffffffffffffffffffff1681526020019081526020016000206000016000828254610cc99190611a4d565b9250508190555050505050565b6000819050610ce5838261100d565b81601860008573ffffffffffffffffffffffffffffffffffffffff1673ffffffffffffffffffffffffffffffffffffffff1681526020019081526020016000206000016000828254610d379190611a4d565b92505081905550505050565b6000819050610d51816110b8565b81600d6000016000828254610d669190611a4d565b925050819055505050565b6000600360000160009054906101000a900473ffffffffffffffffffffffffffffffffffffffff169050610da68584846110e8565b610db1858284611194565b5050505050565b60008282610dc69190611858565b9050610dd38685836110e8565b610dde868683611194565b505050505050565b6000819050610df583826111ad565b81600260008573ffffffffffffffffffffffffffffffffffffffff1673ffffffffffffffffffffffffffffffffffffffff1681526020019081526020016000206000016000828254610e479190611a4d565b92505081905550505050565b6000819050610e618161124f565b8160046000016000828254610e769190611a4d565b925050819055505050565b6000600360000160009054906101000a900473ffffffffffffffffffffffffffffffffffffffff169050610eb58183611276565b610ebf84836112e2565b50505050565b60008282610ed39190611858565b9050610edf8482611276565b610ee985826112e2565b5050505050565b60008190506000610f80601060008773ffffffffffffffffffffffffffffffffffffffff1673ffffffffffffffffffffffffffffffffffffffff16815260200190815260200160002060008673ffffffffffffffffffffffffffffffffffffffff1673ffffffffffffffffffffffffffffffffffffffff168152602001908152602001600020600001548361134f565b905080601060008773ffffffffffffffffffffffffffffffffffffffff1673ffffffffffffffffffffffffffffffffffffffff16815260200190815260200160002060008673ffffffffffffffffffffffffffffffffffffffff1673ffffffffffffffffffffffffffffffffffffffff168152602001908152602001600020600001819055505050505050565b60008161101990611aad565b90506000611069600f60008673ffffffffffffffffffffffffffffffffffffffff1673ffffffffffffffffffffffffffffffffffffffff168152602001908152602001600020600001548361134f565b905080600f60008673ffffffffffffffffffffffffffffffffffffffff1673ffffffffffffffffffffffffffffffffffffffff1681526020019081526020016000206000018190555050505050565b6000816110c490611aad565b905060006110d76006600001548361134f565b905080600660000181905550505050565b60008190506110f8848483611376565b81601960008673ffffffffffffffffffffffffffffffffffffffff1673ffffffffffffffffffffffffffffffffffffffff16815260200190815260200160002060008573ffffffffffffffffffffffffffffffffffffffff1673ffffffffffffffffffffffffffffffffffffffff16815260200190815260200160002060000160008282546111879190611a4d565b9250508190555050505050565b61119e8282611276565b6111a883826112e2565b505050565b60008190506000611200600f60008673ffffffffffffffffffffffffffffffffffffffff1673ffffffffffffffffffffffffffffffffffffffff168152602001908152602001600020600001548361134f565b905080600f60008673ffffffffffffffffffffffffffffffffffffffff1673ffffffffffffffffffffffffffffffffffffffff1681526020019081526020016000206000018190555050505050565b600081905060006112656006600001548361134f565b905080600660000181905550505050565b6000819050611285838261149c565b816000808573ffffffffffffffffffffffffffffffffffffffff1673ffffffffffffffffffffffffffffffffffffffff16815260200190815260200160002060000160008282546112d69190611a4d565b92505081905550505050565b60008190506112f1838261153e565b81600160008573ffffffffffffffffffffffffffffffffffffffff1673ffffffffffffffffffffffffffffffffffffffff16815260200190815260200160002060000160008282546113439190611a4d565b92505081905550505050565b600080839050600083826113639190611af6565b9050600081905080935050505092915050565b60008161138290611aad565b9050600061140f601060008773ffffffffffffffffffffffffffffffffffffffff1673ffffffffffffffffffffffffffffffffffffffff16815260200190815260200160002060008673ffffffffffffffffffffffffffffffffffffffff1673ffffffffffffffffffffffffffffffffffffffff168152602001908152602001600020600001548361134f565b905080601060008773ffffffffffffffffffffffffffffffffffffffff1673ffffffffffffffffffffffffffffffffffffffff16815260200190815260200160002060008673ffffffffffffffffffffffffffffffffffffffff1673ffffffffffffffffffffffffffffffffffffffff168152602001908152602001600020600001819055505050505050565b600081905060006114ef600f60008673ffffffffffffffffffffffffffffffffffffffff1673ffffffffffffffffffffffffffffffffffffffff168152602001908152602001600020600001548361134f565b905080600f60008673ffffffffffffffffffffffffffffffffffffffff1673ffffffffffffffffffffffffffffffffffffffff1681526020019081526020016000206000018190555050505050565b60008161154a90611aad565b9050600061159a600f60008673ffffffffffffffffffffffffffffffffffffffff1673ffffffffffffffffffffffffffffffffffffffff168152602001908152602001600020600001548361134f565b905080600f60008673ffffffffffffffffffffffffffffffffffffffff1673ffffffffffffffffffffffffffffffffffffffff1681526020019081526020016000206000018190555050505050565b600080fd5b600073ffffffffffffffffffffffffffffffffffffffff82169050919050565b6000611619826115ee565b9050919050565b6116298161160e565b811461163457600080fd5b50565b60008135905061164681611620565b92915050565b6000819050919050565b61165f8161164c565b811461166a57600080fd5b50565b60008135905061167c81611656565b92915050565b60008060408385031215611699576116986115e9565b5b60006116a785828601611637565b92505060206116b88582860161166d565b9150509250929050565b600080604083850312156116d9576116d86115e9565b5b60006116e785828601611637565b92505060206116f885828601611637565b9150509250929050565b61170b8161164c565b82525050565b60006020820190506117266000830184611702565b92915050565b600080600060608486031215611745576117446115e9565b5b600061175386828701611637565b935050602061176486828701611637565b92505060406117758682870161166d565b9150509250925092565b600060208284031215611795576117946115e9565b5b60006117a384828501611637565b91505092915050565b600082825260208201905092915050565b7f52756c6520636f6e646974696f6e206661696c65640000000000000000000000600082015250565b60006117f36015836117ac565b91506117fe826117bd565b602082019050919050565b60006020820190508181036000830152611822816117e6565b9050919050565b7f4e487b7100000000000000000000000000000000000000000000000000000000600052601160045260246000fd5b60006118638261164c565b915061186e8361164c565b92508282101561188157611880611829565b5b828203905092915050565b6118958161160e565b82525050565b60006060820190506118b0600083018661188c565b6118bd602083018561188c565b6118ca6040830184611702565b949350505050565b60006040820190506118e7600083018561188c565b6118f46020830184611702565b9392505050565b60006119068261164c565b91506119118361164c565b9250817fffffffffffffffffffffffffffffffffffffffffffffffffffffffffffffffff048311821515161561194a57611949611829565b5b828202905092915050565b7f4e487b7100000000000000000000000000000000000000000000000000000000600052601260045260246000fd5b600061198f8261164c565b915061199a8361164c565b9250826119aa576119a9611955565b5b828204905092915050565b600060a0820190506119ca600083018861188c565b6119d7602083018761188c565b6119e4604083018661188c565b6119f16060830185611702565b6119fe6080830184611702565b9695505050505050565b6000608082019050611a1d600083018761188c565b611a2a602083018661188c565b611a376040830185611702565b611a446060830184611702565b95945050505050565b6000611a588261164c565b9150611a638361164c565b9250827fffffffffffffffffffffffffffffffffffffffffffffffffffffffffffffffff03821115611a9857611a97611829565b5b828201905092915050565b6000819050919050565b6000611ab882611aa3565b91507f8000000000000000000000000000000000000000000000000000000000000000821415611aeb57611aea611829565b5b816000039050919050565b6000611b0182611aa3565b9150611b0c83611aa3565b9250817f7fffffffffffffffffffffffffffffffffffffffffffffffffffffffffffffff03831360008312151615611b4757611b46611829565b5b817f8000000000000000000000000000000000000000000000000000000000000000038312600083121615611b7f57611b7e611829565b5b82820190509291505056fea264697066735822122034cdfa303147b96469feb5547a81c5536bc82d8e6c404eee4df4eb896f78be2564736f6c634300080c0033",
  "immutableReferences": {},
  "source": "contract Tether {\n  struct TotalOutTuple {\n    uint n;\n    bool _valid;\n  }\n  struct TotalIssueTuple {\n    uint n;\n    bool _valid;\n  }\n  struct OwnerTuple {\n    address p;\n    bool _valid;\n  }\n  struct AllIssueTuple {\n    uint n;\n    bool _valid;\n  }\n  struct TotalSupplyTuple {\n    uint n;\n    bool _valid;\n  }\n  struct IsBlackListedTuple {\n    bool b;\n    bool _valid;\n  }\n  struct AddBlackListTuple {\n    address p;\n    bool _valid;\n  }\n  struct AllowanceTotalTuple {\n    uint m;\n    bool _valid;\n  }\n  struct MaxFeeTuple {\n    uint m;\n    bool _valid;\n  }\n  struct AllRedeemTuple {\n    uint n;\n    bool _valid;\n  }\n  struct BalanceOfTuple {\n    uint n;\n    bool _valid;\n  }\n  struct TotalInTuple {\n    uint n;\n    bool _valid;\n  }\n  struct TransferWithFeeTuple {\n    address from;\n    address to;\n    uint fee;\n    uint amount;\n    bool _valid;\n  }\n  struct RateTuple {\n    uint r;\n    bool _valid;\n  }\n  struct TotalRedeemTuple {\n    uint n;\n    bool _valid;\n  }\n  struct SpentTotalTuple {\n    uint m;\n    bool _valid;\n  }\n  struct AllowanceTuple {\n    uint n;\n    bool _valid;\n  }\n  mapping(address=>TotalInTuple) totalIn;\n  mapping(address=>TotalOutTuple) totalOut;\n  mapping(address=>TotalIssueTuple) totalIssue;\n  OwnerTuple owner;\n  AllIssueTuple allIssue;\n  TotalSupplyTuple totalSupply;\n  mapping(address=>IsBlackListedTuple) isBlackListed;\n  AddBlackListTuple addBlackList;\n  mapping(address=>mapping(address=>AllowanceTotalTuple)) allowanceTotal;\n  MaxFeeTuple maxFee;\n  AllRedeemTuple allRedeem;\n  mapping(address=>BalanceOfTuple) balanceOf;\n  mapping(address=>mapping(address=>AllowanceTuple)) allowance;\n  TransferWithFeeTuple transferWithFee;\n  RateTuple rate;\n  mapping(address=>TotalRedeemTuple) totalRedeem;\n  mapping(address=>mapping(address=>SpentTotalTuple)) spentTotal;\n  event Issue(address p,uint amount);\n  event AddBlackList(address p);\n  event TransferFromWithFee(address from,address to,address spender,uint fee,uint amount);\n  event Redeem(address p,uint amount);\n  event IncreaseAllowance(address p,address s,uint n);\n  event TransferWithFee(address from,address to,uint fee,uint amount);\n  event DestroyBlackFund(address p,uint n);\n  constructor(uint n) public {\n    updateOwnerOnInsertConstructor_r24();\n    updateBalanceOfOnInsertConstructor_r8(n);\n    updateTotalSupplyOnInsertConstructor_r22(n);\n    updateTotalBalancesOnInsertConstructor_r29(n);\n  }\n  function transfer(address to,uint amount) public    {\n      bool r7 = updateTransferWithFeeOnInsertRecv_transfer_r7(to,amount);\n      if(r7==false) {\n        revert(\"Rule condition failed\");\n      }\n  }\n  function approve(address s,uint n) public    {\n      bool r26 = updateIncreaseAllowanceOnInsertRecv_approve_r26(s,n);\n      if(r26==false) {\n        revert(\"Rule condition failed\");\n      }\n  }\n  function issue(address p,uint amount) public    {\n      bool r11 = updateIssueOnInsertRecv_issue_r11(p,amount);\n      if(r11==false) {\n        revert(\"Rule condition failed\");\n      }\n  }\n  function getTotalSupply() public view  returns (uint) {\n      uint n = totalSupply.n;\n      return n;\n  }\n  function redeem(address p,uint amount) public    {\n      bool r25 = updateRedeemOnInsertRecv_redeem_r25(p,amount);\n      if(r25==false) {\n        revert(\"Rule condition failed\");\n      }\n  }\n  function getAllowance(address p,address s) public view  returns (uint) {\n      uint n = allowance[p][s].n;\n      return n;\n  }\n  function getBalanceOf(address p) public view  returns (uint) {\n      uint n = balanceOf[p].n;\n      return n;\n  }\n  function transferFrom(address from,address to,uint amount) public    {\n      bool r0 = updateTransferFromWithFeeOnInsertRecv_transferFrom_r0(from,to,amount);\n      if(r0==false) {\n        revert(\"Rule condition failed\");\n      }\n  }\n  function updateTransferFromWithFeeOnInsertRecv_transferFrom_r0(address o,address r,uint n) private   returns (bool) {\n      uint rt = rate.r;\n      uint mf = maxFee.m;\n      address s = msg.sender;\n      uint m = balanceOf[o].n;\n      if(false==isBlackListed[o].b) {\n        uint k = allowance[o][s].n;\n        if(m>=n && k>=n) {\n          uint f = (rt*n)/10000 < mf ? (rt*n)/10000 : mf;\n          updateTransferFromOnInsertTransferFromWithFee_r10(o,r,s,f);\n          updateTransferFromOnInsertTransferFromWithFee_r18(o,r,s,f,n);\n          emit TransferFromWithFee(o,r,s,f,n);\n          return true;\n        }\n      }\n      return false;\n  }\n  function updateTransferWithFeeOnInsertRecv_transfer_r7(address r,uint n) private   returns (bool) {\n      uint rt = rate.r;\n      uint mf = maxFee.m;\n      address s = msg.sender;\n      uint m = balanceOf[s].n;\n      if(false==isBlackListed[s].b) {\n        if(n<=m) {\n          uint f = (rt*n)/10000 < mf ? (rt*n)/10000 : mf;\n          updateTransferOnInsertTransferWithFee_r3(s,r,f);\n          updateTransferOnInsertTransferWithFee_r17(s,r,f,n);\n          transferWithFee = TransferWithFeeTuple(s,r,f,n,true);\n          emit TransferWithFee(s,r,f,n);\n          return true;\n        }\n      }\n      return false;\n  }\n  function updateTransferFromOnInsertTransferFromWithFee_r18(address o,address r,address s,uint f,uint n) private    {\n      uint m = n-f;\n      updateSpentTotalOnInsertTransferFrom_r21(o,s,m);\n      updateTransferOnInsertTransferFrom_r1(o,r,m);\n  }\n  function updateBalanceOfOnInsertConstructor_r8(uint n) private    {\n      address s = msg.sender;\n      balanceOf[s] = BalanceOfTuple(n,true);\n  }\n  function updateIncreaseAllowanceOnInsertRecv_approve_r26(address s,uint n) private   returns (bool) {\n      address o = msg.sender;\n      uint m = allowance[o][s].n;\n      uint d = n-m;\n      updateAllowanceTotalOnInsertIncreaseAllowance_r30(o,s,d);\n      emit IncreaseAllowance(o,s,d);\n      return true;\n      return false;\n  }\n  function updateTransferFromOnInsertTransferFromWithFee_r10(address o,address r,address s,uint f) private    {\n      address p = owner.p;\n      updateSpentTotalOnInsertTransferFrom_r21(o,s,f);\n      updateTransferOnInsertTransferFrom_r1(o,p,f);\n  }\n  function updateTotalBalancesOnInsertConstructor_r29(uint n) private    {\n      // Empty()\n  }\n  function updateAllRedeemOnInsertRedeem_r13(uint n) private    {\n      int delta0 = int(n);\n      updateTotalSupplyOnIncrementAllRedeem_r2(delta0);\n      allRedeem.n += n;\n  }\n  function updateTransferOnInsertTransferWithFee_r3(address s,address r,uint f) private    {\n      address o = owner.p;\n      updateTotalInOnInsertTransfer_r28(o,f);\n      updateTotalOutOnInsertTransfer_r19(s,f);\n  }\n  function updateTotalOutOnInsertTransfer_r19(address p,uint n) private    {\n      int delta0 = int(n);\n      updateBalanceOfOnIncrementTotalOut_r6(p,delta0);\n      totalOut[p].n += n;\n  }\n  function updateTotalSupplyOnIncrementAllIssue_r2(int m) private    {\n      int _delta = int(m);\n      uint newValue = updateuintByint(totalSupply.n,_delta);\n      totalSupply.n = newValue;\n  }\n  function updateBalanceOfOnIncrementTotalOut_r6(address p,int o) private    {\n      int _delta = int(-o);\n      uint newValue = updateuintByint(balanceOf[p].n,_delta);\n      balanceOf[p].n = newValue;\n  }\n  function updateAllIssueOnInsertIssue_r27(uint n) private    {\n      int delta0 = int(n);\n      updateTotalSupplyOnIncrementAllIssue_r2(delta0);\n      allIssue.n += n;\n  }\n  function updateTotalSupplyOnIncrementAllRedeem_r2(int b) private    {\n      int _delta = int(-b);\n      uint newValue = updateuintByint(totalSupply.n,_delta);\n      totalSupply.n = newValue;\n  }\n  function updateTotalRedeemOnInsertRedeem_r15(address p,uint n) private    {\n      int delta0 = int(n);\n      updateBalanceOfOnIncrementTotalRedeem_r6(p,delta0);\n      totalRedeem[p].n += n;\n  }\n  function updateTransferOnInsertTransferFrom_r1(address o,address r,uint n) private    {\n      updateTotalInOnInsertTransfer_r28(r,n);\n      updateTotalOutOnInsertTransfer_r19(o,n);\n  }\n  function updateAllowanceTotalOnInsertIncreaseAllowance_r30(address o,address s,uint n) private    {\n      int delta0 = int(n);\n      updateAllowanceOnIncrementAllowanceTotal_r12(o,s,delta0);\n      allowanceTotal[o][s].m += n;\n  }\n  function updateTotalIssueOnInsertIssue_r23(address p,uint n) private    {\n      int delta0 = int(n);\n      updateBalanceOfOnIncrementTotalIssue_r6(p,delta0);\n      totalIssue[p].n += n;\n  }\n  function updateBalanceOfOnIncrementTotalRedeem_r6(address p,int m) private    {\n      int _delta = int(-m);\n      uint newValue = updateuintByint(balanceOf[p].n,_delta);\n      balanceOf[p].n = newValue;\n  }\n  function updateRedeemOnInsertRecv_redeem_r25(address p,uint n) private   returns (bool) {\n      address s = owner.p;\n      if(s==msg.sender) {\n        uint m = balanceOf[p].n;\n        if(p!=address(0) && n<=m) {\n          updateTotalRedeemOnInsertRedeem_r15(p,n);\n          updateAllRedeemOnInsertRedeem_r13(n);\n          emit Redeem(p,n);\n          return true;\n        }\n      }\n      return false;\n  }\n  function updateOwnerOnInsertConstructor_r24() private    {\n      address s = msg.sender;\n      owner = OwnerTuple(s,true);\n  }\n  function updateSpentTotalOnInsertTransferFrom_r21(address o,address s,uint n) private    {\n      int delta0 = int(n);\n      updateAllowanceOnIncrementSpentTotal_r12(o,s,delta0);\n      spentTotal[o][s].m += n;\n  }\n  function updateuintByint(uint x,int delta) private   returns (uint) {\n      int convertedX = int(x);\n      int value = convertedX+delta;\n      uint convertedValue = uint(value);\n      return convertedValue;\n  }\n  function updateAllowanceOnIncrementAllowanceTotal_r12(address o,address s,int m) private    {\n      int _delta = int(m);\n      uint newValue = updateuintByint(allowance[o][s].n,_delta);\n      allowance[o][s].n = newValue;\n  }\n  function updateTotalInOnInsertTransfer_r28(address p,uint n) private    {\n      int delta0 = int(n);\n      updateBalanceOfOnIncrementTotalIn_r6(p,delta0);\n      totalIn[p].n += n;\n  }\n  function updateTransferOnInsertTransferWithFee_r17(address s,address r,uint f,uint n) private    {\n      uint m = n-f;\n      updateTotalInOnInsertTransfer_r28(r,m);\n      updateTotalOutOnInsertTransfer_r19(s,m);\n  }\n  function updateIssueOnInsertRecv_issue_r11(address p,uint n) private   returns (bool) {\n      address s = owner.p;\n      if(s==msg.sender) {\n        if(p!=address(0)) {\n          updateTotalIssueOnInsertIssue_r23(p,n);\n          updateAllIssueOnInsertIssue_r27(n);\n          emit Issue(p,n);\n          return true;\n        }\n      }\n      return false;\n  }\n  function updateAllowanceOnIncrementSpentTotal_r12(address o,address s,int l) private    {\n      int _delta = int(-l);\n      uint newValue = updateuintByint(allowance[o][s].n,_delta);\n      allowance[o][s].n = newValue;\n  }\n  function updateTotalSupplyOnInsertConstructor_r22(uint n) private    {\n      totalSupply = TotalSupplyTuple(n,true);\n  }\n  function updateBalanceOfOnIncrementTotalIn_r6(address p,int i) private    {\n      int _delta = int(i);\n      uint newValue = updateuintByint(balanceOf[p].n,_delta);\n      balanceOf[p].n = newValue;\n  }\n  function updateBalanceOfOnIncrementTotalIssue_r6(address p,int n) private    {\n      int _delta = int(n);\n      uint newValue = updateuintByint(balanceOf[p].n,_delta);\n      balanceOf[p].n = newValue;\n  }\n}",
  "sourcePath": "/home/lan/gasOpt/declarative-smart-contracts/solidity/full/tether.sol",
  "compiler": {
    "name": "solc",
    "version": "0.8.12+commit.f00d7308.Emscripten.clang"
  },
  "schemaVersion": "3.4.14",
  "updatedAt": "2023-09-19T03:58:30.093Z",
  "devdoc": {
    "kind": "dev",
    "methods": {},
    "version": 1
  },
  "userdoc": {
    "kind": "user",
    "methods": {},
    "version": 1
  }
}