{
  "contractName": "TokenPartition",
  "abi": [
    {
      "inputs": [],
      "stateMutability": "nonpayable",
      "type": "constructor"
    },
    {
      "anonymous": false,
      "inputs": [
        {
          "indexed": false,
          "internalType": "address",
          "name": "p",
          "type": "address"
        },
        {
          "indexed": false,
          "internalType": "uint256",
          "name": "q",
          "type": "uint256"
        },
        {
          "indexed": false,
          "internalType": "uint256",
          "name": "amount",
          "type": "uint256"
        }
      ],
      "name": "IssueByPartition",
      "type": "event"
    },
    {
      "anonymous": false,
      "inputs": [
        {
          "indexed": false,
          "internalType": "address",
          "name": "p",
          "type": "address"
        },
        {
          "indexed": false,
          "internalType": "uint256",
          "name": "q",
          "type": "uint256"
        },
        {
          "indexed": false,
          "internalType": "uint256",
          "name": "amount",
          "type": "uint256"
        }
      ],
      "name": "RedeemByPartition",
      "type": "event"
    },
    {
      "anonymous": false,
      "inputs": [
        {
          "indexed": false,
          "internalType": "address",
          "name": "from",
          "type": "address"
        },
        {
          "indexed": false,
          "internalType": "address",
          "name": "to",
          "type": "address"
        },
        {
          "indexed": false,
          "internalType": "uint256",
          "name": "q",
          "type": "uint256"
        },
        {
          "indexed": false,
          "internalType": "uint256",
          "name": "amount",
          "type": "uint256"
        }
      ],
      "name": "TransferByPartition",
      "type": "event"
    },
    {
      "inputs": [
        {
          "internalType": "address",
          "name": "p",
          "type": "address"
        },
        {
          "internalType": "uint256",
          "name": "q",
          "type": "uint256"
        },
        {
          "internalType": "uint256",
          "name": "amount",
          "type": "uint256"
        }
      ],
      "name": "redeemByPartition",
      "outputs": [],
      "stateMutability": "nonpayable",
      "type": "function"
    },
    {
      "inputs": [
        {
          "internalType": "address",
          "name": "p",
          "type": "address"
        },
        {
          "internalType": "uint256",
          "name": "q",
          "type": "uint256"
        },
        {
          "internalType": "uint256",
          "name": "amount",
          "type": "uint256"
        }
      ],
      "name": "issueByPartition",
      "outputs": [],
      "stateMutability": "nonpayable",
      "type": "function"
    },
    {
      "inputs": [],
      "name": "getTotalSupply",
      "outputs": [
        {
          "internalType": "uint256",
          "name": "",
          "type": "uint256"
        }
      ],
      "stateMutability": "view",
      "type": "function"
    },
    {
      "inputs": [
        {
          "internalType": "address",
          "name": "to",
          "type": "address"
        },
        {
          "internalType": "uint256",
          "name": "q",
          "type": "uint256"
        },
        {
          "internalType": "uint256",
          "name": "amount",
          "type": "uint256"
        }
      ],
      "name": "transferByPartition",
      "outputs": [],
      "stateMutability": "nonpayable",
      "type": "function"
    },
    {
      "inputs": [
        {
          "internalType": "uint256",
          "name": "q",
          "type": "uint256"
        }
      ],
      "name": "getTotalSupplyByPartition",
      "outputs": [
        {
          "internalType": "uint256",
          "name": "",
          "type": "uint256"
        }
      ],
      "stateMutability": "view",
      "type": "function"
    },
    {
      "inputs": [
        {
          "internalType": "address",
          "name": "p",
          "type": "address"
        },
        {
          "internalType": "uint256",
          "name": "q",
          "type": "uint256"
        }
      ],
      "name": "getBalanceOfByPartition",
      "outputs": [
        {
          "internalType": "uint256",
          "name": "",
          "type": "uint256"
        }
      ],
      "stateMutability": "view",
      "type": "function"
    }
  ],
  "bytecode": "0x608060405234801561001057600080fd5b5061001f61003260201b60201c565b61002d6100d460201b60201c565b61011e565b600033905060405180604001604052808273ffffffffffffffffffffffffffffffffffffffff16815260200160011515815250600160008201518160000160006101000a81548173ffffffffffffffffffffffffffffffffffffffff021916908373ffffffffffffffffffffffffffffffffffffffff16021790555060208201518160000160146101000a81548160ff02191690831515021790555090505050565b6040518060400160405280600081526020016001151581525060056000820151816000015560208201518160010160006101000a81548160ff021916908315150217905550905050565b6111768061012d6000396000f3fe608060405234801561001057600080fd5b50600436106100625760003560e01c806339565f9b146100675780633af945c6146100975780633cccec3f146100b35780635f460b9a146100e3578063c0ec9235146100ff578063c4e41b221461011b575b600080fd5b610081600480360381019061007c9190610de2565b610139565b60405161008e9190610e31565b60405180910390f35b6100b160048036038101906100ac9190610e4c565b61019c565b005b6100cd60048036038101906100c89190610e9f565b6101f9565b6040516100da9190610e31565b60405180910390f35b6100fd60048036038101906100f89190610e4c565b61021e565b005b61011960048036038101906101149190610e4c565b61027b565b005b6101236102d8565b6040516101309190610e31565b60405180910390f35b600080600e60008573ffffffffffffffffffffffffffffffffffffffff1673ffffffffffffffffffffffffffffffffffffffff16815260200190815260200160002060008481526020019081526020016000206000015490508091505092915050565b60006101a98484846102ea565b90506000151581151514156101f3576040517f08c379a00000000000000000000000000000000000000000000000000000000081526004016101ea90610f29565b60405180910390fd5b50505050565b6000806002600084815260200190815260200160002060000154905080915050919050565b600061022b8484846103ee565b9050600015158115151415610275576040517f08c379a000000000000000000000000000000000000000000000000000000000815260040161026c90610f29565b60405180910390fd5b50505050565b60006102888484846104bf565b90506000151581151514156102d2576040517f08c379a00000000000000000000000000000000000000000000000000000000081526004016102c990610f29565b60405180910390fd5b50505050565b60008060056000015490508091505090565b600080600160000160009054906101000a900473ffffffffffffffffffffffffffffffffffffffff1690503373ffffffffffffffffffffffffffffffffffffffff168173ffffffffffffffffffffffffffffffffffffffff1614156103e157600073ffffffffffffffffffffffffffffffffffffffff168573ffffffffffffffffffffffffffffffffffffffff16146103e057610387848461062b565b61039285858561066c565b61039b836106ec565b7f68392e197461e10c2907eca8773aba23eb28a3e1dce30fb821fc2ea9fa2bfc308585856040516103ce93929190610f58565b60405180910390a160019150506103e7565b5b60009150505b9392505050565b6000803390506000600e60008373ffffffffffffffffffffffffffffffffffffffff1673ffffffffffffffffffffffffffffffffffffffff16815260200190815260200160002060008681526020019081526020016000206000015490508084116104b15761045e82868661071a565b610469868686610799565b7f2e89792969c5136f86341022b526f617ccf14cd145adf6258b8430cb072ea63e8287878760405161049e9493929190610f8f565b60405180910390a16001925050506104b8565b6000925050505b9392505050565b600080600160000160009054906101000a900473ffffffffffffffffffffffffffffffffffffffff1690503373ffffffffffffffffffffffffffffffffffffffff168173ffffffffffffffffffffffffffffffffffffffff16141561061e576000600e60008773ffffffffffffffffffffffffffffffffffffffff1673ffffffffffffffffffffffffffffffffffffffff1681526020019081526020016000206000868152602001908152602001600020600001549050600073ffffffffffffffffffffffffffffffffffffffff168673ffffffffffffffffffffffffffffffffffffffff16141580156105b35750808411155b1561061c576105c3868686610819565b6105cd8585610899565b6105d6846108da565b7ff3cd0e59a15e6fd436145b9676f7337323d6c6d19b53f49a2b73ecf334af809b86868660405161060993929190610f58565b60405180910390a1600192505050610624565b505b60009150505b9392505050565b600081905061063a8382610908565b816004600085815260200190815260200160002060000160008282546106609190611003565b92505081905550505050565b600081905061067c848483610952565b81600860008673ffffffffffffffffffffffffffffffffffffffff1673ffffffffffffffffffffffffffffffffffffffff168152602001908152602001600020600085815260200190815260200160002060000160008282546106df9190611003565b9250508190555050505050565b60008190506106fa81610a17565b81600c600001600082825461070f9190611003565b925050819055505050565b600081905061072a848483610a3e565b816000808673ffffffffffffffffffffffffffffffffffffffff1673ffffffffffffffffffffffffffffffffffffffff1681526020019081526020016000206000858152602001908152602001600020600001600082825461078c9190611003565b9250508190555050505050565b60008190506107a9848483610b0c565b81600760008673ffffffffffffffffffffffffffffffffffffffff1673ffffffffffffffffffffffffffffffffffffffff1681526020019081526020016000206000858152602001908152602001600020600001600082825461080c9190611003565b9250508190555050505050565b6000819050610829848483610bd1565b81600360008673ffffffffffffffffffffffffffffffffffffffff1673ffffffffffffffffffffffffffffffffffffffff1681526020019081526020016000206000858152602001908152602001600020600001600082825461088c9190611003565b9250508190555050505050565b60008190506108a88382610c9f565b81600b600085815260200190815260200160002060000160008282546108ce9190611003565b92505081905550505050565b60008190506108e881610cf2565b81600960000160008282546108fd9190611003565b925050819055505050565b6000819050600061092f600260008681526020019081526020016000206000015483610d22565b905080600260008681526020019081526020016000206000018190555050505050565b600081905060006109b6600e60008773ffffffffffffffffffffffffffffffffffffffff1673ffffffffffffffffffffffffffffffffffffffff16815260200190815260200160002060008681526020019081526020016000206000015483610d22565b905080600e60008773ffffffffffffffffffffffffffffffffffffffff1673ffffffffffffffffffffffffffffffffffffffff1681526020019081526020016000206000868152602001908152602001600020600001819055505050505050565b60008190506000610a2d60056000015483610d22565b905080600560000181905550505050565b600081610a4a90611063565b90506000610aab600e60008773ffffffffffffffffffffffffffffffffffffffff1673ffffffffffffffffffffffffffffffffffffffff16815260200190815260200160002060008681526020019081526020016000206000015483610d22565b905080600e60008773ffffffffffffffffffffffffffffffffffffffff1673ffffffffffffffffffffffffffffffffffffffff1681526020019081526020016000206000868152602001908152602001600020600001819055505050505050565b60008190506000610b70600e60008773ffffffffffffffffffffffffffffffffffffffff1673ffffffffffffffffffffffffffffffffffffffff16815260200190815260200160002060008681526020019081526020016000206000015483610d22565b905080600e60008773ffffffffffffffffffffffffffffffffffffffff1673ffffffffffffffffffffffffffffffffffffffff1681526020019081526020016000206000868152602001908152602001600020600001819055505050505050565b600081610bdd90611063565b90506000610c3e600e60008773ffffffffffffffffffffffffffffffffffffffff1673ffffffffffffffffffffffffffffffffffffffff16815260200190815260200160002060008681526020019081526020016000206000015483610d22565b905080600e60008773ffffffffffffffffffffffffffffffffffffffff1673ffffffffffffffffffffffffffffffffffffffff1681526020019081526020016000206000868152602001908152602001600020600001819055505050505050565b600081610cab90611063565b90506000610ccf600260008681526020019081526020016000206000015483610d22565b905080600260008681526020019081526020016000206000018190555050505050565b600081610cfe90611063565b90506000610d1160056000015483610d22565b905080600560000181905550505050565b60008083905060008382610d3691906110ac565b9050600081905080935050505092915050565b600080fd5b600073ffffffffffffffffffffffffffffffffffffffff82169050919050565b6000610d7982610d4e565b9050919050565b610d8981610d6e565b8114610d9457600080fd5b50565b600081359050610da681610d80565b92915050565b6000819050919050565b610dbf81610dac565b8114610dca57600080fd5b50565b600081359050610ddc81610db6565b92915050565b60008060408385031215610df957610df8610d49565b5b6000610e0785828601610d97565b9250506020610e1885828601610dcd565b9150509250929050565b610e2b81610dac565b82525050565b6000602082019050610e466000830184610e22565b92915050565b600080600060608486031215610e6557610e64610d49565b5b6000610e7386828701610d97565b9350506020610e8486828701610dcd565b9250506040610e9586828701610dcd565b9150509250925092565b600060208284031215610eb557610eb4610d49565b5b6000610ec384828501610dcd565b91505092915050565b600082825260208201905092915050565b7f52756c6520636f6e646974696f6e206661696c65640000000000000000000000600082015250565b6000610f13601583610ecc565b9150610f1e82610edd565b602082019050919050565b60006020820190508181036000830152610f4281610f06565b9050919050565b610f5281610d6e565b82525050565b6000606082019050610f6d6000830186610f49565b610f7a6020830185610e22565b610f876040830184610e22565b949350505050565b6000608082019050610fa46000830187610f49565b610fb16020830186610f49565b610fbe6040830185610e22565b610fcb6060830184610e22565b95945050505050565b7f4e487b7100000000000000000000000000000000000000000000000000000000600052601160045260246000fd5b600061100e82610dac565b915061101983610dac565b9250827fffffffffffffffffffffffffffffffffffffffffffffffffffffffffffffffff0382111561104e5761104d610fd4565b5b828201905092915050565b6000819050919050565b600061106e82611059565b91507f80000000000000000000000000000000000000000000000000000000000000008214156110a1576110a0610fd4565b5b816000039050919050565b60006110b782611059565b91506110c283611059565b9250817f7fffffffffffffffffffffffffffffffffffffffffffffffffffffffffffffff038313600083121516156110fd576110fc610fd4565b5b817f800000000000000000000000000000000000000000000000000000000000000003831260008312161561113557611134610fd4565b5b82820190509291505056fea26469706673582212209ae14eceea255dfd8a9c0d4992665e79ca267bd86384ce202c27c0e2874f1b2264736f6c634300080c0033",
  "immutableReferences": {},
  "source": "contract TokenPartition {\n  struct OwnerTuple {\n    address p;\n    bool _valid;\n  }\n  struct TotalSupplyByPartitionTuple {\n    uint n;\n    bool _valid;\n  }\n  struct TotalBurnTuple {\n    uint n;\n    bool _valid;\n  }\n  struct IssueTotalByPartitionTuple {\n    uint n;\n    bool _valid;\n  }\n  struct TotalSupplyTuple {\n    uint n;\n    bool _valid;\n  }\n  struct TotalInTuple {\n    uint n;\n    bool _valid;\n  }\n  struct TotalMintTuple {\n    uint n;\n    bool _valid;\n  }\n  struct AllBurnTuple {\n    uint n;\n    bool _valid;\n  }\n  struct RedeemTotalByPartitionTuple {\n    uint n;\n    bool _valid;\n  }\n  struct TotalOutTuple {\n    uint n;\n    bool _valid;\n  }\n  struct AllMintTuple {\n    uint n;\n    bool _valid;\n  }\n  struct BalanceOfByPartitionTuple {\n    uint n;\n    bool _valid;\n  }\n  mapping(address=>mapping(uint=>TotalOutTuple)) totalOut;\n  OwnerTuple owner;\n  mapping(uint=>TotalSupplyByPartitionTuple) totalSupplyByPartition;\n  mapping(address=>mapping(uint=>TotalBurnTuple)) totalBurn;\n  mapping(uint=>IssueTotalByPartitionTuple) issueTotalByPartition;\n  TotalSupplyTuple totalSupply;\n  mapping(address=>mapping(uint=>TotalInTuple)) totalIn;\n  mapping(address=>mapping(uint=>TotalMintTuple)) totalMint;\n  AllBurnTuple allBurn;\n  mapping(uint=>RedeemTotalByPartitionTuple) redeemTotalByPartition;\n  AllMintTuple allMint;\n  mapping(address=>mapping(uint=>BalanceOfByPartitionTuple)) balanceOfByPartition;\n  event TransferByPartition(address from,address to,uint q,uint amount);\n  event IssueByPartition(address p,uint q,uint amount);\n  event RedeemByPartition(address p,uint q,uint amount);\n  constructor() public {\n    updateOwnerOnInsertConstructor_r11();\n    updateTotalSupplyOnInsertConstructor_r3();\n  }\n  function redeemByPartition(address p,uint q,uint amount) public    {\n      bool r9 = updateRedeemByPartitionOnInsertRecv_redeemByPartition_r9(p,q,amount);\n      if(r9==false) {\n        revert(\"Rule condition failed\");\n      }\n  }\n  function issueByPartition(address p,uint q,uint amount) public    {\n      bool r1 = updateIssueByPartitionOnInsertRecv_issueByPartition_r1(p,q,amount);\n      if(r1==false) {\n        revert(\"Rule condition failed\");\n      }\n  }\n  function getTotalSupply() public view  returns (uint) {\n      uint n = totalSupply.n;\n      return n;\n  }\n  function transferByPartition(address to,uint q,uint amount) public    {\n      bool r17 = updateTransferByPartitionOnInsertRecv_transferByPartition_r17(to,q,amount);\n      if(r17==false) {\n        revert(\"Rule condition failed\");\n      }\n  }\n  function getTotalSupplyByPartition(uint q) public view  returns (uint) {\n      uint n = totalSupplyByPartition[q].n;\n      return n;\n  }\n  function getBalanceOfByPartition(address p,uint q) public view  returns (uint) {\n      uint n = balanceOfByPartition[p][q].n;\n      return n;\n  }\n  function updateTotalSupplyOnIncrementAllMint_r7(int m) private    {\n      int _delta = int(m);\n      uint newValue = updateuintByint(totalSupply.n,_delta);\n      totalSupply.n = newValue;\n  }\n  function updateIssueByPartitionOnInsertRecv_issueByPartition_r1(address p,uint q,uint n) private   returns (bool) {\n      address s = owner.p;\n      if(s==msg.sender) {\n        if(p!=address(0)) {\n          updateIssueTotalByPartitionOnInsertIssueByPartition_r5(q,n);\n          updateTotalMintOnInsertIssueByPartition_r8(p,q,n);\n          updateAllMintOnInsertIssueByPartition_r0(n);\n          emit IssueByPartition(p,q,n);\n          return true;\n        }\n      }\n      return false;\n  }\n  function updateRedeemByPartitionOnInsertRecv_redeemByPartition_r9(address p,uint q,uint n) private   returns (bool) {\n      address s = owner.p;\n      if(s==msg.sender) {\n        uint m = balanceOfByPartition[p][q].n;\n        if(p!=address(0) && n<=m) {\n          updateTotalBurnOnInsertRedeemByPartition_r14(p,q,n);\n          updateRedeemTotalByPartitionOnInsertRedeemByPartition_r13(q,n);\n          updateAllBurnOnInsertRedeemByPartition_r10(n);\n          emit RedeemByPartition(p,q,n);\n          return true;\n        }\n      }\n      return false;\n  }\n  function updateTotalSupplyOnIncrementAllBurn_r7(int b) private    {\n      int _delta = int(-b);\n      uint newValue = updateuintByint(totalSupply.n,_delta);\n      totalSupply.n = newValue;\n  }\n  function updateTotalMintOnInsertIssueByPartition_r8(address p,uint q,uint n) private    {\n      int delta0 = int(n);\n      updateBalanceOfByPartitionOnIncrementTotalMint_r16(p,q,delta0);\n      totalMint[p][q].n += n;\n  }\n  function updateIssueTotalByPartitionOnInsertIssueByPartition_r5(uint q,uint n) private    {\n      int delta0 = int(n);\n      updateTotalSupplyByPartitionOnIncrementIssueTotalByPartition_r4(q,delta0);\n      issueTotalByPartition[q].n += n;\n  }\n  function updateTotalInOnInsertTransferByPartition_r15(address p,uint q,uint n) private    {\n      int delta0 = int(n);\n      updateBalanceOfByPartitionOnIncrementTotalIn_r16(p,q,delta0);\n      totalIn[p][q].n += n;\n  }\n  function updateTotalSupplyByPartitionOnIncrementRedeemTotalByPartition_r4(uint q,int r) private    {\n      int _delta = int(-r);\n      uint newValue = updateuintByint(totalSupplyByPartition[q].n,_delta);\n      totalSupplyByPartition[q].n = newValue;\n  }\n  function updateTotalSupplyOnInsertConstructor_r3() private    {\n      totalSupply = TotalSupplyTuple(0,true);\n  }\n  function updateRedeemTotalByPartitionOnInsertRedeemByPartition_r13(uint q,uint n) private    {\n      int delta0 = int(n);\n      updateTotalSupplyByPartitionOnIncrementRedeemTotalByPartition_r4(q,delta0);\n      redeemTotalByPartition[q].n += n;\n  }\n  function updateTotalBurnOnInsertRedeemByPartition_r14(address p,uint q,uint n) private    {\n      int delta0 = int(n);\n      updateBalanceOfByPartitionOnIncrementTotalBurn_r16(p,q,delta0);\n      totalBurn[p][q].n += n;\n  }\n  function updateAllBurnOnInsertRedeemByPartition_r10(uint n) private    {\n      int delta0 = int(n);\n      updateTotalSupplyOnIncrementAllBurn_r7(delta0);\n      allBurn.n += n;\n  }\n  function updateTotalOutOnInsertTransferByPartition_r6(address p,uint q,uint n) private    {\n      int delta0 = int(n);\n      updateBalanceOfByPartitionOnIncrementTotalOut_r16(p,q,delta0);\n      totalOut[p][q].n += n;\n  }\n  function updateTransferByPartitionOnInsertRecv_transferByPartition_r17(address r,uint q,uint n) private   returns (bool) {\n      address s = msg.sender;\n      uint m = balanceOfByPartition[s][q].n;\n      if(n<=m) {\n        updateTotalOutOnInsertTransferByPartition_r6(s,q,n);\n        updateTotalInOnInsertTransferByPartition_r15(r,q,n);\n        emit TransferByPartition(s,r,q,n);\n        return true;\n      }\n      return false;\n  }\n  function updateBalanceOfByPartitionOnIncrementTotalOut_r16(address p,uint q,int o) private    {\n      int _delta = int(-o);\n      uint newValue = updateuintByint(balanceOfByPartition[p][q].n,_delta);\n      balanceOfByPartition[p][q].n = newValue;\n  }\n  function updateOwnerOnInsertConstructor_r11() private    {\n      address s = msg.sender;\n      owner = OwnerTuple(s,true);\n  }\n  function updateBalanceOfByPartitionOnIncrementTotalMint_r16(address p,uint q,int n) private    {\n      int _delta = int(n);\n      uint newValue = updateuintByint(balanceOfByPartition[p][q].n,_delta);\n      balanceOfByPartition[p][q].n = newValue;\n  }\n  function updateTotalSupplyByPartitionOnIncrementIssueTotalByPartition_r4(uint q,int i) private    {\n      int _delta = int(i);\n      uint newValue = updateuintByint(totalSupplyByPartition[q].n,_delta);\n      totalSupplyByPartition[q].n = newValue;\n  }\n  function updateBalanceOfByPartitionOnIncrementTotalBurn_r16(address p,uint q,int m) private    {\n      int _delta = int(-m);\n      uint newValue = updateuintByint(balanceOfByPartition[p][q].n,_delta);\n      balanceOfByPartition[p][q].n = newValue;\n  }\n  function updateuintByint(uint x,int delta) private   returns (uint) {\n      int convertedX = int(x);\n      int value = convertedX+delta;\n      uint convertedValue = uint(value);\n      return convertedValue;\n  }\n  function updateBalanceOfByPartitionOnIncrementTotalIn_r16(address p,uint q,int i) private    {\n      int _delta = int(i);\n      uint newValue = updateuintByint(balanceOfByPartition[p][q].n,_delta);\n      balanceOfByPartition[p][q].n = newValue;\n  }\n  function updateAllMintOnInsertIssueByPartition_r0(uint n) private    {\n      int delta0 = int(n);\n      updateTotalSupplyOnIncrementAllMint_r7(delta0);\n      allMint.n += n;\n  }\n}",
  "sourcePath": "/home/lan/gasOpt/declarative-smart-contracts/solidity/full/tokenPartition.sol",
  "compiler": {
    "name": "solc",
    "version": "0.8.12+commit.f00d7308.Emscripten.clang"
  },
  "schemaVersion": "3.4.14",
  "updatedAt": "2023-09-19T03:58:20.456Z",
  "devdoc": {
    "kind": "dev",
    "methods": {},
    "version": 1
  },
  "userdoc": {
    "kind": "user",
    "methods": {},
    "version": 1
  }
}