{
  "contractName": "VestingWallet",
  "abi": [
    {
      "inputs": [
        {
          "internalType": "uint256",
          "name": "s",
          "type": "uint256"
        },
        {
          "internalType": "uint256",
          "name": "d",
          "type": "uint256"
        },
        {
          "internalType": "address",
          "name": "b",
          "type": "address"
        }
      ],
      "stateMutability": "nonpayable",
      "type": "constructor"
    },
    {
      "anonymous": false,
      "inputs": [
        {
          "indexed": false,
          "internalType": "uint256",
          "name": "n",
          "type": "uint256"
        }
      ],
      "name": "Release",
      "type": "event"
    },
    {
      "inputs": [],
      "name": "release",
      "outputs": [],
      "stateMutability": "nonpayable",
      "type": "function"
    },
    {
      "inputs": [],
      "name": "getReleased",
      "outputs": [
        {
          "internalType": "uint256",
          "name": "",
          "type": "uint256"
        }
      ],
      "stateMutability": "view",
      "type": "function"
    }
  ],
  "bytecode": "0x608060405234801561001057600080fd5b5060405161096838038061096883398181016040528101906100329190610248565b6100418261006760201b60201c565b610050836100b160201b60201c565b61005f8161011260201b60201c565b505050610320565b60405180604001604052808281526020016001151581525060036000820151816000015560208201518160010160006101000a81548160ff02191690831515021790555090505050565b6000429050600081836100c491906102ca565b905060405180604001604052808281526020016001151581525060056000820151816000015560208201518160010160006101000a81548160ff021916908315150217905550905050505050565b60405180604001604052808273ffffffffffffffffffffffffffffffffffffffff16815260200160011515815250600260008201518160000160006101000a81548173ffffffffffffffffffffffffffffffffffffffff021916908373ffffffffffffffffffffffffffffffffffffffff16021790555060208201518160000160146101000a81548160ff02191690831515021790555090505050565b600080fd5b6000819050919050565b6101c7816101b4565b81146101d257600080fd5b50565b6000815190506101e4816101be565b92915050565b600073ffffffffffffffffffffffffffffffffffffffff82169050919050565b6000610215826101ea565b9050919050565b6102258161020a565b811461023057600080fd5b50565b6000815190506102428161021c565b92915050565b600080600060608486031215610261576102606101af565b5b600061026f868287016101d5565b9350506020610280868287016101d5565b925050604061029186828701610233565b9150509250925092565b7f4e487b7100000000000000000000000000000000000000000000000000000000600052601160045260246000fd5b60006102d5826101b4565b91506102e0836101b4565b9250827fffffffffffffffffffffffffffffffffffffffffffffffffffffffffffffffff038211156103155761031461029b565b5b828201905092915050565b6106398061032f6000396000f3fe608060405234801561001057600080fd5b50600436106100365760003560e01c806386d1a69f1461003b578063f47a6e8414610045575b600080fd5b610043610063565b005b61004d6100d7565b60405161005a91906103f8565b60405180910390f35b600061006d6100e8565b905060006100796101cf565b905060001515821515148015610093575060001515811515145b156100d3576040517f08c379a00000000000000000000000000000000000000000000000000000000081526004016100ca90610470565b60405180910390fd5b5050565b600080600080015490508091505090565b60008060036000015490506000806000015490506000479050600060056000015490506000429050848261011c91906104bf565b8510801561012957508383115b801561013f5750848261013c91906104bf565b82105b80156101555750848261015291906104bf565b81115b156101c257600084846101689190610515565b905061017381610353565b61017c816103c1565b7fcf95d1fe0feb1424b6916a8d99a225f598710466d34c5a755770a1d4d49311a0816040516101ab91906103f8565b60405180910390a1600196505050505050506101cc565b6000955050505050505b90565b60008060036000015490506000806000015490506000479050600060056000015490506000429050818111801561023157508385838361020f9190610515565b868661021b91906104bf565b6102259190610549565b61022f91906105d2565b115b80156102475750848261024491906104bf565b85105b801561025e575082848461025b91906104bf565b10155b80156102745750848261027191906104bf565b81105b80156102805750600085115b8015610297575083848461029491906104bf565b10155b80156102ad575084826102aa91906104bf565b82105b15610346576000848684846102c29190610515565b87876102ce91906104bf565b6102d89190610549565b6102e291906105d2565b6102ec9190610515565b90506102f781610353565b610300816103c1565b7fcf95d1fe0feb1424b6916a8d99a225f598710466d34c5a755770a1d4d49311a08160405161032f91906103f8565b60405180910390a160019650505050505050610350565b6000955050505050505b90565b6000600260000160009054906101000a900473ffffffffffffffffffffffffffffffffffffffff16905060008211156103bd578073ffffffffffffffffffffffffffffffffffffffff166108fc839081150290604051600060405180830381858888f19350505050505b5050565b806000800160008282546103d591906104bf565b9250508190555050565b6000819050919050565b6103f2816103df565b82525050565b600060208201905061040d60008301846103e9565b92915050565b600082825260208201905092915050565b7f52756c6520636f6e646974696f6e206661696c65640000000000000000000000600082015250565b600061045a601583610413565b915061046582610424565b602082019050919050565b600060208201905081810360008301526104898161044d565b9050919050565b7f4e487b7100000000000000000000000000000000000000000000000000000000600052601160045260246000fd5b60006104ca826103df565b91506104d5836103df565b9250827fffffffffffffffffffffffffffffffffffffffffffffffffffffffffffffffff0382111561050a57610509610490565b5b828201905092915050565b6000610520826103df565b915061052b836103df565b92508282101561053e5761053d610490565b5b828203905092915050565b6000610554826103df565b915061055f836103df565b9250817fffffffffffffffffffffffffffffffffffffffffffffffffffffffffffffffff048311821515161561059857610597610490565b5b828202905092915050565b7f4e487b7100000000000000000000000000000000000000000000000000000000600052601260045260246000fd5b60006105dd826103df565b91506105e8836103df565b9250826105f8576105f76105a3565b5b82820490509291505056fea2646970667358221220889ef1f9777e832861fff1cc0dabb47888cd7e1a8eacf502803ded188c3c10ee64736f6c634300080c0033",
  "immutableReferences": {},
  "source": "contract VestingWallet {\n  struct BeneficiaryTuple {\n    address p;\n    bool _valid;\n  }\n  struct DurationTuple {\n    uint t;\n    bool _valid;\n  }\n  struct StartTuple {\n    uint t;\n    bool _valid;\n  }\n  struct ReleasedTuple {\n    uint n;\n    bool _valid;\n  }\n  ReleasedTuple released;\n  BeneficiaryTuple beneficiary;\n  DurationTuple duration;\n  StartTuple start;\n  event Release(uint n);\n  constructor(uint s,uint d,address b) public {\n    updateDurationOnInsertConstructor_r5(d);\n    updateStartOnInsertConstructor_r1(s);\n    updateBeneficiaryOnInsertConstructor_r4(b);\n  }\n  function release() public    {\n      bool r7 = updateReleaseOnInsertRecv_release_r7();\n      bool r6 = updateReleaseOnInsertRecv_release_r6();\n      if(r7==false && r6==false) {\n        revert(\"Rule condition failed\");\n      }\n  }\n  function getReleased() public view  returns (uint) {\n      uint n = released.n;\n      return n;\n  }\n  function updateDurationOnInsertConstructor_r5(uint d) private    {\n      duration = DurationTuple(d,true);\n  }\n  function updateReleasedOnInsertRelease_r0(uint n) private    {\n      released.n += n;\n  }\n  function updateuintByint(uint x,int delta) private   returns (uint) {\n      int convertedX = int(x);\n      int value = convertedX+delta;\n      uint convertedValue = uint(value);\n      return convertedValue;\n  }\n  function updateStartOnInsertConstructor_r1(uint a) private    {\n      uint t = block.timestamp;\n      uint s = a+t;\n      start = StartTuple(s,true);\n  }\n  function updateReleaseOnInsertRecv_release_r6() private   returns (bool) {\n      uint d = duration.t;\n      uint e = released.n;\n      uint b = address(this).balance;\n      uint a = start.t;\n      uint t = block.timestamp;\n      if(t>a && ((b+e)*(t-a))/d>e && d<a+d && b+e>=b && t<a+d && d>0 && b+e>=e && a<a+d) {\n        uint n = (((b+e)*(t-a))/d)-e;\n        updateSendOnInsertRelease_r2(n);\n        updateReleasedOnInsertRelease_r0(n);\n        emit Release(n);\n        return true;\n      }\n      return false;\n  }\n  function updateSendOnInsertRelease_r2(uint n) private    {\n      address b = beneficiary.p;\n      if(n>0) {\n        payable(b).send(n);\n      }\n  }\n  function updateReleaseOnInsertRecv_release_r7() private   returns (bool) {\n      uint d = duration.t;\n      uint e = released.n;\n      uint b = address(this).balance;\n      uint a = start.t;\n      uint t = block.timestamp;\n      if(d<a+d && b>e && a<a+d && t>a+d) {\n        uint n = b-e;\n        updateSendOnInsertRelease_r2(n);\n        updateReleasedOnInsertRelease_r0(n);\n        emit Release(n);\n        return true;\n      }\n      return false;\n  }\n  function updateBeneficiaryOnInsertConstructor_r4(address b) private    {\n      beneficiary = BeneficiaryTuple(b,true);\n  }\n}",
  "sourcePath": "/home/lan/gasOpt/declarative-smart-contracts/solidity/full/vestingWallet.sol",
  "compiler": {
    "name": "solc",
    "version": "0.8.12+commit.f00d7308.Emscripten.clang"
  },
  "schemaVersion": "3.4.14",
  "updatedAt": "2023-09-19T03:58:46.367Z",
  "devdoc": {
    "kind": "dev",
    "methods": {},
    "version": 1
  },
  "userdoc": {
    "kind": "user",
    "methods": {},
    "version": 1
  }
}