{
  "contractName": "Wallet",
  "abi": [
    {
      "inputs": [],
      "stateMutability": "nonpayable",
      "type": "constructor"
    },
    {
      "anonymous": false,
      "inputs": [
        {
          "indexed": false,
          "internalType": "address",
          "name": "p",
          "type": "address"
        },
        {
          "indexed": false,
          "internalType": "int256",
          "name": "amount",
          "type": "int256"
        }
      ],
      "name": "Burn",
      "type": "event"
    },
    {
      "anonymous": false,
      "inputs": [
        {
          "indexed": false,
          "internalType": "address",
          "name": "p",
          "type": "address"
        },
        {
          "indexed": false,
          "internalType": "int256",
          "name": "amount",
          "type": "int256"
        }
      ],
      "name": "Mint",
      "type": "event"
    },
    {
      "anonymous": false,
      "inputs": [
        {
          "indexed": false,
          "internalType": "address",
          "name": "from",
          "type": "address"
        },
        {
          "indexed": false,
          "internalType": "address",
          "name": "to",
          "type": "address"
        },
        {
          "indexed": false,
          "internalType": "int256",
          "name": "amount",
          "type": "int256"
        }
      ],
      "name": "Transfer",
      "type": "event"
    },
    {
      "inputs": [
        {
          "internalType": "address",
          "name": "from",
          "type": "address"
        },
        {
          "internalType": "address",
          "name": "to",
          "type": "address"
        },
        {
          "internalType": "int256",
          "name": "amount",
          "type": "int256"
        }
      ],
      "name": "transfer",
      "outputs": [],
      "stateMutability": "nonpayable",
      "type": "function"
    },
    {
      "inputs": [],
      "name": "getTotalSupply",
      "outputs": [
        {
          "internalType": "int256",
          "name": "",
          "type": "int256"
        }
      ],
      "stateMutability": "view",
      "type": "function"
    },
    {
      "inputs": [
        {
          "internalType": "address",
          "name": "p",
          "type": "address"
        },
        {
          "internalType": "int256",
          "name": "amount",
          "type": "int256"
        }
      ],
      "name": "burn",
      "outputs": [],
      "stateMutability": "nonpayable",
      "type": "function"
    },
    {
      "inputs": [
        {
          "internalType": "address",
          "name": "p",
          "type": "address"
        }
      ],
      "name": "getBalanceOf",
      "outputs": [
        {
          "internalType": "int256",
          "name": "",
          "type": "int256"
        }
      ],
      "stateMutability": "view",
      "type": "function"
    },
    {
      "inputs": [
        {
          "internalType": "address",
          "name": "p",
          "type": "address"
        },
        {
          "internalType": "int256",
          "name": "amount",
          "type": "int256"
        }
      ],
      "name": "mint",
      "outputs": [],
      "stateMutability": "nonpayable",
      "type": "function"
    }
  ],
  "bytecode": "0x608060405234801561001057600080fd5b5061001f61002460201b60201c565b6100c6565b600033905060405180604001604052808273ffffffffffffffffffffffffffffffffffffffff16815260200160011515815250600960008201518160000160006101000a81548173ffffffffffffffffffffffffffffffffffffffff021916908373ffffffffffffffffffffffffffffffffffffffff16021790555060208201518160000160146101000a81548160ff02191690831515021790555090505050565b610c5b806100d56000396000f3fe608060405234801561001057600080fd5b50600436106100575760003560e01c806387c1b5301461005c5780639b96eece14610078578063c4e41b22146100a8578063fd8f5907146100c6578063fd9bf3aa146100e2575b600080fd5b610076600480360381019061007191906108f8565b6100fe565b005b610092600480360381019061008d9190610938565b610159565b60405161009f9190610974565b60405180910390f35b6100b06101aa565b6040516100bd9190610974565b60405180910390f35b6100e060048036038101906100db919061098f565b6101bc565b005b6100fc60048036038101906100f791906108f8565b610219565b005b600061010a8383610274565b9050600015158115151415610154576040517f08c379a000000000000000000000000000000000000000000000000000000000815260040161014b90610a3f565b60405180910390fd5b505050565b600080600260008473ffffffffffffffffffffffffffffffffffffffff1673ffffffffffffffffffffffffffffffffffffffff16815260200190815260200160002060000154905080915050919050565b60008060036000015490508091505090565b60006101c98484846103c1565b9050600015158115151415610213576040517f08c379a000000000000000000000000000000000000000000000000000000000815260040161020a90610a3f565b60405180910390fd5b50505050565b60006102258383610484565b905060001515811515141561026f576040517f08c379a000000000000000000000000000000000000000000000000000000000815260040161026690610a3f565b60405180910390fd5b505050565b600080600960000160009054906101000a900473ffffffffffffffffffffffffffffffffffffffff1690503373ffffffffffffffffffffffffffffffffffffffff168173ffffffffffffffffffffffffffffffffffffffff1614156103b5576000600260008673ffffffffffffffffffffffffffffffffffffffff1673ffffffffffffffffffffffffffffffffffffffff168152602001908152602001600020600001549050600073ffffffffffffffffffffffffffffffffffffffff168573ffffffffffffffffffffffffffffffffffffffff16141580156103575750808413155b156103b35761036584610588565b61036f85856105b5565b7f15b30117f67e76dd73831ff8975fb1c935c04403874c94ee80bcff8488f12af185856040516103a0929190610a6e565b60405180910390a16001925050506103bb565b505b60009150505b92915050565b600080600260008673ffffffffffffffffffffffffffffffffffffffff1673ffffffffffffffffffffffffffffffffffffffff1681526020019081526020016000206000015490508281121580156104195750600083135b1561047757610428848461060a565b6104328584610677565b7f8b0c34a52f9e28d78caaa7066cd047b398dae74941a208b77777420f492bd7e185858560405161046593929190610a97565b60405180910390a1600191505061047d565b60009150505b9392505050565b600080600960000160009054906101000a900473ffffffffffffffffffffffffffffffffffffffff1690503373ffffffffffffffffffffffffffffffffffffffff168173ffffffffffffffffffffffffffffffffffffffff16141561057c576000831380156105205750600073ffffffffffffffffffffffffffffffffffffffff168473ffffffffffffffffffffffffffffffffffffffff1614155b1561057b5761052f84846106e4565b61053883610739565b7f6f734b566c5e1cb976d9c7fba184b96a698a18931dd345168b16db217f8df0dd8484604051610569929190610a6e565b60405180910390a16001915050610582565b5b60009150505b92915050565b600081905061059681610767565b816000800160008282546105aa9190610afd565b925050819055505050565b6105bf8282610677565b6105ca60008261060a565b7f8b0c34a52f9e28d78caaa7066cd047b398dae74941a208b77777420f492bd7e1826000836040516105fe93929190610a97565b60405180910390a15050565b60008190506106198382610786565b81600860008573ffffffffffffffffffffffffffffffffffffffff1673ffffffffffffffffffffffffffffffffffffffff168152602001908152602001600020600001600082825461066b9190610afd565b92505081905550505050565b600081905061068683826107e3565b81600760008573ffffffffffffffffffffffffffffffffffffffff1673ffffffffffffffffffffffffffffffffffffffff16815260200190815260200160002060000160008282546106d89190610afd565b92505081905550505050565b6106ef600082610677565b6106f9828261060a565b7f8b0c34a52f9e28d78caaa7066cd047b398dae74941a208b77777420f492bd7e16000838360405161072d93929190610a97565b60405180910390a15050565b600081905061074781610840565b816005600001600082825461075c9190610afd565b925050819055505050565b806003600001600082825461077c9190610b91565b9250508190555050565b80600260008473ffffffffffffffffffffffffffffffffffffffff1673ffffffffffffffffffffffffffffffffffffffff16815260200190815260200160002060000160008282546107d89190610afd565b925050819055505050565b80600260008473ffffffffffffffffffffffffffffffffffffffff1673ffffffffffffffffffffffffffffffffffffffff16815260200190815260200160002060000160008282546108359190610b91565b925050819055505050565b80600360000160008282546108559190610afd565b9250508190555050565b600080fd5b600073ffffffffffffffffffffffffffffffffffffffff82169050919050565b600061088f82610864565b9050919050565b61089f81610884565b81146108aa57600080fd5b50565b6000813590506108bc81610896565b92915050565b6000819050919050565b6108d5816108c2565b81146108e057600080fd5b50565b6000813590506108f2816108cc565b92915050565b6000806040838503121561090f5761090e61085f565b5b600061091d858286016108ad565b925050602061092e858286016108e3565b9150509250929050565b60006020828403121561094e5761094d61085f565b5b600061095c848285016108ad565b91505092915050565b61096e816108c2565b82525050565b60006020820190506109896000830184610965565b92915050565b6000806000606084860312156109a8576109a761085f565b5b60006109b6868287016108ad565b93505060206109c7868287016108ad565b92505060406109d8868287016108e3565b9150509250925092565b600082825260208201905092915050565b7f52756c6520636f6e646974696f6e206661696c65640000000000000000000000600082015250565b6000610a296015836109e2565b9150610a34826109f3565b602082019050919050565b60006020820190508181036000830152610a5881610a1c565b9050919050565b610a6881610884565b82525050565b6000604082019050610a836000830185610a5f565b610a906020830184610965565b9392505050565b6000606082019050610aac6000830186610a5f565b610ab96020830185610a5f565b610ac66040830184610965565b949350505050565b7f4e487b7100000000000000000000000000000000000000000000000000000000600052601160045260246000fd5b6000610b08826108c2565b9150610b13836108c2565b9250817f7fffffffffffffffffffffffffffffffffffffffffffffffffffffffffffffff03831360008312151615610b4e57610b4d610ace565b5b817f8000000000000000000000000000000000000000000000000000000000000000038312600083121615610b8657610b85610ace565b5b828201905092915050565b6000610b9c826108c2565b9150610ba7836108c2565b9250827f800000000000000000000000000000000000000000000000000000000000000001821260008412151615610be257610be1610ace565b5b827f7fffffffffffffffffffffffffffffffffffffffffffffffffffffffffffffff018213600084121615610c1a57610c19610ace565b5b82820390509291505056fea2646970667358221220cc6a6b5cbcdc9db709fb93d2a10e9e87d6914d9a0846d5d8b7dc71791fcc8a8d64736f6c634300080c0033",
  "immutableReferences": {},
  "source": "contract Wallet {\n  struct AllBurnTuple {\n    int n;\n    bool _valid;\n  }\n  struct BalanceOfTuple {\n    int n;\n    bool _valid;\n  }\n  struct TotalSupplyTuple {\n    int n;\n    bool _valid;\n  }\n  struct AllMintTuple {\n    int n;\n    bool _valid;\n  }\n  struct TotalOutTuple {\n    int n;\n    bool _valid;\n  }\n  struct TotalInTuple {\n    int n;\n    bool _valid;\n  }\n  struct OwnerTuple {\n    address p;\n    bool _valid;\n  }\n  AllBurnTuple allBurn;\n  mapping(address=>BalanceOfTuple) balanceOf;\n  TotalSupplyTuple totalSupply;\n  AllMintTuple allMint;\n  mapping(address=>TotalOutTuple) totalOut;\n  mapping(address=>TotalInTuple) totalIn;\n  OwnerTuple owner;\n  event Transfer(address from,address to,int amount);\n  event Mint(address p,int amount);\n  event Burn(address p,int amount);\n  constructor() public {\n    updateOwnerOnInsertConstructor_r2();\n  }\n  function transfer(address from,address to,int amount) public    {\n      bool r12 = updateTransferOnInsertRecv_transfer_r12(from,to,amount);\n      if(r12==false) {\n        revert(\"Rule condition failed\");\n      }\n  }\n  function getTotalSupply() public view  returns (int) {\n      int n = totalSupply.n;\n      return n;\n  }\n  function burn(address p,int amount) public    {\n      bool r3 = updateBurnOnInsertRecv_burn_r3(p,amount);\n      if(r3==false) {\n        revert(\"Rule condition failed\");\n      }\n  }\n  function getBalanceOf(address p) public view  returns (int) {\n      int n = balanceOf[p].n;\n      return n;\n  }\n  function mint(address p,int amount) public    {\n      bool r9 = updateMintOnInsertRecv_mint_r9(p,amount);\n      if(r9==false) {\n        revert(\"Rule condition failed\");\n      }\n  }\n  function updateTotalInOnInsertTransfer_r6(address p,int n) private    {\n      int delta0 = int(n);\n      updateBalanceOfOnIncrementTotalIn_r1(p,delta0);\n      totalIn[p].n += n;\n  }\n  function updateTransferOnInsertRecv_transfer_r12(address s,address r,int n) private   returns (bool) {\n      int m = balanceOf[s].n;\n      if(m>=n && n>0) {\n        updateTotalInOnInsertTransfer_r6(r,n);\n        updateTotalOutOnInsertTransfer_r4(s,n);\n        emit Transfer(s,r,n);\n        return true;\n      }\n      return false;\n  }\n  function updateTotalOutOnInsertTransfer_r4(address p,int n) private    {\n      int delta0 = int(n);\n      updateBalanceOfOnIncrementTotalOut_r1(p,delta0);\n      totalOut[p].n += n;\n  }\n  function updateBalanceOfOnIncrementTotalIn_r1(address p,int i) private    {\n      balanceOf[p].n += i;\n  }\n  function updateuintByint(uint x,int delta) private   returns (uint) {\n      int convertedX = int(x);\n      int value = convertedX+delta;\n      uint convertedValue = uint(value);\n      return convertedValue;\n  }\n  function updateOwnerOnInsertConstructor_r2() private    {\n      address s = msg.sender;\n      owner = OwnerTuple(s,true);\n  }\n  function updateAllBurnOnInsertBurn_r7(int n) private    {\n      int delta0 = int(n);\n      updateTotalSupplyOnIncrementAllBurn_r8(delta0);\n      allBurn.n += n;\n  }\n  function updateintByint(int x,int delta) private   returns (int) {\n      int newValue = x+delta;\n      return newValue;\n  }\n  function updateBalanceOfOnIncrementTotalOut_r1(address p,int o) private    {\n      balanceOf[p].n -= o;\n  }\n  function updateAllMintOnInsertMint_r0(int n) private    {\n      int delta0 = int(n);\n      updateTotalSupplyOnIncrementAllMint_r8(delta0);\n      allMint.n += n;\n  }\n  function updateTransferOnInsertBurn_r11(address p,int n) private    {\n      updateTotalOutOnInsertTransfer_r4(p,n);\n      updateTotalInOnInsertTransfer_r6(address(0),n);\n      emit Transfer(p,address(0),n);\n  }\n  function updateTotalSupplyOnIncrementAllBurn_r8(int b) private    {\n      totalSupply.n -= b;\n  }\n  function updateTotalSupplyOnIncrementAllMint_r8(int m) private    {\n      totalSupply.n += m;\n  }\n  function updateMintOnInsertRecv_mint_r9(address p,int n) private   returns (bool) {\n      address s = owner.p;\n      if(s==msg.sender) {\n        if(n>0 && p!=address(0)) {\n          updateTransferOnInsertMint_r10(p,n);\n          updateAllMintOnInsertMint_r0(n);\n          emit Mint(p,n);\n          return true;\n        }\n      }\n      return false;\n  }\n  function updateTransferOnInsertMint_r10(address p,int n) private    {\n      updateTotalOutOnInsertTransfer_r4(address(0),n);\n      updateTotalInOnInsertTransfer_r6(p,n);\n      emit Transfer(address(0),p,n);\n  }\n  function updateBurnOnInsertRecv_burn_r3(address p,int n) private   returns (bool) {\n      address s = owner.p;\n      if(s==msg.sender) {\n        int m = balanceOf[p].n;\n        if(p!=address(0) && n<=m) {\n          updateAllBurnOnInsertBurn_r7(n);\n          updateTransferOnInsertBurn_r11(p,n);\n          emit Burn(p,n);\n          return true;\n        }\n      }\n      return false;\n  }\n}",
  "sourcePath": "/home/lan/gasOpt/declarative-smart-contracts/solidity/full/wallet.sol",
  "compiler": {
    "name": "solc",
    "version": "0.8.12+commit.f00d7308.Emscripten.clang"
  },
  "schemaVersion": "3.4.14",
  "updatedAt": "2023-09-19T03:58:39.816Z",
  "devdoc": {
    "kind": "dev",
    "methods": {},
    "version": 1
  },
  "userdoc": {
    "kind": "user",
    "methods": {},
    "version": 1
  }
}