{
  "contractName": "Wbtc",
  "abi": [
    {
      "inputs": [],
      "stateMutability": "nonpayable",
      "type": "constructor"
    },
    {
      "anonymous": false,
      "inputs": [
        {
          "indexed": false,
          "internalType": "address",
          "name": "p",
          "type": "address"
        },
        {
          "indexed": false,
          "internalType": "uint256",
          "name": "amount",
          "type": "uint256"
        }
      ],
      "name": "Burn",
      "type": "event"
    },
    {
      "anonymous": false,
      "inputs": [
        {
          "indexed": false,
          "internalType": "address",
          "name": "p",
          "type": "address"
        }
      ],
      "name": "ClaimOwnership",
      "type": "event"
    },
    {
      "anonymous": false,
      "inputs": [
        {
          "indexed": false,
          "internalType": "address",
          "name": "p",
          "type": "address"
        },
        {
          "indexed": false,
          "internalType": "address",
          "name": "s",
          "type": "address"
        },
        {
          "indexed": false,
          "internalType": "uint256",
          "name": "n",
          "type": "uint256"
        }
      ],
      "name": "DecreaseAllowance",
      "type": "event"
    },
    {
      "anonymous": false,
      "inputs": [
        {
          "indexed": false,
          "internalType": "address",
          "name": "p",
          "type": "address"
        },
        {
          "indexed": false,
          "internalType": "address",
          "name": "s",
          "type": "address"
        },
        {
          "indexed": false,
          "internalType": "uint256",
          "name": "n",
          "type": "uint256"
        }
      ],
      "name": "IncreaseAllowance",
      "type": "event"
    },
    {
      "anonymous": false,
      "inputs": [
        {
          "indexed": false,
          "internalType": "address",
          "name": "p",
          "type": "address"
        },
        {
          "indexed": false,
          "internalType": "uint256",
          "name": "amount",
          "type": "uint256"
        }
      ],
      "name": "Mint",
      "type": "event"
    },
    {
      "anonymous": false,
      "inputs": [
        {
          "indexed": false,
          "internalType": "bool",
          "name": "b",
          "type": "bool"
        }
      ],
      "name": "Paused",
      "type": "event"
    },
    {
      "anonymous": false,
      "inputs": [
        {
          "indexed": false,
          "internalType": "address",
          "name": "p",
          "type": "address"
        }
      ],
      "name": "PendingOwner",
      "type": "event"
    },
    {
      "anonymous": false,
      "inputs": [
        {
          "indexed": false,
          "internalType": "address",
          "name": "t",
          "type": "address"
        },
        {
          "indexed": false,
          "internalType": "address",
          "name": "s",
          "type": "address"
        },
        {
          "indexed": false,
          "internalType": "uint256",
          "name": "n",
          "type": "uint256"
        }
      ],
      "name": "ReclaimToken",
      "type": "event"
    },
    {
      "anonymous": false,
      "inputs": [
        {
          "indexed": false,
          "internalType": "address",
          "name": "from",
          "type": "address"
        },
        {
          "indexed": false,
          "internalType": "address",
          "name": "to",
          "type": "address"
        },
        {
          "indexed": false,
          "internalType": "uint256",
          "name": "amount",
          "type": "uint256"
        }
      ],
      "name": "Transfer",
      "type": "event"
    },
    {
      "anonymous": false,
      "inputs": [
        {
          "indexed": false,
          "internalType": "address",
          "name": "from",
          "type": "address"
        },
        {
          "indexed": false,
          "internalType": "address",
          "name": "to",
          "type": "address"
        },
        {
          "indexed": false,
          "internalType": "address",
          "name": "spender",
          "type": "address"
        },
        {
          "indexed": false,
          "internalType": "uint256",
          "name": "amount",
          "type": "uint256"
        }
      ],
      "name": "TransferFrom",
      "type": "event"
    },
    {
      "inputs": [],
      "name": "reclaimToken",
      "outputs": [],
      "stateMutability": "nonpayable",
      "type": "function"
    },
    {
      "inputs": [
        {
          "internalType": "address",
          "name": "p",
          "type": "address"
        }
      ],
      "name": "transferOwnership",
      "outputs": [],
      "stateMutability": "nonpayable",
      "type": "function"
    },
    {
      "inputs": [
        {
          "internalType": "address",
          "name": "p",
          "type": "address"
        },
        {
          "internalType": "uint256",
          "name": "n",
          "type": "uint256"
        }
      ],
      "name": "decreaseApproval",
      "outputs": [],
      "stateMutability": "nonpayable",
      "type": "function"
    },
    {
      "inputs": [],
      "name": "getTotalSupply",
      "outputs": [
        {
          "internalType": "uint256",
          "name": "",
          "type": "uint256"
        }
      ],
      "stateMutability": "view",
      "type": "function"
    },
    {
      "inputs": [
        {
          "internalType": "address",
          "name": "p",
          "type": "address"
        },
        {
          "internalType": "uint256",
          "name": "n",
          "type": "uint256"
        }
      ],
      "name": "increaseApproval",
      "outputs": [],
      "stateMutability": "nonpayable",
      "type": "function"
    },
    {
      "inputs": [
        {
          "internalType": "address",
          "name": "to",
          "type": "address"
        },
        {
          "internalType": "uint256",
          "name": "amount",
          "type": "uint256"
        }
      ],
      "name": "transfer",
      "outputs": [],
      "stateMutability": "nonpayable",
      "type": "function"
    },
    {
      "inputs": [
        {
          "internalType": "address",
          "name": "p",
          "type": "address"
        },
        {
          "internalType": "address",
          "name": "s",
          "type": "address"
        }
      ],
      "name": "getAllowance",
      "outputs": [
        {
          "internalType": "uint256",
          "name": "",
          "type": "uint256"
        }
      ],
      "stateMutability": "view",
      "type": "function"
    },
    {
      "inputs": [
        {
          "internalType": "address",
          "name": "p",
          "type": "address"
        }
      ],
      "name": "getBalanceOf",
      "outputs": [
        {
          "internalType": "uint256",
          "name": "",
          "type": "uint256"
        }
      ],
      "stateMutability": "view",
      "type": "function"
    },
    {
      "inputs": [],
      "name": "pause",
      "outputs": [],
      "stateMutability": "nonpayable",
      "type": "function"
    },
    {
      "inputs": [
        {
          "internalType": "uint256",
          "name": "amount",
          "type": "uint256"
        }
      ],
      "name": "burn",
      "outputs": [],
      "stateMutability": "nonpayable",
      "type": "function"
    },
    {
      "inputs": [
        {
          "internalType": "address",
          "name": "p",
          "type": "address"
        },
        {
          "internalType": "uint256",
          "name": "amount",
          "type": "uint256"
        }
      ],
      "name": "mint",
      "outputs": [],
      "stateMutability": "nonpayable",
      "type": "function"
    },
    {
      "inputs": [
        {
          "internalType": "address",
          "name": "s",
          "type": "address"
        },
        {
          "internalType": "uint256",
          "name": "n",
          "type": "uint256"
        }
      ],
      "name": "approve",
      "outputs": [],
      "stateMutability": "nonpayable",
      "type": "function"
    },
    {
      "inputs": [
        {
          "internalType": "address",
          "name": "from",
          "type": "address"
        },
        {
          "internalType": "address",
          "name": "to",
          "type": "address"
        },
        {
          "internalType": "uint256",
          "name": "amount",
          "type": "uint256"
        }
      ],
      "name": "transferFrom",
      "outputs": [],
      "stateMutability": "nonpayable",
      "type": "function"
    },
    {
      "inputs": [],
      "name": "claimOwnership",
      "outputs": [],
      "stateMutability": "nonpayable",
      "type": "function"
    },
    {
      "inputs": [],
      "name": "unpause",
      "outputs": [],
      "stateMutability": "nonpayable",
      "type": "function"
    }
  ],
  "bytecode": "0x60806040523480156200001157600080fd5b50620000226200004860201b60201c565b620000326200009260201b60201c565b620000426200013460201b60201c565b62000136565b6040518060400160405280600081526020016001151581525060076000820151816000015560208201518160010160006101000a81548160ff021916908315150217905550905050565b600033905060405180604001604052808273ffffffffffffffffffffffffffffffffffffffff16815260200160011515815250600360008201518160000160006101000a81548173ffffffffffffffffffffffffffffffffffffffff021916908373ffffffffffffffffffffffffffffffffffffffff16021790555060208201518160000160146101000a81548160ff02191690831515021790555090505050565b565b61259e80620001466000396000f3fe608060405234801561001057600080fd5b50600436106100f55760003560e01c80636618846311610097578063c4e41b2211610066578063c4e41b2214610220578063d73dd6231461023e578063f2fde38b1461025a578063fff2813714610276576100f5565b806366188463146101ae5780638456cb59146101ca5780639b96eece146101d4578063a9059cbb14610204576100f5565b80633f4ba83a116100d35780633f4ba83a1461016257806340c10f191461016c57806342966c68146101885780634e71e0c8146101a4576100f5565b8063095ea7b3146100fa5780630af4187d1461011657806323b872dd14610146575b600080fd5b610114600480360381019061010f91906120ef565b610280565b005b610130600480360381019061012b919061212f565b6102db565b60405161013d919061217e565b60405180910390f35b610160600480360381019061015b9190612199565b61036a565b005b61016a6103c7565b005b610186600480360381019061018191906120ef565b61041e565b005b6101a2600480360381019061019d91906121ec565b610479565b005b6101ac6104d2565b005b6101c860048036038101906101c391906120ef565b610529565b005b6101d2610584565b005b6101ee60048036038101906101e99190612219565b6105db565b6040516101fb919061217e565b60405180910390f35b61021e600480360381019061021991906120ef565b61062c565b005b610228610687565b604051610235919061217e565b60405180910390f35b610258600480360381019061025391906120ef565b610699565b005b610274600480360381019061026f9190612219565b6106f4565b005b61027e61074d565b005b600061028c83836107a4565b90506000151581151514156102d6576040517f08c379a00000000000000000000000000000000000000000000000000000000081526004016102cd906122a3565b60405180910390fd5b505050565b600080601060008573ffffffffffffffffffffffffffffffffffffffff1673ffffffffffffffffffffffffffffffffffffffff16815260200190815260200160002060008473ffffffffffffffffffffffffffffffffffffffff1673ffffffffffffffffffffffffffffffffffffffff1681526020019081526020016000206000015490508091505092915050565b6000610377848484610891565b90506000151581151514156103c1576040517f08c379a00000000000000000000000000000000000000000000000000000000081526004016103b8906122a3565b60405180910390fd5b50505050565b60006103d1610a05565b905060001515811515141561041b576040517f08c379a0000000000000000000000000000000000000000000000000000000008152600401610412906122a3565b60405180910390fd5b50565b600061042a8383610b30565b9050600015158115151415610474576040517f08c379a000000000000000000000000000000000000000000000000000000000815260040161046b906122a3565b60405180910390fd5b505050565b600061048482610c26565b90506000151581151514156104ce576040517f08c379a00000000000000000000000000000000000000000000000000000000081526004016104c5906122a3565b60405180910390fd5b5050565b60006104dc610cdd565b9050600015158115151415610526576040517f08c379a000000000000000000000000000000000000000000000000000000000815260040161051d906122a3565b60405180910390fd5b50565b60006105358383610d97565b905060001515811515141561057f576040517f08c379a0000000000000000000000000000000000000000000000000000000008152600401610576906122a3565b60405180910390fd5b505050565b600061058e610e86565b90506000151581151514156105d8576040517f08c379a00000000000000000000000000000000000000000000000000000000081526004016105cf906122a3565b60405180910390fd5b50565b600080600d60008473ffffffffffffffffffffffffffffffffffffffff1673ffffffffffffffffffffffffffffffffffffffff16815260200190815260200160002060000154905080915050919050565b60006106388383610fb1565b9050600015158115151415610682576040517f08c379a0000000000000000000000000000000000000000000000000000000008152600401610679906122a3565b60405180910390fd5b505050565b60008060076000015490508091505090565b60006106a5838361108d565b90506000151581151514156106ef576040517f08c379a00000000000000000000000000000000000000000000000000000000081526004016106e6906122a3565b60405180910390fd5b505050565b60006106ff826110e4565b9050600015158115151415610749576040517f08c379a0000000000000000000000000000000000000000000000000000000008152600401610740906122a3565b60405180910390fd5b5050565b600061075761125e565b90506000151581151514156107a1576040517f08c379a0000000000000000000000000000000000000000000000000000000008152600401610798906122a3565b60405180910390fd5b50565b6000803390506000601060008373ffffffffffffffffffffffffffffffffffffffff1673ffffffffffffffffffffffffffffffffffffffff16815260200190815260200160002060008673ffffffffffffffffffffffffffffffffffffffff1673ffffffffffffffffffffffffffffffffffffffff1681526020019081526020016000206000015490506000818561083c91906122f2565b905061084983878361136e565b7f01722f0e92ffd761d4a842cffdd36fe3adb6091e41732a4e714250176b7d8d2283878360405161087c93929190612335565b60405180910390a16001935050505092915050565b600080339050601160000160009054906101000a900460ff1615156000151514156109f8576000600d60008773ffffffffffffffffffffffffffffffffffffffff1673ffffffffffffffffffffffffffffffffffffffff1681526020019081526020016000206000015490506000601060008873ffffffffffffffffffffffffffffffffffffffff1673ffffffffffffffffffffffffffffffffffffffff16815260200190815260200160002060008473ffffffffffffffffffffffffffffffffffffffff1673ffffffffffffffffffffffffffffffffffffffff1681526020019081526020016000206000015490508482101580156109915750848110155b156109f5576109a187848761141a565b6109ac8787876114c6565b7f5f7542858008eeb041631f30e6109ae94b83a58e9a58261dd2c42c508850f939878785886040516109e1949392919061236c565b60405180910390a1600193505050506109fe565b50505b60009150505b9392505050565b6000601160000160009054906101000a900460ff161515600115151415610b28576000600360000160009054906101000a900473ffffffffffffffffffffffffffffffffffffffff1690503373ffffffffffffffffffffffffffffffffffffffff168173ffffffffffffffffffffffffffffffffffffffff161415610b2657604051806040016040528060001515815260200160011515815250601160008201518160000160006101000a81548160ff02191690831515021790555060208201518160000160016101000a81548160ff0219169083151502179055509050507f0e2fb031ee032dc02d8011dc50b816eb450cf856abd8261680dac74f72165bd26000604051610b1491906123cc565b60405180910390a16001915050610b2d565b505b600090505b90565b600080600360000160009054906101000a900473ffffffffffffffffffffffffffffffffffffffff1690503373ffffffffffffffffffffffffffffffffffffffff168173ffffffffffffffffffffffffffffffffffffffff161415610c1a57600073ffffffffffffffffffffffffffffffffffffffff168473ffffffffffffffffffffffffffffffffffffffff1614610c1957610bcc8361151a565b610bd68484611548565b7f0f6798a560793a54c3bcfe86a93cde1e73087d944c0ea20544137d41213968858484604051610c079291906123e7565b60405180910390a16001915050610c20565b5b60009150505b92915050565b6000803390506000600d60008373ffffffffffffffffffffffffffffffffffffffff1673ffffffffffffffffffffffffffffffffffffffff168152602001908152602001600020600001549050808411610cd157610c8482856115b5565b610c8d84611622565b7fcc16f5dbb4873280815c1ee09dbd06736cffcc184412cf7a71a0fdb75d397ca58285604051610cbe9291906123e7565b60405180910390a1600192505050610cd8565b6000925050505b919050565b600080600460000160009054906101000a900473ffffffffffffffffffffffffffffffffffffffff1690503373ffffffffffffffffffffffffffffffffffffffff168173ffffffffffffffffffffffffffffffffffffffff161415610d8e57610d4581611650565b610d4d6116ed565b7f85a8c8100c1d48466310240af79644f50cdae7d09cb4820d60dfc5b2462f0fd081604051610d7c9190612410565b60405180910390a16001915050610d94565b60009150505b90565b6000803390506000601060008373ffffffffffffffffffffffffffffffffffffffff1673ffffffffffffffffffffffffffffffffffffffff16815260200190815260200160002060008673ffffffffffffffffffffffffffffffffffffffff1673ffffffffffffffffffffffffffffffffffffffff168152602001908152602001600020600001549050838110610e7957610e338286866117c2565b7f3fda289a93fbd447987ffc8940a1af71a1fad600cc184d06b56d4aa271393522828686604051610e6693929190612335565b60405180910390a1600192505050610e80565b6000925050505b92915050565b6000601160000160009054906101000a900460ff161515600015151415610fa9576000600360000160009054906101000a900473ffffffffffffffffffffffffffffffffffffffff1690503373ffffffffffffffffffffffffffffffffffffffff168173ffffffffffffffffffffffffffffffffffffffff161415610fa757604051806040016040528060011515815260200160011515815250601160008201518160000160006101000a81548160ff02191690831515021790555060208201518160000160016101000a81548160ff0219169083151502179055509050507f0e2fb031ee032dc02d8011dc50b816eb450cf856abd8261680dac74f72165bd26001604051610f9591906123cc565b60405180910390a16001915050610fae565b505b600090505b90565b6000601160000160009054906101000a900460ff1615156000151514156110825760003390506000600d60008373ffffffffffffffffffffffffffffffffffffffff1673ffffffffffffffffffffffffffffffffffffffff16815260200190815260200160002060000154905080841161107f5761102f858561186e565b61103982856118da565b7fddf252ad1be2c89b69c2b068fc378daa952ba7f163c4a11628f55a4df523b3ef82868660405161106c93929190612335565b60405180910390a1600192505050611087565b50505b600090505b92915050565b60008033905061109e81858561136e565b7f01722f0e92ffd761d4a842cffdd36fe3adb6091e41732a4e714250176b7d8d228185856040516110d193929190612335565b60405180910390a1600191505092915050565b600080600360000160009054906101000a900473ffffffffffffffffffffffffffffffffffffffff1690503373ffffffffffffffffffffffffffffffffffffffff168173ffffffffffffffffffffffffffffffffffffffff16141561125357600073ffffffffffffffffffffffffffffffffffffffff168373ffffffffffffffffffffffffffffffffffffffff16146112525760405180604001604052808473ffffffffffffffffffffffffffffffffffffffff16815260200160011515815250600460008201518160000160006101000a81548173ffffffffffffffffffffffffffffffffffffffff021916908373ffffffffffffffffffffffffffffffffffffffff16021790555060208201518160000160146101000a81548160ff0219169083151502179055509050507f4306745d208e8707535ce9418abeb2b0a7136ecb794c23956c829fff4fc18f89836040516112409190612410565b60405180910390a16001915050611259565b5b60009150505b919050565b600080339050600360000160009054906101000a900473ffffffffffffffffffffffffffffffffffffffff1673ffffffffffffffffffffffffffffffffffffffff168173ffffffffffffffffffffffffffffffffffffffff1614156113655760003090506000600d60008373ffffffffffffffffffffffffffffffffffffffff1673ffffffffffffffffffffffffffffffffffffffff1681526020019081526020016000206000015490506113138382611947565b61131e828483611981565b7fc016730911d66378b481a7db6a27b66ee03f202be57a4ba7f7a839b6f2f45f3b82848360405161135193929190612335565b60405180910390a16001935050505061136b565b60009150505b90565b600081905061137e8484836119d5565b81600b60008673ffffffffffffffffffffffffffffffffffffffff1673ffffffffffffffffffffffffffffffffffffffff16815260200190815260200160002060008573ffffffffffffffffffffffffffffffffffffffff1673ffffffffffffffffffffffffffffffffffffffff168152602001908152602001600020600001600082825461140d919061242b565b9250508190555050505050565b600081905061142a848483611af2565b81600c60008673ffffffffffffffffffffffffffffffffffffffff1673ffffffffffffffffffffffffffffffffffffffff16815260200190815260200160002060008573ffffffffffffffffffffffffffffffffffffffff1673ffffffffffffffffffffffffffffffffffffffff16815260200190815260200160002060000160008282546114b9919061242b565b9250508190555050505050565b6114d0828261186e565b6114da83826118da565b7fddf252ad1be2c89b69c2b068fc378daa952ba7f163c4a11628f55a4df523b3ef83838360405161150d93929190612335565b60405180910390a1505050565b600081905061152881611c18565b816009600001600082825461153d919061242b565b925050819055505050565b60008190506115578382611c3f565b81600660008573ffffffffffffffffffffffffffffffffffffffff1673ffffffffffffffffffffffffffffffffffffffff16815260200190815260200160002060000160008282546115a9919061242b565b92505081905550505050565b60008190506115c48382611ce1565b81600260008573ffffffffffffffffffffffffffffffffffffffff1673ffffffffffffffffffffffffffffffffffffffff1681526020019081526020016000206000016000828254611616919061242b565b92505081905550505050565b600081905061163081611d8c565b81600e6000016000828254611645919061242b565b925050819055505050565b60405180604001604052808273ffffffffffffffffffffffffffffffffffffffff16815260200160011515815250600360008201518160000160006101000a81548173ffffffffffffffffffffffffffffffffffffffff021916908373ffffffffffffffffffffffffffffffffffffffff16021790555060208201518160000160146101000a81548160ff02191690831515021790555090505050565b6040518060400160405280600073ffffffffffffffffffffffffffffffffffffffff16815260200160011515815250600460008201518160000160006101000a81548173ffffffffffffffffffffffffffffffffffffffff021916908373ffffffffffffffffffffffffffffffffffffffff16021790555060208201518160000160146101000a81548160ff0219169083151502179055509050507f4306745d208e8707535ce9418abeb2b0a7136ecb794c23956c829fff4fc18f8960006040516117b89190612410565b60405180910390a1565b60008190506117d2848483611dbc565b81600560008673ffffffffffffffffffffffffffffffffffffffff1673ffffffffffffffffffffffffffffffffffffffff16815260200190815260200160002060008573ffffffffffffffffffffffffffffffffffffffff1673ffffffffffffffffffffffffffffffffffffffff1681526020019081526020016000206000016000828254611861919061242b565b9250508190555050505050565b600081905061187d8382611ee2565b816000808573ffffffffffffffffffffffffffffffffffffffff1673ffffffffffffffffffffffffffffffffffffffff16815260200190815260200160002060000160008282546118ce919061242b565b92505081905550505050565b60008190506118e98382611f84565b81600160008573ffffffffffffffffffffffffffffffffffffffff1673ffffffffffffffffffffffffffffffffffffffff168152602001908152602001600020600001600082825461193b919061242b565b92505081905550505050565b8173ffffffffffffffffffffffffffffffffffffffff166108fc829081150290604051600060405180830381858888f19350505050505050565b61198b828261186e565b61199583826118da565b7fddf252ad1be2c89b69c2b068fc378daa952ba7f163c4a11628f55a4df523b3ef8383836040516119c893929190612335565b60405180910390a1505050565b60008190506000611a65601060008773ffffffffffffffffffffffffffffffffffffffff1673ffffffffffffffffffffffffffffffffffffffff16815260200190815260200160002060008673ffffffffffffffffffffffffffffffffffffffff1673ffffffffffffffffffffffffffffffffffffffff168152602001908152602001600020600001548361202f565b905080601060008773ffffffffffffffffffffffffffffffffffffffff1673ffffffffffffffffffffffffffffffffffffffff16815260200190815260200160002060008673ffffffffffffffffffffffffffffffffffffffff1673ffffffffffffffffffffffffffffffffffffffff168152602001908152602001600020600001819055505050505050565b600081611afe9061248b565b90506000611b8b601060008773ffffffffffffffffffffffffffffffffffffffff1673ffffffffffffffffffffffffffffffffffffffff16815260200190815260200160002060008673ffffffffffffffffffffffffffffffffffffffff1673ffffffffffffffffffffffffffffffffffffffff168152602001908152602001600020600001548361202f565b905080601060008773ffffffffffffffffffffffffffffffffffffffff1673ffffffffffffffffffffffffffffffffffffffff16815260200190815260200160002060008673ffffffffffffffffffffffffffffffffffffffff1673ffffffffffffffffffffffffffffffffffffffff168152602001908152602001600020600001819055505050505050565b60008190506000611c2e6007600001548361202f565b905080600760000181905550505050565b60008190506000611c92600d60008673ffffffffffffffffffffffffffffffffffffffff1673ffffffffffffffffffffffffffffffffffffffff168152602001908152602001600020600001548361202f565b905080600d60008673ffffffffffffffffffffffffffffffffffffffff1673ffffffffffffffffffffffffffffffffffffffff1681526020019081526020016000206000018190555050505050565b600081611ced9061248b565b90506000611d3d600d60008673ffffffffffffffffffffffffffffffffffffffff1673ffffffffffffffffffffffffffffffffffffffff168152602001908152602001600020600001548361202f565b905080600d60008673ffffffffffffffffffffffffffffffffffffffff1673ffffffffffffffffffffffffffffffffffffffff1681526020019081526020016000206000018190555050505050565b600081611d989061248b565b90506000611dab6007600001548361202f565b905080600760000181905550505050565b600081611dc89061248b565b90506000611e55601060008773ffffffffffffffffffffffffffffffffffffffff1673ffffffffffffffffffffffffffffffffffffffff16815260200190815260200160002060008673ffffffffffffffffffffffffffffffffffffffff1673ffffffffffffffffffffffffffffffffffffffff168152602001908152602001600020600001548361202f565b905080601060008773ffffffffffffffffffffffffffffffffffffffff1673ffffffffffffffffffffffffffffffffffffffff16815260200190815260200160002060008673ffffffffffffffffffffffffffffffffffffffff1673ffffffffffffffffffffffffffffffffffffffff168152602001908152602001600020600001819055505050505050565b60008190506000611f35600d60008673ffffffffffffffffffffffffffffffffffffffff1673ffffffffffffffffffffffffffffffffffffffff168152602001908152602001600020600001548361202f565b905080600d60008673ffffffffffffffffffffffffffffffffffffffff1673ffffffffffffffffffffffffffffffffffffffff1681526020019081526020016000206000018190555050505050565b600081611f909061248b565b90506000611fe0600d60008673ffffffffffffffffffffffffffffffffffffffff1673ffffffffffffffffffffffffffffffffffffffff168152602001908152602001600020600001548361202f565b905080600d60008673ffffffffffffffffffffffffffffffffffffffff1673ffffffffffffffffffffffffffffffffffffffff1681526020019081526020016000206000018190555050505050565b6000808390506000838261204391906124d4565b9050600081905080935050505092915050565b600080fd5b600073ffffffffffffffffffffffffffffffffffffffff82169050919050565b60006120868261205b565b9050919050565b6120968161207b565b81146120a157600080fd5b50565b6000813590506120b38161208d565b92915050565b6000819050919050565b6120cc816120b9565b81146120d757600080fd5b50565b6000813590506120e9816120c3565b92915050565b6000806040838503121561210657612105612056565b5b6000612114858286016120a4565b9250506020612125858286016120da565b9150509250929050565b6000806040838503121561214657612145612056565b5b6000612154858286016120a4565b9250506020612165858286016120a4565b9150509250929050565b612178816120b9565b82525050565b6000602082019050612193600083018461216f565b92915050565b6000806000606084860312156121b2576121b1612056565b5b60006121c0868287016120a4565b93505060206121d1868287016120a4565b92505060406121e2868287016120da565b9150509250925092565b60006020828403121561220257612201612056565b5b6000612210848285016120da565b91505092915050565b60006020828403121561222f5761222e612056565b5b600061223d848285016120a4565b91505092915050565b600082825260208201905092915050565b7f52756c6520636f6e646974696f6e206661696c65640000000000000000000000600082015250565b600061228d601583612246565b915061229882612257565b602082019050919050565b600060208201905081810360008301526122bc81612280565b9050919050565b7f4e487b7100000000000000000000000000000000000000000000000000000000600052601160045260246000fd5b60006122fd826120b9565b9150612308836120b9565b92508282101561231b5761231a6122c3565b5b828203905092915050565b61232f8161207b565b82525050565b600060608201905061234a6000830186612326565b6123576020830185612326565b612364604083018461216f565b949350505050565b60006080820190506123816000830187612326565b61238e6020830186612326565b61239b6040830185612326565b6123a8606083018461216f565b95945050505050565b60008115159050919050565b6123c6816123b1565b82525050565b60006020820190506123e160008301846123bd565b92915050565b60006040820190506123fc6000830185612326565b612409602083018461216f565b9392505050565b60006020820190506124256000830184612326565b92915050565b6000612436826120b9565b9150612441836120b9565b9250827fffffffffffffffffffffffffffffffffffffffffffffffffffffffffffffffff03821115612476576124756122c3565b5b828201905092915050565b6000819050919050565b600061249682612481565b91507f80000000000000000000000000000000000000000000000000000000000000008214156124c9576124c86122c3565b5b816000039050919050565b60006124df82612481565b91506124ea83612481565b9250817f7fffffffffffffffffffffffffffffffffffffffffffffffffffffffffffffff03831360008312151615612525576125246122c3565b5b817f800000000000000000000000000000000000000000000000000000000000000003831260008312161561255d5761255c6122c3565b5b82820190509291505056fea2646970667358221220b0c865aafcd30e82651eb618e58358eccb5a334a6f98cdcfd37f82edce25210264736f6c634300080c0033",
  "immutableReferences": {},
  "source": "contract Wbtc {\n  struct TotalInTuple {\n    uint n;\n    bool _valid;\n  }\n  struct TotalOutTuple {\n    uint n;\n    bool _valid;\n  }\n  struct OwnerTuple {\n    address p;\n    bool _valid;\n  }\n  struct PendingOwnerTuple {\n    address p;\n    bool _valid;\n  }\n  struct TotalMintTuple {\n    uint n;\n    bool _valid;\n  }\n  struct TotalSupplyTuple {\n    uint n;\n    bool _valid;\n  }\n  struct AllMintTuple {\n    uint n;\n    bool _valid;\n  }\n  struct AllowanceTotalTuple {\n    uint m;\n    bool _valid;\n  }\n  struct SpentTotalTuple {\n    uint m;\n    bool _valid;\n  }\n  struct TotalBurnTuple {\n    uint n;\n    bool _valid;\n  }\n  struct DecreaseAllowanceTotalTuple {\n    uint m;\n    bool _valid;\n  }\n  struct BalanceOfTuple {\n    uint n;\n    bool _valid;\n  }\n  struct AllBurnTuple {\n    uint n;\n    bool _valid;\n  }\n  struct AllowanceTuple {\n    uint n;\n    bool _valid;\n  }\n  struct PausedTuple {\n    bool b;\n    bool _valid;\n  }\n  mapping(address=>TotalInTuple) totalIn;\n  mapping(address=>TotalOutTuple) totalOut;\n  mapping(address=>TotalBurnTuple) totalBurn;\n  OwnerTuple owner;\n  PendingOwnerTuple pendingOwner;\n  mapping(address=>mapping(address=>DecreaseAllowanceTotalTuple)) decreaseAllowanceTotal;\n  mapping(address=>TotalMintTuple) totalMint;\n  TotalSupplyTuple totalSupply;\n  AllMintTuple allMint;\n  mapping(address=>mapping(address=>AllowanceTotalTuple)) allowanceTotal;\n  mapping(address=>mapping(address=>SpentTotalTuple)) spentTotal;\n  mapping(address=>BalanceOfTuple) balanceOf;\n  AllBurnTuple allBurn;\n  mapping(address=>mapping(address=>AllowanceTuple)) allowance;\n  PausedTuple paused;\n  event Burn(address p,uint amount);\n  event ReclaimToken(address t,address s,uint n);\n  event Mint(address p,uint amount);\n  event PendingOwner(address p);\n  event ClaimOwnership(address p);\n  event DecreaseAllowance(address p,address s,uint n);\n  event IncreaseAllowance(address p,address s,uint n);\n  event Transfer(address from,address to,uint amount);\n  event Paused(bool b);\n  event TransferFrom(address from,address to,address spender,uint amount);\n  constructor() public {\n    updateTotalSupplyOnInsertConstructor_r2();\n    updateOwnerOnInsertConstructor_r8();\n    updateTotalBalancesOnInsertConstructor_r33();\n  }\n  function reclaimToken() public    {\n      bool r23 = updateReclaimTokenOnInsertRecv_reclaimToken_r23();\n      if(r23==false) {\n        revert(\"Rule condition failed\");\n      }\n  }\n  function transferOwnership(address p) public    {\n      bool r22 = updatePendingOwnerOnInsertRecv_transferOwnership_r22(p);\n      if(r22==false) {\n        revert(\"Rule condition failed\");\n      }\n  }\n  function decreaseApproval(address p,uint n) public    {\n      bool r20 = updateDecreaseAllowanceOnInsertRecv_decreaseApproval_r20(p,n);\n      if(r20==false) {\n        revert(\"Rule condition failed\");\n      }\n  }\n  function getTotalSupply() public view  returns (uint) {\n      uint n = totalSupply.n;\n      return n;\n  }\n  function increaseApproval(address p,uint n) public    {\n      bool r16 = updateIncreaseAllowanceOnInsertRecv_increaseApproval_r16(p,n);\n      if(r16==false) {\n        revert(\"Rule condition failed\");\n      }\n  }\n  function transfer(address to,uint amount) public    {\n      bool r3 = updateTransferOnInsertRecv_transfer_r3(to,amount);\n      if(r3==false) {\n        revert(\"Rule condition failed\");\n      }\n  }\n  function getAllowance(address p,address s) public view  returns (uint) {\n      uint n = allowance[p][s].n;\n      return n;\n  }\n  function getBalanceOf(address p) public view  returns (uint) {\n      uint n = balanceOf[p].n;\n      return n;\n  }\n  function pause() public    {\n      bool r9 = updatePausedOnInsertRecv_pause_r9();\n      if(r9==false) {\n        revert(\"Rule condition failed\");\n      }\n  }\n  function burn(uint amount) public    {\n      bool r14 = updateBurnOnInsertRecv_burn_r14(amount);\n      if(r14==false) {\n        revert(\"Rule condition failed\");\n      }\n  }\n  function mint(address p,uint amount) public    {\n      bool r10 = updateMintOnInsertRecv_mint_r10(p,amount);\n      if(r10==false) {\n        revert(\"Rule condition failed\");\n      }\n  }\n  function approve(address s,uint n) public    {\n      bool r31 = updateIncreaseAllowanceOnInsertRecv_approve_r31(s,n);\n      if(r31==false) {\n        revert(\"Rule condition failed\");\n      }\n  }\n  function transferFrom(address from,address to,uint amount) public    {\n      bool r13 = updateTransferFromOnInsertRecv_transferFrom_r13(from,to,amount);\n      if(r13==false) {\n        revert(\"Rule condition failed\");\n      }\n  }\n  function claimOwnership() public    {\n      bool r12 = updateClaimOwnershipOnInsertRecv_claimOwnership_r12();\n      if(r12==false) {\n        revert(\"Rule condition failed\");\n      }\n  }\n  function unpause() public    {\n      bool r26 = updatePausedOnInsertRecv_unpause_r26();\n      if(r26==false) {\n        revert(\"Rule condition failed\");\n      }\n  }\n  function updateMintOnInsertRecv_mint_r10(address p,uint n) private   returns (bool) {\n      address s = owner.p;\n      if(s==msg.sender) {\n        if(p!=address(0)) {\n          updateAllMintOnInsertMint_r15(n);\n          updateTotalMintOnInsertMint_r18(p,n);\n          emit Mint(p,n);\n          return true;\n        }\n      }\n      return false;\n  }\n  function updateOwnerOnInsertConstructor_r8() private    {\n      address s = msg.sender;\n      owner = OwnerTuple(s,true);\n  }\n  function updateTotalSupplyOnInsertConstructor_r2() private    {\n      totalSupply = TotalSupplyTuple(0,true);\n  }\n  function updateSendOnInsertReclaimToken_r21(address s,uint n) private    {\n      payable(s).send(n);\n  }\n  function updateTotalOutOnInsertTransfer_r24(address p,uint n) private    {\n      int delta0 = int(n);\n      updateBalanceOfOnIncrementTotalOut_r6(p,delta0);\n      totalOut[p].n += n;\n  }\n  function updateTransferOnInsertReclaimToken_r4(address t,address s,uint n) private    {\n      updateTotalInOnInsertTransfer_r11(s,n);\n      updateTotalOutOnInsertTransfer_r24(t,n);\n      emit Transfer(t,s,n);\n  }\n  function updateTransferFromOnInsertRecv_transferFrom_r13(address o,address r,uint n) private   returns (bool) {\n      address s = msg.sender;\n      if(false==paused.b) {\n        uint m = balanceOf[o].n;\n        uint k = allowance[o][s].n;\n        if(m>=n && k>=n) {\n          updateSpentTotalOnInsertTransferFrom_r27(o,s,n);\n          updateTransferOnInsertTransferFrom_r0(o,r,n);\n          emit TransferFrom(o,r,s,n);\n          return true;\n        }\n      }\n      return false;\n  }\n  function updateTransferOnInsertRecv_transfer_r3(address r,uint n) private   returns (bool) {\n      if(false==paused.b) {\n        address s = msg.sender;\n        uint m = balanceOf[s].n;\n        if(n<=m) {\n          updateTotalInOnInsertTransfer_r11(r,n);\n          updateTotalOutOnInsertTransfer_r24(s,n);\n          emit Transfer(s,r,n);\n          return true;\n        }\n      }\n      return false;\n  }\n  function updateTotalBurnOnInsertBurn_r17(address p,uint n) private    {\n      int delta0 = int(n);\n      updateBalanceOfOnIncrementTotalBurn_r6(p,delta0);\n      totalBurn[p].n += n;\n  }\n  function updateDecreaseAllowanceOnInsertRecv_decreaseApproval_r20(address s,uint n) private   returns (bool) {\n      address o = msg.sender;\n      uint m = allowance[o][s].n;\n      if(m>=n) {\n        updateDecreaseAllowanceTotalOnInsertDecreaseAllowance_r7(o,s,n);\n        emit DecreaseAllowance(o,s,n);\n        return true;\n      }\n      return false;\n  }\n  function updateTotalMintOnInsertMint_r18(address p,uint n) private    {\n      int delta0 = int(n);\n      updateBalanceOfOnIncrementTotalMint_r6(p,delta0);\n      totalMint[p].n += n;\n  }\n  function updateClaimOwnershipOnInsertRecv_claimOwnership_r12() private   returns (bool) {\n      address s = pendingOwner.p;\n      if(s==msg.sender) {\n        updateOwnerOnInsertClaimOwnership_r30(s);\n        updatePendingOwnerOnInsertClaimOwnership_r1();\n        emit ClaimOwnership(s);\n        return true;\n      }\n      return false;\n  }\n  function updateBalanceOfOnIncrementTotalOut_r6(address p,int o) private    {\n      int _delta = int(-o);\n      uint newValue = updateuintByint(balanceOf[p].n,_delta);\n      balanceOf[p].n = newValue;\n  }\n  function updateTotalSupplyOnIncrementAllBurn_r19(int b) private    {\n      int _delta = int(-b);\n      uint newValue = updateuintByint(totalSupply.n,_delta);\n      totalSupply.n = newValue;\n  }\n  function updateTotalInOnInsertTransfer_r11(address p,uint n) private    {\n      int delta0 = int(n);\n      updateBalanceOfOnIncrementTotalIn_r6(p,delta0);\n      totalIn[p].n += n;\n  }\n  function updateIncreaseAllowanceOnInsertRecv_approve_r31(address s,uint n) private   returns (bool) {\n      address o = msg.sender;\n      uint m = allowance[o][s].n;\n      uint d = n-m;\n      updateAllowanceTotalOnInsertIncreaseAllowance_r32(o,s,d);\n      emit IncreaseAllowance(o,s,d);\n      return true;\n      return false;\n  }\n  function updatePendingOwnerOnInsertRecv_transferOwnership_r22(address p) private   returns (bool) {\n      address s = owner.p;\n      if(s==msg.sender) {\n        if(p!=address(0)) {\n          pendingOwner = PendingOwnerTuple(p,true);\n          emit PendingOwner(p);\n          return true;\n        }\n      }\n      return false;\n  }\n  function updateOwnerOnInsertClaimOwnership_r30(address s) private    {\n      owner = OwnerTuple(s,true);\n  }\n  function updatePausedOnInsertRecv_pause_r9() private   returns (bool) {\n      if(false==paused.b) {\n        address s = owner.p;\n        if(s==msg.sender) {\n          paused = PausedTuple(true,true);\n          emit Paused(true);\n          return true;\n        }\n      }\n      return false;\n  }\n  function updateAllowanceOnIncrementAllowanceTotal_r28(address o,address s,int m) private    {\n      int _delta = int(m);\n      uint newValue = updateuintByint(allowance[o][s].n,_delta);\n      allowance[o][s].n = newValue;\n  }\n  function updateAllowanceTotalOnInsertIncreaseAllowance_r32(address o,address s,uint n) private    {\n      int delta0 = int(n);\n      updateAllowanceOnIncrementAllowanceTotal_r28(o,s,delta0);\n      allowanceTotal[o][s].m += n;\n  }\n  function updateAllowanceOnIncrementSpentTotal_r28(address o,address s,int l) private    {\n      int _delta = int(-l);\n      uint newValue = updateuintByint(allowance[o][s].n,_delta);\n      allowance[o][s].n = newValue;\n  }\n  function updateDecreaseAllowanceTotalOnInsertDecreaseAllowance_r7(address o,address s,uint n) private    {\n      int delta0 = int(n);\n      updateAllowanceOnIncrementDecreaseAllowanceTotal_r28(o,s,delta0);\n      decreaseAllowanceTotal[o][s].m += n;\n  }\n  function updatePausedOnInsertRecv_unpause_r26() private   returns (bool) {\n      if(true==paused.b) {\n        address s = owner.p;\n        if(s==msg.sender) {\n          paused = PausedTuple(false,true);\n          emit Paused(false);\n          return true;\n        }\n      }\n      return false;\n  }\n  function updateBurnOnInsertRecv_burn_r14(uint n) private   returns (bool) {\n      address p = msg.sender;\n      uint m = balanceOf[p].n;\n      if(n<=m) {\n        updateTotalBurnOnInsertBurn_r17(p,n);\n        updateAllBurnOnInsertBurn_r29(n);\n        emit Burn(p,n);\n        return true;\n      }\n      return false;\n  }\n  function updateTotalBalancesOnInsertConstructor_r33() private    {\n      // Empty()\n  }\n  function updateSpentTotalOnInsertTransferFrom_r27(address o,address s,uint n) private    {\n      int delta0 = int(n);\n      updateAllowanceOnIncrementSpentTotal_r28(o,s,delta0);\n      spentTotal[o][s].m += n;\n  }\n  function updateAllowanceOnIncrementDecreaseAllowanceTotal_r28(address o,address s,int d) private    {\n      int _delta = int(-d);\n      uint newValue = updateuintByint(allowance[o][s].n,_delta);\n      allowance[o][s].n = newValue;\n  }\n  function updateTransferOnInsertTransferFrom_r0(address o,address r,uint n) private    {\n      updateTotalInOnInsertTransfer_r11(r,n);\n      updateTotalOutOnInsertTransfer_r24(o,n);\n      emit Transfer(o,r,n);\n  }\n  function updateuintByint(uint x,int delta) private   returns (uint) {\n      int convertedX = int(x);\n      int value = convertedX+delta;\n      uint convertedValue = uint(value);\n      return convertedValue;\n  }\n  function updateAllMintOnInsertMint_r15(uint n) private    {\n      int delta0 = int(n);\n      updateTotalSupplyOnIncrementAllMint_r19(delta0);\n      allMint.n += n;\n  }\n  function updateBalanceOfOnIncrementTotalBurn_r6(address p,int m) private    {\n      int _delta = int(-m);\n      uint newValue = updateuintByint(balanceOf[p].n,_delta);\n      balanceOf[p].n = newValue;\n  }\n  function updateBalanceOfOnIncrementTotalMint_r6(address p,int n) private    {\n      int _delta = int(n);\n      uint newValue = updateuintByint(balanceOf[p].n,_delta);\n      balanceOf[p].n = newValue;\n  }\n  function updateReclaimTokenOnInsertRecv_reclaimToken_r23() private   returns (bool) {\n      address s = msg.sender;\n      if(s==owner.p) {\n        address t = address(this);\n        uint n = balanceOf[t].n;\n        updateSendOnInsertReclaimToken_r21(s,n);\n        updateTransferOnInsertReclaimToken_r4(t,s,n);\n        emit ReclaimToken(t,s,n);\n        return true;\n      }\n      return false;\n  }\n  function updateAllBurnOnInsertBurn_r29(uint n) private    {\n      int delta0 = int(n);\n      updateTotalSupplyOnIncrementAllBurn_r19(delta0);\n      allBurn.n += n;\n  }\n  function updatePendingOwnerOnInsertClaimOwnership_r1() private    {\n      pendingOwner = PendingOwnerTuple(address(0),true);\n      emit PendingOwner(address(0));\n  }\n  function updateIncreaseAllowanceOnInsertRecv_increaseApproval_r16(address s,uint n) private   returns (bool) {\n      address o = msg.sender;\n      updateAllowanceTotalOnInsertIncreaseAllowance_r32(o,s,n);\n      emit IncreaseAllowance(o,s,n);\n      return true;\n      return false;\n  }\n  function updateTotalSupplyOnIncrementAllMint_r19(int m) private    {\n      int _delta = int(m);\n      uint newValue = updateuintByint(totalSupply.n,_delta);\n      totalSupply.n = newValue;\n  }\n  function updateBalanceOfOnIncrementTotalIn_r6(address p,int i) private    {\n      int _delta = int(i);\n      uint newValue = updateuintByint(balanceOf[p].n,_delta);\n      balanceOf[p].n = newValue;\n  }\n}",
  "sourcePath": "/home/lan/gasOpt/declarative-smart-contracts/solidity/full/wbtc.sol",
  "compiler": {
    "name": "solc",
    "version": "0.8.12+commit.f00d7308.Emscripten.clang"
  },
  "schemaVersion": "3.4.14",
  "updatedAt": "2023-09-19T03:58:53.546Z",
  "devdoc": {
    "kind": "dev",
    "methods": {},
    "version": 1
  },
  "userdoc": {
    "kind": "user",
    "methods": {},
    "version": 1
  }
}